{
	"data": {
		"bytecode": {
			"linkReferences": {},
			"object": "608060405234801561000f575f5ffd5b50604051612182380380612182833981810160405281019061003191906102f0565b335f73ffffffffffffffffffffffffffffffffffffffff168173ffffffffffffffffffffffffffffffffffffffff16036100a2575f6040517f1e4fbdf70000000000000000000000000000000000000000000000000000000081526004016100999190610363565b60405180910390fd5b6100b18161019e60201b60201c565b508360015f015f6101000a81548173ffffffffffffffffffffffffffffffffffffffff021916908373ffffffffffffffffffffffffffffffffffffffff1602179055508260016002018190555081600160080181905550806001600901819055506002600160030181905550426001600401819055505f6001600a015f6101000a81548160ff0219169083151502179055508373ffffffffffffffffffffffffffffffffffffffff167fa01a0f6e4e9c79d39a9015dae1a9d6b2fc1ea5f20bc39c9f8c2e42e680ab26e284848460405161018d9392919061038b565b60405180910390a2505050506103c0565b5f5f5f9054906101000a900473ffffffffffffffffffffffffffffffffffffffff169050815f5f6101000a81548173ffffffffffffffffffffffffffffffffffffffff021916908373ffffffffffffffffffffffffffffffffffffffff1602179055508173ffffffffffffffffffffffffffffffffffffffff168173ffffffffffffffffffffffffffffffffffffffff167f8be0079c531659141344cd1fd0a4f28419497f9722a3daafe3b4186f6b6457e060405160405180910390a35050565b5f5ffd5b5f73ffffffffffffffffffffffffffffffffffffffff82169050919050565b5f61028c82610263565b9050919050565b61029c81610282565b81146102a6575f5ffd5b50565b5f815190506102b781610293565b92915050565b5f819050919050565b6102cf816102bd565b81146102d9575f5ffd5b50565b5f815190506102ea816102c6565b92915050565b5f5f5f5f608085870312156103085761030761025f565b5b5f610315878288016102a9565b9450506020610326878288016102dc565b9350506040610337878288016102dc565b9250506060610348878288016102dc565b91505092959194509250565b61035d81610282565b82525050565b5f6020820190506103765f830184610354565b92915050565b610385816102bd565b82525050565b5f60608201905061039e5f83018661037c565b6103ab602083018561037c565b6103b8604083018461037c565b949350505050565b611db5806103cd5f395ff3fe608060405234801561000f575f5ffd5b50600436106100e8575f3560e01c8063ae2e933b1161008a578063c4ae316811610064578063c4ae31681461021d578063db2e21bc14610227578063f2fde38b14610231578063fd5e6dd11461024d576100e8565b8063ae2e933b146101c5578063bb57ad20146101e3578063bf5cf656146101ed576100e8565b8063447da8a6116100c6578063447da8a61461014e578063613cf4201461016a578063715018a61461019d5780638da5cb5b146101a7576100e8565b806316f0115b146100ec5780632e1a7d4d1461011457806343352d6114610130575b5f5ffd5b6100f461027d565b60405161010b9b9a99989796959493929190611405565b60405180910390f35b61012e600480360381019061012991906114dc565b61030e565b005b6101386105f6565b60405161014591906115be565b60405180910390f35b61016860048036038101906101639190611608565b610681565b005b610184600480360381019061017f9190611682565b610b22565b60405161019494939291906116ad565b60405180910390f35b6101a5610b4e565b005b6101af610b61565b6040516101bc91906116f0565b60405180910390f35b6101cd610b88565b6040516101da9190611709565b60405180910390f35b6101eb610b8e565b005b61020760048036038101906102029190611722565b610cfc565b6040516102149190611709565b60405180910390f35b610225610d83565b005b61022f610e03565b005b61024b60048036038101906102469190611682565b610fab565b005b610267600480360381019061026291906114dc565b61102f565b60405161027491906116f0565b60405180910390f35b6001805f015f9054906101000a900473ffffffffffffffffffffffffffffffffffffffff1690806001015490806002015490806003015490806004015490806005015f9054906101000a900473ffffffffffffffffffffffffffffffffffffffff169080600601549080600701549080600801549080600901549080600a015f9054906101000a900460ff1690508b565b6001600a015f9054906101000a900460ff1615610360576040517f08c379a0000000000000000000000000000000000000000000000000000000008152600401610357906117e0565b60405180910390fd5b805f81116103a3576040517f08c379a000000000000000000000000000000000000000000000000000000000815260040161039a90611848565b60405180910390fd5b5f600c5f3373ffffffffffffffffffffffffffffffffffffffff1673ffffffffffffffffffffffffffffffffffffffff1681526020019081526020015f20905082815f01541015610429576040517f08c379a0000000000000000000000000000000000000000000000000000000008152600401610420906118b0565b60405180910390fd5b8060020154421015610470576040517f08c379a000000000000000000000000000000000000000000000000000000000815260040161046790611918565b60405180910390fd5b5f6064600160030154856104849190611963565b61048e91906119d1565b90505f818561049d9190611a01565b905084835f015f8282546104b19190611a01565b9250508190555084600180015f8282546104cb9190611a01565b9250508190555081600e5f8282546104e39190611a34565b925050819055505f835f0154036104fe576104fd3361106a565b5b60015f015f9054906101000a900473ffffffffffffffffffffffffffffffffffffffff1673ffffffffffffffffffffffffffffffffffffffff1663a9059cbb33836040518363ffffffff1660e01b815260040161055c929190611a67565b6020604051808303815f875af1158015610578573d5f5f3e3d5ffd5b505050506040513d601f19601f8201168201806040525081019061059c9190611aa2565b503373ffffffffffffffffffffffffffffffffffffffff167f75e161b3e824b114fc1a33274bd7091918dd4e639cede50b78b15a4eea956a218284426040516105e793929190611acd565b60405180910390a25050505050565b6060600d80548060200260200160405190810160405280929190818152602001828054801561067757602002820191905f5260205f20905b815f9054906101000a900473ffffffffffffffffffffffffffffffffffffffff1673ffffffffffffffffffffffffffffffffffffffff168152602001906001019080831161062e575b5050505050905090565b6001600a015f9054906101000a900460ff16156106d3576040517f08c379a00000000000000000000000000000000000000000000000000000000081526004016106ca906117e0565b60405180910390fd5b825f8111610716576040517f08c379a000000000000000000000000000000000000000000000000000000000815260040161070d90611848565b60405180910390fd5b5f600c5f3373ffffffffffffffffffffffffffffffffffffffff1673ffffffffffffffffffffffffffffffffffffffff1681526020019081526020015f20905060016008015485825f015461076b9190611a34565b11156107ac576040517f08c379a00000000000000000000000000000000000000000000000000000000081526004016107a390611b4c565b60405180910390fd5b6001600901548560018001546107c29190611a34565b1115610803576040517f08c379a00000000000000000000000000000000000000000000000000000000081526004016107fa90611bb4565b60405180910390fd5b5f815f01540361086e57600d33908060018154018082558091505060019003905f5260205f20015f9091909190916101000a81548173ffffffffffffffffffffffffffffffffffffffff021916908373ffffffffffffffffffffffffffffffffffffffff1602179055505b84815f015f8282546108809190611a34565b925050819055504281600101819055505f8311156108ad5782426108a49190611a34565b81600201819055505b84600180015f8282546108c09190611a34565b925050819055505f6108e5825f01548360010154600160040154600160020154610cfc565b9050841561090b5780825f015f8282546108ff9190611a34565b925050819055506109ab565b60015f015f9054906101000a900473ffffffffffffffffffffffffffffffffffffffff1673ffffffffffffffffffffffffffffffffffffffff1663a9059cbb33836040518363ffffffff1660e01b8152600401610969929190611a67565b6020604051808303815f875af1158015610985573d5f5f3e3d5ffd5b505050506040513d601f19601f820116820180604052508101906109a99190611aa2565b505b8060016007015f8282546109bf9190611a34565b92505081905550600160060154825f01541115610a27573360016005015f6101000a81548173ffffffffffffffffffffffffffffffffffffffff021916908373ffffffffffffffffffffffffffffffffffffffff160217905550815f01546001600601819055505b60015f015f9054906101000a900473ffffffffffffffffffffffffffffffffffffffff1673ffffffffffffffffffffffffffffffffffffffff166323b872dd3330896040518463ffffffff1660e01b8152600401610a8793929190611bd2565b6020604051808303815f875af1158015610aa3573d5f5f3e3d5ffd5b505050506040513d601f19601f82011682018060405250810190610ac79190611aa2565b503373ffffffffffffffffffffffffffffffffffffffff167f3df45cb339f96ae4bdb793efcb6e22100dd0dc4fd739a4ee2033fe67ea35af96878388604051610b1293929190611c07565b60405180910390a2505050505050565b600c602052805f5260405f205f91509050805f0154908060010154908060020154908060030154905084565b610b566111ea565b610b5f5f611271565b565b5f5f5f9054906101000a900473ffffffffffffffffffffffffffffffffffffffff16905090565b600e5481565b610b966111ea565b5f600e5490505f8111610bde576040517f08c379a0000000000000000000000000000000000000000000000000000000008152600401610bd590611c86565b60405180910390fd5b5f5f90505b600d80549050811015610cba575f600d8281548110610c0557610c04611ca4565b5b905f5260205f20015f9054906101000a900473ffffffffffffffffffffffffffffffffffffffff1690505f600c5f8373ffffffffffffffffffffffffffffffffffffffff1673ffffffffffffffffffffffffffffffffffffffff1681526020019081526020015f2090505f600180015485835f0154610c849190611963565b610c8e91906119d1565b905080826003015f828254610ca39190611a34565b925050819055505050508080600101915050610be3565b505f600e819055507f8959421a1320789a49eeec01a4750caf8a30733c3db14f000d84484df89300f981604051610cf19190611709565b60405180910390a150565b5f5f8342610d0a9190611a01565b90505f6201518082610d1c91906119d1565b6064610d289190611a34565b90505f6103e888610d3991906119d1565b6064610d459190611a34565b90506127108582848b610d589190611963565b610d629190611963565b610d6c9190611963565b610d7691906119d1565b9350505050949350505050565b610d8b6111ea565b6001600a015f9054906101000a900460ff16156001600a015f6101000a81548160ff0219169083151502179055507fbd466af87c4fabd1fa3d061817020a39c29d7986649f582f9f405c8eb8aa7c0b6001600a015f9054906101000a900460ff16604051610df99190611cd1565b60405180910390a1565b5f600c5f3373ffffffffffffffffffffffffffffffffffffffff1673ffffffffffffffffffffffffffffffffffffffff1681526020019081526020015f2090505f815f015411610e88576040517f08c379a0000000000000000000000000000000000000000000000000000000008152600401610e7f90611d34565b60405180910390fd5b5f815f015490505f825f018190555080600180015f828254610eaa9190611a01565b92505081905550610eba3361106a565b60015f015f9054906101000a900473ffffffffffffffffffffffffffffffffffffffff1673ffffffffffffffffffffffffffffffffffffffff1663a9059cbb33836040518363ffffffff1660e01b8152600401610f18929190611a67565b6020604051808303815f875af1158015610f34573d5f5f3e3d5ffd5b505050506040513d601f19601f82011682018060405250810190610f589190611aa2565b503373ffffffffffffffffffffffffffffffffffffffff167f23d6711a1d031134a36921253c75aa59e967d38e369ac625992824315e204f2082604051610f9f9190611709565b60405180910390a25050565b610fb36111ea565b5f73ffffffffffffffffffffffffffffffffffffffff168173ffffffffffffffffffffffffffffffffffffffff1603611023575f6040517f1e4fbdf700000000000000000000000000000000000000000000000000000000815260040161101a91906116f0565b60405180910390fd5b61102c81611271565b50565b600d818154811061103e575f80fd5b905f5260205f20015f915054906101000a900473ffffffffffffffffffffffffffffffffffffffff1681565b5f5f90505b600d805490508110156111e6578173ffffffffffffffffffffffffffffffffffffffff16600d82815481106110a7576110a6611ca4565b5b905f5260205f20015f9054906101000a900473ffffffffffffffffffffffffffffffffffffffff1673ffffffffffffffffffffffffffffffffffffffff16036111d957600d6001600d805490506110fe9190611a01565b8154811061110f5761110e611ca4565b5b905f5260205f20015f9054906101000a900473ffffffffffffffffffffffffffffffffffffffff16600d828154811061114b5761114a611ca4565b5b905f5260205f20015f6101000a81548173ffffffffffffffffffffffffffffffffffffffff021916908373ffffffffffffffffffffffffffffffffffffffff160217905550600d8054806111a2576111a1611d52565b5b600190038181905f5260205f20015f6101000a81549073ffffffffffffffffffffffffffffffffffffffff021916905590556111e6565b808060010191505061106f565b5050565b6111f2611332565b73ffffffffffffffffffffffffffffffffffffffff16611210610b61565b73ffffffffffffffffffffffffffffffffffffffff161461126f57611233611332565b6040517f118cdaa700000000000000000000000000000000000000000000000000000000815260040161126691906116f0565b60405180910390fd5b565b5f5f5f9054906101000a900473ffffffffffffffffffffffffffffffffffffffff169050815f5f6101000a81548173ffffffffffffffffffffffffffffffffffffffff021916908373ffffffffffffffffffffffffffffffffffffffff1602179055508173ffffffffffffffffffffffffffffffffffffffff168173ffffffffffffffffffffffffffffffffffffffff167f8be0079c531659141344cd1fd0a4f28419497f9722a3daafe3b4186f6b6457e060405160405180910390a35050565b5f33905090565b5f73ffffffffffffffffffffffffffffffffffffffff82169050919050565b5f819050919050565b5f61137b61137661137184611339565b611358565b611339565b9050919050565b5f61138c82611361565b9050919050565b5f61139d82611382565b9050919050565b6113ad81611393565b82525050565b5f819050919050565b6113c5816113b3565b82525050565b5f6113d582611339565b9050919050565b6113e5816113cb565b82525050565b5f8115159050919050565b6113ff816113eb565b82525050565b5f610160820190506114195f83018e6113a4565b611426602083018d6113bc565b611433604083018c6113bc565b611440606083018b6113bc565b61144d608083018a6113bc565b61145a60a08301896113dc565b61146760c08301886113bc565b61147460e08301876113bc565b6114826101008301866113bc565b6114906101208301856113bc565b61149e6101408301846113f6565b9c9b505050505050505050505050565b5f5ffd5b6114bb816113b3565b81146114c5575f5ffd5b50565b5f813590506114d6816114b2565b92915050565b5f602082840312156114f1576114f06114ae565b5b5f6114fe848285016114c8565b91505092915050565b5f81519050919050565b5f82825260208201905092915050565b5f819050602082019050919050565b611539816113cb565b82525050565b5f61154a8383611530565b60208301905092915050565b5f602082019050919050565b5f61156c82611507565b6115768185611511565b935061158183611521565b805f5b838110156115b1578151611598888261153f565b97506115a383611556565b925050600181019050611584565b5085935050505092915050565b5f6020820190508181035f8301526115d68184611562565b905092915050565b6115e7816113eb565b81146115f1575f5ffd5b50565b5f81359050611602816115de565b92915050565b5f5f5f6060848603121561161f5761161e6114ae565b5b5f61162c868287016114c8565b935050602061163d868287016115f4565b925050604061164e868287016114c8565b9150509250925092565b611661816113cb565b811461166b575f5ffd5b50565b5f8135905061167c81611658565b92915050565b5f60208284031215611697576116966114ae565b5b5f6116a48482850161166e565b91505092915050565b5f6080820190506116c05f8301876113bc565b6116cd60208301866113bc565b6116da60408301856113bc565b6116e760608301846113bc565b95945050505050565b5f6020820190506117035f8301846113dc565b92915050565b5f60208201905061171c5f8301846113bc565b92915050565b5f5f5f5f6080858703121561173a576117396114ae565b5b5f611747878288016114c8565b9450506020611758878288016114c8565b9350506040611769878288016114c8565b925050606061177a878288016114c8565b91505092959194509250565b5f82825260208201905092915050565b7f506f6f6c206973207061757365640000000000000000000000000000000000005f82015250565b5f6117ca600e83611786565b91506117d582611796565b602082019050919050565b5f6020820190508181035f8301526117f7816117be565b9050919050565b7f416d6f756e74206d7573742062652067726561746572207468616e207a65726f5f82015250565b5f611832602083611786565b915061183d826117fe565b602082019050919050565b5f6020820190508181035f83015261185f81611826565b9050919050565b7f496e73756666696369656e742062616c616e63650000000000000000000000005f82015250565b5f61189a601483611786565b91506118a582611866565b602082019050919050565b5f6020820190508181035f8301526118c78161188e565b9050919050565b7f5374616b65206973207374696c6c206c6f636b656400000000000000000000005f82015250565b5f611902601583611786565b915061190d826118ce565b602082019050919050565b5f6020820190508181035f83015261192f816118f6565b9050919050565b7f4e487b71000000000000000000000000000000000000000000000000000000005f52601160045260245ffd5b5f61196d826113b3565b9150611978836113b3565b9250828202611986816113b3565b9150828204841483151761199d5761199c611936565b5b5092915050565b7f4e487b71000000000000000000000000000000000000000000000000000000005f52601260045260245ffd5b5f6119db826113b3565b91506119e6836113b3565b9250826119f6576119f56119a4565b5b828204905092915050565b5f611a0b826113b3565b9150611a16836113b3565b9250828203905081811115611a2e57611a2d611936565b5b92915050565b5f611a3e826113b3565b9150611a49836113b3565b9250828201905080821115611a6157611a60611936565b5b92915050565b5f604082019050611a7a5f8301856113dc565b611a8760208301846113bc565b9392505050565b5f81519050611a9c816115de565b92915050565b5f60208284031215611ab757611ab66114ae565b5b5f611ac484828501611a8e565b91505092915050565b5f606082019050611ae05f8301866113bc565b611aed60208301856113bc565b611afa60408301846113bc565b949350505050565b7f4465706f73697420657863656564732075736572206c696d69740000000000005f82015250565b5f611b36601a83611786565b9150611b4182611b02565b602082019050919050565b5f6020820190508181035f830152611b6381611b2a565b9050919050565b7f506f6f6c206c69717569646974792065786365656465640000000000000000005f82015250565b5f611b9e601783611786565b9150611ba982611b6a565b602082019050919050565b5f6020820190508181035f830152611bcb81611b92565b9050919050565b5f606082019050611be55f8301866113dc565b611bf260208301856113dc565b611bff60408301846113bc565b949350505050565b5f606082019050611c1a5f8301866113bc565b611c2760208301856113bc565b611c3460408301846113f6565b949350505050565b7f4e6f206665657320746f206469737472696275746500000000000000000000005f82015250565b5f611c70601583611786565b9150611c7b82611c3c565b602082019050919050565b5f6020820190508181035f830152611c9d81611c64565b9050919050565b7f4e487b71000000000000000000000000000000000000000000000000000000005f52603260045260245ffd5b5f602082019050611ce45f8301846113f6565b92915050565b7f4e6f7468696e6720746f207769746864726177000000000000000000000000005f82015250565b5f611d1e601383611786565b9150611d2982611cea565b602082019050919050565b5f6020820190508181035f830152611d4b81611d12565b9050919050565b7f4e487b71000000000000000000000000000000000000000000000000000000005f52603160045260245ffdfea26469706673582212204c04c040478d62134fbb34bb5273c481fbfe2b010b99bac8363e692c8d94d9dd64736f6c634300081c0033",
			"opcodes": "PUSH1 0x80 PUSH1 0x40 MSTORE CALLVALUE DUP1 ISZERO PUSH2 0xF JUMPI PUSH0 PUSH0 REVERT JUMPDEST POP PUSH1 0x40 MLOAD PUSH2 0x2182 CODESIZE SUB DUP1 PUSH2 0x2182 DUP4 CODECOPY DUP2 DUP2 ADD PUSH1 0x40 MSTORE DUP2 ADD SWAP1 PUSH2 0x31 SWAP2 SWAP1 PUSH2 0x2F0 JUMP JUMPDEST CALLER PUSH0 PUSH20 0xFFFFFFFFFFFFFFFFFFFFFFFFFFFFFFFFFFFFFFFF AND DUP2 PUSH20 0xFFFFFFFFFFFFFFFFFFFFFFFFFFFFFFFFFFFFFFFF AND SUB PUSH2 0xA2 JUMPI PUSH0 PUSH1 0x40 MLOAD PUSH32 0x1E4FBDF700000000000000000000000000000000000000000000000000000000 DUP2 MSTORE PUSH1 0x4 ADD PUSH2 0x99 SWAP2 SWAP1 PUSH2 0x363 JUMP JUMPDEST PUSH1 0x40 MLOAD DUP1 SWAP2 SUB SWAP1 REVERT JUMPDEST PUSH2 0xB1 DUP2 PUSH2 0x19E PUSH1 0x20 SHL PUSH1 0x20 SHR JUMP JUMPDEST POP DUP4 PUSH1 0x1 PUSH0 ADD PUSH0 PUSH2 0x100 EXP DUP2 SLOAD DUP2 PUSH20 0xFFFFFFFFFFFFFFFFFFFFFFFFFFFFFFFFFFFFFFFF MUL NOT AND SWAP1 DUP4 PUSH20 0xFFFFFFFFFFFFFFFFFFFFFFFFFFFFFFFFFFFFFFFF AND MUL OR SWAP1 SSTORE POP DUP3 PUSH1 0x1 PUSH1 0x2 ADD DUP2 SWAP1 SSTORE POP DUP2 PUSH1 0x1 PUSH1 0x8 ADD DUP2 SWAP1 SSTORE POP DUP1 PUSH1 0x1 PUSH1 0x9 ADD DUP2 SWAP1 SSTORE POP PUSH1 0x2 PUSH1 0x1 PUSH1 0x3 ADD DUP2 SWAP1 SSTORE POP TIMESTAMP PUSH1 0x1 PUSH1 0x4 ADD DUP2 SWAP1 SSTORE POP PUSH0 PUSH1 0x1 PUSH1 0xA ADD PUSH0 PUSH2 0x100 EXP DUP2 SLOAD DUP2 PUSH1 0xFF MUL NOT AND SWAP1 DUP4 ISZERO ISZERO MUL OR SWAP1 SSTORE POP DUP4 PUSH20 0xFFFFFFFFFFFFFFFFFFFFFFFFFFFFFFFFFFFFFFFF AND PUSH32 0xA01A0F6E4E9C79D39A9015DAE1A9D6B2FC1EA5F20BC39C9F8C2E42E680AB26E2 DUP5 DUP5 DUP5 PUSH1 0x40 MLOAD PUSH2 0x18D SWAP4 SWAP3 SWAP2 SWAP1 PUSH2 0x38B JUMP JUMPDEST PUSH1 0x40 MLOAD DUP1 SWAP2 SUB SWAP1 LOG2 POP POP POP POP PUSH2 0x3C0 JUMP JUMPDEST PUSH0 PUSH0 PUSH0 SWAP1 SLOAD SWAP1 PUSH2 0x100 EXP SWAP1 DIV PUSH20 0xFFFFFFFFFFFFFFFFFFFFFFFFFFFFFFFFFFFFFFFF AND SWAP1 POP DUP2 PUSH0 PUSH0 PUSH2 0x100 EXP DUP2 SLOAD DUP2 PUSH20 0xFFFFFFFFFFFFFFFFFFFFFFFFFFFFFFFFFFFFFFFF MUL NOT AND SWAP1 DUP4 PUSH20 0xFFFFFFFFFFFFFFFFFFFFFFFFFFFFFFFFFFFFFFFF AND MUL OR SWAP1 SSTORE POP DUP2 PUSH20 0xFFFFFFFFFFFFFFFFFFFFFFFFFFFFFFFFFFFFFFFF AND DUP2 PUSH20 0xFFFFFFFFFFFFFFFFFFFFFFFFFFFFFFFFFFFFFFFF AND PUSH32 0x8BE0079C531659141344CD1FD0A4F28419497F9722A3DAAFE3B4186F6B6457E0 PUSH1 0x40 MLOAD PUSH1 0x40 MLOAD DUP1 SWAP2 SUB SWAP1 LOG3 POP POP JUMP JUMPDEST PUSH0 PUSH0 REVERT JUMPDEST PUSH0 PUSH20 0xFFFFFFFFFFFFFFFFFFFFFFFFFFFFFFFFFFFFFFFF DUP3 AND SWAP1 POP SWAP2 SWAP1 POP JUMP JUMPDEST PUSH0 PUSH2 0x28C DUP3 PUSH2 0x263 JUMP JUMPDEST SWAP1 POP SWAP2 SWAP1 POP JUMP JUMPDEST PUSH2 0x29C DUP2 PUSH2 0x282 JUMP JUMPDEST DUP2 EQ PUSH2 0x2A6 JUMPI PUSH0 PUSH0 REVERT JUMPDEST POP JUMP JUMPDEST PUSH0 DUP2 MLOAD SWAP1 POP PUSH2 0x2B7 DUP2 PUSH2 0x293 JUMP JUMPDEST SWAP3 SWAP2 POP POP JUMP JUMPDEST PUSH0 DUP2 SWAP1 POP SWAP2 SWAP1 POP JUMP JUMPDEST PUSH2 0x2CF DUP2 PUSH2 0x2BD JUMP JUMPDEST DUP2 EQ PUSH2 0x2D9 JUMPI PUSH0 PUSH0 REVERT JUMPDEST POP JUMP JUMPDEST PUSH0 DUP2 MLOAD SWAP1 POP PUSH2 0x2EA DUP2 PUSH2 0x2C6 JUMP JUMPDEST SWAP3 SWAP2 POP POP JUMP JUMPDEST PUSH0 PUSH0 PUSH0 PUSH0 PUSH1 0x80 DUP6 DUP8 SUB SLT ISZERO PUSH2 0x308 JUMPI PUSH2 0x307 PUSH2 0x25F JUMP JUMPDEST JUMPDEST PUSH0 PUSH2 0x315 DUP8 DUP3 DUP9 ADD PUSH2 0x2A9 JUMP JUMPDEST SWAP5 POP POP PUSH1 0x20 PUSH2 0x326 DUP8 DUP3 DUP9 ADD PUSH2 0x2DC JUMP JUMPDEST SWAP4 POP POP PUSH1 0x40 PUSH2 0x337 DUP8 DUP3 DUP9 ADD PUSH2 0x2DC JUMP JUMPDEST SWAP3 POP POP PUSH1 0x60 PUSH2 0x348 DUP8 DUP3 DUP9 ADD PUSH2 0x2DC JUMP JUMPDEST SWAP2 POP POP SWAP3 SWAP6 SWAP2 SWAP5 POP SWAP3 POP JUMP JUMPDEST PUSH2 0x35D DUP2 PUSH2 0x282 JUMP JUMPDEST DUP3 MSTORE POP POP JUMP JUMPDEST PUSH0 PUSH1 0x20 DUP3 ADD SWAP1 POP PUSH2 0x376 PUSH0 DUP4 ADD DUP5 PUSH2 0x354 JUMP JUMPDEST SWAP3 SWAP2 POP POP JUMP JUMPDEST PUSH2 0x385 DUP2 PUSH2 0x2BD JUMP JUMPDEST DUP3 MSTORE POP POP JUMP JUMPDEST PUSH0 PUSH1 0x60 DUP3 ADD SWAP1 POP PUSH2 0x39E PUSH0 DUP4 ADD DUP7 PUSH2 0x37C JUMP JUMPDEST PUSH2 0x3AB PUSH1 0x20 DUP4 ADD DUP6 PUSH2 0x37C JUMP JUMPDEST PUSH2 0x3B8 PUSH1 0x40 DUP4 ADD DUP5 PUSH2 0x37C JUMP JUMPDEST SWAP5 SWAP4 POP POP POP POP JUMP JUMPDEST PUSH2 0x1DB5 DUP1 PUSH2 0x3CD PUSH0 CODECOPY PUSH0 RETURN INVALID PUSH1 0x80 PUSH1 0x40 MSTORE CALLVALUE DUP1 ISZERO PUSH2 0xF JUMPI PUSH0 PUSH0 REVERT JUMPDEST POP PUSH1 0x4 CALLDATASIZE LT PUSH2 0xE8 JUMPI PUSH0 CALLDATALOAD PUSH1 0xE0 SHR DUP1 PUSH4 0xAE2E933B GT PUSH2 0x8A JUMPI DUP1 PUSH4 0xC4AE3168 GT PUSH2 0x64 JUMPI DUP1 PUSH4 0xC4AE3168 EQ PUSH2 0x21D JUMPI DUP1 PUSH4 0xDB2E21BC EQ PUSH2 0x227 JUMPI DUP1 PUSH4 0xF2FDE38B EQ PUSH2 0x231 JUMPI DUP1 PUSH4 0xFD5E6DD1 EQ PUSH2 0x24D JUMPI PUSH2 0xE8 JUMP JUMPDEST DUP1 PUSH4 0xAE2E933B EQ PUSH2 0x1C5 JUMPI DUP1 PUSH4 0xBB57AD20 EQ PUSH2 0x1E3 JUMPI DUP1 PUSH4 0xBF5CF656 EQ PUSH2 0x1ED JUMPI PUSH2 0xE8 JUMP JUMPDEST DUP1 PUSH4 0x447DA8A6 GT PUSH2 0xC6 JUMPI DUP1 PUSH4 0x447DA8A6 EQ PUSH2 0x14E JUMPI DUP1 PUSH4 0x613CF420 EQ PUSH2 0x16A JUMPI DUP1 PUSH4 0x715018A6 EQ PUSH2 0x19D JUMPI DUP1 PUSH4 0x8DA5CB5B EQ PUSH2 0x1A7 JUMPI PUSH2 0xE8 JUMP JUMPDEST DUP1 PUSH4 0x16F0115B EQ PUSH2 0xEC JUMPI DUP1 PUSH4 0x2E1A7D4D EQ PUSH2 0x114 JUMPI DUP1 PUSH4 0x43352D61 EQ PUSH2 0x130 JUMPI JUMPDEST PUSH0 PUSH0 REVERT JUMPDEST PUSH2 0xF4 PUSH2 0x27D JUMP JUMPDEST PUSH1 0x40 MLOAD PUSH2 0x10B SWAP12 SWAP11 SWAP10 SWAP9 SWAP8 SWAP7 SWAP6 SWAP5 SWAP4 SWAP3 SWAP2 SWAP1 PUSH2 0x1405 JUMP JUMPDEST PUSH1 0x40 MLOAD DUP1 SWAP2 SUB SWAP1 RETURN JUMPDEST PUSH2 0x12E PUSH1 0x4 DUP1 CALLDATASIZE SUB DUP2 ADD SWAP1 PUSH2 0x129 SWAP2 SWAP1 PUSH2 0x14DC JUMP JUMPDEST PUSH2 0x30E JUMP JUMPDEST STOP JUMPDEST PUSH2 0x138 PUSH2 0x5F6 JUMP JUMPDEST PUSH1 0x40 MLOAD PUSH2 0x145 SWAP2 SWAP1 PUSH2 0x15BE JUMP JUMPDEST PUSH1 0x40 MLOAD DUP1 SWAP2 SUB SWAP1 RETURN JUMPDEST PUSH2 0x168 PUSH1 0x4 DUP1 CALLDATASIZE SUB DUP2 ADD SWAP1 PUSH2 0x163 SWAP2 SWAP1 PUSH2 0x1608 JUMP JUMPDEST PUSH2 0x681 JUMP JUMPDEST STOP JUMPDEST PUSH2 0x184 PUSH1 0x4 DUP1 CALLDATASIZE SUB DUP2 ADD SWAP1 PUSH2 0x17F SWAP2 SWAP1 PUSH2 0x1682 JUMP JUMPDEST PUSH2 0xB22 JUMP JUMPDEST PUSH1 0x40 MLOAD PUSH2 0x194 SWAP5 SWAP4 SWAP3 SWAP2 SWAP1 PUSH2 0x16AD JUMP JUMPDEST PUSH1 0x40 MLOAD DUP1 SWAP2 SUB SWAP1 RETURN JUMPDEST PUSH2 0x1A5 PUSH2 0xB4E JUMP JUMPDEST STOP JUMPDEST PUSH2 0x1AF PUSH2 0xB61 JUMP JUMPDEST PUSH1 0x40 MLOAD PUSH2 0x1BC SWAP2 SWAP1 PUSH2 0x16F0 JUMP JUMPDEST PUSH1 0x40 MLOAD DUP1 SWAP2 SUB SWAP1 RETURN JUMPDEST PUSH2 0x1CD PUSH2 0xB88 JUMP JUMPDEST PUSH1 0x40 MLOAD PUSH2 0x1DA SWAP2 SWAP1 PUSH2 0x1709 JUMP JUMPDEST PUSH1 0x40 MLOAD DUP1 SWAP2 SUB SWAP1 RETURN JUMPDEST PUSH2 0x1EB PUSH2 0xB8E JUMP JUMPDEST STOP JUMPDEST PUSH2 0x207 PUSH1 0x4 DUP1 CALLDATASIZE SUB DUP2 ADD SWAP1 PUSH2 0x202 SWAP2 SWAP1 PUSH2 0x1722 JUMP JUMPDEST PUSH2 0xCFC JUMP JUMPDEST PUSH1 0x40 MLOAD PUSH2 0x214 SWAP2 SWAP1 PUSH2 0x1709 JUMP JUMPDEST PUSH1 0x40 MLOAD DUP1 SWAP2 SUB SWAP1 RETURN JUMPDEST PUSH2 0x225 PUSH2 0xD83 JUMP JUMPDEST STOP JUMPDEST PUSH2 0x22F PUSH2 0xE03 JUMP JUMPDEST STOP JUMPDEST PUSH2 0x24B PUSH1 0x4 DUP1 CALLDATASIZE SUB DUP2 ADD SWAP1 PUSH2 0x246 SWAP2 SWAP1 PUSH2 0x1682 JUMP JUMPDEST PUSH2 0xFAB JUMP JUMPDEST STOP JUMPDEST PUSH2 0x267 PUSH1 0x4 DUP1 CALLDATASIZE SUB DUP2 ADD SWAP1 PUSH2 0x262 SWAP2 SWAP1 PUSH2 0x14DC JUMP JUMPDEST PUSH2 0x102F JUMP JUMPDEST PUSH1 0x40 MLOAD PUSH2 0x274 SWAP2 SWAP1 PUSH2 0x16F0 JUMP JUMPDEST PUSH1 0x40 MLOAD DUP1 SWAP2 SUB SWAP1 RETURN JUMPDEST PUSH1 0x1 DUP1 PUSH0 ADD PUSH0 SWAP1 SLOAD SWAP1 PUSH2 0x100 EXP SWAP1 DIV PUSH20 0xFFFFFFFFFFFFFFFFFFFFFFFFFFFFFFFFFFFFFFFF AND SWAP1 DUP1 PUSH1 0x1 ADD SLOAD SWAP1 DUP1 PUSH1 0x2 ADD SLOAD SWAP1 DUP1 PUSH1 0x3 ADD SLOAD SWAP1 DUP1 PUSH1 0x4 ADD SLOAD SWAP1 DUP1 PUSH1 0x5 ADD PUSH0 SWAP1 SLOAD SWAP1 PUSH2 0x100 EXP SWAP1 DIV PUSH20 0xFFFFFFFFFFFFFFFFFFFFFFFFFFFFFFFFFFFFFFFF AND SWAP1 DUP1 PUSH1 0x6 ADD SLOAD SWAP1 DUP1 PUSH1 0x7 ADD SLOAD SWAP1 DUP1 PUSH1 0x8 ADD SLOAD SWAP1 DUP1 PUSH1 0x9 ADD SLOAD SWAP1 DUP1 PUSH1 0xA ADD PUSH0 SWAP1 SLOAD SWAP1 PUSH2 0x100 EXP SWAP1 DIV PUSH1 0xFF AND SWAP1 POP DUP12 JUMP JUMPDEST PUSH1 0x1 PUSH1 0xA ADD PUSH0 SWAP1 SLOAD SWAP1 PUSH2 0x100 EXP SWAP1 DIV PUSH1 0xFF AND ISZERO PUSH2 0x360 JUMPI PUSH1 0x40 MLOAD PUSH32 0x8C379A000000000000000000000000000000000000000000000000000000000 DUP2 MSTORE PUSH1 0x4 ADD PUSH2 0x357 SWAP1 PUSH2 0x17E0 JUMP JUMPDEST PUSH1 0x40 MLOAD DUP1 SWAP2 SUB SWAP1 REVERT JUMPDEST DUP1 PUSH0 DUP2 GT PUSH2 0x3A3 JUMPI PUSH1 0x40 MLOAD PUSH32 0x8C379A000000000000000000000000000000000000000000000000000000000 DUP2 MSTORE PUSH1 0x4 ADD PUSH2 0x39A SWAP1 PUSH2 0x1848 JUMP JUMPDEST PUSH1 0x40 MLOAD DUP1 SWAP2 SUB SWAP1 REVERT JUMPDEST PUSH0 PUSH1 0xC PUSH0 CALLER PUSH20 0xFFFFFFFFFFFFFFFFFFFFFFFFFFFFFFFFFFFFFFFF AND PUSH20 0xFFFFFFFFFFFFFFFFFFFFFFFFFFFFFFFFFFFFFFFF AND DUP2 MSTORE PUSH1 0x20 ADD SWAP1 DUP2 MSTORE PUSH1 0x20 ADD PUSH0 KECCAK256 SWAP1 POP DUP3 DUP2 PUSH0 ADD SLOAD LT ISZERO PUSH2 0x429 JUMPI PUSH1 0x40 MLOAD PUSH32 0x8C379A000000000000000000000000000000000000000000000000000000000 DUP2 MSTORE PUSH1 0x4 ADD PUSH2 0x420 SWAP1 PUSH2 0x18B0 JUMP JUMPDEST PUSH1 0x40 MLOAD DUP1 SWAP2 SUB SWAP1 REVERT JUMPDEST DUP1 PUSH1 0x2 ADD SLOAD TIMESTAMP LT ISZERO PUSH2 0x470 JUMPI PUSH1 0x40 MLOAD PUSH32 0x8C379A000000000000000000000000000000000000000000000000000000000 DUP2 MSTORE PUSH1 0x4 ADD PUSH2 0x467 SWAP1 PUSH2 0x1918 JUMP JUMPDEST PUSH1 0x40 MLOAD DUP1 SWAP2 SUB SWAP1 REVERT JUMPDEST PUSH0 PUSH1 0x64 PUSH1 0x1 PUSH1 0x3 ADD SLOAD DUP6 PUSH2 0x484 SWAP2 SWAP1 PUSH2 0x1963 JUMP JUMPDEST PUSH2 0x48E SWAP2 SWAP1 PUSH2 0x19D1 JUMP JUMPDEST SWAP1 POP PUSH0 DUP2 DUP6 PUSH2 0x49D SWAP2 SWAP1 PUSH2 0x1A01 JUMP JUMPDEST SWAP1 POP DUP5 DUP4 PUSH0 ADD PUSH0 DUP3 DUP3 SLOAD PUSH2 0x4B1 SWAP2 SWAP1 PUSH2 0x1A01 JUMP JUMPDEST SWAP3 POP POP DUP2 SWAP1 SSTORE POP DUP5 PUSH1 0x1 DUP1 ADD PUSH0 DUP3 DUP3 SLOAD PUSH2 0x4CB SWAP2 SWAP1 PUSH2 0x1A01 JUMP JUMPDEST SWAP3 POP POP DUP2 SWAP1 SSTORE POP DUP2 PUSH1 0xE PUSH0 DUP3 DUP3 SLOAD PUSH2 0x4E3 SWAP2 SWAP1 PUSH2 0x1A34 JUMP JUMPDEST SWAP3 POP POP DUP2 SWAP1 SSTORE POP PUSH0 DUP4 PUSH0 ADD SLOAD SUB PUSH2 0x4FE JUMPI PUSH2 0x4FD CALLER PUSH2 0x106A JUMP JUMPDEST JUMPDEST PUSH1 0x1 PUSH0 ADD PUSH0 SWAP1 SLOAD SWAP1 PUSH2 0x100 EXP SWAP1 DIV PUSH20 0xFFFFFFFFFFFFFFFFFFFFFFFFFFFFFFFFFFFFFFFF AND PUSH20 0xFFFFFFFFFFFFFFFFFFFFFFFFFFFFFFFFFFFFFFFF AND PUSH4 0xA9059CBB CALLER DUP4 PUSH1 0x40 MLOAD DUP4 PUSH4 0xFFFFFFFF AND PUSH1 0xE0 SHL DUP2 MSTORE PUSH1 0x4 ADD PUSH2 0x55C SWAP3 SWAP2 SWAP1 PUSH2 0x1A67 JUMP JUMPDEST PUSH1 0x20 PUSH1 0x40 MLOAD DUP1 DUP4 SUB DUP2 PUSH0 DUP8 GAS CALL ISZERO DUP1 ISZERO PUSH2 0x578 JUMPI RETURNDATASIZE PUSH0 PUSH0 RETURNDATACOPY RETURNDATASIZE PUSH0 REVERT JUMPDEST POP POP POP POP PUSH1 0x40 MLOAD RETURNDATASIZE PUSH1 0x1F NOT PUSH1 0x1F DUP3 ADD AND DUP3 ADD DUP1 PUSH1 0x40 MSTORE POP DUP2 ADD SWAP1 PUSH2 0x59C SWAP2 SWAP1 PUSH2 0x1AA2 JUMP JUMPDEST POP CALLER PUSH20 0xFFFFFFFFFFFFFFFFFFFFFFFFFFFFFFFFFFFFFFFF AND PUSH32 0x75E161B3E824B114FC1A33274BD7091918DD4E639CEDE50B78B15A4EEA956A21 DUP3 DUP5 TIMESTAMP PUSH1 0x40 MLOAD PUSH2 0x5E7 SWAP4 SWAP3 SWAP2 SWAP1 PUSH2 0x1ACD JUMP JUMPDEST PUSH1 0x40 MLOAD DUP1 SWAP2 SUB SWAP1 LOG2 POP POP POP POP POP JUMP JUMPDEST PUSH1 0x60 PUSH1 0xD DUP1 SLOAD DUP1 PUSH1 0x20 MUL PUSH1 0x20 ADD PUSH1 0x40 MLOAD SWAP1 DUP2 ADD PUSH1 0x40 MSTORE DUP1 SWAP3 SWAP2 SWAP1 DUP2 DUP2 MSTORE PUSH1 0x20 ADD DUP3 DUP1 SLOAD DUP1 ISZERO PUSH2 0x677 JUMPI PUSH1 0x20 MUL DUP3 ADD SWAP2 SWAP1 PUSH0 MSTORE PUSH1 0x20 PUSH0 KECCAK256 SWAP1 JUMPDEST DUP2 PUSH0 SWAP1 SLOAD SWAP1 PUSH2 0x100 EXP SWAP1 DIV PUSH20 0xFFFFFFFFFFFFFFFFFFFFFFFFFFFFFFFFFFFFFFFF AND PUSH20 0xFFFFFFFFFFFFFFFFFFFFFFFFFFFFFFFFFFFFFFFF AND DUP2 MSTORE PUSH1 0x20 ADD SWAP1 PUSH1 0x1 ADD SWAP1 DUP1 DUP4 GT PUSH2 0x62E JUMPI JUMPDEST POP POP POP POP POP SWAP1 POP SWAP1 JUMP JUMPDEST PUSH1 0x1 PUSH1 0xA ADD PUSH0 SWAP1 SLOAD SWAP1 PUSH2 0x100 EXP SWAP1 DIV PUSH1 0xFF AND ISZERO PUSH2 0x6D3 JUMPI PUSH1 0x40 MLOAD PUSH32 0x8C379A000000000000000000000000000000000000000000000000000000000 DUP2 MSTORE PUSH1 0x4 ADD PUSH2 0x6CA SWAP1 PUSH2 0x17E0 JUMP JUMPDEST PUSH1 0x40 MLOAD DUP1 SWAP2 SUB SWAP1 REVERT JUMPDEST DUP3 PUSH0 DUP2 GT PUSH2 0x716 JUMPI PUSH1 0x40 MLOAD PUSH32 0x8C379A000000000000000000000000000000000000000000000000000000000 DUP2 MSTORE PUSH1 0x4 ADD PUSH2 0x70D SWAP1 PUSH2 0x1848 JUMP JUMPDEST PUSH1 0x40 MLOAD DUP1 SWAP2 SUB SWAP1 REVERT JUMPDEST PUSH0 PUSH1 0xC PUSH0 CALLER PUSH20 0xFFFFFFFFFFFFFFFFFFFFFFFFFFFFFFFFFFFFFFFF AND PUSH20 0xFFFFFFFFFFFFFFFFFFFFFFFFFFFFFFFFFFFFFFFF AND DUP2 MSTORE PUSH1 0x20 ADD SWAP1 DUP2 MSTORE PUSH1 0x20 ADD PUSH0 KECCAK256 SWAP1 POP PUSH1 0x1 PUSH1 0x8 ADD SLOAD DUP6 DUP3 PUSH0 ADD SLOAD PUSH2 0x76B SWAP2 SWAP1 PUSH2 0x1A34 JUMP JUMPDEST GT ISZERO PUSH2 0x7AC JUMPI PUSH1 0x40 MLOAD PUSH32 0x8C379A000000000000000000000000000000000000000000000000000000000 DUP2 MSTORE PUSH1 0x4 ADD PUSH2 0x7A3 SWAP1 PUSH2 0x1B4C JUMP JUMPDEST PUSH1 0x40 MLOAD DUP1 SWAP2 SUB SWAP1 REVERT JUMPDEST PUSH1 0x1 PUSH1 0x9 ADD SLOAD DUP6 PUSH1 0x1 DUP1 ADD SLOAD PUSH2 0x7C2 SWAP2 SWAP1 PUSH2 0x1A34 JUMP JUMPDEST GT ISZERO PUSH2 0x803 JUMPI PUSH1 0x40 MLOAD PUSH32 0x8C379A000000000000000000000000000000000000000000000000000000000 DUP2 MSTORE PUSH1 0x4 ADD PUSH2 0x7FA SWAP1 PUSH2 0x1BB4 JUMP JUMPDEST PUSH1 0x40 MLOAD DUP1 SWAP2 SUB SWAP1 REVERT JUMPDEST PUSH0 DUP2 PUSH0 ADD SLOAD SUB PUSH2 0x86E JUMPI PUSH1 0xD CALLER SWAP1 DUP1 PUSH1 0x1 DUP2 SLOAD ADD DUP1 DUP3 SSTORE DUP1 SWAP2 POP POP PUSH1 0x1 SWAP1 SUB SWAP1 PUSH0 MSTORE PUSH1 0x20 PUSH0 KECCAK256 ADD PUSH0 SWAP1 SWAP2 SWAP1 SWAP2 SWAP1 SWAP2 PUSH2 0x100 EXP DUP2 SLOAD DUP2 PUSH20 0xFFFFFFFFFFFFFFFFFFFFFFFFFFFFFFFFFFFFFFFF MUL NOT AND SWAP1 DUP4 PUSH20 0xFFFFFFFFFFFFFFFFFFFFFFFFFFFFFFFFFFFFFFFF AND MUL OR SWAP1 SSTORE POP JUMPDEST DUP5 DUP2 PUSH0 ADD PUSH0 DUP3 DUP3 SLOAD PUSH2 0x880 SWAP2 SWAP1 PUSH2 0x1A34 JUMP JUMPDEST SWAP3 POP POP DUP2 SWAP1 SSTORE POP TIMESTAMP DUP2 PUSH1 0x1 ADD DUP2 SWAP1 SSTORE POP PUSH0 DUP4 GT ISZERO PUSH2 0x8AD JUMPI DUP3 TIMESTAMP PUSH2 0x8A4 SWAP2 SWAP1 PUSH2 0x1A34 JUMP JUMPDEST DUP2 PUSH1 0x2 ADD DUP2 SWAP1 SSTORE POP JUMPDEST DUP5 PUSH1 0x1 DUP1 ADD PUSH0 DUP3 DUP3 SLOAD PUSH2 0x8C0 SWAP2 SWAP1 PUSH2 0x1A34 JUMP JUMPDEST SWAP3 POP POP DUP2 SWAP1 SSTORE POP PUSH0 PUSH2 0x8E5 DUP3 PUSH0 ADD SLOAD DUP4 PUSH1 0x1 ADD SLOAD PUSH1 0x1 PUSH1 0x4 ADD SLOAD PUSH1 0x1 PUSH1 0x2 ADD SLOAD PUSH2 0xCFC JUMP JUMPDEST SWAP1 POP DUP5 ISZERO PUSH2 0x90B JUMPI DUP1 DUP3 PUSH0 ADD PUSH0 DUP3 DUP3 SLOAD PUSH2 0x8FF SWAP2 SWAP1 PUSH2 0x1A34 JUMP JUMPDEST SWAP3 POP POP DUP2 SWAP1 SSTORE POP PUSH2 0x9AB JUMP JUMPDEST PUSH1 0x1 PUSH0 ADD PUSH0 SWAP1 SLOAD SWAP1 PUSH2 0x100 EXP SWAP1 DIV PUSH20 0xFFFFFFFFFFFFFFFFFFFFFFFFFFFFFFFFFFFFFFFF AND PUSH20 0xFFFFFFFFFFFFFFFFFFFFFFFFFFFFFFFFFFFFFFFF AND PUSH4 0xA9059CBB CALLER DUP4 PUSH1 0x40 MLOAD DUP4 PUSH4 0xFFFFFFFF AND PUSH1 0xE0 SHL DUP2 MSTORE PUSH1 0x4 ADD PUSH2 0x969 SWAP3 SWAP2 SWAP1 PUSH2 0x1A67 JUMP JUMPDEST PUSH1 0x20 PUSH1 0x40 MLOAD DUP1 DUP4 SUB DUP2 PUSH0 DUP8 GAS CALL ISZERO DUP1 ISZERO PUSH2 0x985 JUMPI RETURNDATASIZE PUSH0 PUSH0 RETURNDATACOPY RETURNDATASIZE PUSH0 REVERT JUMPDEST POP POP POP POP PUSH1 0x40 MLOAD RETURNDATASIZE PUSH1 0x1F NOT PUSH1 0x1F DUP3 ADD AND DUP3 ADD DUP1 PUSH1 0x40 MSTORE POP DUP2 ADD SWAP1 PUSH2 0x9A9 SWAP2 SWAP1 PUSH2 0x1AA2 JUMP JUMPDEST POP JUMPDEST DUP1 PUSH1 0x1 PUSH1 0x7 ADD PUSH0 DUP3 DUP3 SLOAD PUSH2 0x9BF SWAP2 SWAP1 PUSH2 0x1A34 JUMP JUMPDEST SWAP3 POP POP DUP2 SWAP1 SSTORE POP PUSH1 0x1 PUSH1 0x6 ADD SLOAD DUP3 PUSH0 ADD SLOAD GT ISZERO PUSH2 0xA27 JUMPI CALLER PUSH1 0x1 PUSH1 0x5 ADD PUSH0 PUSH2 0x100 EXP DUP2 SLOAD DUP2 PUSH20 0xFFFFFFFFFFFFFFFFFFFFFFFFFFFFFFFFFFFFFFFF MUL NOT AND SWAP1 DUP4 PUSH20 0xFFFFFFFFFFFFFFFFFFFFFFFFFFFFFFFFFFFFFFFF AND MUL OR SWAP1 SSTORE POP DUP2 PUSH0 ADD SLOAD PUSH1 0x1 PUSH1 0x6 ADD DUP2 SWAP1 SSTORE POP JUMPDEST PUSH1 0x1 PUSH0 ADD PUSH0 SWAP1 SLOAD SWAP1 PUSH2 0x100 EXP SWAP1 DIV PUSH20 0xFFFFFFFFFFFFFFFFFFFFFFFFFFFFFFFFFFFFFFFF AND PUSH20 0xFFFFFFFFFFFFFFFFFFFFFFFFFFFFFFFFFFFFFFFF AND PUSH4 0x23B872DD CALLER ADDRESS DUP10 PUSH1 0x40 MLOAD DUP5 PUSH4 0xFFFFFFFF AND PUSH1 0xE0 SHL DUP2 MSTORE PUSH1 0x4 ADD PUSH2 0xA87 SWAP4 SWAP3 SWAP2 SWAP1 PUSH2 0x1BD2 JUMP JUMPDEST PUSH1 0x20 PUSH1 0x40 MLOAD DUP1 DUP4 SUB DUP2 PUSH0 DUP8 GAS CALL ISZERO DUP1 ISZERO PUSH2 0xAA3 JUMPI RETURNDATASIZE PUSH0 PUSH0 RETURNDATACOPY RETURNDATASIZE PUSH0 REVERT JUMPDEST POP POP POP POP PUSH1 0x40 MLOAD RETURNDATASIZE PUSH1 0x1F NOT PUSH1 0x1F DUP3 ADD AND DUP3 ADD DUP1 PUSH1 0x40 MSTORE POP DUP2 ADD SWAP1 PUSH2 0xAC7 SWAP2 SWAP1 PUSH2 0x1AA2 JUMP JUMPDEST POP CALLER PUSH20 0xFFFFFFFFFFFFFFFFFFFFFFFFFFFFFFFFFFFFFFFF AND PUSH32 0x3DF45CB339F96AE4BDB793EFCB6E22100DD0DC4FD739A4EE2033FE67EA35AF96 DUP8 DUP4 DUP9 PUSH1 0x40 MLOAD PUSH2 0xB12 SWAP4 SWAP3 SWAP2 SWAP1 PUSH2 0x1C07 JUMP JUMPDEST PUSH1 0x40 MLOAD DUP1 SWAP2 SUB SWAP1 LOG2 POP POP POP POP POP POP JUMP JUMPDEST PUSH1 0xC PUSH1 0x20 MSTORE DUP1 PUSH0 MSTORE PUSH1 0x40 PUSH0 KECCAK256 PUSH0 SWAP2 POP SWAP1 POP DUP1 PUSH0 ADD SLOAD SWAP1 DUP1 PUSH1 0x1 ADD SLOAD SWAP1 DUP1 PUSH1 0x2 ADD SLOAD SWAP1 DUP1 PUSH1 0x3 ADD SLOAD SWAP1 POP DUP5 JUMP JUMPDEST PUSH2 0xB56 PUSH2 0x11EA JUMP JUMPDEST PUSH2 0xB5F PUSH0 PUSH2 0x1271 JUMP JUMPDEST JUMP JUMPDEST PUSH0 PUSH0 PUSH0 SWAP1 SLOAD SWAP1 PUSH2 0x100 EXP SWAP1 DIV PUSH20 0xFFFFFFFFFFFFFFFFFFFFFFFFFFFFFFFFFFFFFFFF AND SWAP1 POP SWAP1 JUMP JUMPDEST PUSH1 0xE SLOAD DUP2 JUMP JUMPDEST PUSH2 0xB96 PUSH2 0x11EA JUMP JUMPDEST PUSH0 PUSH1 0xE SLOAD SWAP1 POP PUSH0 DUP2 GT PUSH2 0xBDE JUMPI PUSH1 0x40 MLOAD PUSH32 0x8C379A000000000000000000000000000000000000000000000000000000000 DUP2 MSTORE PUSH1 0x4 ADD PUSH2 0xBD5 SWAP1 PUSH2 0x1C86 JUMP JUMPDEST PUSH1 0x40 MLOAD DUP1 SWAP2 SUB SWAP1 REVERT JUMPDEST PUSH0 PUSH0 SWAP1 POP JUMPDEST PUSH1 0xD DUP1 SLOAD SWAP1 POP DUP2 LT ISZERO PUSH2 0xCBA JUMPI PUSH0 PUSH1 0xD DUP3 DUP2 SLOAD DUP2 LT PUSH2 0xC05 JUMPI PUSH2 0xC04 PUSH2 0x1CA4 JUMP JUMPDEST JUMPDEST SWAP1 PUSH0 MSTORE PUSH1 0x20 PUSH0 KECCAK256 ADD PUSH0 SWAP1 SLOAD SWAP1 PUSH2 0x100 EXP SWAP1 DIV PUSH20 0xFFFFFFFFFFFFFFFFFFFFFFFFFFFFFFFFFFFFFFFF AND SWAP1 POP PUSH0 PUSH1 0xC PUSH0 DUP4 PUSH20 0xFFFFFFFFFFFFFFFFFFFFFFFFFFFFFFFFFFFFFFFF AND PUSH20 0xFFFFFFFFFFFFFFFFFFFFFFFFFFFFFFFFFFFFFFFF AND DUP2 MSTORE PUSH1 0x20 ADD SWAP1 DUP2 MSTORE PUSH1 0x20 ADD PUSH0 KECCAK256 SWAP1 POP PUSH0 PUSH1 0x1 DUP1 ADD SLOAD DUP6 DUP4 PUSH0 ADD SLOAD PUSH2 0xC84 SWAP2 SWAP1 PUSH2 0x1963 JUMP JUMPDEST PUSH2 0xC8E SWAP2 SWAP1 PUSH2 0x19D1 JUMP JUMPDEST SWAP1 POP DUP1 DUP3 PUSH1 0x3 ADD PUSH0 DUP3 DUP3 SLOAD PUSH2 0xCA3 SWAP2 SWAP1 PUSH2 0x1A34 JUMP JUMPDEST SWAP3 POP POP DUP2 SWAP1 SSTORE POP POP POP POP DUP1 DUP1 PUSH1 0x1 ADD SWAP2 POP POP PUSH2 0xBE3 JUMP JUMPDEST POP PUSH0 PUSH1 0xE DUP2 SWAP1 SSTORE POP PUSH32 0x8959421A1320789A49EEEC01A4750CAF8A30733C3DB14F000D84484DF89300F9 DUP2 PUSH1 0x40 MLOAD PUSH2 0xCF1 SWAP2 SWAP1 PUSH2 0x1709 JUMP JUMPDEST PUSH1 0x40 MLOAD DUP1 SWAP2 SUB SWAP1 LOG1 POP JUMP JUMPDEST PUSH0 PUSH0 DUP4 TIMESTAMP PUSH2 0xD0A SWAP2 SWAP1 PUSH2 0x1A01 JUMP JUMPDEST SWAP1 POP PUSH0 PUSH3 0x15180 DUP3 PUSH2 0xD1C SWAP2 SWAP1 PUSH2 0x19D1 JUMP JUMPDEST PUSH1 0x64 PUSH2 0xD28 SWAP2 SWAP1 PUSH2 0x1A34 JUMP JUMPDEST SWAP1 POP PUSH0 PUSH2 0x3E8 DUP9 PUSH2 0xD39 SWAP2 SWAP1 PUSH2 0x19D1 JUMP JUMPDEST PUSH1 0x64 PUSH2 0xD45 SWAP2 SWAP1 PUSH2 0x1A34 JUMP JUMPDEST SWAP1 POP PUSH2 0x2710 DUP6 DUP3 DUP5 DUP12 PUSH2 0xD58 SWAP2 SWAP1 PUSH2 0x1963 JUMP JUMPDEST PUSH2 0xD62 SWAP2 SWAP1 PUSH2 0x1963 JUMP JUMPDEST PUSH2 0xD6C SWAP2 SWAP1 PUSH2 0x1963 JUMP JUMPDEST PUSH2 0xD76 SWAP2 SWAP1 PUSH2 0x19D1 JUMP JUMPDEST SWAP4 POP POP POP POP SWAP5 SWAP4 POP POP POP POP JUMP JUMPDEST PUSH2 0xD8B PUSH2 0x11EA JUMP JUMPDEST PUSH1 0x1 PUSH1 0xA ADD PUSH0 SWAP1 SLOAD SWAP1 PUSH2 0x100 EXP SWAP1 DIV PUSH1 0xFF AND ISZERO PUSH1 0x1 PUSH1 0xA ADD PUSH0 PUSH2 0x100 EXP DUP2 SLOAD DUP2 PUSH1 0xFF MUL NOT AND SWAP1 DUP4 ISZERO ISZERO MUL OR SWAP1 SSTORE POP PUSH32 0xBD466AF87C4FABD1FA3D061817020A39C29D7986649F582F9F405C8EB8AA7C0B PUSH1 0x1 PUSH1 0xA ADD PUSH0 SWAP1 SLOAD SWAP1 PUSH2 0x100 EXP SWAP1 DIV PUSH1 0xFF AND PUSH1 0x40 MLOAD PUSH2 0xDF9 SWAP2 SWAP1 PUSH2 0x1CD1 JUMP JUMPDEST PUSH1 0x40 MLOAD DUP1 SWAP2 SUB SWAP1 LOG1 JUMP JUMPDEST PUSH0 PUSH1 0xC PUSH0 CALLER PUSH20 0xFFFFFFFFFFFFFFFFFFFFFFFFFFFFFFFFFFFFFFFF AND PUSH20 0xFFFFFFFFFFFFFFFFFFFFFFFFFFFFFFFFFFFFFFFF AND DUP2 MSTORE PUSH1 0x20 ADD SWAP1 DUP2 MSTORE PUSH1 0x20 ADD PUSH0 KECCAK256 SWAP1 POP PUSH0 DUP2 PUSH0 ADD SLOAD GT PUSH2 0xE88 JUMPI PUSH1 0x40 MLOAD PUSH32 0x8C379A000000000000000000000000000000000000000000000000000000000 DUP2 MSTORE PUSH1 0x4 ADD PUSH2 0xE7F SWAP1 PUSH2 0x1D34 JUMP JUMPDEST PUSH1 0x40 MLOAD DUP1 SWAP2 SUB SWAP1 REVERT JUMPDEST PUSH0 DUP2 PUSH0 ADD SLOAD SWAP1 POP PUSH0 DUP3 PUSH0 ADD DUP2 SWAP1 SSTORE POP DUP1 PUSH1 0x1 DUP1 ADD PUSH0 DUP3 DUP3 SLOAD PUSH2 0xEAA SWAP2 SWAP1 PUSH2 0x1A01 JUMP JUMPDEST SWAP3 POP POP DUP2 SWAP1 SSTORE POP PUSH2 0xEBA CALLER PUSH2 0x106A JUMP JUMPDEST PUSH1 0x1 PUSH0 ADD PUSH0 SWAP1 SLOAD SWAP1 PUSH2 0x100 EXP SWAP1 DIV PUSH20 0xFFFFFFFFFFFFFFFFFFFFFFFFFFFFFFFFFFFFFFFF AND PUSH20 0xFFFFFFFFFFFFFFFFFFFFFFFFFFFFFFFFFFFFFFFF AND PUSH4 0xA9059CBB CALLER DUP4 PUSH1 0x40 MLOAD DUP4 PUSH4 0xFFFFFFFF AND PUSH1 0xE0 SHL DUP2 MSTORE PUSH1 0x4 ADD PUSH2 0xF18 SWAP3 SWAP2 SWAP1 PUSH2 0x1A67 JUMP JUMPDEST PUSH1 0x20 PUSH1 0x40 MLOAD DUP1 DUP4 SUB DUP2 PUSH0 DUP8 GAS CALL ISZERO DUP1 ISZERO PUSH2 0xF34 JUMPI RETURNDATASIZE PUSH0 PUSH0 RETURNDATACOPY RETURNDATASIZE PUSH0 REVERT JUMPDEST POP POP POP POP PUSH1 0x40 MLOAD RETURNDATASIZE PUSH1 0x1F NOT PUSH1 0x1F DUP3 ADD AND DUP3 ADD DUP1 PUSH1 0x40 MSTORE POP DUP2 ADD SWAP1 PUSH2 0xF58 SWAP2 SWAP1 PUSH2 0x1AA2 JUMP JUMPDEST POP CALLER PUSH20 0xFFFFFFFFFFFFFFFFFFFFFFFFFFFFFFFFFFFFFFFF AND PUSH32 0x23D6711A1D031134A36921253C75AA59E967D38E369AC625992824315E204F20 DUP3 PUSH1 0x40 MLOAD PUSH2 0xF9F SWAP2 SWAP1 PUSH2 0x1709 JUMP JUMPDEST PUSH1 0x40 MLOAD DUP1 SWAP2 SUB SWAP1 LOG2 POP POP JUMP JUMPDEST PUSH2 0xFB3 PUSH2 0x11EA JUMP JUMPDEST PUSH0 PUSH20 0xFFFFFFFFFFFFFFFFFFFFFFFFFFFFFFFFFFFFFFFF AND DUP2 PUSH20 0xFFFFFFFFFFFFFFFFFFFFFFFFFFFFFFFFFFFFFFFF AND SUB PUSH2 0x1023 JUMPI PUSH0 PUSH1 0x40 MLOAD PUSH32 0x1E4FBDF700000000000000000000000000000000000000000000000000000000 DUP2 MSTORE PUSH1 0x4 ADD PUSH2 0x101A SWAP2 SWAP1 PUSH2 0x16F0 JUMP JUMPDEST PUSH1 0x40 MLOAD DUP1 SWAP2 SUB SWAP1 REVERT JUMPDEST PUSH2 0x102C DUP2 PUSH2 0x1271 JUMP JUMPDEST POP JUMP JUMPDEST PUSH1 0xD DUP2 DUP2 SLOAD DUP2 LT PUSH2 0x103E JUMPI PUSH0 DUP1 REVERT JUMPDEST SWAP1 PUSH0 MSTORE PUSH1 0x20 PUSH0 KECCAK256 ADD PUSH0 SWAP2 POP SLOAD SWAP1 PUSH2 0x100 EXP SWAP1 DIV PUSH20 0xFFFFFFFFFFFFFFFFFFFFFFFFFFFFFFFFFFFFFFFF AND DUP2 JUMP JUMPDEST PUSH0 PUSH0 SWAP1 POP JUMPDEST PUSH1 0xD DUP1 SLOAD SWAP1 POP DUP2 LT ISZERO PUSH2 0x11E6 JUMPI DUP2 PUSH20 0xFFFFFFFFFFFFFFFFFFFFFFFFFFFFFFFFFFFFFFFF AND PUSH1 0xD DUP3 DUP2 SLOAD DUP2 LT PUSH2 0x10A7 JUMPI PUSH2 0x10A6 PUSH2 0x1CA4 JUMP JUMPDEST JUMPDEST SWAP1 PUSH0 MSTORE PUSH1 0x20 PUSH0 KECCAK256 ADD PUSH0 SWAP1 SLOAD SWAP1 PUSH2 0x100 EXP SWAP1 DIV PUSH20 0xFFFFFFFFFFFFFFFFFFFFFFFFFFFFFFFFFFFFFFFF AND PUSH20 0xFFFFFFFFFFFFFFFFFFFFFFFFFFFFFFFFFFFFFFFF AND SUB PUSH2 0x11D9 JUMPI PUSH1 0xD PUSH1 0x1 PUSH1 0xD DUP1 SLOAD SWAP1 POP PUSH2 0x10FE SWAP2 SWAP1 PUSH2 0x1A01 JUMP JUMPDEST DUP2 SLOAD DUP2 LT PUSH2 0x110F JUMPI PUSH2 0x110E PUSH2 0x1CA4 JUMP JUMPDEST JUMPDEST SWAP1 PUSH0 MSTORE PUSH1 0x20 PUSH0 KECCAK256 ADD PUSH0 SWAP1 SLOAD SWAP1 PUSH2 0x100 EXP SWAP1 DIV PUSH20 0xFFFFFFFFFFFFFFFFFFFFFFFFFFFFFFFFFFFFFFFF AND PUSH1 0xD DUP3 DUP2 SLOAD DUP2 LT PUSH2 0x114B JUMPI PUSH2 0x114A PUSH2 0x1CA4 JUMP JUMPDEST JUMPDEST SWAP1 PUSH0 MSTORE PUSH1 0x20 PUSH0 KECCAK256 ADD PUSH0 PUSH2 0x100 EXP DUP2 SLOAD DUP2 PUSH20 0xFFFFFFFFFFFFFFFFFFFFFFFFFFFFFFFFFFFFFFFF MUL NOT AND SWAP1 DUP4 PUSH20 0xFFFFFFFFFFFFFFFFFFFFFFFFFFFFFFFFFFFFFFFF AND MUL OR SWAP1 SSTORE POP PUSH1 0xD DUP1 SLOAD DUP1 PUSH2 0x11A2 JUMPI PUSH2 0x11A1 PUSH2 0x1D52 JUMP JUMPDEST JUMPDEST PUSH1 0x1 SWAP1 SUB DUP2 DUP2 SWAP1 PUSH0 MSTORE PUSH1 0x20 PUSH0 KECCAK256 ADD PUSH0 PUSH2 0x100 EXP DUP2 SLOAD SWAP1 PUSH20 0xFFFFFFFFFFFFFFFFFFFFFFFFFFFFFFFFFFFFFFFF MUL NOT AND SWAP1 SSTORE SWAP1 SSTORE PUSH2 0x11E6 JUMP JUMPDEST DUP1 DUP1 PUSH1 0x1 ADD SWAP2 POP POP PUSH2 0x106F JUMP JUMPDEST POP POP JUMP JUMPDEST PUSH2 0x11F2 PUSH2 0x1332 JUMP JUMPDEST PUSH20 0xFFFFFFFFFFFFFFFFFFFFFFFFFFFFFFFFFFFFFFFF AND PUSH2 0x1210 PUSH2 0xB61 JUMP JUMPDEST PUSH20 0xFFFFFFFFFFFFFFFFFFFFFFFFFFFFFFFFFFFFFFFF AND EQ PUSH2 0x126F JUMPI PUSH2 0x1233 PUSH2 0x1332 JUMP JUMPDEST PUSH1 0x40 MLOAD PUSH32 0x118CDAA700000000000000000000000000000000000000000000000000000000 DUP2 MSTORE PUSH1 0x4 ADD PUSH2 0x1266 SWAP2 SWAP1 PUSH2 0x16F0 JUMP JUMPDEST PUSH1 0x40 MLOAD DUP1 SWAP2 SUB SWAP1 REVERT JUMPDEST JUMP JUMPDEST PUSH0 PUSH0 PUSH0 SWAP1 SLOAD SWAP1 PUSH2 0x100 EXP SWAP1 DIV PUSH20 0xFFFFFFFFFFFFFFFFFFFFFFFFFFFFFFFFFFFFFFFF AND SWAP1 POP DUP2 PUSH0 PUSH0 PUSH2 0x100 EXP DUP2 SLOAD DUP2 PUSH20 0xFFFFFFFFFFFFFFFFFFFFFFFFFFFFFFFFFFFFFFFF MUL NOT AND SWAP1 DUP4 PUSH20 0xFFFFFFFFFFFFFFFFFFFFFFFFFFFFFFFFFFFFFFFF AND MUL OR SWAP1 SSTORE POP DUP2 PUSH20 0xFFFFFFFFFFFFFFFFFFFFFFFFFFFFFFFFFFFFFFFF AND DUP2 PUSH20 0xFFFFFFFFFFFFFFFFFFFFFFFFFFFFFFFFFFFFFFFF AND PUSH32 0x8BE0079C531659141344CD1FD0A4F28419497F9722A3DAAFE3B4186F6B6457E0 PUSH1 0x40 MLOAD PUSH1 0x40 MLOAD DUP1 SWAP2 SUB SWAP1 LOG3 POP POP JUMP JUMPDEST PUSH0 CALLER SWAP1 POP SWAP1 JUMP JUMPDEST PUSH0 PUSH20 0xFFFFFFFFFFFFFFFFFFFFFFFFFFFFFFFFFFFFFFFF DUP3 AND SWAP1 POP SWAP2 SWAP1 POP JUMP JUMPDEST PUSH0 DUP2 SWAP1 POP SWAP2 SWAP1 POP JUMP JUMPDEST PUSH0 PUSH2 0x137B PUSH2 0x1376 PUSH2 0x1371 DUP5 PUSH2 0x1339 JUMP JUMPDEST PUSH2 0x1358 JUMP JUMPDEST PUSH2 0x1339 JUMP JUMPDEST SWAP1 POP SWAP2 SWAP1 POP JUMP JUMPDEST PUSH0 PUSH2 0x138C DUP3 PUSH2 0x1361 JUMP JUMPDEST SWAP1 POP SWAP2 SWAP1 POP JUMP JUMPDEST PUSH0 PUSH2 0x139D DUP3 PUSH2 0x1382 JUMP JUMPDEST SWAP1 POP SWAP2 SWAP1 POP JUMP JUMPDEST PUSH2 0x13AD DUP2 PUSH2 0x1393 JUMP JUMPDEST DUP3 MSTORE POP POP JUMP JUMPDEST PUSH0 DUP2 SWAP1 POP SWAP2 SWAP1 POP JUMP JUMPDEST PUSH2 0x13C5 DUP2 PUSH2 0x13B3 JUMP JUMPDEST DUP3 MSTORE POP POP JUMP JUMPDEST PUSH0 PUSH2 0x13D5 DUP3 PUSH2 0x1339 JUMP JUMPDEST SWAP1 POP SWAP2 SWAP1 POP JUMP JUMPDEST PUSH2 0x13E5 DUP2 PUSH2 0x13CB JUMP JUMPDEST DUP3 MSTORE POP POP JUMP JUMPDEST PUSH0 DUP2 ISZERO ISZERO SWAP1 POP SWAP2 SWAP1 POP JUMP JUMPDEST PUSH2 0x13FF DUP2 PUSH2 0x13EB JUMP JUMPDEST DUP3 MSTORE POP POP JUMP JUMPDEST PUSH0 PUSH2 0x160 DUP3 ADD SWAP1 POP PUSH2 0x1419 PUSH0 DUP4 ADD DUP15 PUSH2 0x13A4 JUMP JUMPDEST PUSH2 0x1426 PUSH1 0x20 DUP4 ADD DUP14 PUSH2 0x13BC JUMP JUMPDEST PUSH2 0x1433 PUSH1 0x40 DUP4 ADD DUP13 PUSH2 0x13BC JUMP JUMPDEST PUSH2 0x1440 PUSH1 0x60 DUP4 ADD DUP12 PUSH2 0x13BC JUMP JUMPDEST PUSH2 0x144D PUSH1 0x80 DUP4 ADD DUP11 PUSH2 0x13BC JUMP JUMPDEST PUSH2 0x145A PUSH1 0xA0 DUP4 ADD DUP10 PUSH2 0x13DC JUMP JUMPDEST PUSH2 0x1467 PUSH1 0xC0 DUP4 ADD DUP9 PUSH2 0x13BC JUMP JUMPDEST PUSH2 0x1474 PUSH1 0xE0 DUP4 ADD DUP8 PUSH2 0x13BC JUMP JUMPDEST PUSH2 0x1482 PUSH2 0x100 DUP4 ADD DUP7 PUSH2 0x13BC JUMP JUMPDEST PUSH2 0x1490 PUSH2 0x120 DUP4 ADD DUP6 PUSH2 0x13BC JUMP JUMPDEST PUSH2 0x149E PUSH2 0x140 DUP4 ADD DUP5 PUSH2 0x13F6 JUMP JUMPDEST SWAP13 SWAP12 POP POP POP POP POP POP POP POP POP POP POP POP JUMP JUMPDEST PUSH0 PUSH0 REVERT JUMPDEST PUSH2 0x14BB DUP2 PUSH2 0x13B3 JUMP JUMPDEST DUP2 EQ PUSH2 0x14C5 JUMPI PUSH0 PUSH0 REVERT JUMPDEST POP JUMP JUMPDEST PUSH0 DUP2 CALLDATALOAD SWAP1 POP PUSH2 0x14D6 DUP2 PUSH2 0x14B2 JUMP JUMPDEST SWAP3 SWAP2 POP POP JUMP JUMPDEST PUSH0 PUSH1 0x20 DUP3 DUP5 SUB SLT ISZERO PUSH2 0x14F1 JUMPI PUSH2 0x14F0 PUSH2 0x14AE JUMP JUMPDEST JUMPDEST PUSH0 PUSH2 0x14FE DUP5 DUP3 DUP6 ADD PUSH2 0x14C8 JUMP JUMPDEST SWAP2 POP POP SWAP3 SWAP2 POP POP JUMP JUMPDEST PUSH0 DUP2 MLOAD SWAP1 POP SWAP2 SWAP1 POP JUMP JUMPDEST PUSH0 DUP3 DUP3 MSTORE PUSH1 0x20 DUP3 ADD SWAP1 POP SWAP3 SWAP2 POP POP JUMP JUMPDEST PUSH0 DUP2 SWAP1 POP PUSH1 0x20 DUP3 ADD SWAP1 POP SWAP2 SWAP1 POP JUMP JUMPDEST PUSH2 0x1539 DUP2 PUSH2 0x13CB JUMP JUMPDEST DUP3 MSTORE POP POP JUMP JUMPDEST PUSH0 PUSH2 0x154A DUP4 DUP4 PUSH2 0x1530 JUMP JUMPDEST PUSH1 0x20 DUP4 ADD SWAP1 POP SWAP3 SWAP2 POP POP JUMP JUMPDEST PUSH0 PUSH1 0x20 DUP3 ADD SWAP1 POP SWAP2 SWAP1 POP JUMP JUMPDEST PUSH0 PUSH2 0x156C DUP3 PUSH2 0x1507 JUMP JUMPDEST PUSH2 0x1576 DUP2 DUP6 PUSH2 0x1511 JUMP JUMPDEST SWAP4 POP PUSH2 0x1581 DUP4 PUSH2 0x1521 JUMP JUMPDEST DUP1 PUSH0 JUMPDEST DUP4 DUP2 LT ISZERO PUSH2 0x15B1 JUMPI DUP2 MLOAD PUSH2 0x1598 DUP9 DUP3 PUSH2 0x153F JUMP JUMPDEST SWAP8 POP PUSH2 0x15A3 DUP4 PUSH2 0x1556 JUMP JUMPDEST SWAP3 POP POP PUSH1 0x1 DUP2 ADD SWAP1 POP PUSH2 0x1584 JUMP JUMPDEST POP DUP6 SWAP4 POP POP POP POP SWAP3 SWAP2 POP POP JUMP JUMPDEST PUSH0 PUSH1 0x20 DUP3 ADD SWAP1 POP DUP2 DUP2 SUB PUSH0 DUP4 ADD MSTORE PUSH2 0x15D6 DUP2 DUP5 PUSH2 0x1562 JUMP JUMPDEST SWAP1 POP SWAP3 SWAP2 POP POP JUMP JUMPDEST PUSH2 0x15E7 DUP2 PUSH2 0x13EB JUMP JUMPDEST DUP2 EQ PUSH2 0x15F1 JUMPI PUSH0 PUSH0 REVERT JUMPDEST POP JUMP JUMPDEST PUSH0 DUP2 CALLDATALOAD SWAP1 POP PUSH2 0x1602 DUP2 PUSH2 0x15DE JUMP JUMPDEST SWAP3 SWAP2 POP POP JUMP JUMPDEST PUSH0 PUSH0 PUSH0 PUSH1 0x60 DUP5 DUP7 SUB SLT ISZERO PUSH2 0x161F JUMPI PUSH2 0x161E PUSH2 0x14AE JUMP JUMPDEST JUMPDEST PUSH0 PUSH2 0x162C DUP7 DUP3 DUP8 ADD PUSH2 0x14C8 JUMP JUMPDEST SWAP4 POP POP PUSH1 0x20 PUSH2 0x163D DUP7 DUP3 DUP8 ADD PUSH2 0x15F4 JUMP JUMPDEST SWAP3 POP POP PUSH1 0x40 PUSH2 0x164E DUP7 DUP3 DUP8 ADD PUSH2 0x14C8 JUMP JUMPDEST SWAP2 POP POP SWAP3 POP SWAP3 POP SWAP3 JUMP JUMPDEST PUSH2 0x1661 DUP2 PUSH2 0x13CB JUMP JUMPDEST DUP2 EQ PUSH2 0x166B JUMPI PUSH0 PUSH0 REVERT JUMPDEST POP JUMP JUMPDEST PUSH0 DUP2 CALLDATALOAD SWAP1 POP PUSH2 0x167C DUP2 PUSH2 0x1658 JUMP JUMPDEST SWAP3 SWAP2 POP POP JUMP JUMPDEST PUSH0 PUSH1 0x20 DUP3 DUP5 SUB SLT ISZERO PUSH2 0x1697 JUMPI PUSH2 0x1696 PUSH2 0x14AE JUMP JUMPDEST JUMPDEST PUSH0 PUSH2 0x16A4 DUP5 DUP3 DUP6 ADD PUSH2 0x166E JUMP JUMPDEST SWAP2 POP POP SWAP3 SWAP2 POP POP JUMP JUMPDEST PUSH0 PUSH1 0x80 DUP3 ADD SWAP1 POP PUSH2 0x16C0 PUSH0 DUP4 ADD DUP8 PUSH2 0x13BC JUMP JUMPDEST PUSH2 0x16CD PUSH1 0x20 DUP4 ADD DUP7 PUSH2 0x13BC JUMP JUMPDEST PUSH2 0x16DA PUSH1 0x40 DUP4 ADD DUP6 PUSH2 0x13BC JUMP JUMPDEST PUSH2 0x16E7 PUSH1 0x60 DUP4 ADD DUP5 PUSH2 0x13BC JUMP JUMPDEST SWAP6 SWAP5 POP POP POP POP POP JUMP JUMPDEST PUSH0 PUSH1 0x20 DUP3 ADD SWAP1 POP PUSH2 0x1703 PUSH0 DUP4 ADD DUP5 PUSH2 0x13DC JUMP JUMPDEST SWAP3 SWAP2 POP POP JUMP JUMPDEST PUSH0 PUSH1 0x20 DUP3 ADD SWAP1 POP PUSH2 0x171C PUSH0 DUP4 ADD DUP5 PUSH2 0x13BC JUMP JUMPDEST SWAP3 SWAP2 POP POP JUMP JUMPDEST PUSH0 PUSH0 PUSH0 PUSH0 PUSH1 0x80 DUP6 DUP8 SUB SLT ISZERO PUSH2 0x173A JUMPI PUSH2 0x1739 PUSH2 0x14AE JUMP JUMPDEST JUMPDEST PUSH0 PUSH2 0x1747 DUP8 DUP3 DUP9 ADD PUSH2 0x14C8 JUMP JUMPDEST SWAP5 POP POP PUSH1 0x20 PUSH2 0x1758 DUP8 DUP3 DUP9 ADD PUSH2 0x14C8 JUMP JUMPDEST SWAP4 POP POP PUSH1 0x40 PUSH2 0x1769 DUP8 DUP3 DUP9 ADD PUSH2 0x14C8 JUMP JUMPDEST SWAP3 POP POP PUSH1 0x60 PUSH2 0x177A DUP8 DUP3 DUP9 ADD PUSH2 0x14C8 JUMP JUMPDEST SWAP2 POP POP SWAP3 SWAP6 SWAP2 SWAP5 POP SWAP3 POP JUMP JUMPDEST PUSH0 DUP3 DUP3 MSTORE PUSH1 0x20 DUP3 ADD SWAP1 POP SWAP3 SWAP2 POP POP JUMP JUMPDEST PUSH32 0x506F6F6C20697320706175736564000000000000000000000000000000000000 PUSH0 DUP3 ADD MSTORE POP JUMP JUMPDEST PUSH0 PUSH2 0x17CA PUSH1 0xE DUP4 PUSH2 0x1786 JUMP JUMPDEST SWAP2 POP PUSH2 0x17D5 DUP3 PUSH2 0x1796 JUMP JUMPDEST PUSH1 0x20 DUP3 ADD SWAP1 POP SWAP2 SWAP1 POP JUMP JUMPDEST PUSH0 PUSH1 0x20 DUP3 ADD SWAP1 POP DUP2 DUP2 SUB PUSH0 DUP4 ADD MSTORE PUSH2 0x17F7 DUP2 PUSH2 0x17BE JUMP JUMPDEST SWAP1 POP SWAP2 SWAP1 POP JUMP JUMPDEST PUSH32 0x416D6F756E74206D7573742062652067726561746572207468616E207A65726F PUSH0 DUP3 ADD MSTORE POP JUMP JUMPDEST PUSH0 PUSH2 0x1832 PUSH1 0x20 DUP4 PUSH2 0x1786 JUMP JUMPDEST SWAP2 POP PUSH2 0x183D DUP3 PUSH2 0x17FE JUMP JUMPDEST PUSH1 0x20 DUP3 ADD SWAP1 POP SWAP2 SWAP1 POP JUMP JUMPDEST PUSH0 PUSH1 0x20 DUP3 ADD SWAP1 POP DUP2 DUP2 SUB PUSH0 DUP4 ADD MSTORE PUSH2 0x185F DUP2 PUSH2 0x1826 JUMP JUMPDEST SWAP1 POP SWAP2 SWAP1 POP JUMP JUMPDEST PUSH32 0x496E73756666696369656E742062616C616E6365000000000000000000000000 PUSH0 DUP3 ADD MSTORE POP JUMP JUMPDEST PUSH0 PUSH2 0x189A PUSH1 0x14 DUP4 PUSH2 0x1786 JUMP JUMPDEST SWAP2 POP PUSH2 0x18A5 DUP3 PUSH2 0x1866 JUMP JUMPDEST PUSH1 0x20 DUP3 ADD SWAP1 POP SWAP2 SWAP1 POP JUMP JUMPDEST PUSH0 PUSH1 0x20 DUP3 ADD SWAP1 POP DUP2 DUP2 SUB PUSH0 DUP4 ADD MSTORE PUSH2 0x18C7 DUP2 PUSH2 0x188E JUMP JUMPDEST SWAP1 POP SWAP2 SWAP1 POP JUMP JUMPDEST PUSH32 0x5374616B65206973207374696C6C206C6F636B65640000000000000000000000 PUSH0 DUP3 ADD MSTORE POP JUMP JUMPDEST PUSH0 PUSH2 0x1902 PUSH1 0x15 DUP4 PUSH2 0x1786 JUMP JUMPDEST SWAP2 POP PUSH2 0x190D DUP3 PUSH2 0x18CE JUMP JUMPDEST PUSH1 0x20 DUP3 ADD SWAP1 POP SWAP2 SWAP1 POP JUMP JUMPDEST PUSH0 PUSH1 0x20 DUP3 ADD SWAP1 POP DUP2 DUP2 SUB PUSH0 DUP4 ADD MSTORE PUSH2 0x192F DUP2 PUSH2 0x18F6 JUMP JUMPDEST SWAP1 POP SWAP2 SWAP1 POP JUMP JUMPDEST PUSH32 0x4E487B7100000000000000000000000000000000000000000000000000000000 PUSH0 MSTORE PUSH1 0x11 PUSH1 0x4 MSTORE PUSH1 0x24 PUSH0 REVERT JUMPDEST PUSH0 PUSH2 0x196D DUP3 PUSH2 0x13B3 JUMP JUMPDEST SWAP2 POP PUSH2 0x1978 DUP4 PUSH2 0x13B3 JUMP JUMPDEST SWAP3 POP DUP3 DUP3 MUL PUSH2 0x1986 DUP2 PUSH2 0x13B3 JUMP JUMPDEST SWAP2 POP DUP3 DUP3 DIV DUP5 EQ DUP4 ISZERO OR PUSH2 0x199D JUMPI PUSH2 0x199C PUSH2 0x1936 JUMP JUMPDEST JUMPDEST POP SWAP3 SWAP2 POP POP JUMP JUMPDEST PUSH32 0x4E487B7100000000000000000000000000000000000000000000000000000000 PUSH0 MSTORE PUSH1 0x12 PUSH1 0x4 MSTORE PUSH1 0x24 PUSH0 REVERT JUMPDEST PUSH0 PUSH2 0x19DB DUP3 PUSH2 0x13B3 JUMP JUMPDEST SWAP2 POP PUSH2 0x19E6 DUP4 PUSH2 0x13B3 JUMP JUMPDEST SWAP3 POP DUP3 PUSH2 0x19F6 JUMPI PUSH2 0x19F5 PUSH2 0x19A4 JUMP JUMPDEST JUMPDEST DUP3 DUP3 DIV SWAP1 POP SWAP3 SWAP2 POP POP JUMP JUMPDEST PUSH0 PUSH2 0x1A0B DUP3 PUSH2 0x13B3 JUMP JUMPDEST SWAP2 POP PUSH2 0x1A16 DUP4 PUSH2 0x13B3 JUMP JUMPDEST SWAP3 POP DUP3 DUP3 SUB SWAP1 POP DUP2 DUP2 GT ISZERO PUSH2 0x1A2E JUMPI PUSH2 0x1A2D PUSH2 0x1936 JUMP JUMPDEST JUMPDEST SWAP3 SWAP2 POP POP JUMP JUMPDEST PUSH0 PUSH2 0x1A3E DUP3 PUSH2 0x13B3 JUMP JUMPDEST SWAP2 POP PUSH2 0x1A49 DUP4 PUSH2 0x13B3 JUMP JUMPDEST SWAP3 POP DUP3 DUP3 ADD SWAP1 POP DUP1 DUP3 GT ISZERO PUSH2 0x1A61 JUMPI PUSH2 0x1A60 PUSH2 0x1936 JUMP JUMPDEST JUMPDEST SWAP3 SWAP2 POP POP JUMP JUMPDEST PUSH0 PUSH1 0x40 DUP3 ADD SWAP1 POP PUSH2 0x1A7A PUSH0 DUP4 ADD DUP6 PUSH2 0x13DC JUMP JUMPDEST PUSH2 0x1A87 PUSH1 0x20 DUP4 ADD DUP5 PUSH2 0x13BC JUMP JUMPDEST SWAP4 SWAP3 POP POP POP JUMP JUMPDEST PUSH0 DUP2 MLOAD SWAP1 POP PUSH2 0x1A9C DUP2 PUSH2 0x15DE JUMP JUMPDEST SWAP3 SWAP2 POP POP JUMP JUMPDEST PUSH0 PUSH1 0x20 DUP3 DUP5 SUB SLT ISZERO PUSH2 0x1AB7 JUMPI PUSH2 0x1AB6 PUSH2 0x14AE JUMP JUMPDEST JUMPDEST PUSH0 PUSH2 0x1AC4 DUP5 DUP3 DUP6 ADD PUSH2 0x1A8E JUMP JUMPDEST SWAP2 POP POP SWAP3 SWAP2 POP POP JUMP JUMPDEST PUSH0 PUSH1 0x60 DUP3 ADD SWAP1 POP PUSH2 0x1AE0 PUSH0 DUP4 ADD DUP7 PUSH2 0x13BC JUMP JUMPDEST PUSH2 0x1AED PUSH1 0x20 DUP4 ADD DUP6 PUSH2 0x13BC JUMP JUMPDEST PUSH2 0x1AFA PUSH1 0x40 DUP4 ADD DUP5 PUSH2 0x13BC JUMP JUMPDEST SWAP5 SWAP4 POP POP POP POP JUMP JUMPDEST PUSH32 0x4465706F73697420657863656564732075736572206C696D6974000000000000 PUSH0 DUP3 ADD MSTORE POP JUMP JUMPDEST PUSH0 PUSH2 0x1B36 PUSH1 0x1A DUP4 PUSH2 0x1786 JUMP JUMPDEST SWAP2 POP PUSH2 0x1B41 DUP3 PUSH2 0x1B02 JUMP JUMPDEST PUSH1 0x20 DUP3 ADD SWAP1 POP SWAP2 SWAP1 POP JUMP JUMPDEST PUSH0 PUSH1 0x20 DUP3 ADD SWAP1 POP DUP2 DUP2 SUB PUSH0 DUP4 ADD MSTORE PUSH2 0x1B63 DUP2 PUSH2 0x1B2A JUMP JUMPDEST SWAP1 POP SWAP2 SWAP1 POP JUMP JUMPDEST PUSH32 0x506F6F6C206C6971756964697479206578636565646564000000000000000000 PUSH0 DUP3 ADD MSTORE POP JUMP JUMPDEST PUSH0 PUSH2 0x1B9E PUSH1 0x17 DUP4 PUSH2 0x1786 JUMP JUMPDEST SWAP2 POP PUSH2 0x1BA9 DUP3 PUSH2 0x1B6A JUMP JUMPDEST PUSH1 0x20 DUP3 ADD SWAP1 POP SWAP2 SWAP1 POP JUMP JUMPDEST PUSH0 PUSH1 0x20 DUP3 ADD SWAP1 POP DUP2 DUP2 SUB PUSH0 DUP4 ADD MSTORE PUSH2 0x1BCB DUP2 PUSH2 0x1B92 JUMP JUMPDEST SWAP1 POP SWAP2 SWAP1 POP JUMP JUMPDEST PUSH0 PUSH1 0x60 DUP3 ADD SWAP1 POP PUSH2 0x1BE5 PUSH0 DUP4 ADD DUP7 PUSH2 0x13DC JUMP JUMPDEST PUSH2 0x1BF2 PUSH1 0x20 DUP4 ADD DUP6 PUSH2 0x13DC JUMP JUMPDEST PUSH2 0x1BFF PUSH1 0x40 DUP4 ADD DUP5 PUSH2 0x13BC JUMP JUMPDEST SWAP5 SWAP4 POP POP POP POP JUMP JUMPDEST PUSH0 PUSH1 0x60 DUP3 ADD SWAP1 POP PUSH2 0x1C1A PUSH0 DUP4 ADD DUP7 PUSH2 0x13BC JUMP JUMPDEST PUSH2 0x1C27 PUSH1 0x20 DUP4 ADD DUP6 PUSH2 0x13BC JUMP JUMPDEST PUSH2 0x1C34 PUSH1 0x40 DUP4 ADD DUP5 PUSH2 0x13F6 JUMP JUMPDEST SWAP5 SWAP4 POP POP POP POP JUMP JUMPDEST PUSH32 0x4E6F206665657320746F20646973747269627574650000000000000000000000 PUSH0 DUP3 ADD MSTORE POP JUMP JUMPDEST PUSH0 PUSH2 0x1C70 PUSH1 0x15 DUP4 PUSH2 0x1786 JUMP JUMPDEST SWAP2 POP PUSH2 0x1C7B DUP3 PUSH2 0x1C3C JUMP JUMPDEST PUSH1 0x20 DUP3 ADD SWAP1 POP SWAP2 SWAP1 POP JUMP JUMPDEST PUSH0 PUSH1 0x20 DUP3 ADD SWAP1 POP DUP2 DUP2 SUB PUSH0 DUP4 ADD MSTORE PUSH2 0x1C9D DUP2 PUSH2 0x1C64 JUMP JUMPDEST SWAP1 POP SWAP2 SWAP1 POP JUMP JUMPDEST PUSH32 0x4E487B7100000000000000000000000000000000000000000000000000000000 PUSH0 MSTORE PUSH1 0x32 PUSH1 0x4 MSTORE PUSH1 0x24 PUSH0 REVERT JUMPDEST PUSH0 PUSH1 0x20 DUP3 ADD SWAP1 POP PUSH2 0x1CE4 PUSH0 DUP4 ADD DUP5 PUSH2 0x13F6 JUMP JUMPDEST SWAP3 SWAP2 POP POP JUMP JUMPDEST PUSH32 0x4E6F7468696E6720746F20776974686472617700000000000000000000000000 PUSH0 DUP3 ADD MSTORE POP JUMP JUMPDEST PUSH0 PUSH2 0x1D1E PUSH1 0x13 DUP4 PUSH2 0x1786 JUMP JUMPDEST SWAP2 POP PUSH2 0x1D29 DUP3 PUSH2 0x1CEA JUMP JUMPDEST PUSH1 0x20 DUP3 ADD SWAP1 POP SWAP2 SWAP1 POP JUMP JUMPDEST PUSH0 PUSH1 0x20 DUP3 ADD SWAP1 POP DUP2 DUP2 SUB PUSH0 DUP4 ADD MSTORE PUSH2 0x1D4B DUP2 PUSH2 0x1D12 JUMP JUMPDEST SWAP1 POP SWAP2 SWAP1 POP JUMP JUMPDEST PUSH32 0x4E487B7100000000000000000000000000000000000000000000000000000000 PUSH0 MSTORE PUSH1 0x31 PUSH1 0x4 MSTORE PUSH1 0x24 PUSH0 REVERT INVALID LOG2 PUSH5 0x6970667358 0x22 SLT KECCAK256 0x4C DIV 0xC0 BLOCKHASH SELFBALANCE DUP14 PUSH3 0x134FBB CALLVALUE 0xBB MSTORE PUSH20 0xC481FBFE2B010B99BAC8363E692C8D94D9DD6473 PUSH16 0x6C634300081C00330000000000000000 "
		},
		"gasEstimates": {
			"creation": {
				"codeDepositCost": "1521000",
				"executionCost": "infinite",
				"totalCost": "infinite"
			},
			"external": {
				"calculateBoostedReward(uint256,uint256,uint256,uint256)": "infinite",
				"distributeFees()": "infinite",
				"emergencyWithdraw()": "infinite",
				"feePool()": "2448",
				"getStakers()": "infinite",
				"owner()": "2603",
				"pool()": "infinite",
				"renounceOwnership()": "infinite",
				"stake(uint256,bool,uint256)": "infinite",
				"stakers(uint256)": "5032",
				"togglePause()": "infinite",
				"transferOwnership(address)": "infinite",
				"userPositions(address)": "infinite",
				"withdraw(uint256)": "infinite"
			},
			"internal": {
				"removeStaker(address)": "infinite"
			}
		},
		"methodIdentifiers": {
			"calculateBoostedReward(uint256,uint256,uint256,uint256)": "bf5cf656",
			"distributeFees()": "bb57ad20",
			"emergencyWithdraw()": "db2e21bc",
			"feePool()": "ae2e933b",
			"getStakers()": "43352d61",
			"owner()": "8da5cb5b",
			"pool()": "16f0115b",
			"renounceOwnership()": "715018a6",
			"stake(uint256,bool,uint256)": "447da8a6",
			"stakers(uint256)": "fd5e6dd1",
			"togglePause()": "c4ae3168",
			"transferOwnership(address)": "f2fde38b",
			"userPositions(address)": "613cf420",
			"withdraw(uint256)": "2e1a7d4d"
		}
	},
	"abi": [
		{
			"inputs": [
				{
					"internalType": "address",
					"name": "_token",
					"type": "address"
				},
				{
					"internalType": "uint256",
					"name": "_rewardCoefficient",
					"type": "uint256"
				},
				{
					"internalType": "uint256",
					"name": "_maxDepositPerUser",
					"type": "uint256"
				},
				{
					"internalType": "uint256",
					"name": "_totalMaxLiquidity",
					"type": "uint256"
				}
			],
			"stateMutability": "nonpayable",
			"type": "constructor"
		},
		{
			"inputs": [
				{
					"internalType": "address",
					"name": "owner",
					"type": "address"
				}
			],
			"name": "OwnableInvalidOwner",
			"type": "error"
		},
		{
			"inputs": [
				{
					"internalType": "address",
					"name": "account",
					"type": "address"
				}
			],
			"name": "OwnableUnauthorizedAccount",
			"type": "error"
		},
		{
			"anonymous": false,
			"inputs": [
				{
					"indexed": true,
					"internalType": "address",
					"name": "user",
					"type": "address"
				},
				{
					"indexed": false,
					"internalType": "uint256",
					"name": "amount",
					"type": "uint256"
				}
			],
			"name": "EmergencyWithdrawal",
			"type": "event"
		},
		{
			"anonymous": false,
			"inputs": [
				{
					"indexed": false,
					"internalType": "uint256",
					"name": "totalFees",
					"type": "uint256"
				}
			],
			"name": "FeesDistributed",
			"type": "event"
		},
		{
			"anonymous": false,
			"inputs": [
				{
					"indexed": true,
					"internalType": "address",
					"name": "previousOwner",
					"type": "address"
				},
				{
					"indexed": true,
					"internalType": "address",
					"name": "newOwner",
					"type": "address"
				}
			],
			"name": "OwnershipTransferred",
			"type": "event"
		},
		{
			"anonymous": false,
			"inputs": [
				{
					"indexed": true,
					"internalType": "address",
					"name": "token",
					"type": "address"
				},
				{
					"indexed": false,
					"internalType": "uint256",
					"name": "rewardCoefficient",
					"type": "uint256"
				},
				{
					"indexed": false,
					"internalType": "uint256",
					"name": "maxDepositPerUser",
					"type": "uint256"
				},
				{
					"indexed": false,
					"internalType": "uint256",
					"name": "totalMaxLiquidity",
					"type": "uint256"
				}
			],
			"name": "PoolInitialized",
			"type": "event"
		},
		{
			"anonymous": false,
			"inputs": [
				{
					"indexed": false,
					"internalType": "bool",
					"name": "isPaused",
					"type": "bool"
				}
			],
			"name": "PoolPaused",
			"type": "event"
		},
		{
			"anonymous": false,
			"inputs": [
				{
					"indexed": true,
					"internalType": "address",
					"name": "user",
					"type": "address"
				},
				{
					"indexed": false,
					"internalType": "uint256",
					"name": "amount",
					"type": "uint256"
				},
				{
					"indexed": false,
					"internalType": "uint256",
					"name": "rewards",
					"type": "uint256"
				},
				{
					"indexed": false,
					"internalType": "bool",
					"name": "autoCompounded",
					"type": "bool"
				}
			],
			"name": "Staked",
			"type": "event"
		},
		{
			"anonymous": false,
			"inputs": [
				{
					"indexed": true,
					"internalType": "address",
					"name": "user",
					"type": "address"
				},
				{
					"indexed": false,
					"internalType": "uint256",
					"name": "amount",
					"type": "uint256"
				},
				{
					"indexed": false,
					"internalType": "uint256",
					"name": "fee",
					"type": "uint256"
				},
				{
					"indexed": false,
					"internalType": "uint256",
					"name": "timestamp",
					"type": "uint256"
				}
			],
			"name": "Withdrawn",
			"type": "event"
		},
		{
			"inputs": [
				{
					"internalType": "uint256",
					"name": "amount",
					"type": "uint256"
				},
				{
					"internalType": "uint256",
					"name": "stakeTime",
					"type": "uint256"
				},
				{
					"internalType": "uint256",
					"name": "lastUpdate",
					"type": "uint256"
				},
				{
					"internalType": "uint256",
					"name": "rewardCoefficient",
					"type": "uint256"
				}
			],
			"name": "calculateBoostedReward",
			"outputs": [
				{
					"internalType": "uint256",
					"name": "",
					"type": "uint256"
				}
			],
			"stateMutability": "view",
			"type": "function"
		},
		{
			"inputs": [],
			"name": "distributeFees",
			"outputs": [],
			"stateMutability": "nonpayable",
			"type": "function"
		},
		{
			"inputs": [],
			"name": "emergencyWithdraw",
			"outputs": [],
			"stateMutability": "nonpayable",
			"type": "function"
		},
		{
			"inputs": [],
			"name": "feePool",
			"outputs": [
				{
					"internalType": "uint256",
					"name": "",
					"type": "uint256"
				}
			],
			"stateMutability": "view",
			"type": "function"
		},
		{
			"inputs": [],
			"name": "getStakers",
			"outputs": [
				{
					"internalType": "address[]",
					"name": "",
					"type": "address[]"
				}
			],
			"stateMutability": "view",
			"type": "function"
		},
		{
			"inputs": [],
			"name": "owner",
			"outputs": [
				{
					"internalType": "address",
					"name": "",
					"type": "address"
				}
			],
			"stateMutability": "view",
			"type": "function"
		},
		{
			"inputs": [],
			"name": "pool",
			"outputs": [
				{
					"internalType": "contract IERC20",
					"name": "token",
					"type": "address"
				},
				{
					"internalType": "uint256",
					"name": "totalLiquidity",
					"type": "uint256"
				},
				{
					"internalType": "uint256",
					"name": "rewardCoefficient",
					"type": "uint256"
				},
				{
					"internalType": "uint256",
					"name": "feeRate",
					"type": "uint256"
				},
				{
					"internalType": "uint256",
					"name": "lastUpdate",
					"type": "uint256"
				},
				{
					"internalType": "address",
					"name": "topStaker",
					"type": "address"
				},
				{
					"internalType": "uint256",
					"name": "topStakerAmount",
					"type": "uint256"
				},
				{
					"internalType": "uint256",
					"name": "totalRewardsDistributed",
					"type": "uint256"
				},
				{
					"internalType": "uint256",
					"name": "maxDepositPerUser",
					"type": "uint256"
				},
				{
					"internalType": "uint256",
					"name": "totalMaxLiquidity",
					"type": "uint256"
				},
				{
					"internalType": "bool",
					"name": "isPaused",
					"type": "bool"
				}
			],
			"stateMutability": "view",
			"type": "function"
		},
		{
			"inputs": [],
			"name": "renounceOwnership",
			"outputs": [],
			"stateMutability": "nonpayable",
			"type": "function"
		},
		{
			"inputs": [
				{
					"internalType": "uint256",
					"name": "amount",
					"type": "uint256"
				},
				{
					"internalType": "bool",
					"name": "autoCompound",
					"type": "bool"
				},
				{
					"internalType": "uint256",
					"name": "lockupPeriod",
					"type": "uint256"
				}
			],
			"name": "stake",
			"outputs": [],
			"stateMutability": "nonpayable",
			"type": "function"
		},
		{
			"inputs": [
				{
					"internalType": "uint256",
					"name": "",
					"type": "uint256"
				}
			],
			"name": "stakers",
			"outputs": [
				{
					"internalType": "address",
					"name": "",
					"type": "address"
				}
			],
			"stateMutability": "view",
			"type": "function"
		},
		{
			"inputs": [],
			"name": "togglePause",
			"outputs": [],
			"stateMutability": "nonpayable",
			"type": "function"
		},
		{
			"inputs": [
				{
					"internalType": "address",
					"name": "newOwner",
					"type": "address"
				}
			],
			"name": "transferOwnership",
			"outputs": [],
			"stateMutability": "nonpayable",
			"type": "function"
		},
		{
			"inputs": [
				{
					"internalType": "address",
					"name": "",
					"type": "address"
				}
			],
			"name": "userPositions",
			"outputs": [
				{
					"internalType": "uint256",
					"name": "amount",
					"type": "uint256"
				},
				{
					"internalType": "uint256",
					"name": "stakeTime",
					"type": "uint256"
				},
				{
					"internalType": "uint256",
					"name": "unlockTime",
					"type": "uint256"
				},
				{
					"internalType": "uint256",
					"name": "feeShare",
					"type": "uint256"
				}
			],
			"stateMutability": "view",
			"type": "function"
		},
		{
			"inputs": [
				{
					"internalType": "uint256",
					"name": "amount",
					"type": "uint256"
				}
			],
			"name": "withdraw",
			"outputs": [],
			"stateMutability": "nonpayable",
			"type": "function"
		}
	]
}