{
	"contracts/BondingYieldFarm.sol": {
		"BondingYieldFarm": {
			"abi": [
				{
					"inputs": [
						{
							"internalType": "address",
							"name": "_token",
							"type": "address"
						},
						{
							"internalType": "uint256",
							"name": "_rewardCoefficient",
							"type": "uint256"
						},
						{
							"internalType": "uint256",
							"name": "_maxDepositPerUser",
							"type": "uint256"
						},
						{
							"internalType": "uint256",
							"name": "_totalMaxLiquidity",
							"type": "uint256"
						}
					],
					"stateMutability": "nonpayable",
					"type": "constructor"
				},
				{
					"inputs": [
						{
							"internalType": "address",
							"name": "owner",
							"type": "address"
						}
					],
					"name": "OwnableInvalidOwner",
					"type": "error"
				},
				{
					"inputs": [
						{
							"internalType": "address",
							"name": "account",
							"type": "address"
						}
					],
					"name": "OwnableUnauthorizedAccount",
					"type": "error"
				},
				{
					"anonymous": false,
					"inputs": [
						{
							"indexed": true,
							"internalType": "address",
							"name": "user",
							"type": "address"
						},
						{
							"indexed": false,
							"internalType": "uint256",
							"name": "amount",
							"type": "uint256"
						}
					],
					"name": "EmergencyWithdrawal",
					"type": "event"
				},
				{
					"anonymous": false,
					"inputs": [
						{
							"indexed": false,
							"internalType": "uint256",
							"name": "totalFees",
							"type": "uint256"
						}
					],
					"name": "FeesDistributed",
					"type": "event"
				},
				{
					"anonymous": false,
					"inputs": [
						{
							"indexed": true,
							"internalType": "address",
							"name": "previousOwner",
							"type": "address"
						},
						{
							"indexed": true,
							"internalType": "address",
							"name": "newOwner",
							"type": "address"
						}
					],
					"name": "OwnershipTransferred",
					"type": "event"
				},
				{
					"anonymous": false,
					"inputs": [
						{
							"indexed": true,
							"internalType": "address",
							"name": "token",
							"type": "address"
						},
						{
							"indexed": false,
							"internalType": "uint256",
							"name": "rewardCoefficient",
							"type": "uint256"
						},
						{
							"indexed": false,
							"internalType": "uint256",
							"name": "maxDepositPerUser",
							"type": "uint256"
						},
						{
							"indexed": false,
							"internalType": "uint256",
							"name": "totalMaxLiquidity",
							"type": "uint256"
						}
					],
					"name": "PoolInitialized",
					"type": "event"
				},
				{
					"anonymous": false,
					"inputs": [
						{
							"indexed": false,
							"internalType": "bool",
							"name": "isPaused",
							"type": "bool"
						}
					],
					"name": "PoolPaused",
					"type": "event"
				},
				{
					"anonymous": false,
					"inputs": [
						{
							"indexed": true,
							"internalType": "address",
							"name": "user",
							"type": "address"
						},
						{
							"indexed": false,
							"internalType": "uint256",
							"name": "amount",
							"type": "uint256"
						},
						{
							"indexed": false,
							"internalType": "uint256",
							"name": "rewards",
							"type": "uint256"
						},
						{
							"indexed": false,
							"internalType": "bool",
							"name": "autoCompounded",
							"type": "bool"
						}
					],
					"name": "Staked",
					"type": "event"
				},
				{
					"anonymous": false,
					"inputs": [
						{
							"indexed": true,
							"internalType": "address",
							"name": "user",
							"type": "address"
						},
						{
							"indexed": false,
							"internalType": "uint256",
							"name": "amount",
							"type": "uint256"
						},
						{
							"indexed": false,
							"internalType": "uint256",
							"name": "fee",
							"type": "uint256"
						},
						{
							"indexed": false,
							"internalType": "uint256",
							"name": "timestamp",
							"type": "uint256"
						}
					],
					"name": "Withdrawn",
					"type": "event"
				},
				{
					"inputs": [
						{
							"internalType": "uint256",
							"name": "amount",
							"type": "uint256"
						},
						{
							"internalType": "uint256",
							"name": "stakeTime",
							"type": "uint256"
						},
						{
							"internalType": "uint256",
							"name": "lastUpdate",
							"type": "uint256"
						},
						{
							"internalType": "uint256",
							"name": "rewardCoefficient",
							"type": "uint256"
						}
					],
					"name": "calculateBoostedReward",
					"outputs": [
						{
							"internalType": "uint256",
							"name": "",
							"type": "uint256"
						}
					],
					"stateMutability": "view",
					"type": "function"
				},
				{
					"inputs": [],
					"name": "distributeFees",
					"outputs": [],
					"stateMutability": "nonpayable",
					"type": "function"
				},
				{
					"inputs": [],
					"name": "emergencyWithdraw",
					"outputs": [],
					"stateMutability": "nonpayable",
					"type": "function"
				},
				{
					"inputs": [],
					"name": "feePool",
					"outputs": [
						{
							"internalType": "uint256",
							"name": "",
							"type": "uint256"
						}
					],
					"stateMutability": "view",
					"type": "function"
				},
				{
					"inputs": [],
					"name": "getStakers",
					"outputs": [
						{
							"internalType": "address[]",
							"name": "",
							"type": "address[]"
						}
					],
					"stateMutability": "view",
					"type": "function"
				},
				{
					"inputs": [],
					"name": "owner",
					"outputs": [
						{
							"internalType": "address",
							"name": "",
							"type": "address"
						}
					],
					"stateMutability": "view",
					"type": "function"
				},
				{
					"inputs": [],
					"name": "pool",
					"outputs": [
						{
							"internalType": "contract IERC20",
							"name": "token",
							"type": "address"
						},
						{
							"internalType": "uint256",
							"name": "totalLiquidity",
							"type": "uint256"
						},
						{
							"internalType": "uint256",
							"name": "rewardCoefficient",
							"type": "uint256"
						},
						{
							"internalType": "uint256",
							"name": "feeRate",
							"type": "uint256"
						},
						{
							"internalType": "uint256",
							"name": "lastUpdate",
							"type": "uint256"
						},
						{
							"internalType": "address",
							"name": "topStaker",
							"type": "address"
						},
						{
							"internalType": "uint256",
							"name": "topStakerAmount",
							"type": "uint256"
						},
						{
							"internalType": "uint256",
							"name": "totalRewardsDistributed",
							"type": "uint256"
						},
						{
							"internalType": "uint256",
							"name": "maxDepositPerUser",
							"type": "uint256"
						},
						{
							"internalType": "uint256",
							"name": "totalMaxLiquidity",
							"type": "uint256"
						},
						{
							"internalType": "bool",
							"name": "isPaused",
							"type": "bool"
						}
					],
					"stateMutability": "view",
					"type": "function"
				},
				{
					"inputs": [],
					"name": "renounceOwnership",
					"outputs": [],
					"stateMutability": "nonpayable",
					"type": "function"
				},
				{
					"inputs": [
						{
							"internalType": "uint256",
							"name": "amount",
							"type": "uint256"
						},
						{
							"internalType": "bool",
							"name": "autoCompound",
							"type": "bool"
						},
						{
							"internalType": "uint256",
							"name": "lockupPeriod",
							"type": "uint256"
						}
					],
					"name": "stake",
					"outputs": [],
					"stateMutability": "nonpayable",
					"type": "function"
				},
				{
					"inputs": [
						{
							"internalType": "uint256",
							"name": "",
							"type": "uint256"
						}
					],
					"name": "stakers",
					"outputs": [
						{
							"internalType": "address",
							"name": "",
							"type": "address"
						}
					],
					"stateMutability": "view",
					"type": "function"
				},
				{
					"inputs": [],
					"name": "togglePause",
					"outputs": [],
					"stateMutability": "nonpayable",
					"type": "function"
				},
				{
					"inputs": [
						{
							"internalType": "address",
							"name": "newOwner",
							"type": "address"
						}
					],
					"name": "transferOwnership",
					"outputs": [],
					"stateMutability": "nonpayable",
					"type": "function"
				},
				{
					"inputs": [
						{
							"internalType": "address",
							"name": "",
							"type": "address"
						}
					],
					"name": "userPositions",
					"outputs": [
						{
							"internalType": "uint256",
							"name": "amount",
							"type": "uint256"
						},
						{
							"internalType": "uint256",
							"name": "stakeTime",
							"type": "uint256"
						},
						{
							"internalType": "uint256",
							"name": "unlockTime",
							"type": "uint256"
						},
						{
							"internalType": "uint256",
							"name": "feeShare",
							"type": "uint256"
						}
					],
					"stateMutability": "view",
					"type": "function"
				},
				{
					"inputs": [
						{
							"internalType": "uint256",
							"name": "amount",
							"type": "uint256"
						}
					],
					"name": "withdraw",
					"outputs": [],
					"stateMutability": "nonpayable",
					"type": "function"
				}
			],
			"devdoc": {
				"details": "A staking contract for yield farming with rewards and withdrawal fees. This contract supports emergency withdrawal, rewards calculation, and fee distribution.",
				"errors": {
					"OwnableInvalidOwner(address)": [
						{
							"details": "The owner is not a valid owner account. (eg. `address(0)`)"
						}
					],
					"OwnableUnauthorizedAccount(address)": [
						{
							"details": "The caller account is not authorized to perform an operation."
						}
					]
				},
				"kind": "dev",
				"methods": {
					"calculateBoostedReward(uint256,uint256,uint256,uint256)": {
						"params": {
							"amount": "The amount of tokens staked",
							"lastUpdate": "The timestamp of the last pool update",
							"rewardCoefficient": "The coefficient used to calculate rewards",
							"stakeTime": "The timestamp when the stake was made"
						}
					},
					"constructor": {
						"params": {
							"_maxDepositPerUser": "Maximum amount a user can deposit into the pool",
							"_rewardCoefficient": "The coefficient used to calculate rewards",
							"_token": "The ERC20 token used for staking",
							"_totalMaxLiquidity": "Maximum total liquidity allowed in the pool"
						}
					},
					"getStakers()": {
						"returns": {
							"_0": "stakers List of staker addresses"
						}
					},
					"owner()": {
						"details": "Returns the address of the current owner."
					},
					"renounceOwnership()": {
						"details": "Leaves the contract without owner. It will not be possible to call `onlyOwner` functions. Can only be called by the current owner. NOTE: Renouncing ownership will leave the contract without an owner, thereby disabling any functionality that is only available to the owner."
					},
					"stake(uint256,bool,uint256)": {
						"params": {
							"amount": "The amount of tokens to stake",
							"autoCompound": "Whether to auto-compound the rewards or not",
							"lockupPeriod": "The lockup period in seconds, which determines when the stake can be withdrawn"
						}
					},
					"transferOwnership(address)": {
						"details": "Transfers ownership of the contract to a new account (`newOwner`). Can only be called by the current owner."
					},
					"withdraw(uint256)": {
						"params": {
							"amount": "The amount of tokens to withdraw"
						}
					}
				},
				"title": "Bonding Yield Farm Contract",
				"version": 1
			},
			"evm": {
				"assembly": "    /* \"contracts/BondingYieldFarm.sol\":376:12264  contract BondingYieldFarm is Ownable {... */\n  mstore(0x40, 0x80)\n    /* \"contracts/BondingYieldFarm.sol\":3529:4443  constructor(... */\n  callvalue\n  dup1\n  iszero\n  tag_1\n  jumpi\n  revert(0x00, 0x00)\ntag_1:\n  pop\n  mload(0x40)\n  sub(codesize, bytecodeSize)\n  dup1\n  bytecodeSize\n  dup4\n  codecopy\n  dup2\n  dup2\n  add\n  0x40\n  mstore\n  dup2\n  add\n  swap1\n  tag_2\n  swap2\n  swap1\n  tag_3\n  jump\t// in\ntag_2:\n    /* \"contracts/BondingYieldFarm.sol\":3687:3697  msg.sender */\n  caller\n    /* \"@openzeppelin/contracts/access/Ownable.sol\":1297:1298  0 */\n  0x00\n    /* \"@openzeppelin/contracts/access/Ownable.sol\":1273:1299  initialOwner == address(0) */\n  0xffffffffffffffffffffffffffffffffffffffff\n  and\n    /* \"@openzeppelin/contracts/access/Ownable.sol\":1273:1285  initialOwner */\n  dup2\n    /* \"@openzeppelin/contracts/access/Ownable.sol\":1273:1299  initialOwner == address(0) */\n  0xffffffffffffffffffffffffffffffffffffffff\n  and\n  sub\n    /* \"@openzeppelin/contracts/access/Ownable.sol\":1269:1364  if (initialOwner == address(0)) {... */\n  tag_7\n  jumpi\n    /* \"@openzeppelin/contracts/access/Ownable.sol\":1350:1351  0 */\n  0x00\n    /* \"@openzeppelin/contracts/access/Ownable.sol\":1322:1353  OwnableInvalidOwner(address(0)) */\n  mload(0x40)\n  0x1e4fbdf700000000000000000000000000000000000000000000000000000000\n  dup2\n  mstore\n  0x04\n  add\n  tag_8\n  swap2\n  swap1\n  tag_9\n  jump\t// in\ntag_8:\n  mload(0x40)\n  dup1\n  swap2\n  sub\n  swap1\n  revert\n    /* \"@openzeppelin/contracts/access/Ownable.sol\":1269:1364  if (initialOwner == address(0)) {... */\ntag_7:\n    /* \"@openzeppelin/contracts/access/Ownable.sol\":1373:1405  _transferOwnership(initialOwner) */\n  tag_10\n    /* \"@openzeppelin/contracts/access/Ownable.sol\":1392:1404  initialOwner */\n  dup2\n    /* \"@openzeppelin/contracts/access/Ownable.sol\":1373:1391  _transferOwnership */\n  shl(0x20, tag_11)\n    /* \"@openzeppelin/contracts/access/Ownable.sol\":1373:1405  _transferOwnership(initialOwner) */\n  0x20\n  shr\n  jump\t// in\ntag_10:\n    /* \"@openzeppelin/contracts/access/Ownable.sol\":1225:1412  constructor(address initialOwner) {... */\n  pop\n    /* \"contracts/BondingYieldFarm.sol\":3797:3803  _token */\n  dup4\n    /* \"contracts/BondingYieldFarm.sol\":3777:3781  pool */\n  0x01\n    /* \"contracts/BondingYieldFarm.sol\":3777:3787  pool.token */\n  0x00\n  add\n  0x00\n    /* \"contracts/BondingYieldFarm.sol\":3777:3804  pool.token = IERC20(_token) */\n  0x0100\n  exp\n  dup2\n  sload\n  dup2\n  0xffffffffffffffffffffffffffffffffffffffff\n  mul\n  not\n  and\n  swap1\n  dup4\n  0xffffffffffffffffffffffffffffffffffffffff\n  and\n  mul\n  or\n  swap1\n  sstore\n  pop\n    /* \"contracts/BondingYieldFarm.sol\":3874:3892  _rewardCoefficient */\n  dup3\n    /* \"contracts/BondingYieldFarm.sol\":3849:3853  pool */\n  0x01\n    /* \"contracts/BondingYieldFarm.sol\":3849:3871  pool.rewardCoefficient */\n  0x02\n  add\n    /* \"contracts/BondingYieldFarm.sol\":3849:3892  pool.rewardCoefficient = _rewardCoefficient */\n  dup2\n  swap1\n  sstore\n  pop\n    /* \"contracts/BondingYieldFarm.sol\":3957:3975  _maxDepositPerUser */\n  dup2\n    /* \"contracts/BondingYieldFarm.sol\":3932:3936  pool */\n  0x01\n    /* \"contracts/BondingYieldFarm.sol\":3932:3954  pool.maxDepositPerUser */\n  0x08\n  add\n    /* \"contracts/BondingYieldFarm.sol\":3932:3975  pool.maxDepositPerUser = _maxDepositPerUser */\n  dup2\n  swap1\n  sstore\n  pop\n    /* \"contracts/BondingYieldFarm.sol\":4042:4060  _totalMaxLiquidity */\n  dup1\n    /* \"contracts/BondingYieldFarm.sol\":4017:4021  pool */\n  0x01\n    /* \"contracts/BondingYieldFarm.sol\":4017:4039  pool.totalMaxLiquidity */\n  0x09\n  add\n    /* \"contracts/BondingYieldFarm.sol\":4017:4060  pool.totalMaxLiquidity = _totalMaxLiquidity */\n  dup2\n  swap1\n  sstore\n  pop\n    /* \"contracts/BondingYieldFarm.sol\":4123:4124  2 */\n  0x02\n    /* \"contracts/BondingYieldFarm.sol\":4108:4112  pool */\n  0x01\n    /* \"contracts/BondingYieldFarm.sol\":4108:4120  pool.feeRate */\n  0x03\n  add\n    /* \"contracts/BondingYieldFarm.sol\":4108:4124  pool.feeRate = 2 */\n  dup2\n  swap1\n  sstore\n  pop\n    /* \"contracts/BondingYieldFarm.sol\":4196:4211  block.timestamp */\n  timestamp\n    /* \"contracts/BondingYieldFarm.sol\":4178:4182  pool */\n  0x01\n    /* \"contracts/BondingYieldFarm.sol\":4178:4193  pool.lastUpdate */\n  0x04\n  add\n    /* \"contracts/BondingYieldFarm.sol\":4178:4211  pool.lastUpdate = block.timestamp */\n  dup2\n  swap1\n  sstore\n  pop\n    /* \"contracts/BondingYieldFarm.sol\":4296:4301  false */\n  0x00\n    /* \"contracts/BondingYieldFarm.sol\":4280:4284  pool */\n  0x01\n    /* \"contracts/BondingYieldFarm.sol\":4280:4293  pool.isPaused */\n  0x0a\n  add\n  0x00\n    /* \"contracts/BondingYieldFarm.sol\":4280:4301  pool.isPaused = false */\n  0x0100\n  exp\n  dup2\n  sload\n  dup2\n  0xff\n  mul\n  not\n  and\n  swap1\n  dup4\n  iszero\n  iszero\n  mul\n  or\n  swap1\n  sstore\n  pop\n    /* \"contracts/BondingYieldFarm.sol\":4369:4375  _token */\n  dup4\n    /* \"contracts/BondingYieldFarm.sol\":4353:4436  PoolInitialized(_token, _rewardCoefficient, _maxDepositPerUser, _totalMaxLiquidity) */\n  0xffffffffffffffffffffffffffffffffffffffff\n  and\n  0xa01a0f6e4e9c79d39a9015dae1a9d6b2fc1ea5f20bc39c9f8c2e42e680ab26e2\n    /* \"contracts/BondingYieldFarm.sol\":4377:4395  _rewardCoefficient */\n  dup5\n    /* \"contracts/BondingYieldFarm.sol\":4397:4415  _maxDepositPerUser */\n  dup5\n    /* \"contracts/BondingYieldFarm.sol\":4417:4435  _totalMaxLiquidity */\n  dup5\n    /* \"contracts/BondingYieldFarm.sol\":4353:4436  PoolInitialized(_token, _rewardCoefficient, _maxDepositPerUser, _totalMaxLiquidity) */\n  mload(0x40)\n  tag_13\n  swap4\n  swap3\n  swap2\n  swap1\n  tag_14\n  jump\t// in\ntag_13:\n  mload(0x40)\n  dup1\n  swap2\n  sub\n  swap1\n  log2\n    /* \"contracts/BondingYieldFarm.sol\":3529:4443  constructor(... */\n  pop\n  pop\n  pop\n  pop\n    /* \"contracts/BondingYieldFarm.sol\":376:12264  contract BondingYieldFarm is Ownable {... */\n  jump(tag_15)\n    /* \"@openzeppelin/contracts/access/Ownable.sol\":2912:3099  function _transferOwnership(address newOwner) internal virtual {... */\ntag_11:\n    /* \"@openzeppelin/contracts/access/Ownable.sol\":2985:3001  address oldOwner */\n  0x00\n    /* \"@openzeppelin/contracts/access/Ownable.sol\":3004:3010  _owner */\n  0x00\n  0x00\n  swap1\n  sload\n  swap1\n  0x0100\n  exp\n  swap1\n  div\n  0xffffffffffffffffffffffffffffffffffffffff\n  and\n    /* \"@openzeppelin/contracts/access/Ownable.sol\":2985:3010  address oldOwner = _owner */\n  swap1\n  pop\n    /* \"@openzeppelin/contracts/access/Ownable.sol\":3029:3037  newOwner */\n  dup2\n    /* \"@openzeppelin/contracts/access/Ownable.sol\":3020:3026  _owner */\n  0x00\n  0x00\n    /* \"@openzeppelin/contracts/access/Ownable.sol\":3020:3037  _owner = newOwner */\n  0x0100\n  exp\n  dup2\n  sload\n  dup2\n  0xffffffffffffffffffffffffffffffffffffffff\n  mul\n  not\n  and\n  swap1\n  dup4\n  0xffffffffffffffffffffffffffffffffffffffff\n  and\n  mul\n  or\n  swap1\n  sstore\n  pop\n    /* \"@openzeppelin/contracts/access/Ownable.sol\":3083:3091  newOwner */\n  dup2\n    /* \"@openzeppelin/contracts/access/Ownable.sol\":3052:3092  OwnershipTransferred(oldOwner, newOwner) */\n  0xffffffffffffffffffffffffffffffffffffffff\n  and\n    /* \"@openzeppelin/contracts/access/Ownable.sol\":3073:3081  oldOwner */\n  dup2\n    /* \"@openzeppelin/contracts/access/Ownable.sol\":3052:3092  OwnershipTransferred(oldOwner, newOwner) */\n  0xffffffffffffffffffffffffffffffffffffffff\n  and\n  0x8be0079c531659141344cd1fd0a4f28419497f9722a3daafe3b4186f6b6457e0\n  mload(0x40)\n  mload(0x40)\n  dup1\n  swap2\n  sub\n  swap1\n  log3\n    /* \"@openzeppelin/contracts/access/Ownable.sol\":2975:3099  {... */\n  pop\n    /* \"@openzeppelin/contracts/access/Ownable.sol\":2912:3099  function _transferOwnership(address newOwner) internal virtual {... */\n  pop\n  jump\t// out\n    /* \"#utility.yul\":88:205   */\ntag_18:\n    /* \"#utility.yul\":197:198   */\n  0x00\n    /* \"#utility.yul\":194:195   */\n  0x00\n    /* \"#utility.yul\":187:199   */\n  revert\n    /* \"#utility.yul\":334:460   */\ntag_20:\n    /* \"#utility.yul\":371:378   */\n  0x00\n    /* \"#utility.yul\":411:453   */\n  0xffffffffffffffffffffffffffffffffffffffff\n    /* \"#utility.yul\":404:409   */\n  dup3\n    /* \"#utility.yul\":400:454   */\n  and\n    /* \"#utility.yul\":389:454   */\n  swap1\n  pop\n    /* \"#utility.yul\":334:460   */\n  swap2\n  swap1\n  pop\n  jump\t// out\n    /* \"#utility.yul\":466:562   */\ntag_21:\n    /* \"#utility.yul\":503:510   */\n  0x00\n    /* \"#utility.yul\":532:556   */\n  tag_35\n    /* \"#utility.yul\":550:555   */\n  dup3\n    /* \"#utility.yul\":532:556   */\n  tag_20\n  jump\t// in\ntag_35:\n    /* \"#utility.yul\":521:556   */\n  swap1\n  pop\n    /* \"#utility.yul\":466:562   */\n  swap2\n  swap1\n  pop\n  jump\t// out\n    /* \"#utility.yul\":568:690   */\ntag_22:\n    /* \"#utility.yul\":641:665   */\n  tag_37\n    /* \"#utility.yul\":659:664   */\n  dup2\n    /* \"#utility.yul\":641:665   */\n  tag_21\n  jump\t// in\ntag_37:\n    /* \"#utility.yul\":634:639   */\n  dup2\n    /* \"#utility.yul\":631:666   */\n  eq\n    /* \"#utility.yul\":621:684   */\n  tag_38\n  jumpi\n    /* \"#utility.yul\":680:681   */\n  0x00\n    /* \"#utility.yul\":677:678   */\n  0x00\n    /* \"#utility.yul\":670:682   */\n  revert\n    /* \"#utility.yul\":621:684   */\ntag_38:\n    /* \"#utility.yul\":568:690   */\n  pop\n  jump\t// out\n    /* \"#utility.yul\":696:839   */\ntag_23:\n    /* \"#utility.yul\":753:758   */\n  0x00\n    /* \"#utility.yul\":784:790   */\n  dup2\n    /* \"#utility.yul\":778:791   */\n  mload\n    /* \"#utility.yul\":769:791   */\n  swap1\n  pop\n    /* \"#utility.yul\":800:833   */\n  tag_40\n    /* \"#utility.yul\":827:832   */\n  dup2\n    /* \"#utility.yul\":800:833   */\n  tag_22\n  jump\t// in\ntag_40:\n    /* \"#utility.yul\":696:839   */\n  swap3\n  swap2\n  pop\n  pop\n  jump\t// out\n    /* \"#utility.yul\":845:922   */\ntag_24:\n    /* \"#utility.yul\":882:889   */\n  0x00\n    /* \"#utility.yul\":911:916   */\n  dup2\n    /* \"#utility.yul\":900:916   */\n  swap1\n  pop\n    /* \"#utility.yul\":845:922   */\n  swap2\n  swap1\n  pop\n  jump\t// out\n    /* \"#utility.yul\":928:1050   */\ntag_25:\n    /* \"#utility.yul\":1001:1025   */\n  tag_43\n    /* \"#utility.yul\":1019:1024   */\n  dup2\n    /* \"#utility.yul\":1001:1025   */\n  tag_24\n  jump\t// in\ntag_43:\n    /* \"#utility.yul\":994:999   */\n  dup2\n    /* \"#utility.yul\":991:1026   */\n  eq\n    /* \"#utility.yul\":981:1044   */\n  tag_44\n  jumpi\n    /* \"#utility.yul\":1040:1041   */\n  0x00\n    /* \"#utility.yul\":1037:1038   */\n  0x00\n    /* \"#utility.yul\":1030:1042   */\n  revert\n    /* \"#utility.yul\":981:1044   */\ntag_44:\n    /* \"#utility.yul\":928:1050   */\n  pop\n  jump\t// out\n    /* \"#utility.yul\":1056:1199   */\ntag_26:\n    /* \"#utility.yul\":1113:1118   */\n  0x00\n    /* \"#utility.yul\":1144:1150   */\n  dup2\n    /* \"#utility.yul\":1138:1151   */\n  mload\n    /* \"#utility.yul\":1129:1151   */\n  swap1\n  pop\n    /* \"#utility.yul\":1160:1193   */\n  tag_46\n    /* \"#utility.yul\":1187:1192   */\n  dup2\n    /* \"#utility.yul\":1160:1193   */\n  tag_25\n  jump\t// in\ntag_46:\n    /* \"#utility.yul\":1056:1199   */\n  swap3\n  swap2\n  pop\n  pop\n  jump\t// out\n    /* \"#utility.yul\":1205:2025   */\ntag_3:\n    /* \"#utility.yul\":1302:1308   */\n  0x00\n    /* \"#utility.yul\":1310:1316   */\n  0x00\n    /* \"#utility.yul\":1318:1324   */\n  0x00\n    /* \"#utility.yul\":1326:1332   */\n  0x00\n    /* \"#utility.yul\":1375:1378   */\n  0x80\n    /* \"#utility.yul\":1363:1372   */\n  dup6\n    /* \"#utility.yul\":1354:1361   */\n  dup8\n    /* \"#utility.yul\":1350:1373   */\n  sub\n    /* \"#utility.yul\":1346:1379   */\n  slt\n    /* \"#utility.yul\":1343:1463   */\n  iszero\n  tag_48\n  jumpi\n    /* \"#utility.yul\":1382:1461   */\n  tag_49\n  tag_18\n  jump\t// in\ntag_49:\n    /* \"#utility.yul\":1343:1463   */\ntag_48:\n    /* \"#utility.yul\":1502:1503   */\n  0x00\n    /* \"#utility.yul\":1527:1591   */\n  tag_50\n    /* \"#utility.yul\":1583:1590   */\n  dup8\n    /* \"#utility.yul\":1574:1580   */\n  dup3\n    /* \"#utility.yul\":1563:1572   */\n  dup9\n    /* \"#utility.yul\":1559:1581   */\n  add\n    /* \"#utility.yul\":1527:1591   */\n  tag_23\n  jump\t// in\ntag_50:\n    /* \"#utility.yul\":1517:1591   */\n  swap5\n  pop\n    /* \"#utility.yul\":1473:1601   */\n  pop\n    /* \"#utility.yul\":1640:1642   */\n  0x20\n    /* \"#utility.yul\":1666:1730   */\n  tag_51\n    /* \"#utility.yul\":1722:1729   */\n  dup8\n    /* \"#utility.yul\":1713:1719   */\n  dup3\n    /* \"#utility.yul\":1702:1711   */\n  dup9\n    /* \"#utility.yul\":1698:1720   */\n  add\n    /* \"#utility.yul\":1666:1730   */\n  tag_26\n  jump\t// in\ntag_51:\n    /* \"#utility.yul\":1656:1730   */\n  swap4\n  pop\n    /* \"#utility.yul\":1611:1740   */\n  pop\n    /* \"#utility.yul\":1779:1781   */\n  0x40\n    /* \"#utility.yul\":1805:1869   */\n  tag_52\n    /* \"#utility.yul\":1861:1868   */\n  dup8\n    /* \"#utility.yul\":1852:1858   */\n  dup3\n    /* \"#utility.yul\":1841:1850   */\n  dup9\n    /* \"#utility.yul\":1837:1859   */\n  add\n    /* \"#utility.yul\":1805:1869   */\n  tag_26\n  jump\t// in\ntag_52:\n    /* \"#utility.yul\":1795:1869   */\n  swap3\n  pop\n    /* \"#utility.yul\":1750:1879   */\n  pop\n    /* \"#utility.yul\":1918:1920   */\n  0x60\n    /* \"#utility.yul\":1944:2008   */\n  tag_53\n    /* \"#utility.yul\":2000:2007   */\n  dup8\n    /* \"#utility.yul\":1991:1997   */\n  dup3\n    /* \"#utility.yul\":1980:1989   */\n  dup9\n    /* \"#utility.yul\":1976:1998   */\n  add\n    /* \"#utility.yul\":1944:2008   */\n  tag_26\n  jump\t// in\ntag_53:\n    /* \"#utility.yul\":1934:2008   */\n  swap2\n  pop\n    /* \"#utility.yul\":1889:2018   */\n  pop\n    /* \"#utility.yul\":1205:2025   */\n  swap3\n  swap6\n  swap2\n  swap5\n  pop\n  swap3\n  pop\n  jump\t// out\n    /* \"#utility.yul\":2031:2149   */\ntag_27:\n    /* \"#utility.yul\":2118:2142   */\n  tag_55\n    /* \"#utility.yul\":2136:2141   */\n  dup2\n    /* \"#utility.yul\":2118:2142   */\n  tag_21\n  jump\t// in\ntag_55:\n    /* \"#utility.yul\":2113:2116   */\n  dup3\n    /* \"#utility.yul\":2106:2143   */\n  mstore\n    /* \"#utility.yul\":2031:2149   */\n  pop\n  pop\n  jump\t// out\n    /* \"#utility.yul\":2155:2377   */\ntag_9:\n    /* \"#utility.yul\":2248:2252   */\n  0x00\n    /* \"#utility.yul\":2286:2288   */\n  0x20\n    /* \"#utility.yul\":2275:2284   */\n  dup3\n    /* \"#utility.yul\":2271:2289   */\n  add\n    /* \"#utility.yul\":2263:2289   */\n  swap1\n  pop\n    /* \"#utility.yul\":2299:2370   */\n  tag_57\n    /* \"#utility.yul\":2367:2368   */\n  0x00\n    /* \"#utility.yul\":2356:2365   */\n  dup4\n    /* \"#utility.yul\":2352:2369   */\n  add\n    /* \"#utility.yul\":2343:2349   */\n  dup5\n    /* \"#utility.yul\":2299:2370   */\n  tag_27\n  jump\t// in\ntag_57:\n    /* \"#utility.yul\":2155:2377   */\n  swap3\n  swap2\n  pop\n  pop\n  jump\t// out\n    /* \"#utility.yul\":2383:2501   */\ntag_28:\n    /* \"#utility.yul\":2470:2494   */\n  tag_59\n    /* \"#utility.yul\":2488:2493   */\n  dup2\n    /* \"#utility.yul\":2470:2494   */\n  tag_24\n  jump\t// in\ntag_59:\n    /* \"#utility.yul\":2465:2468   */\n  dup3\n    /* \"#utility.yul\":2458:2495   */\n  mstore\n    /* \"#utility.yul\":2383:2501   */\n  pop\n  pop\n  jump\t// out\n    /* \"#utility.yul\":2507:2949   */\ntag_14:\n    /* \"#utility.yul\":2656:2660   */\n  0x00\n    /* \"#utility.yul\":2694:2696   */\n  0x60\n    /* \"#utility.yul\":2683:2692   */\n  dup3\n    /* \"#utility.yul\":2679:2697   */\n  add\n    /* \"#utility.yul\":2671:2697   */\n  swap1\n  pop\n    /* \"#utility.yul\":2707:2778   */\n  tag_61\n    /* \"#utility.yul\":2775:2776   */\n  0x00\n    /* \"#utility.yul\":2764:2773   */\n  dup4\n    /* \"#utility.yul\":2760:2777   */\n  add\n    /* \"#utility.yul\":2751:2757   */\n  dup7\n    /* \"#utility.yul\":2707:2778   */\n  tag_28\n  jump\t// in\ntag_61:\n    /* \"#utility.yul\":2788:2860   */\n  tag_62\n    /* \"#utility.yul\":2856:2858   */\n  0x20\n    /* \"#utility.yul\":2845:2854   */\n  dup4\n    /* \"#utility.yul\":2841:2859   */\n  add\n    /* \"#utility.yul\":2832:2838   */\n  dup6\n    /* \"#utility.yul\":2788:2860   */\n  tag_28\n  jump\t// in\ntag_62:\n    /* \"#utility.yul\":2870:2942   */\n  tag_63\n    /* \"#utility.yul\":2938:2940   */\n  0x40\n    /* \"#utility.yul\":2927:2936   */\n  dup4\n    /* \"#utility.yul\":2923:2941   */\n  add\n    /* \"#utility.yul\":2914:2920   */\n  dup5\n    /* \"#utility.yul\":2870:2942   */\n  tag_28\n  jump\t// in\ntag_63:\n    /* \"#utility.yul\":2507:2949   */\n  swap5\n  swap4\n  pop\n  pop\n  pop\n  pop\n  jump\t// out\n    /* \"contracts/BondingYieldFarm.sol\":376:12264  contract BondingYieldFarm is Ownable {... */\ntag_15:\n  dataSize(sub_0)\n  dup1\n  dataOffset(sub_0)\n  0x00\n  codecopy\n  0x00\n  return\nstop\n\nsub_0: assembly {\n        /* \"contracts/BondingYieldFarm.sol\":376:12264  contract BondingYieldFarm is Ownable {... */\n      mstore(0x40, 0x80)\n      callvalue\n      dup1\n      iszero\n      tag_1\n      jumpi\n      revert(0x00, 0x00)\n    tag_1:\n      pop\n      jumpi(tag_2, lt(calldatasize, 0x04))\n      shr(0xe0, calldataload(0x00))\n      dup1\n      0xae2e933b\n      gt\n      tag_17\n      jumpi\n      dup1\n      0xc4ae3168\n      gt\n      tag_18\n      jumpi\n      dup1\n      0xc4ae3168\n      eq\n      tag_13\n      jumpi\n      dup1\n      0xdb2e21bc\n      eq\n      tag_14\n      jumpi\n      dup1\n      0xf2fde38b\n      eq\n      tag_15\n      jumpi\n      dup1\n      0xfd5e6dd1\n      eq\n      tag_16\n      jumpi\n      jump(tag_2)\n    tag_18:\n      dup1\n      0xae2e933b\n      eq\n      tag_10\n      jumpi\n      dup1\n      0xbb57ad20\n      eq\n      tag_11\n      jumpi\n      dup1\n      0xbf5cf656\n      eq\n      tag_12\n      jumpi\n      jump(tag_2)\n    tag_17:\n      dup1\n      0x447da8a6\n      gt\n      tag_19\n      jumpi\n      dup1\n      0x447da8a6\n      eq\n      tag_6\n      jumpi\n      dup1\n      0x613cf420\n      eq\n      tag_7\n      jumpi\n      dup1\n      0x715018a6\n      eq\n      tag_8\n      jumpi\n      dup1\n      0x8da5cb5b\n      eq\n      tag_9\n      jumpi\n      jump(tag_2)\n    tag_19:\n      dup1\n      0x16f0115b\n      eq\n      tag_3\n      jumpi\n      dup1\n      0x2e1a7d4d\n      eq\n      tag_4\n      jumpi\n      dup1\n      0x43352d61\n      eq\n      tag_5\n      jumpi\n    tag_2:\n      revert(0x00, 0x00)\n        /* \"contracts/BondingYieldFarm.sol\":1860:1876  Pool public pool */\n    tag_3:\n      tag_20\n      tag_21\n      jump\t// in\n    tag_20:\n      mload(0x40)\n      tag_22\n      swap12\n      swap11\n      swap10\n      swap9\n      swap8\n      swap7\n      swap6\n      swap5\n      swap4\n      swap3\n      swap2\n      swap1\n      tag_23\n      jump\t// in\n    tag_22:\n      mload(0x40)\n      dup1\n      swap2\n      sub\n      swap1\n      return\n        /* \"contracts/BondingYieldFarm.sol\":7178:8376  function withdraw(uint256 amount)... */\n    tag_4:\n      tag_24\n      0x04\n      dup1\n      calldatasize\n      sub\n      dup2\n      add\n      swap1\n      tag_25\n      swap2\n      swap1\n      tag_26\n      jump\t// in\n    tag_25:\n      tag_27\n      jump\t// in\n    tag_24:\n      stop\n        /* \"contracts/BondingYieldFarm.sol\":12128:12262  function getStakers() external view returns (address[] memory) {... */\n    tag_5:\n      tag_28\n      tag_29\n      jump\t// in\n    tag_28:\n      mload(0x40)\n      tag_30\n      swap2\n      swap1\n      tag_31\n      jump\t// in\n    tag_30:\n      mload(0x40)\n      dup1\n      swap2\n      sub\n      swap1\n      return\n        /* \"contracts/BondingYieldFarm.sol\":4781:7001  function stake(uint256 amount, bool autoCompound, uint256 lockupPeriod)... */\n    tag_6:\n      tag_32\n      0x04\n      dup1\n      calldatasize\n      sub\n      dup2\n      add\n      swap1\n      tag_33\n      swap2\n      swap1\n      tag_34\n      jump\t// in\n    tag_33:\n      tag_35\n      jump\t// in\n    tag_32:\n      stop\n        /* \"contracts/BondingYieldFarm.sol\":1933:1986  mapping(address => UserPosition) public userPositions */\n    tag_7:\n      tag_36\n      0x04\n      dup1\n      calldatasize\n      sub\n      dup2\n      add\n      swap1\n      tag_37\n      swap2\n      swap1\n      tag_38\n      jump\t// in\n    tag_37:\n      tag_39\n      jump\t// in\n    tag_36:\n      mload(0x40)\n      tag_40\n      swap5\n      swap4\n      swap3\n      swap2\n      swap1\n      tag_41\n      jump\t// in\n    tag_40:\n      mload(0x40)\n      dup1\n      swap2\n      sub\n      swap1\n      return\n        /* \"@openzeppelin/contracts/access/Ownable.sol\":2293:2394  function renounceOwnership() public virtual onlyOwner {... */\n    tag_8:\n      tag_42\n      tag_43\n      jump\t// in\n    tag_42:\n      stop\n        /* \"@openzeppelin/contracts/access/Ownable.sol\":1638:1723  function owner() public view virtual returns (address) {... */\n    tag_9:\n      tag_44\n      tag_45\n      jump\t// in\n    tag_44:\n      mload(0x40)\n      tag_46\n      swap2\n      swap1\n      tag_47\n      jump\t// in\n    tag_46:\n      mload(0x40)\n      dup1\n      swap2\n      sub\n      swap1\n      return\n        /* \"contracts/BondingYieldFarm.sol\":2109:2131  uint256 public feePool */\n    tag_10:\n      tag_48\n      tag_49\n      jump\t// in\n    tag_48:\n      mload(0x40)\n      tag_50\n      swap2\n      swap1\n      tag_51\n      jump\t// in\n    tag_50:\n      mload(0x40)\n      dup1\n      swap2\n      sub\n      swap1\n      return\n        /* \"contracts/BondingYieldFarm.sol\":9844:10625  function distributeFees() external onlyOwner {... */\n    tag_11:\n      tag_52\n      tag_53\n      jump\t// in\n    tag_52:\n      stop\n        /* \"contracts/BondingYieldFarm.sol\":9057:9740  function calculateBoostedReward(... */\n    tag_12:\n      tag_54\n      0x04\n      dup1\n      calldatasize\n      sub\n      dup2\n      add\n      swap1\n      tag_55\n      swap2\n      swap1\n      tag_56\n      jump\t// in\n    tag_55:\n      tag_57\n      jump\t// in\n    tag_54:\n      mload(0x40)\n      tag_58\n      swap2\n      swap1\n      tag_51\n      jump\t// in\n    tag_58:\n      mload(0x40)\n      dup1\n      swap2\n      sub\n      swap1\n      return\n        /* \"contracts/BondingYieldFarm.sol\":8464:8660  function togglePause() external onlyOwner {... */\n    tag_13:\n      tag_59\n      tag_60\n      jump\t// in\n    tag_59:\n      stop\n        /* \"contracts/BondingYieldFarm.sol\":10749:11450  function emergencyWithdraw() external {... */\n    tag_14:\n      tag_61\n      tag_62\n      jump\t// in\n    tag_61:\n      stop\n        /* \"@openzeppelin/contracts/access/Ownable.sol\":2543:2758  function transferOwnership(address newOwner) public virtual onlyOwner {... */\n    tag_15:\n      tag_63\n      0x04\n      dup1\n      calldatasize\n      sub\n      dup2\n      add\n      swap1\n      tag_64\n      swap2\n      swap1\n      tag_38\n      jump\t// in\n    tag_64:\n      tag_65\n      jump\t// in\n    tag_63:\n      stop\n        /* \"contracts/BondingYieldFarm.sol\":2041:2065  address[] public stakers */\n    tag_16:\n      tag_66\n      0x04\n      dup1\n      calldatasize\n      sub\n      dup2\n      add\n      swap1\n      tag_67\n      swap2\n      swap1\n      tag_26\n      jump\t// in\n    tag_67:\n      tag_68\n      jump\t// in\n    tag_66:\n      mload(0x40)\n      tag_69\n      swap2\n      swap1\n      tag_47\n      jump\t// in\n    tag_69:\n      mload(0x40)\n      dup1\n      swap2\n      sub\n      swap1\n      return\n        /* \"contracts/BondingYieldFarm.sol\":1860:1876  Pool public pool */\n    tag_21:\n      0x01\n      dup1\n      0x00\n      add\n      0x00\n      swap1\n      sload\n      swap1\n      0x0100\n      exp\n      swap1\n      div\n      0xffffffffffffffffffffffffffffffffffffffff\n      and\n      swap1\n      dup1\n      0x01\n      add\n      sload\n      swap1\n      dup1\n      0x02\n      add\n      sload\n      swap1\n      dup1\n      0x03\n      add\n      sload\n      swap1\n      dup1\n      0x04\n      add\n      sload\n      swap1\n      dup1\n      0x05\n      add\n      0x00\n      swap1\n      sload\n      swap1\n      0x0100\n      exp\n      swap1\n      div\n      0xffffffffffffffffffffffffffffffffffffffff\n      and\n      swap1\n      dup1\n      0x06\n      add\n      sload\n      swap1\n      dup1\n      0x07\n      add\n      sload\n      swap1\n      dup1\n      0x08\n      add\n      sload\n      swap1\n      dup1\n      0x09\n      add\n      sload\n      swap1\n      dup1\n      0x0a\n      add\n      0x00\n      swap1\n      sload\n      swap1\n      0x0100\n      exp\n      swap1\n      div\n      0xff\n      and\n      swap1\n      pop\n      dup12\n      jump\t// out\n        /* \"contracts/BondingYieldFarm.sol\":7178:8376  function withdraw(uint256 amount)... */\n    tag_27:\n        /* \"contracts/BondingYieldFarm.sol\":2839:2843  pool */\n      0x01\n        /* \"contracts/BondingYieldFarm.sol\":2839:2852  pool.isPaused */\n      0x0a\n      add\n      0x00\n      swap1\n      sload\n      swap1\n      0x0100\n      exp\n      swap1\n      div\n      0xff\n      and\n        /* \"contracts/BondingYieldFarm.sol\":2838:2852  !pool.isPaused */\n      iszero\n        /* \"contracts/BondingYieldFarm.sol\":2830:2871  require(!pool.isPaused, \"Pool is paused\") */\n      tag_71\n      jumpi\n      mload(0x40)\n      0x08c379a000000000000000000000000000000000000000000000000000000000\n      dup2\n      mstore\n      0x04\n      add\n      tag_72\n      swap1\n      tag_73\n      jump\t// in\n    tag_72:\n      mload(0x40)\n      dup1\n      swap2\n      sub\n      swap1\n      revert\n    tag_71:\n        /* \"contracts/BondingYieldFarm.sol\":7271:7277  amount */\n      dup1\n        /* \"contracts/BondingYieldFarm.sol\":3097:3098  0 */\n      0x00\n        /* \"contracts/BondingYieldFarm.sol\":3088:3094  amount */\n      dup2\n        /* \"contracts/BondingYieldFarm.sol\":3088:3098  amount > 0 */\n      gt\n        /* \"contracts/BondingYieldFarm.sol\":3080:3135  require(amount > 0, \"Amount must be greater than zero\") */\n      tag_75\n      jumpi\n      mload(0x40)\n      0x08c379a000000000000000000000000000000000000000000000000000000000\n      dup2\n      mstore\n      0x04\n      add\n      tag_76\n      swap1\n      tag_77\n      jump\t// in\n    tag_76:\n      mload(0x40)\n      dup1\n      swap2\n      sub\n      swap1\n      revert\n    tag_75:\n        /* \"contracts/BondingYieldFarm.sol\":7293:7326  UserPosition storage userPosition */\n      0x00\n        /* \"contracts/BondingYieldFarm.sol\":7329:7342  userPositions */\n      0x0c\n        /* \"contracts/BondingYieldFarm.sol\":7329:7354  userPositions[msg.sender] */\n      0x00\n        /* \"contracts/BondingYieldFarm.sol\":7343:7353  msg.sender */\n      caller\n        /* \"contracts/BondingYieldFarm.sol\":7329:7354  userPositions[msg.sender] */\n      0xffffffffffffffffffffffffffffffffffffffff\n      and\n      0xffffffffffffffffffffffffffffffffffffffff\n      and\n      dup2\n      mstore\n      0x20\n      add\n      swap1\n      dup2\n      mstore\n      0x20\n      add\n      0x00\n      keccak256\n        /* \"contracts/BondingYieldFarm.sol\":7293:7354  UserPosition storage userPosition = userPositions[msg.sender] */\n      swap1\n      pop\n        /* \"contracts/BondingYieldFarm.sol\":7395:7401  amount */\n      dup3\n        /* \"contracts/BondingYieldFarm.sol\":7372:7384  userPosition */\n      dup2\n        /* \"contracts/BondingYieldFarm.sol\":7372:7391  userPosition.amount */\n      0x00\n      add\n      sload\n        /* \"contracts/BondingYieldFarm.sol\":7372:7401  userPosition.amount >= amount */\n      lt\n      iszero\n        /* \"contracts/BondingYieldFarm.sol\":7364:7426  require(userPosition.amount >= amount, \"Insufficient balance\") */\n      tag_79\n      jumpi\n      mload(0x40)\n      0x08c379a000000000000000000000000000000000000000000000000000000000\n      dup2\n      mstore\n      0x04\n      add\n      tag_80\n      swap1\n      tag_81\n      jump\t// in\n    tag_80:\n      mload(0x40)\n      dup1\n      swap2\n      sub\n      swap1\n      revert\n    tag_79:\n        /* \"contracts/BondingYieldFarm.sol\":7507:7519  userPosition */\n      dup1\n        /* \"contracts/BondingYieldFarm.sol\":7507:7530  userPosition.unlockTime */\n      0x02\n      add\n      sload\n        /* \"contracts/BondingYieldFarm.sol\":7488:7503  block.timestamp */\n      timestamp\n        /* \"contracts/BondingYieldFarm.sol\":7488:7530  block.timestamp >= userPosition.unlockTime */\n      lt\n      iszero\n        /* \"contracts/BondingYieldFarm.sol\":7480:7556  require(block.timestamp >= userPosition.unlockTime, \"Stake is still locked\") */\n      tag_82\n      jumpi\n      mload(0x40)\n      0x08c379a000000000000000000000000000000000000000000000000000000000\n      dup2\n      mstore\n      0x04\n      add\n      tag_83\n      swap1\n      tag_84\n      jump\t// in\n    tag_83:\n      mload(0x40)\n      dup1\n      swap2\n      sub\n      swap1\n      revert\n    tag_82:\n        /* \"contracts/BondingYieldFarm.sol\":7599:7610  uint256 fee */\n      0x00\n        /* \"contracts/BondingYieldFarm.sol\":7639:7642  100 */\n      0x64\n        /* \"contracts/BondingYieldFarm.sol\":7623:7627  pool */\n      0x01\n        /* \"contracts/BondingYieldFarm.sol\":7623:7635  pool.feeRate */\n      0x03\n      add\n      sload\n        /* \"contracts/BondingYieldFarm.sol\":7614:7620  amount */\n      dup6\n        /* \"contracts/BondingYieldFarm.sol\":7614:7635  amount * pool.feeRate */\n      tag_85\n      swap2\n      swap1\n      tag_86\n      jump\t// in\n    tag_85:\n        /* \"contracts/BondingYieldFarm.sol\":7613:7642  (amount * pool.feeRate) / 100 */\n      tag_87\n      swap2\n      swap1\n      tag_88\n      jump\t// in\n    tag_87:\n        /* \"contracts/BondingYieldFarm.sol\":7599:7642  uint256 fee = (amount * pool.feeRate) / 100 */\n      swap1\n      pop\n        /* \"contracts/BondingYieldFarm.sol\":7692:7709  uint256 netAmount */\n      0x00\n        /* \"contracts/BondingYieldFarm.sol\":7721:7724  fee */\n      dup2\n        /* \"contracts/BondingYieldFarm.sol\":7712:7718  amount */\n      dup6\n        /* \"contracts/BondingYieldFarm.sol\":7712:7724  amount - fee */\n      tag_89\n      swap2\n      swap1\n      tag_90\n      jump\t// in\n    tag_89:\n        /* \"contracts/BondingYieldFarm.sol\":7692:7724  uint256 netAmount = amount - fee */\n      swap1\n      pop\n        /* \"contracts/BondingYieldFarm.sol\":7810:7816  amount */\n      dup5\n        /* \"contracts/BondingYieldFarm.sol\":7787:7799  userPosition */\n      dup4\n        /* \"contracts/BondingYieldFarm.sol\":7787:7806  userPosition.amount */\n      0x00\n      add\n      0x00\n        /* \"contracts/BondingYieldFarm.sol\":7787:7816  userPosition.amount -= amount */\n      dup3\n      dup3\n      sload\n      tag_91\n      swap2\n      swap1\n      tag_90\n      jump\t// in\n    tag_91:\n      swap3\n      pop\n      pop\n      dup2\n      swap1\n      sstore\n      pop\n        /* \"contracts/BondingYieldFarm.sol\":7886:7892  amount */\n      dup5\n        /* \"contracts/BondingYieldFarm.sol\":7863:7867  pool */\n      0x01\n        /* \"contracts/BondingYieldFarm.sol\":7863:7882  pool.totalLiquidity */\n      dup1\n      add\n      0x00\n        /* \"contracts/BondingYieldFarm.sol\":7863:7892  pool.totalLiquidity -= amount */\n      dup3\n      dup3\n      sload\n      tag_92\n      swap2\n      swap1\n      tag_90\n      jump\t// in\n    tag_92:\n      swap3\n      pop\n      pop\n      dup2\n      swap1\n      sstore\n      pop\n        /* \"contracts/BondingYieldFarm.sol\":7950:7953  fee */\n      dup2\n        /* \"contracts/BondingYieldFarm.sol\":7939:7946  feePool */\n      0x0e\n      0x00\n        /* \"contracts/BondingYieldFarm.sol\":7939:7953  feePool += fee */\n      dup3\n      dup3\n      sload\n      tag_93\n      swap2\n      swap1\n      tag_94\n      jump\t// in\n    tag_93:\n      swap3\n      pop\n      pop\n      dup2\n      swap1\n      sstore\n      pop\n        /* \"contracts/BondingYieldFarm.sol\":8042:8043  0 */\n      0x00\n        /* \"contracts/BondingYieldFarm.sol\":8019:8031  userPosition */\n      dup4\n        /* \"contracts/BondingYieldFarm.sol\":8019:8038  userPosition.amount */\n      0x00\n      add\n      sload\n        /* \"contracts/BondingYieldFarm.sol\":8019:8043  userPosition.amount == 0 */\n      sub\n        /* \"contracts/BondingYieldFarm.sol\":8015:8167  if (userPosition.amount == 0) {... */\n      tag_95\n      jumpi\n        /* \"contracts/BondingYieldFarm.sol\":8059:8083  removeStaker(msg.sender) */\n      tag_96\n        /* \"contracts/BondingYieldFarm.sol\":8072:8082  msg.sender */\n      caller\n        /* \"contracts/BondingYieldFarm.sol\":8059:8071  removeStaker */\n      tag_97\n        /* \"contracts/BondingYieldFarm.sol\":8059:8083  removeStaker(msg.sender) */\n      jump\t// in\n    tag_96:\n        /* \"contracts/BondingYieldFarm.sol\":8015:8167  if (userPosition.amount == 0) {... */\n    tag_95:\n        /* \"contracts/BondingYieldFarm.sol\":8177:8181  pool */\n      0x01\n        /* \"contracts/BondingYieldFarm.sol\":8177:8187  pool.token */\n      0x00\n      add\n      0x00\n      swap1\n      sload\n      swap1\n      0x0100\n      exp\n      swap1\n      div\n      0xffffffffffffffffffffffffffffffffffffffff\n      and\n        /* \"contracts/BondingYieldFarm.sol\":8177:8196  pool.token.transfer */\n      0xffffffffffffffffffffffffffffffffffffffff\n      and\n      0xa9059cbb\n        /* \"contracts/BondingYieldFarm.sol\":8197:8207  msg.sender */\n      caller\n        /* \"contracts/BondingYieldFarm.sol\":8209:8218  netAmount */\n      dup4\n        /* \"contracts/BondingYieldFarm.sol\":8177:8219  pool.token.transfer(msg.sender, netAmount) */\n      mload(0x40)\n      dup4\n      0xffffffff\n      and\n      0xe0\n      shl\n      dup2\n      mstore\n      0x04\n      add\n      tag_98\n      swap3\n      swap2\n      swap1\n      tag_99\n      jump\t// in\n    tag_98:\n      0x20\n      mload(0x40)\n      dup1\n      dup4\n      sub\n      dup2\n      0x00\n      dup8\n      gas\n      call\n      iszero\n      dup1\n      iszero\n      tag_101\n      jumpi\n      returndatacopy(0x00, 0x00, returndatasize)\n      revert(0x00, returndatasize)\n    tag_101:\n      pop\n      pop\n      pop\n      pop\n      mload(0x40)\n      returndatasize\n      not(0x1f)\n      0x1f\n      dup3\n      add\n      and\n      dup3\n      add\n      dup1\n      0x40\n      mstore\n      pop\n      dup2\n      add\n      swap1\n      tag_102\n      swap2\n      swap1\n      tag_103\n      jump\t// in\n    tag_102:\n      pop\n        /* \"contracts/BondingYieldFarm.sol\":8296:8306  msg.sender */\n      caller\n        /* \"contracts/BondingYieldFarm.sol\":8286:8340  Withdrawn(msg.sender, netAmount, fee, block.timestamp) */\n      0xffffffffffffffffffffffffffffffffffffffff\n      and\n      0x75e161b3e824b114fc1a33274bd7091918dd4e639cede50b78b15a4eea956a21\n        /* \"contracts/BondingYieldFarm.sol\":8308:8317  netAmount */\n      dup3\n        /* \"contracts/BondingYieldFarm.sol\":8319:8322  fee */\n      dup5\n        /* \"contracts/BondingYieldFarm.sol\":8324:8339  block.timestamp */\n      timestamp\n        /* \"contracts/BondingYieldFarm.sol\":8286:8340  Withdrawn(msg.sender, netAmount, fee, block.timestamp) */\n      mload(0x40)\n      tag_104\n      swap4\n      swap3\n      swap2\n      swap1\n      tag_105\n      jump\t// in\n    tag_104:\n      mload(0x40)\n      dup1\n      swap2\n      sub\n      swap1\n      log2\n        /* \"contracts/BondingYieldFarm.sol\":7283:8376  {... */\n      pop\n      pop\n      pop\n        /* \"contracts/BondingYieldFarm.sol\":2925:2926  _ */\n      pop\n        /* \"contracts/BondingYieldFarm.sol\":7178:8376  function withdraw(uint256 amount)... */\n      pop\n      jump\t// out\n        /* \"contracts/BondingYieldFarm.sol\":12128:12262  function getStakers() external view returns (address[] memory) {... */\n    tag_29:\n        /* \"contracts/BondingYieldFarm.sol\":12173:12189  address[] memory */\n      0x60\n        /* \"contracts/BondingYieldFarm.sol\":12208:12215  stakers */\n      0x0d\n        /* \"contracts/BondingYieldFarm.sol\":12201:12215  return stakers */\n      dup1\n      sload\n      dup1\n      0x20\n      mul\n      0x20\n      add\n      mload(0x40)\n      swap1\n      dup2\n      add\n      0x40\n      mstore\n      dup1\n      swap3\n      swap2\n      swap1\n      dup2\n      dup2\n      mstore\n      0x20\n      add\n      dup3\n      dup1\n      sload\n      dup1\n      iszero\n      tag_107\n      jumpi\n      0x20\n      mul\n      dup3\n      add\n      swap2\n      swap1\n      0x00\n      mstore\n      keccak256(0x00, 0x20)\n      swap1\n    tag_108:\n      dup2\n      0x00\n      swap1\n      sload\n      swap1\n      0x0100\n      exp\n      swap1\n      div\n      0xffffffffffffffffffffffffffffffffffffffff\n      and\n      0xffffffffffffffffffffffffffffffffffffffff\n      and\n      dup2\n      mstore\n      0x20\n      add\n      swap1\n      0x01\n      add\n      swap1\n      dup1\n      dup4\n      gt\n      tag_108\n      jumpi\n    tag_107:\n      pop\n      pop\n      pop\n      pop\n      pop\n      swap1\n      pop\n        /* \"contracts/BondingYieldFarm.sol\":12128:12262  function getStakers() external view returns (address[] memory) {... */\n      swap1\n      jump\t// out\n        /* \"contracts/BondingYieldFarm.sol\":4781:7001  function stake(uint256 amount, bool autoCompound, uint256 lockupPeriod)... */\n    tag_35:\n        /* \"contracts/BondingYieldFarm.sol\":2839:2843  pool */\n      0x01\n        /* \"contracts/BondingYieldFarm.sol\":2839:2852  pool.isPaused */\n      0x0a\n      add\n      0x00\n      swap1\n      sload\n      swap1\n      0x0100\n      exp\n      swap1\n      div\n      0xff\n      and\n        /* \"contracts/BondingYieldFarm.sol\":2838:2852  !pool.isPaused */\n      iszero\n        /* \"contracts/BondingYieldFarm.sol\":2830:2871  require(!pool.isPaused, \"Pool is paused\") */\n      tag_110\n      jumpi\n      mload(0x40)\n      0x08c379a000000000000000000000000000000000000000000000000000000000\n      dup2\n      mstore\n      0x04\n      add\n      tag_111\n      swap1\n      tag_73\n      jump\t// in\n    tag_111:\n      mload(0x40)\n      dup1\n      swap2\n      sub\n      swap1\n      revert\n    tag_110:\n        /* \"contracts/BondingYieldFarm.sol\":4912:4918  amount */\n      dup3\n        /* \"contracts/BondingYieldFarm.sol\":3097:3098  0 */\n      0x00\n        /* \"contracts/BondingYieldFarm.sol\":3088:3094  amount */\n      dup2\n        /* \"contracts/BondingYieldFarm.sol\":3088:3098  amount > 0 */\n      gt\n        /* \"contracts/BondingYieldFarm.sol\":3080:3135  require(amount > 0, \"Amount must be greater than zero\") */\n      tag_113\n      jumpi\n      mload(0x40)\n      0x08c379a000000000000000000000000000000000000000000000000000000000\n      dup2\n      mstore\n      0x04\n      add\n      tag_114\n      swap1\n      tag_77\n      jump\t// in\n    tag_114:\n      mload(0x40)\n      dup1\n      swap2\n      sub\n      swap1\n      revert\n    tag_113:\n        /* \"contracts/BondingYieldFarm.sol\":4934:4967  UserPosition storage userPosition */\n      0x00\n        /* \"contracts/BondingYieldFarm.sol\":4970:4983  userPositions */\n      0x0c\n        /* \"contracts/BondingYieldFarm.sol\":4970:4995  userPositions[msg.sender] */\n      0x00\n        /* \"contracts/BondingYieldFarm.sol\":4984:4994  msg.sender */\n      caller\n        /* \"contracts/BondingYieldFarm.sol\":4970:4995  userPositions[msg.sender] */\n      0xffffffffffffffffffffffffffffffffffffffff\n      and\n      0xffffffffffffffffffffffffffffffffffffffff\n      and\n      dup2\n      mstore\n      0x20\n      add\n      swap1\n      dup2\n      mstore\n      0x20\n      add\n      0x00\n      keccak256\n        /* \"contracts/BondingYieldFarm.sol\":4934:4995  UserPosition storage userPosition = userPositions[msg.sender] */\n      swap1\n      pop\n        /* \"contracts/BondingYieldFarm.sol\":5046:5050  pool */\n      0x01\n        /* \"contracts/BondingYieldFarm.sol\":5046:5068  pool.maxDepositPerUser */\n      0x08\n      add\n      sload\n        /* \"contracts/BondingYieldFarm.sol\":5036:5042  amount */\n      dup6\n        /* \"contracts/BondingYieldFarm.sol\":5014:5026  userPosition */\n      dup3\n        /* \"contracts/BondingYieldFarm.sol\":5014:5033  userPosition.amount */\n      0x00\n      add\n      sload\n        /* \"contracts/BondingYieldFarm.sol\":5014:5042  userPosition.amount + amount */\n      tag_116\n      swap2\n      swap1\n      tag_94\n      jump\t// in\n    tag_116:\n        /* \"contracts/BondingYieldFarm.sol\":5014:5068  userPosition.amount + amount <= pool.maxDepositPerUser */\n      gt\n      iszero\n        /* \"contracts/BondingYieldFarm.sol\":5006:5099  require(userPosition.amount + amount <= pool.maxDepositPerUser, \"Deposit exceeds user limit\") */\n      tag_117\n      jumpi\n      mload(0x40)\n      0x08c379a000000000000000000000000000000000000000000000000000000000\n      dup2\n      mstore\n      0x04\n      add\n      tag_118\n      swap1\n      tag_119\n      jump\t// in\n    tag_118:\n      mload(0x40)\n      dup1\n      swap2\n      sub\n      swap1\n      revert\n    tag_117:\n        /* \"contracts/BondingYieldFarm.sol\":5203:5207  pool */\n      0x01\n        /* \"contracts/BondingYieldFarm.sol\":5203:5225  pool.totalMaxLiquidity */\n      0x09\n      add\n      sload\n        /* \"contracts/BondingYieldFarm.sol\":5193:5199  amount */\n      dup6\n        /* \"contracts/BondingYieldFarm.sol\":5171:5175  pool */\n      0x01\n        /* \"contracts/BondingYieldFarm.sol\":5171:5190  pool.totalLiquidity */\n      dup1\n      add\n      sload\n        /* \"contracts/BondingYieldFarm.sol\":5171:5199  pool.totalLiquidity + amount */\n      tag_120\n      swap2\n      swap1\n      tag_94\n      jump\t// in\n    tag_120:\n        /* \"contracts/BondingYieldFarm.sol\":5171:5225  pool.totalLiquidity + amount <= pool.totalMaxLiquidity */\n      gt\n      iszero\n        /* \"contracts/BondingYieldFarm.sol\":5163:5253  require(pool.totalLiquidity + amount <= pool.totalMaxLiquidity, \"Pool liquidity exceeded\") */\n      tag_121\n      jumpi\n      mload(0x40)\n      0x08c379a000000000000000000000000000000000000000000000000000000000\n      dup2\n      mstore\n      0x04\n      add\n      tag_122\n      swap1\n      tag_123\n      jump\t// in\n    tag_122:\n      mload(0x40)\n      dup1\n      swap2\n      sub\n      swap1\n      revert\n    tag_121:\n        /* \"contracts/BondingYieldFarm.sol\":5342:5343  0 */\n      0x00\n        /* \"contracts/BondingYieldFarm.sol\":5319:5331  userPosition */\n      dup2\n        /* \"contracts/BondingYieldFarm.sol\":5319:5338  userPosition.amount */\n      0x00\n      add\n      sload\n        /* \"contracts/BondingYieldFarm.sol\":5319:5343  userPosition.amount == 0 */\n      sub\n        /* \"contracts/BondingYieldFarm.sol\":5315:5468  if (userPosition.amount == 0) {... */\n      tag_124\n      jumpi\n        /* \"contracts/BondingYieldFarm.sol\":5359:5366  stakers */\n      0x0d\n        /* \"contracts/BondingYieldFarm.sol\":5372:5382  msg.sender */\n      caller\n        /* \"contracts/BondingYieldFarm.sol\":5359:5383  stakers.push(msg.sender) */\n      swap1\n      dup1\n      0x01\n      dup2\n      sload\n      add\n      dup1\n      dup3\n      sstore\n      dup1\n      swap2\n      pop\n      pop\n      0x01\n      swap1\n      sub\n      swap1\n      0x00\n      mstore\n      keccak256(0x00, 0x20)\n      add\n      0x00\n      swap1\n      swap2\n      swap1\n      swap2\n      swap1\n      swap2\n      0x0100\n      exp\n      dup2\n      sload\n      dup2\n      0xffffffffffffffffffffffffffffffffffffffff\n      mul\n      not\n      and\n      swap1\n      dup4\n      0xffffffffffffffffffffffffffffffffffffffff\n      and\n      mul\n      or\n      swap1\n      sstore\n      pop\n        /* \"contracts/BondingYieldFarm.sol\":5315:5468  if (userPosition.amount == 0) {... */\n    tag_124:\n        /* \"contracts/BondingYieldFarm.sol\":5544:5550  amount */\n      dup5\n        /* \"contracts/BondingYieldFarm.sol\":5521:5533  userPosition */\n      dup2\n        /* \"contracts/BondingYieldFarm.sol\":5521:5540  userPosition.amount */\n      0x00\n      add\n      0x00\n        /* \"contracts/BondingYieldFarm.sol\":5521:5550  userPosition.amount += amount */\n      dup3\n      dup3\n      sload\n      tag_126\n      swap2\n      swap1\n      tag_94\n      jump\t// in\n    tag_126:\n      swap3\n      pop\n      pop\n      dup2\n      swap1\n      sstore\n      pop\n        /* \"contracts/BondingYieldFarm.sol\":5585:5600  block.timestamp */\n      timestamp\n        /* \"contracts/BondingYieldFarm.sol\":5560:5572  userPosition */\n      dup2\n        /* \"contracts/BondingYieldFarm.sol\":5560:5582  userPosition.stakeTime */\n      0x01\n      add\n        /* \"contracts/BondingYieldFarm.sol\":5560:5600  userPosition.stakeTime = block.timestamp */\n      dup2\n      swap1\n      sstore\n      pop\n        /* \"contracts/BondingYieldFarm.sol\":5682:5683  0 */\n      0x00\n        /* \"contracts/BondingYieldFarm.sol\":5667:5679  lockupPeriod */\n      dup4\n        /* \"contracts/BondingYieldFarm.sol\":5667:5683  lockupPeriod > 0 */\n      gt\n        /* \"contracts/BondingYieldFarm.sol\":5663:5815  if (lockupPeriod > 0) {... */\n      iszero\n      tag_127\n      jumpi\n        /* \"contracts/BondingYieldFarm.sol\":5743:5755  lockupPeriod */\n      dup3\n        /* \"contracts/BondingYieldFarm.sol\":5725:5740  block.timestamp */\n      timestamp\n        /* \"contracts/BondingYieldFarm.sol\":5725:5755  block.timestamp + lockupPeriod */\n      tag_128\n      swap2\n      swap1\n      tag_94\n      jump\t// in\n    tag_128:\n        /* \"contracts/BondingYieldFarm.sol\":5699:5711  userPosition */\n      dup2\n        /* \"contracts/BondingYieldFarm.sol\":5699:5722  userPosition.unlockTime */\n      0x02\n      add\n        /* \"contracts/BondingYieldFarm.sol\":5699:5755  userPosition.unlockTime = block.timestamp + lockupPeriod */\n      dup2\n      swap1\n      sstore\n      pop\n        /* \"contracts/BondingYieldFarm.sol\":5663:5815  if (lockupPeriod > 0) {... */\n    tag_127:\n        /* \"contracts/BondingYieldFarm.sol\":5848:5854  amount */\n      dup5\n        /* \"contracts/BondingYieldFarm.sol\":5825:5829  pool */\n      0x01\n        /* \"contracts/BondingYieldFarm.sol\":5825:5844  pool.totalLiquidity */\n      dup1\n      add\n      0x00\n        /* \"contracts/BondingYieldFarm.sol\":5825:5854  pool.totalLiquidity += amount */\n      dup3\n      dup3\n      sload\n      tag_129\n      swap2\n      swap1\n      tag_94\n      jump\t// in\n    tag_129:\n      swap3\n      pop\n      pop\n      dup2\n      swap1\n      sstore\n      pop\n        /* \"contracts/BondingYieldFarm.sol\":6031:6045  uint256 reward */\n      0x00\n        /* \"contracts/BondingYieldFarm.sol\":6048:6156  calculateBoostedReward(userPosition.amount, userPosition.stakeTime, pool.lastUpdate, pool.rewardCoefficient) */\n      tag_130\n        /* \"contracts/BondingYieldFarm.sol\":6071:6083  userPosition */\n      dup3\n        /* \"contracts/BondingYieldFarm.sol\":6071:6090  userPosition.amount */\n      0x00\n      add\n      sload\n        /* \"contracts/BondingYieldFarm.sol\":6092:6104  userPosition */\n      dup4\n        /* \"contracts/BondingYieldFarm.sol\":6092:6114  userPosition.stakeTime */\n      0x01\n      add\n      sload\n        /* \"contracts/BondingYieldFarm.sol\":6116:6120  pool */\n      0x01\n        /* \"contracts/BondingYieldFarm.sol\":6116:6131  pool.lastUpdate */\n      0x04\n      add\n      sload\n        /* \"contracts/BondingYieldFarm.sol\":6133:6137  pool */\n      0x01\n        /* \"contracts/BondingYieldFarm.sol\":6133:6155  pool.rewardCoefficient */\n      0x02\n      add\n      sload\n        /* \"contracts/BondingYieldFarm.sol\":6048:6070  calculateBoostedReward */\n      tag_57\n        /* \"contracts/BondingYieldFarm.sol\":6048:6156  calculateBoostedReward(userPosition.amount, userPosition.stakeTime, pool.lastUpdate, pool.rewardCoefficient) */\n      jump\t// in\n    tag_130:\n        /* \"contracts/BondingYieldFarm.sol\":6031:6156  uint256 reward = calculateBoostedReward(userPosition.amount, userPosition.stakeTime, pool.lastUpdate, pool.rewardCoefficient) */\n      swap1\n      pop\n        /* \"contracts/BondingYieldFarm.sol\":6179:6191  autoCompound */\n      dup5\n        /* \"contracts/BondingYieldFarm.sol\":6175:6450  if (autoCompound) {... */\n      iszero\n      tag_131\n      jumpi\n        /* \"contracts/BondingYieldFarm.sol\":6230:6236  reward */\n      dup1\n        /* \"contracts/BondingYieldFarm.sol\":6207:6219  userPosition */\n      dup3\n        /* \"contracts/BondingYieldFarm.sol\":6207:6226  userPosition.amount */\n      0x00\n      add\n      0x00\n        /* \"contracts/BondingYieldFarm.sol\":6207:6236  userPosition.amount += reward */\n      dup3\n      dup3\n      sload\n      tag_132\n      swap2\n      swap1\n      tag_94\n      jump\t// in\n    tag_132:\n      swap3\n      pop\n      pop\n      dup2\n      swap1\n      sstore\n      pop\n        /* \"contracts/BondingYieldFarm.sol\":6175:6450  if (autoCompound) {... */\n      jump(tag_133)\n    tag_131:\n        /* \"contracts/BondingYieldFarm.sol\":6344:6348  pool */\n      0x01\n        /* \"contracts/BondingYieldFarm.sol\":6344:6354  pool.token */\n      0x00\n      add\n      0x00\n      swap1\n      sload\n      swap1\n      0x0100\n      exp\n      swap1\n      div\n      0xffffffffffffffffffffffffffffffffffffffff\n      and\n        /* \"contracts/BondingYieldFarm.sol\":6344:6363  pool.token.transfer */\n      0xffffffffffffffffffffffffffffffffffffffff\n      and\n      0xa9059cbb\n        /* \"contracts/BondingYieldFarm.sol\":6364:6374  msg.sender */\n      caller\n        /* \"contracts/BondingYieldFarm.sol\":6376:6382  reward */\n      dup4\n        /* \"contracts/BondingYieldFarm.sol\":6344:6383  pool.token.transfer(msg.sender, reward) */\n      mload(0x40)\n      dup4\n      0xffffffff\n      and\n      0xe0\n      shl\n      dup2\n      mstore\n      0x04\n      add\n      tag_134\n      swap3\n      swap2\n      swap1\n      tag_99\n      jump\t// in\n    tag_134:\n      0x20\n      mload(0x40)\n      dup1\n      dup4\n      sub\n      dup2\n      0x00\n      dup8\n      gas\n      call\n      iszero\n      dup1\n      iszero\n      tag_136\n      jumpi\n      returndatacopy(0x00, 0x00, returndatasize)\n      revert(0x00, returndatasize)\n    tag_136:\n      pop\n      pop\n      pop\n      pop\n      mload(0x40)\n      returndatasize\n      not(0x1f)\n      0x1f\n      dup3\n      add\n      and\n      dup3\n      add\n      dup1\n      0x40\n      mstore\n      pop\n      dup2\n      add\n      swap1\n      tag_137\n      swap2\n      swap1\n      tag_103\n      jump\t// in\n    tag_137:\n      pop\n        /* \"contracts/BondingYieldFarm.sol\":6175:6450  if (autoCompound) {... */\n    tag_133:\n        /* \"contracts/BondingYieldFarm.sol\":6492:6498  reward */\n      dup1\n        /* \"contracts/BondingYieldFarm.sol\":6460:6464  pool */\n      0x01\n        /* \"contracts/BondingYieldFarm.sol\":6460:6488  pool.totalRewardsDistributed */\n      0x07\n      add\n      0x00\n        /* \"contracts/BondingYieldFarm.sol\":6460:6498  pool.totalRewardsDistributed += reward */\n      dup3\n      dup3\n      sload\n      tag_138\n      swap2\n      swap1\n      tag_94\n      jump\t// in\n    tag_138:\n      swap3\n      pop\n      pop\n      dup2\n      swap1\n      sstore\n      pop\n        /* \"contracts/BondingYieldFarm.sol\":6646:6650  pool */\n      0x01\n        /* \"contracts/BondingYieldFarm.sol\":6646:6666  pool.topStakerAmount */\n      0x06\n      add\n      sload\n        /* \"contracts/BondingYieldFarm.sol\":6624:6636  userPosition */\n      dup3\n        /* \"contracts/BondingYieldFarm.sol\":6624:6643  userPosition.amount */\n      0x00\n      add\n      sload\n        /* \"contracts/BondingYieldFarm.sol\":6624:6666  userPosition.amount > pool.topStakerAmount */\n      gt\n        /* \"contracts/BondingYieldFarm.sol\":6620:6776  if (userPosition.amount > pool.topStakerAmount) {... */\n      iszero\n      tag_139\n      jumpi\n        /* \"contracts/BondingYieldFarm.sol\":6699:6709  msg.sender */\n      caller\n        /* \"contracts/BondingYieldFarm.sol\":6682:6686  pool */\n      0x01\n        /* \"contracts/BondingYieldFarm.sol\":6682:6696  pool.topStaker */\n      0x05\n      add\n      0x00\n        /* \"contracts/BondingYieldFarm.sol\":6682:6709  pool.topStaker = msg.sender */\n      0x0100\n      exp\n      dup2\n      sload\n      dup2\n      0xffffffffffffffffffffffffffffffffffffffff\n      mul\n      not\n      and\n      swap1\n      dup4\n      0xffffffffffffffffffffffffffffffffffffffff\n      and\n      mul\n      or\n      swap1\n      sstore\n      pop\n        /* \"contracts/BondingYieldFarm.sol\":6746:6758  userPosition */\n      dup2\n        /* \"contracts/BondingYieldFarm.sol\":6746:6765  userPosition.amount */\n      0x00\n      add\n      sload\n        /* \"contracts/BondingYieldFarm.sol\":6723:6727  pool */\n      0x01\n        /* \"contracts/BondingYieldFarm.sol\":6723:6743  pool.topStakerAmount */\n      0x06\n      add\n        /* \"contracts/BondingYieldFarm.sol\":6723:6765  pool.topStakerAmount = userPosition.amount */\n      dup2\n      swap1\n      sstore\n      pop\n        /* \"contracts/BondingYieldFarm.sol\":6620:6776  if (userPosition.amount > pool.topStakerAmount) {... */\n    tag_139:\n        /* \"contracts/BondingYieldFarm.sol\":6786:6790  pool */\n      0x01\n        /* \"contracts/BondingYieldFarm.sol\":6786:6796  pool.token */\n      0x00\n      add\n      0x00\n      swap1\n      sload\n      swap1\n      0x0100\n      exp\n      swap1\n      div\n      0xffffffffffffffffffffffffffffffffffffffff\n      and\n        /* \"contracts/BondingYieldFarm.sol\":6786:6809  pool.token.transferFrom */\n      0xffffffffffffffffffffffffffffffffffffffff\n      and\n      0x23b872dd\n        /* \"contracts/BondingYieldFarm.sol\":6810:6820  msg.sender */\n      caller\n        /* \"contracts/BondingYieldFarm.sol\":6830:6834  this */\n      address\n        /* \"contracts/BondingYieldFarm.sol\":6837:6843  amount */\n      dup10\n        /* \"contracts/BondingYieldFarm.sol\":6786:6844  pool.token.transferFrom(msg.sender, address(this), amount) */\n      mload(0x40)\n      dup5\n      0xffffffff\n      and\n      0xe0\n      shl\n      dup2\n      mstore\n      0x04\n      add\n      tag_140\n      swap4\n      swap3\n      swap2\n      swap1\n      tag_141\n      jump\t// in\n    tag_140:\n      0x20\n      mload(0x40)\n      dup1\n      dup4\n      sub\n      dup2\n      0x00\n      dup8\n      gas\n      call\n      iszero\n      dup1\n      iszero\n      tag_143\n      jumpi\n      returndatacopy(0x00, 0x00, returndatasize)\n      revert(0x00, returndatasize)\n    tag_143:\n      pop\n      pop\n      pop\n      pop\n      mload(0x40)\n      returndatasize\n      not(0x1f)\n      0x1f\n      dup3\n      add\n      and\n      dup3\n      add\n      dup1\n      0x40\n      mstore\n      pop\n      dup2\n      add\n      swap1\n      tag_144\n      swap2\n      swap1\n      tag_103\n      jump\t// in\n    tag_144:\n      pop\n        /* \"contracts/BondingYieldFarm.sol\":6927:6937  msg.sender */\n      caller\n        /* \"contracts/BondingYieldFarm.sol\":6920:6968  Staked(msg.sender, amount, reward, autoCompound) */\n      0xffffffffffffffffffffffffffffffffffffffff\n      and\n      0x3df45cb339f96ae4bdb793efcb6e22100dd0dc4fd739a4ee2033fe67ea35af96\n        /* \"contracts/BondingYieldFarm.sol\":6939:6945  amount */\n      dup8\n        /* \"contracts/BondingYieldFarm.sol\":6947:6953  reward */\n      dup4\n        /* \"contracts/BondingYieldFarm.sol\":6955:6967  autoCompound */\n      dup9\n        /* \"contracts/BondingYieldFarm.sol\":6920:6968  Staked(msg.sender, amount, reward, autoCompound) */\n      mload(0x40)\n      tag_145\n      swap4\n      swap3\n      swap2\n      swap1\n      tag_146\n      jump\t// in\n    tag_145:\n      mload(0x40)\n      dup1\n      swap2\n      sub\n      swap1\n      log2\n        /* \"contracts/BondingYieldFarm.sol\":4924:7001  {... */\n      pop\n      pop\n        /* \"contracts/BondingYieldFarm.sol\":2925:2926  _ */\n      pop\n        /* \"contracts/BondingYieldFarm.sol\":4781:7001  function stake(uint256 amount, bool autoCompound, uint256 lockupPeriod)... */\n      pop\n      pop\n      pop\n      jump\t// out\n        /* \"contracts/BondingYieldFarm.sol\":1933:1986  mapping(address => UserPosition) public userPositions */\n    tag_39:\n      mstore(0x20, 0x0c)\n      dup1\n      0x00\n      mstore\n      keccak256(0x00, 0x40)\n      0x00\n      swap2\n      pop\n      swap1\n      pop\n      dup1\n      0x00\n      add\n      sload\n      swap1\n      dup1\n      0x01\n      add\n      sload\n      swap1\n      dup1\n      0x02\n      add\n      sload\n      swap1\n      dup1\n      0x03\n      add\n      sload\n      swap1\n      pop\n      dup5\n      jump\t// out\n        /* \"@openzeppelin/contracts/access/Ownable.sol\":2293:2394  function renounceOwnership() public virtual onlyOwner {... */\n    tag_43:\n        /* \"@openzeppelin/contracts/access/Ownable.sol\":1531:1544  _checkOwner() */\n      tag_148\n        /* \"@openzeppelin/contracts/access/Ownable.sol\":1531:1542  _checkOwner */\n      tag_149\n        /* \"@openzeppelin/contracts/access/Ownable.sol\":1531:1544  _checkOwner() */\n      jump\t// in\n    tag_148:\n        /* \"@openzeppelin/contracts/access/Ownable.sol\":2357:2387  _transferOwnership(address(0)) */\n      tag_151\n        /* \"@openzeppelin/contracts/access/Ownable.sol\":2384:2385  0 */\n      0x00\n        /* \"@openzeppelin/contracts/access/Ownable.sol\":2357:2375  _transferOwnership */\n      tag_152\n        /* \"@openzeppelin/contracts/access/Ownable.sol\":2357:2387  _transferOwnership(address(0)) */\n      jump\t// in\n    tag_151:\n        /* \"@openzeppelin/contracts/access/Ownable.sol\":2293:2394  function renounceOwnership() public virtual onlyOwner {... */\n      jump\t// out\n        /* \"@openzeppelin/contracts/access/Ownable.sol\":1638:1723  function owner() public view virtual returns (address) {... */\n    tag_45:\n        /* \"@openzeppelin/contracts/access/Ownable.sol\":1684:1691  address */\n      0x00\n        /* \"@openzeppelin/contracts/access/Ownable.sol\":1710:1716  _owner */\n      0x00\n      0x00\n      swap1\n      sload\n      swap1\n      0x0100\n      exp\n      swap1\n      div\n      0xffffffffffffffffffffffffffffffffffffffff\n      and\n        /* \"@openzeppelin/contracts/access/Ownable.sol\":1703:1716  return _owner */\n      swap1\n      pop\n        /* \"@openzeppelin/contracts/access/Ownable.sol\":1638:1723  function owner() public view virtual returns (address) {... */\n      swap1\n      jump\t// out\n        /* \"contracts/BondingYieldFarm.sol\":2109:2131  uint256 public feePool */\n    tag_49:\n      sload(0x0e)\n      dup2\n      jump\t// out\n        /* \"contracts/BondingYieldFarm.sol\":9844:10625  function distributeFees() external onlyOwner {... */\n    tag_53:\n        /* \"@openzeppelin/contracts/access/Ownable.sol\":1531:1544  _checkOwner() */\n      tag_155\n        /* \"@openzeppelin/contracts/access/Ownable.sol\":1531:1542  _checkOwner */\n      tag_149\n        /* \"@openzeppelin/contracts/access/Ownable.sol\":1531:1544  _checkOwner() */\n      jump\t// in\n    tag_155:\n        /* \"contracts/BondingYieldFarm.sol\":9899:9916  uint256 totalFees */\n      0x00\n        /* \"contracts/BondingYieldFarm.sol\":9919:9926  feePool */\n      sload(0x0e)\n        /* \"contracts/BondingYieldFarm.sol\":9899:9926  uint256 totalFees = feePool */\n      swap1\n      pop\n        /* \"contracts/BondingYieldFarm.sol\":9956:9957  0 */\n      0x00\n        /* \"contracts/BondingYieldFarm.sol\":9944:9953  totalFees */\n      dup2\n        /* \"contracts/BondingYieldFarm.sol\":9944:9957  totalFees > 0 */\n      gt\n        /* \"contracts/BondingYieldFarm.sol\":9936:9983  require(totalFees > 0, \"No fees to distribute\") */\n      tag_157\n      jumpi\n      mload(0x40)\n      0x08c379a000000000000000000000000000000000000000000000000000000000\n      dup2\n      mstore\n      0x04\n      add\n      tag_158\n      swap1\n      tag_159\n      jump\t// in\n    tag_158:\n      mload(0x40)\n      dup1\n      swap2\n      sub\n      swap1\n      revert\n    tag_157:\n        /* \"contracts/BondingYieldFarm.sol\":10096:10105  uint256 i */\n      0x00\n        /* \"contracts/BondingYieldFarm.sol\":10108:10109  0 */\n      0x00\n        /* \"contracts/BondingYieldFarm.sol\":10096:10109  uint256 i = 0 */\n      swap1\n      pop\n        /* \"contracts/BondingYieldFarm.sol\":10091:10475  for (uint256 i = 0; i < stakers.length; i++) {... */\n    tag_160:\n        /* \"contracts/BondingYieldFarm.sol\":10115:10122  stakers */\n      0x0d\n        /* \"contracts/BondingYieldFarm.sol\":10115:10129  stakers.length */\n      dup1\n      sload\n      swap1\n      pop\n        /* \"contracts/BondingYieldFarm.sol\":10111:10112  i */\n      dup2\n        /* \"contracts/BondingYieldFarm.sol\":10111:10129  i < stakers.length */\n      lt\n        /* \"contracts/BondingYieldFarm.sol\":10091:10475  for (uint256 i = 0; i < stakers.length; i++) {... */\n      iszero\n      tag_161\n      jumpi\n        /* \"contracts/BondingYieldFarm.sol\":10150:10162  address user */\n      0x00\n        /* \"contracts/BondingYieldFarm.sol\":10165:10172  stakers */\n      0x0d\n        /* \"contracts/BondingYieldFarm.sol\":10173:10174  i */\n      dup3\n        /* \"contracts/BondingYieldFarm.sol\":10165:10175  stakers[i] */\n      dup2\n      sload\n      dup2\n      lt\n      tag_163\n      jumpi\n      tag_164\n      tag_165\n      jump\t// in\n    tag_164:\n    tag_163:\n      swap1\n      0x00\n      mstore\n      keccak256(0x00, 0x20)\n      add\n      0x00\n      swap1\n      sload\n      swap1\n      0x0100\n      exp\n      swap1\n      div\n      0xffffffffffffffffffffffffffffffffffffffff\n      and\n        /* \"contracts/BondingYieldFarm.sol\":10150:10175  address user = stakers[i] */\n      swap1\n      pop\n        /* \"contracts/BondingYieldFarm.sol\":10189:10222  UserPosition storage userPosition */\n      0x00\n        /* \"contracts/BondingYieldFarm.sol\":10225:10238  userPositions */\n      0x0c\n        /* \"contracts/BondingYieldFarm.sol\":10225:10244  userPositions[user] */\n      0x00\n        /* \"contracts/BondingYieldFarm.sol\":10239:10243  user */\n      dup4\n        /* \"contracts/BondingYieldFarm.sol\":10225:10244  userPositions[user] */\n      0xffffffffffffffffffffffffffffffffffffffff\n      and\n      0xffffffffffffffffffffffffffffffffffffffff\n      and\n      dup2\n      mstore\n      0x20\n      add\n      swap1\n      dup2\n      mstore\n      0x20\n      add\n      0x00\n      keccak256\n        /* \"contracts/BondingYieldFarm.sol\":10189:10244  UserPosition storage userPosition = userPositions[user] */\n      swap1\n      pop\n        /* \"contracts/BondingYieldFarm.sol\":10258:10275  uint256 userShare */\n      0x00\n        /* \"contracts/BondingYieldFarm.sol\":10314:10318  pool */\n      0x01\n        /* \"contracts/BondingYieldFarm.sol\":10314:10333  pool.totalLiquidity */\n      dup1\n      add\n      sload\n        /* \"contracts/BondingYieldFarm.sol\":10301:10310  totalFees */\n      dup6\n        /* \"contracts/BondingYieldFarm.sol\":10279:10291  userPosition */\n      dup4\n        /* \"contracts/BondingYieldFarm.sol\":10279:10298  userPosition.amount */\n      0x00\n      add\n      sload\n        /* \"contracts/BondingYieldFarm.sol\":10279:10310  userPosition.amount * totalFees */\n      tag_167\n      swap2\n      swap1\n      tag_86\n      jump\t// in\n    tag_167:\n        /* \"contracts/BondingYieldFarm.sol\":10278:10333  (userPosition.amount * totalFees) / pool.totalLiquidity */\n      tag_168\n      swap2\n      swap1\n      tag_88\n      jump\t// in\n    tag_168:\n        /* \"contracts/BondingYieldFarm.sol\":10258:10333  uint256 userShare = (userPosition.amount * totalFees) / pool.totalLiquidity */\n      swap1\n      pop\n        /* \"contracts/BondingYieldFarm.sol\":10415:10424  userShare */\n      dup1\n        /* \"contracts/BondingYieldFarm.sol\":10390:10402  userPosition */\n      dup3\n        /* \"contracts/BondingYieldFarm.sol\":10390:10411  userPosition.feeShare */\n      0x03\n      add\n      0x00\n        /* \"contracts/BondingYieldFarm.sol\":10390:10424  userPosition.feeShare += userShare */\n      dup3\n      dup3\n      sload\n      tag_169\n      swap2\n      swap1\n      tag_94\n      jump\t// in\n    tag_169:\n      swap3\n      pop\n      pop\n      dup2\n      swap1\n      sstore\n      pop\n        /* \"contracts/BondingYieldFarm.sol\":10136:10475  {... */\n      pop\n      pop\n      pop\n        /* \"contracts/BondingYieldFarm.sol\":10131:10134  i++ */\n      dup1\n      dup1\n      0x01\n      add\n      swap2\n      pop\n      pop\n        /* \"contracts/BondingYieldFarm.sol\":10091:10475  for (uint256 i = 0; i < stakers.length; i++) {... */\n      jump(tag_160)\n    tag_161:\n      pop\n        /* \"contracts/BondingYieldFarm.sol\":10495:10496  0 */\n      0x00\n        /* \"contracts/BondingYieldFarm.sol\":10485:10492  feePool */\n      0x0e\n        /* \"contracts/BondingYieldFarm.sol\":10485:10496  feePool = 0 */\n      dup2\n      swap1\n      sstore\n      pop\n        /* \"contracts/BondingYieldFarm.sol\":10553:10579  FeesDistributed(totalFees) */\n      0x8959421a1320789a49eeec01a4750caf8a30733c3db14f000d84484df89300f9\n        /* \"contracts/BondingYieldFarm.sol\":10569:10578  totalFees */\n      dup2\n        /* \"contracts/BondingYieldFarm.sol\":10553:10579  FeesDistributed(totalFees) */\n      mload(0x40)\n      tag_170\n      swap2\n      swap1\n      tag_51\n      jump\t// in\n    tag_170:\n      mload(0x40)\n      dup1\n      swap2\n      sub\n      swap1\n      log1\n        /* \"contracts/BondingYieldFarm.sol\":9889:10625  {... */\n      pop\n        /* \"contracts/BondingYieldFarm.sol\":9844:10625  function distributeFees() external onlyOwner {... */\n      jump\t// out\n        /* \"contracts/BondingYieldFarm.sol\":9057:9740  function calculateBoostedReward(... */\n    tag_57:\n        /* \"contracts/BondingYieldFarm.sol\":9230:9237  uint256 */\n      0x00\n        /* \"contracts/BondingYieldFarm.sol\":9249:9268  uint256 elapsedTime */\n      0x00\n        /* \"contracts/BondingYieldFarm.sol\":9289:9299  lastUpdate */\n      dup4\n        /* \"contracts/BondingYieldFarm.sol\":9271:9286  block.timestamp */\n      timestamp\n        /* \"contracts/BondingYieldFarm.sol\":9271:9299  block.timestamp - lastUpdate */\n      tag_172\n      swap2\n      swap1\n      tag_90\n      jump\t// in\n    tag_172:\n        /* \"contracts/BondingYieldFarm.sol\":9249:9299  uint256 elapsedTime = block.timestamp - lastUpdate */\n      swap1\n      pop\n        /* \"contracts/BondingYieldFarm.sol\":9361:9383  uint256 timeMultiplier */\n      0x00\n        /* \"contracts/BondingYieldFarm.sol\":9407:9413  1 days */\n      0x015180\n        /* \"contracts/BondingYieldFarm.sol\":9393:9404  elapsedTime */\n      dup3\n        /* \"contracts/BondingYieldFarm.sol\":9393:9413  elapsedTime / 1 days */\n      tag_173\n      swap2\n      swap1\n      tag_88\n      jump\t// in\n    tag_173:\n        /* \"contracts/BondingYieldFarm.sol\":9386:9389  100 */\n      0x64\n        /* \"contracts/BondingYieldFarm.sol\":9386:9414  100 + (elapsedTime / 1 days) */\n      tag_174\n      swap2\n      swap1\n      tag_94\n      jump\t// in\n    tag_174:\n        /* \"contracts/BondingYieldFarm.sol\":9361:9414  uint256 timeMultiplier = 100 + (elapsedTime / 1 days) */\n      swap1\n      pop\n        /* \"contracts/BondingYieldFarm.sol\":9494:9518  uint256 amountMultiplier */\n      0x00\n        /* \"contracts/BondingYieldFarm.sol\":9537:9541  1000 */\n      0x03e8\n        /* \"contracts/BondingYieldFarm.sol\":9528:9534  amount */\n      dup9\n        /* \"contracts/BondingYieldFarm.sol\":9528:9541  amount / 1000 */\n      tag_175\n      swap2\n      swap1\n      tag_88\n      jump\t// in\n    tag_175:\n        /* \"contracts/BondingYieldFarm.sol\":9521:9524  100 */\n      0x64\n        /* \"contracts/BondingYieldFarm.sol\":9521:9542  100 + (amount / 1000) */\n      tag_176\n      swap2\n      swap1\n      tag_94\n      jump\t// in\n    tag_176:\n        /* \"contracts/BondingYieldFarm.sol\":9494:9542  uint256 amountMultiplier = 100 + (amount / 1000) */\n      swap1\n      pop\n        /* \"contracts/BondingYieldFarm.sol\":9690:9695  10000 */\n      0x2710\n        /* \"contracts/BondingYieldFarm.sol\":9669:9686  rewardCoefficient */\n      dup6\n        /* \"contracts/BondingYieldFarm.sol\":9650:9666  amountMultiplier */\n      dup3\n        /* \"contracts/BondingYieldFarm.sol\":9633:9647  timeMultiplier */\n      dup5\n        /* \"contracts/BondingYieldFarm.sol\":9624:9630  amount */\n      dup12\n        /* \"contracts/BondingYieldFarm.sol\":9624:9647  amount * timeMultiplier */\n      tag_177\n      swap2\n      swap1\n      tag_86\n      jump\t// in\n    tag_177:\n        /* \"contracts/BondingYieldFarm.sol\":9624:9666  amount * timeMultiplier * amountMultiplier */\n      tag_178\n      swap2\n      swap1\n      tag_86\n      jump\t// in\n    tag_178:\n        /* \"contracts/BondingYieldFarm.sol\":9624:9686  amount * timeMultiplier * amountMultiplier * rewardCoefficient */\n      tag_179\n      swap2\n      swap1\n      tag_86\n      jump\t// in\n    tag_179:\n        /* \"contracts/BondingYieldFarm.sol\":9623:9695  (amount * timeMultiplier * amountMultiplier * rewardCoefficient) / 10000 */\n      tag_180\n      swap2\n      swap1\n      tag_88\n      jump\t// in\n    tag_180:\n        /* \"contracts/BondingYieldFarm.sol\":9616:9695  return (amount * timeMultiplier * amountMultiplier * rewardCoefficient) / 10000 */\n      swap4\n      pop\n      pop\n      pop\n      pop\n        /* \"contracts/BondingYieldFarm.sol\":9057:9740  function calculateBoostedReward(... */\n      swap5\n      swap4\n      pop\n      pop\n      pop\n      pop\n      jump\t// out\n        /* \"contracts/BondingYieldFarm.sol\":8464:8660  function togglePause() external onlyOwner {... */\n    tag_60:\n        /* \"@openzeppelin/contracts/access/Ownable.sol\":1531:1544  _checkOwner() */\n      tag_182\n        /* \"@openzeppelin/contracts/access/Ownable.sol\":1531:1542  _checkOwner */\n      tag_149\n        /* \"@openzeppelin/contracts/access/Ownable.sol\":1531:1544  _checkOwner() */\n      jump\t// in\n    tag_182:\n        /* \"contracts/BondingYieldFarm.sol\":8533:8537  pool */\n      0x01\n        /* \"contracts/BondingYieldFarm.sol\":8533:8546  pool.isPaused */\n      0x0a\n      add\n      0x00\n      swap1\n      sload\n      swap1\n      0x0100\n      exp\n      swap1\n      div\n      0xff\n      and\n        /* \"contracts/BondingYieldFarm.sol\":8532:8546  !pool.isPaused */\n      iszero\n        /* \"contracts/BondingYieldFarm.sol\":8516:8520  pool */\n      0x01\n        /* \"contracts/BondingYieldFarm.sol\":8516:8529  pool.isPaused */\n      0x0a\n      add\n      0x00\n        /* \"contracts/BondingYieldFarm.sol\":8516:8546  pool.isPaused = !pool.isPaused */\n      0x0100\n      exp\n      dup2\n      sload\n      dup2\n      0xff\n      mul\n      not\n      and\n      swap1\n      dup4\n      iszero\n      iszero\n      mul\n      or\n      swap1\n      sstore\n      pop\n        /* \"contracts/BondingYieldFarm.sol\":8598:8623  PoolPaused(pool.isPaused) */\n      0xbd466af87c4fabd1fa3d061817020a39c29d7986649f582f9f405c8eb8aa7c0b\n        /* \"contracts/BondingYieldFarm.sol\":8609:8613  pool */\n      0x01\n        /* \"contracts/BondingYieldFarm.sol\":8609:8622  pool.isPaused */\n      0x0a\n      add\n      0x00\n      swap1\n      sload\n      swap1\n      0x0100\n      exp\n      swap1\n      div\n      0xff\n      and\n        /* \"contracts/BondingYieldFarm.sol\":8598:8623  PoolPaused(pool.isPaused) */\n      mload(0x40)\n      tag_184\n      swap2\n      swap1\n      tag_185\n      jump\t// in\n    tag_184:\n      mload(0x40)\n      dup1\n      swap2\n      sub\n      swap1\n      log1\n        /* \"contracts/BondingYieldFarm.sol\":8464:8660  function togglePause() external onlyOwner {... */\n      jump\t// out\n        /* \"contracts/BondingYieldFarm.sol\":10749:11450  function emergencyWithdraw() external {... */\n    tag_62:\n        /* \"contracts/BondingYieldFarm.sol\":10797:10830  UserPosition storage userPosition */\n      0x00\n        /* \"contracts/BondingYieldFarm.sol\":10833:10846  userPositions */\n      0x0c\n        /* \"contracts/BondingYieldFarm.sol\":10833:10858  userPositions[msg.sender] */\n      0x00\n        /* \"contracts/BondingYieldFarm.sol\":10847:10857  msg.sender */\n      caller\n        /* \"contracts/BondingYieldFarm.sol\":10833:10858  userPositions[msg.sender] */\n      0xffffffffffffffffffffffffffffffffffffffff\n      and\n      0xffffffffffffffffffffffffffffffffffffffff\n      and\n      dup2\n      mstore\n      0x20\n      add\n      swap1\n      dup2\n      mstore\n      0x20\n      add\n      0x00\n      keccak256\n        /* \"contracts/BondingYieldFarm.sol\":10797:10858  UserPosition storage userPosition = userPositions[msg.sender] */\n      swap1\n      pop\n        /* \"contracts/BondingYieldFarm.sol\":10898:10899  0 */\n      0x00\n        /* \"contracts/BondingYieldFarm.sol\":10876:10888  userPosition */\n      dup2\n        /* \"contracts/BondingYieldFarm.sol\":10876:10895  userPosition.amount */\n      0x00\n      add\n      sload\n        /* \"contracts/BondingYieldFarm.sol\":10876:10899  userPosition.amount > 0 */\n      gt\n        /* \"contracts/BondingYieldFarm.sol\":10868:10923  require(userPosition.amount > 0, \"Nothing to withdraw\") */\n      tag_187\n      jumpi\n      mload(0x40)\n      0x08c379a000000000000000000000000000000000000000000000000000000000\n      dup2\n      mstore\n      0x04\n      add\n      tag_188\n      swap1\n      tag_189\n      jump\t// in\n    tag_188:\n      mload(0x40)\n      dup1\n      swap2\n      sub\n      swap1\n      revert\n    tag_187:\n        /* \"contracts/BondingYieldFarm.sol\":10983:10997  uint256 amount */\n      0x00\n        /* \"contracts/BondingYieldFarm.sol\":11000:11012  userPosition */\n      dup2\n        /* \"contracts/BondingYieldFarm.sol\":11000:11019  userPosition.amount */\n      0x00\n      add\n      sload\n        /* \"contracts/BondingYieldFarm.sol\":10983:11019  uint256 amount = userPosition.amount */\n      swap1\n      pop\n        /* \"contracts/BondingYieldFarm.sol\":11051:11052  0 */\n      0x00\n        /* \"contracts/BondingYieldFarm.sol\":11029:11041  userPosition */\n      dup3\n        /* \"contracts/BondingYieldFarm.sol\":11029:11048  userPosition.amount */\n      0x00\n      add\n        /* \"contracts/BondingYieldFarm.sol\":11029:11052  userPosition.amount = 0 */\n      dup2\n      swap1\n      sstore\n      pop\n        /* \"contracts/BondingYieldFarm.sol\":11126:11132  amount */\n      dup1\n        /* \"contracts/BondingYieldFarm.sol\":11103:11107  pool */\n      0x01\n        /* \"contracts/BondingYieldFarm.sol\":11103:11122  pool.totalLiquidity */\n      dup1\n      add\n      0x00\n        /* \"contracts/BondingYieldFarm.sol\":11103:11132  pool.totalLiquidity -= amount */\n      dup3\n      dup3\n      sload\n      tag_190\n      swap2\n      swap1\n      tag_90\n      jump\t// in\n    tag_190:\n      swap3\n      pop\n      pop\n      dup2\n      swap1\n      sstore\n      pop\n        /* \"contracts/BondingYieldFarm.sol\":11182:11206  removeStaker(msg.sender) */\n      tag_191\n        /* \"contracts/BondingYieldFarm.sol\":11195:11205  msg.sender */\n      caller\n        /* \"contracts/BondingYieldFarm.sol\":11182:11194  removeStaker */\n      tag_97\n        /* \"contracts/BondingYieldFarm.sol\":11182:11206  removeStaker(msg.sender) */\n      jump\t// in\n    tag_191:\n        /* \"contracts/BondingYieldFarm.sol\":11257:11261  pool */\n      0x01\n        /* \"contracts/BondingYieldFarm.sol\":11257:11267  pool.token */\n      0x00\n      add\n      0x00\n      swap1\n      sload\n      swap1\n      0x0100\n      exp\n      swap1\n      div\n      0xffffffffffffffffffffffffffffffffffffffff\n      and\n        /* \"contracts/BondingYieldFarm.sol\":11257:11276  pool.token.transfer */\n      0xffffffffffffffffffffffffffffffffffffffff\n      and\n      0xa9059cbb\n        /* \"contracts/BondingYieldFarm.sol\":11277:11287  msg.sender */\n      caller\n        /* \"contracts/BondingYieldFarm.sol\":11289:11295  amount */\n      dup4\n        /* \"contracts/BondingYieldFarm.sol\":11257:11296  pool.token.transfer(msg.sender, amount) */\n      mload(0x40)\n      dup4\n      0xffffffff\n      and\n      0xe0\n      shl\n      dup2\n      mstore\n      0x04\n      add\n      tag_192\n      swap3\n      swap2\n      swap1\n      tag_99\n      jump\t// in\n    tag_192:\n      0x20\n      mload(0x40)\n      dup1\n      dup4\n      sub\n      dup2\n      0x00\n      dup8\n      gas\n      call\n      iszero\n      dup1\n      iszero\n      tag_194\n      jumpi\n      returndatacopy(0x00, 0x00, returndatasize)\n      revert(0x00, returndatasize)\n    tag_194:\n      pop\n      pop\n      pop\n      pop\n      mload(0x40)\n      returndatasize\n      not(0x1f)\n      0x1f\n      dup3\n      add\n      and\n      dup3\n      add\n      dup1\n      0x40\n      mstore\n      pop\n      dup2\n      add\n      swap1\n      tag_195\n      swap2\n      swap1\n      tag_103\n      jump\t// in\n    tag_195:\n      pop\n        /* \"contracts/BondingYieldFarm.sol\":11385:11395  msg.sender */\n      caller\n        /* \"contracts/BondingYieldFarm.sol\":11365:11404  EmergencyWithdrawal(msg.sender, amount) */\n      0xffffffffffffffffffffffffffffffffffffffff\n      and\n      0x23d6711a1d031134a36921253c75aa59e967d38e369ac625992824315e204f20\n        /* \"contracts/BondingYieldFarm.sol\":11397:11403  amount */\n      dup3\n        /* \"contracts/BondingYieldFarm.sol\":11365:11404  EmergencyWithdrawal(msg.sender, amount) */\n      mload(0x40)\n      tag_196\n      swap2\n      swap1\n      tag_51\n      jump\t// in\n    tag_196:\n      mload(0x40)\n      dup1\n      swap2\n      sub\n      swap1\n      log2\n        /* \"contracts/BondingYieldFarm.sol\":10787:11450  {... */\n      pop\n      pop\n        /* \"contracts/BondingYieldFarm.sol\":10749:11450  function emergencyWithdraw() external {... */\n      jump\t// out\n        /* \"@openzeppelin/contracts/access/Ownable.sol\":2543:2758  function transferOwnership(address newOwner) public virtual onlyOwner {... */\n    tag_65:\n        /* \"@openzeppelin/contracts/access/Ownable.sol\":1531:1544  _checkOwner() */\n      tag_198\n        /* \"@openzeppelin/contracts/access/Ownable.sol\":1531:1542  _checkOwner */\n      tag_149\n        /* \"@openzeppelin/contracts/access/Ownable.sol\":1531:1544  _checkOwner() */\n      jump\t// in\n    tag_198:\n        /* \"@openzeppelin/contracts/access/Ownable.sol\":2647:2648  0 */\n      0x00\n        /* \"@openzeppelin/contracts/access/Ownable.sol\":2627:2649  newOwner == address(0) */\n      0xffffffffffffffffffffffffffffffffffffffff\n      and\n        /* \"@openzeppelin/contracts/access/Ownable.sol\":2627:2635  newOwner */\n      dup2\n        /* \"@openzeppelin/contracts/access/Ownable.sol\":2627:2649  newOwner == address(0) */\n      0xffffffffffffffffffffffffffffffffffffffff\n      and\n      sub\n        /* \"@openzeppelin/contracts/access/Ownable.sol\":2623:2714  if (newOwner == address(0)) {... */\n      tag_200\n      jumpi\n        /* \"@openzeppelin/contracts/access/Ownable.sol\":2700:2701  0 */\n      0x00\n        /* \"@openzeppelin/contracts/access/Ownable.sol\":2672:2703  OwnableInvalidOwner(address(0)) */\n      mload(0x40)\n      0x1e4fbdf700000000000000000000000000000000000000000000000000000000\n      dup2\n      mstore\n      0x04\n      add\n      tag_201\n      swap2\n      swap1\n      tag_47\n      jump\t// in\n    tag_201:\n      mload(0x40)\n      dup1\n      swap2\n      sub\n      swap1\n      revert\n        /* \"@openzeppelin/contracts/access/Ownable.sol\":2623:2714  if (newOwner == address(0)) {... */\n    tag_200:\n        /* \"@openzeppelin/contracts/access/Ownable.sol\":2723:2751  _transferOwnership(newOwner) */\n      tag_202\n        /* \"@openzeppelin/contracts/access/Ownable.sol\":2742:2750  newOwner */\n      dup2\n        /* \"@openzeppelin/contracts/access/Ownable.sol\":2723:2741  _transferOwnership */\n      tag_152\n        /* \"@openzeppelin/contracts/access/Ownable.sol\":2723:2751  _transferOwnership(newOwner) */\n      jump\t// in\n    tag_202:\n        /* \"@openzeppelin/contracts/access/Ownable.sol\":2543:2758  function transferOwnership(address newOwner) public virtual onlyOwner {... */\n      pop\n      jump\t// out\n        /* \"contracts/BondingYieldFarm.sol\":2041:2065  address[] public stakers */\n    tag_68:\n      0x0d\n      dup2\n      dup2\n      sload\n      dup2\n      lt\n      tag_203\n      jumpi\n      0x00\n      dup1\n      revert\n    tag_203:\n      swap1\n      0x00\n      mstore\n      keccak256(0x00, 0x20)\n      add\n      0x00\n      swap2\n      pop\n      sload\n      swap1\n      0x0100\n      exp\n      swap1\n      div\n      0xffffffffffffffffffffffffffffffffffffffff\n      and\n      dup2\n      jump\t// out\n        /* \"contracts/BondingYieldFarm.sol\":11635:12016  function removeStaker(address staker) internal {... */\n    tag_97:\n        /* \"contracts/BondingYieldFarm.sol\":11697:11706  uint256 i */\n      0x00\n        /* \"contracts/BondingYieldFarm.sol\":11709:11710  0 */\n      0x00\n        /* \"contracts/BondingYieldFarm.sol\":11697:11710  uint256 i = 0 */\n      swap1\n      pop\n        /* \"contracts/BondingYieldFarm.sol\":11692:12010  for (uint256 i = 0; i < stakers.length; i++) {... */\n    tag_206:\n        /* \"contracts/BondingYieldFarm.sol\":11716:11723  stakers */\n      0x0d\n        /* \"contracts/BondingYieldFarm.sol\":11716:11730  stakers.length */\n      dup1\n      sload\n      swap1\n      pop\n        /* \"contracts/BondingYieldFarm.sol\":11712:11713  i */\n      dup2\n        /* \"contracts/BondingYieldFarm.sol\":11712:11730  i < stakers.length */\n      lt\n        /* \"contracts/BondingYieldFarm.sol\":11692:12010  for (uint256 i = 0; i < stakers.length; i++) {... */\n      iszero\n      tag_207\n      jumpi\n        /* \"contracts/BondingYieldFarm.sol\":11769:11775  staker */\n      dup2\n        /* \"contracts/BondingYieldFarm.sol\":11755:11775  stakers[i] == staker */\n      0xffffffffffffffffffffffffffffffffffffffff\n      and\n        /* \"contracts/BondingYieldFarm.sol\":11755:11762  stakers */\n      0x0d\n        /* \"contracts/BondingYieldFarm.sol\":11763:11764  i */\n      dup3\n        /* \"contracts/BondingYieldFarm.sol\":11755:11765  stakers[i] */\n      dup2\n      sload\n      dup2\n      lt\n      tag_209\n      jumpi\n      tag_210\n      tag_165\n      jump\t// in\n    tag_210:\n    tag_209:\n      swap1\n      0x00\n      mstore\n      keccak256(0x00, 0x20)\n      add\n      0x00\n      swap1\n      sload\n      swap1\n      0x0100\n      exp\n      swap1\n      div\n      0xffffffffffffffffffffffffffffffffffffffff\n      and\n        /* \"contracts/BondingYieldFarm.sol\":11755:11775  stakers[i] == staker */\n      0xffffffffffffffffffffffffffffffffffffffff\n      and\n      sub\n        /* \"contracts/BondingYieldFarm.sol\":11751:12000  if (stakers[i] == staker) {... */\n      tag_212\n      jumpi\n        /* \"contracts/BondingYieldFarm.sol\":11808:11815  stakers */\n      0x0d\n        /* \"contracts/BondingYieldFarm.sol\":11833:11834  1 */\n      0x01\n        /* \"contracts/BondingYieldFarm.sol\":11816:11823  stakers */\n      0x0d\n        /* \"contracts/BondingYieldFarm.sol\":11816:11830  stakers.length */\n      dup1\n      sload\n      swap1\n      pop\n        /* \"contracts/BondingYieldFarm.sol\":11816:11834  stakers.length - 1 */\n      tag_213\n      swap2\n      swap1\n      tag_90\n      jump\t// in\n    tag_213:\n        /* \"contracts/BondingYieldFarm.sol\":11808:11835  stakers[stakers.length - 1] */\n      dup2\n      sload\n      dup2\n      lt\n      tag_214\n      jumpi\n      tag_215\n      tag_165\n      jump\t// in\n    tag_215:\n    tag_214:\n      swap1\n      0x00\n      mstore\n      keccak256(0x00, 0x20)\n      add\n      0x00\n      swap1\n      sload\n      swap1\n      0x0100\n      exp\n      swap1\n      div\n      0xffffffffffffffffffffffffffffffffffffffff\n      and\n        /* \"contracts/BondingYieldFarm.sol\":11795:11802  stakers */\n      0x0d\n        /* \"contracts/BondingYieldFarm.sol\":11803:11804  i */\n      dup3\n        /* \"contracts/BondingYieldFarm.sol\":11795:11805  stakers[i] */\n      dup2\n      sload\n      dup2\n      lt\n      tag_217\n      jumpi\n      tag_218\n      tag_165\n      jump\t// in\n    tag_218:\n    tag_217:\n      swap1\n      0x00\n      mstore\n      keccak256(0x00, 0x20)\n      add\n      0x00\n        /* \"contracts/BondingYieldFarm.sol\":11795:11835  stakers[i] = stakers[stakers.length - 1] */\n      0x0100\n      exp\n      dup2\n      sload\n      dup2\n      0xffffffffffffffffffffffffffffffffffffffff\n      mul\n      not\n      and\n      swap1\n      dup4\n      0xffffffffffffffffffffffffffffffffffffffff\n      and\n      mul\n      or\n      swap1\n      sstore\n      pop\n        /* \"contracts/BondingYieldFarm.sol\":11907:11914  stakers */\n      0x0d\n        /* \"contracts/BondingYieldFarm.sol\":11907:11920  stakers.pop() */\n      dup1\n      sload\n      dup1\n      tag_220\n      jumpi\n      tag_221\n      tag_222\n      jump\t// in\n    tag_221:\n    tag_220:\n      0x01\n      swap1\n      sub\n      dup2\n      dup2\n      swap1\n      0x00\n      mstore\n      keccak256(0x00, 0x20)\n      add\n      exp(0x0100, 0x00)\n      dup2\n      sload\n      swap1\n      0xffffffffffffffffffffffffffffffffffffffff\n      mul\n      not\n      and\n      swap1\n      sstore\n      swap1\n      sstore\n        /* \"contracts/BondingYieldFarm.sol\":11980:11985  break */\n      jump(tag_207)\n        /* \"contracts/BondingYieldFarm.sol\":11751:12000  if (stakers[i] == staker) {... */\n    tag_212:\n        /* \"contracts/BondingYieldFarm.sol\":11732:11735  i++ */\n      dup1\n      dup1\n      0x01\n      add\n      swap2\n      pop\n      pop\n        /* \"contracts/BondingYieldFarm.sol\":11692:12010  for (uint256 i = 0; i < stakers.length; i++) {... */\n      jump(tag_206)\n    tag_207:\n      pop\n        /* \"contracts/BondingYieldFarm.sol\":11635:12016  function removeStaker(address staker) internal {... */\n      pop\n      jump\t// out\n        /* \"@openzeppelin/contracts/access/Ownable.sol\":1796:1958  function _checkOwner() internal view virtual {... */\n    tag_149:\n        /* \"@openzeppelin/contracts/access/Ownable.sol\":1866:1878  _msgSender() */\n      tag_225\n        /* \"@openzeppelin/contracts/access/Ownable.sol\":1866:1876  _msgSender */\n      tag_226\n        /* \"@openzeppelin/contracts/access/Ownable.sol\":1866:1878  _msgSender() */\n      jump\t// in\n    tag_225:\n        /* \"@openzeppelin/contracts/access/Ownable.sol\":1855:1878  owner() != _msgSender() */\n      0xffffffffffffffffffffffffffffffffffffffff\n      and\n        /* \"@openzeppelin/contracts/access/Ownable.sol\":1855:1862  owner() */\n      tag_227\n        /* \"@openzeppelin/contracts/access/Ownable.sol\":1855:1860  owner */\n      tag_45\n        /* \"@openzeppelin/contracts/access/Ownable.sol\":1855:1862  owner() */\n      jump\t// in\n    tag_227:\n        /* \"@openzeppelin/contracts/access/Ownable.sol\":1855:1878  owner() != _msgSender() */\n      0xffffffffffffffffffffffffffffffffffffffff\n      and\n      eq\n        /* \"@openzeppelin/contracts/access/Ownable.sol\":1851:1952  if (owner() != _msgSender()) {... */\n      tag_228\n      jumpi\n        /* \"@openzeppelin/contracts/access/Ownable.sol\":1928:1940  _msgSender() */\n      tag_229\n        /* \"@openzeppelin/contracts/access/Ownable.sol\":1928:1938  _msgSender */\n      tag_226\n        /* \"@openzeppelin/contracts/access/Ownable.sol\":1928:1940  _msgSender() */\n      jump\t// in\n    tag_229:\n        /* \"@openzeppelin/contracts/access/Ownable.sol\":1901:1941  OwnableUnauthorizedAccount(_msgSender()) */\n      mload(0x40)\n      0x118cdaa700000000000000000000000000000000000000000000000000000000\n      dup2\n      mstore\n      0x04\n      add\n      tag_230\n      swap2\n      swap1\n      tag_47\n      jump\t// in\n    tag_230:\n      mload(0x40)\n      dup1\n      swap2\n      sub\n      swap1\n      revert\n        /* \"@openzeppelin/contracts/access/Ownable.sol\":1851:1952  if (owner() != _msgSender()) {... */\n    tag_228:\n        /* \"@openzeppelin/contracts/access/Ownable.sol\":1796:1958  function _checkOwner() internal view virtual {... */\n      jump\t// out\n        /* \"@openzeppelin/contracts/access/Ownable.sol\":2912:3099  function _transferOwnership(address newOwner) internal virtual {... */\n    tag_152:\n        /* \"@openzeppelin/contracts/access/Ownable.sol\":2985:3001  address oldOwner */\n      0x00\n        /* \"@openzeppelin/contracts/access/Ownable.sol\":3004:3010  _owner */\n      0x00\n      0x00\n      swap1\n      sload\n      swap1\n      0x0100\n      exp\n      swap1\n      div\n      0xffffffffffffffffffffffffffffffffffffffff\n      and\n        /* \"@openzeppelin/contracts/access/Ownable.sol\":2985:3010  address oldOwner = _owner */\n      swap1\n      pop\n        /* \"@openzeppelin/contracts/access/Ownable.sol\":3029:3037  newOwner */\n      dup2\n        /* \"@openzeppelin/contracts/access/Ownable.sol\":3020:3026  _owner */\n      0x00\n      0x00\n        /* \"@openzeppelin/contracts/access/Ownable.sol\":3020:3037  _owner = newOwner */\n      0x0100\n      exp\n      dup2\n      sload\n      dup2\n      0xffffffffffffffffffffffffffffffffffffffff\n      mul\n      not\n      and\n      swap1\n      dup4\n      0xffffffffffffffffffffffffffffffffffffffff\n      and\n      mul\n      or\n      swap1\n      sstore\n      pop\n        /* \"@openzeppelin/contracts/access/Ownable.sol\":3083:3091  newOwner */\n      dup2\n        /* \"@openzeppelin/contracts/access/Ownable.sol\":3052:3092  OwnershipTransferred(oldOwner, newOwner) */\n      0xffffffffffffffffffffffffffffffffffffffff\n      and\n        /* \"@openzeppelin/contracts/access/Ownable.sol\":3073:3081  oldOwner */\n      dup2\n        /* \"@openzeppelin/contracts/access/Ownable.sol\":3052:3092  OwnershipTransferred(oldOwner, newOwner) */\n      0xffffffffffffffffffffffffffffffffffffffff\n      and\n      0x8be0079c531659141344cd1fd0a4f28419497f9722a3daafe3b4186f6b6457e0\n      mload(0x40)\n      mload(0x40)\n      dup1\n      swap2\n      sub\n      swap1\n      log3\n        /* \"@openzeppelin/contracts/access/Ownable.sol\":2975:3099  {... */\n      pop\n        /* \"@openzeppelin/contracts/access/Ownable.sol\":2912:3099  function _transferOwnership(address newOwner) internal virtual {... */\n      pop\n      jump\t// out\n        /* \"@openzeppelin/contracts/utils/Context.sol\":656:752  function _msgSender() internal view virtual returns (address) {... */\n    tag_226:\n        /* \"@openzeppelin/contracts/utils/Context.sol\":709:716  address */\n      0x00\n        /* \"@openzeppelin/contracts/utils/Context.sol\":735:745  msg.sender */\n      caller\n        /* \"@openzeppelin/contracts/utils/Context.sol\":728:745  return msg.sender */\n      swap1\n      pop\n        /* \"@openzeppelin/contracts/utils/Context.sol\":656:752  function _msgSender() internal view virtual returns (address) {... */\n      swap1\n      jump\t// out\n        /* \"#utility.yul\":7:133   */\n    tag_233:\n        /* \"#utility.yul\":44:51   */\n      0x00\n        /* \"#utility.yul\":84:126   */\n      0xffffffffffffffffffffffffffffffffffffffff\n        /* \"#utility.yul\":77:82   */\n      dup3\n        /* \"#utility.yul\":73:127   */\n      and\n        /* \"#utility.yul\":62:127   */\n      swap1\n      pop\n        /* \"#utility.yul\":7:133   */\n      swap2\n      swap1\n      pop\n      jump\t// out\n        /* \"#utility.yul\":139:199   */\n    tag_234:\n        /* \"#utility.yul\":167:170   */\n      0x00\n        /* \"#utility.yul\":188:193   */\n      dup2\n        /* \"#utility.yul\":181:193   */\n      swap1\n      pop\n        /* \"#utility.yul\":139:199   */\n      swap2\n      swap1\n      pop\n      jump\t// out\n        /* \"#utility.yul\":205:347   */\n    tag_235:\n        /* \"#utility.yul\":255:264   */\n      0x00\n        /* \"#utility.yul\":288:341   */\n      tag_285\n        /* \"#utility.yul\":306:340   */\n      tag_286\n        /* \"#utility.yul\":315:339   */\n      tag_287\n        /* \"#utility.yul\":333:338   */\n      dup5\n        /* \"#utility.yul\":315:339   */\n      tag_233\n      jump\t// in\n    tag_287:\n        /* \"#utility.yul\":306:340   */\n      tag_234\n      jump\t// in\n    tag_286:\n        /* \"#utility.yul\":288:341   */\n      tag_233\n      jump\t// in\n    tag_285:\n        /* \"#utility.yul\":275:341   */\n      swap1\n      pop\n        /* \"#utility.yul\":205:347   */\n      swap2\n      swap1\n      pop\n      jump\t// out\n        /* \"#utility.yul\":353:479   */\n    tag_236:\n        /* \"#utility.yul\":403:412   */\n      0x00\n        /* \"#utility.yul\":436:473   */\n      tag_289\n        /* \"#utility.yul\":467:472   */\n      dup3\n        /* \"#utility.yul\":436:473   */\n      tag_235\n      jump\t// in\n    tag_289:\n        /* \"#utility.yul\":423:473   */\n      swap1\n      pop\n        /* \"#utility.yul\":353:479   */\n      swap2\n      swap1\n      pop\n      jump\t// out\n        /* \"#utility.yul\":485:625   */\n    tag_237:\n        /* \"#utility.yul\":549:558   */\n      0x00\n        /* \"#utility.yul\":582:619   */\n      tag_291\n        /* \"#utility.yul\":613:618   */\n      dup3\n        /* \"#utility.yul\":582:619   */\n      tag_236\n      jump\t// in\n    tag_291:\n        /* \"#utility.yul\":569:619   */\n      swap1\n      pop\n        /* \"#utility.yul\":485:625   */\n      swap2\n      swap1\n      pop\n      jump\t// out\n        /* \"#utility.yul\":631:790   */\n    tag_238:\n        /* \"#utility.yul\":732:783   */\n      tag_293\n        /* \"#utility.yul\":777:782   */\n      dup2\n        /* \"#utility.yul\":732:783   */\n      tag_237\n      jump\t// in\n    tag_293:\n        /* \"#utility.yul\":727:730   */\n      dup3\n        /* \"#utility.yul\":720:784   */\n      mstore\n        /* \"#utility.yul\":631:790   */\n      pop\n      pop\n      jump\t// out\n        /* \"#utility.yul\":796:873   */\n    tag_239:\n        /* \"#utility.yul\":833:840   */\n      0x00\n        /* \"#utility.yul\":862:867   */\n      dup2\n        /* \"#utility.yul\":851:867   */\n      swap1\n      pop\n        /* \"#utility.yul\":796:873   */\n      swap2\n      swap1\n      pop\n      jump\t// out\n        /* \"#utility.yul\":879:997   */\n    tag_240:\n        /* \"#utility.yul\":966:990   */\n      tag_296\n        /* \"#utility.yul\":984:989   */\n      dup2\n        /* \"#utility.yul\":966:990   */\n      tag_239\n      jump\t// in\n    tag_296:\n        /* \"#utility.yul\":961:964   */\n      dup3\n        /* \"#utility.yul\":954:991   */\n      mstore\n        /* \"#utility.yul\":879:997   */\n      pop\n      pop\n      jump\t// out\n        /* \"#utility.yul\":1003:1099   */\n    tag_241:\n        /* \"#utility.yul\":1040:1047   */\n      0x00\n        /* \"#utility.yul\":1069:1093   */\n      tag_298\n        /* \"#utility.yul\":1087:1092   */\n      dup3\n        /* \"#utility.yul\":1069:1093   */\n      tag_233\n      jump\t// in\n    tag_298:\n        /* \"#utility.yul\":1058:1093   */\n      swap1\n      pop\n        /* \"#utility.yul\":1003:1099   */\n      swap2\n      swap1\n      pop\n      jump\t// out\n        /* \"#utility.yul\":1105:1223   */\n    tag_242:\n        /* \"#utility.yul\":1192:1216   */\n      tag_300\n        /* \"#utility.yul\":1210:1215   */\n      dup2\n        /* \"#utility.yul\":1192:1216   */\n      tag_241\n      jump\t// in\n    tag_300:\n        /* \"#utility.yul\":1187:1190   */\n      dup3\n        /* \"#utility.yul\":1180:1217   */\n      mstore\n        /* \"#utility.yul\":1105:1223   */\n      pop\n      pop\n      jump\t// out\n        /* \"#utility.yul\":1229:1319   */\n    tag_243:\n        /* \"#utility.yul\":1263:1270   */\n      0x00\n        /* \"#utility.yul\":1306:1311   */\n      dup2\n        /* \"#utility.yul\":1299:1312   */\n      iszero\n        /* \"#utility.yul\":1292:1313   */\n      iszero\n        /* \"#utility.yul\":1281:1313   */\n      swap1\n      pop\n        /* \"#utility.yul\":1229:1319   */\n      swap2\n      swap1\n      pop\n      jump\t// out\n        /* \"#utility.yul\":1325:1434   */\n    tag_244:\n        /* \"#utility.yul\":1406:1427   */\n      tag_303\n        /* \"#utility.yul\":1421:1426   */\n      dup2\n        /* \"#utility.yul\":1406:1427   */\n      tag_243\n      jump\t// in\n    tag_303:\n        /* \"#utility.yul\":1401:1404   */\n      dup3\n        /* \"#utility.yul\":1394:1428   */\n      mstore\n        /* \"#utility.yul\":1325:1434   */\n      pop\n      pop\n      jump\t// out\n        /* \"#utility.yul\":1440:2788   */\n    tag_23:\n        /* \"#utility.yul\":1822:1826   */\n      0x00\n        /* \"#utility.yul\":1860:1863   */\n      0x0160\n        /* \"#utility.yul\":1849:1858   */\n      dup3\n        /* \"#utility.yul\":1845:1864   */\n      add\n        /* \"#utility.yul\":1837:1864   */\n      swap1\n      pop\n        /* \"#utility.yul\":1874:1959   */\n      tag_305\n        /* \"#utility.yul\":1956:1957   */\n      0x00\n        /* \"#utility.yul\":1945:1954   */\n      dup4\n        /* \"#utility.yul\":1941:1958   */\n      add\n        /* \"#utility.yul\":1932:1938   */\n      dup15\n        /* \"#utility.yul\":1874:1959   */\n      tag_238\n      jump\t// in\n    tag_305:\n        /* \"#utility.yul\":1969:2041   */\n      tag_306\n        /* \"#utility.yul\":2037:2039   */\n      0x20\n        /* \"#utility.yul\":2026:2035   */\n      dup4\n        /* \"#utility.yul\":2022:2040   */\n      add\n        /* \"#utility.yul\":2013:2019   */\n      dup14\n        /* \"#utility.yul\":1969:2041   */\n      tag_240\n      jump\t// in\n    tag_306:\n        /* \"#utility.yul\":2051:2123   */\n      tag_307\n        /* \"#utility.yul\":2119:2121   */\n      0x40\n        /* \"#utility.yul\":2108:2117   */\n      dup4\n        /* \"#utility.yul\":2104:2122   */\n      add\n        /* \"#utility.yul\":2095:2101   */\n      dup13\n        /* \"#utility.yul\":2051:2123   */\n      tag_240\n      jump\t// in\n    tag_307:\n        /* \"#utility.yul\":2133:2205   */\n      tag_308\n        /* \"#utility.yul\":2201:2203   */\n      0x60\n        /* \"#utility.yul\":2190:2199   */\n      dup4\n        /* \"#utility.yul\":2186:2204   */\n      add\n        /* \"#utility.yul\":2177:2183   */\n      dup12\n        /* \"#utility.yul\":2133:2205   */\n      tag_240\n      jump\t// in\n    tag_308:\n        /* \"#utility.yul\":2215:2288   */\n      tag_309\n        /* \"#utility.yul\":2283:2286   */\n      0x80\n        /* \"#utility.yul\":2272:2281   */\n      dup4\n        /* \"#utility.yul\":2268:2287   */\n      add\n        /* \"#utility.yul\":2259:2265   */\n      dup11\n        /* \"#utility.yul\":2215:2288   */\n      tag_240\n      jump\t// in\n    tag_309:\n        /* \"#utility.yul\":2298:2371   */\n      tag_310\n        /* \"#utility.yul\":2366:2369   */\n      0xa0\n        /* \"#utility.yul\":2355:2364   */\n      dup4\n        /* \"#utility.yul\":2351:2370   */\n      add\n        /* \"#utility.yul\":2342:2348   */\n      dup10\n        /* \"#utility.yul\":2298:2371   */\n      tag_242\n      jump\t// in\n    tag_310:\n        /* \"#utility.yul\":2381:2454   */\n      tag_311\n        /* \"#utility.yul\":2449:2452   */\n      0xc0\n        /* \"#utility.yul\":2438:2447   */\n      dup4\n        /* \"#utility.yul\":2434:2453   */\n      add\n        /* \"#utility.yul\":2425:2431   */\n      dup9\n        /* \"#utility.yul\":2381:2454   */\n      tag_240\n      jump\t// in\n    tag_311:\n        /* \"#utility.yul\":2464:2537   */\n      tag_312\n        /* \"#utility.yul\":2532:2535   */\n      0xe0\n        /* \"#utility.yul\":2521:2530   */\n      dup4\n        /* \"#utility.yul\":2517:2536   */\n      add\n        /* \"#utility.yul\":2508:2514   */\n      dup8\n        /* \"#utility.yul\":2464:2537   */\n      tag_240\n      jump\t// in\n    tag_312:\n        /* \"#utility.yul\":2547:2620   */\n      tag_313\n        /* \"#utility.yul\":2615:2618   */\n      0x0100\n        /* \"#utility.yul\":2604:2613   */\n      dup4\n        /* \"#utility.yul\":2600:2619   */\n      add\n        /* \"#utility.yul\":2591:2597   */\n      dup7\n        /* \"#utility.yul\":2547:2620   */\n      tag_240\n      jump\t// in\n    tag_313:\n        /* \"#utility.yul\":2630:2703   */\n      tag_314\n        /* \"#utility.yul\":2698:2701   */\n      0x0120\n        /* \"#utility.yul\":2687:2696   */\n      dup4\n        /* \"#utility.yul\":2683:2702   */\n      add\n        /* \"#utility.yul\":2674:2680   */\n      dup6\n        /* \"#utility.yul\":2630:2703   */\n      tag_240\n      jump\t// in\n    tag_314:\n        /* \"#utility.yul\":2713:2781   */\n      tag_315\n        /* \"#utility.yul\":2776:2779   */\n      0x0140\n        /* \"#utility.yul\":2765:2774   */\n      dup4\n        /* \"#utility.yul\":2761:2780   */\n      add\n        /* \"#utility.yul\":2751:2758   */\n      dup5\n        /* \"#utility.yul\":2713:2781   */\n      tag_244\n      jump\t// in\n    tag_315:\n        /* \"#utility.yul\":1440:2788   */\n      swap13\n      swap12\n      pop\n      pop\n      pop\n      pop\n      pop\n      pop\n      pop\n      pop\n      pop\n      pop\n      pop\n      pop\n      jump\t// out\n        /* \"#utility.yul\":2875:2992   */\n    tag_246:\n        /* \"#utility.yul\":2984:2985   */\n      0x00\n        /* \"#utility.yul\":2981:2982   */\n      0x00\n        /* \"#utility.yul\":2974:2986   */\n      revert\n        /* \"#utility.yul\":3121:3243   */\n    tag_248:\n        /* \"#utility.yul\":3194:3218   */\n      tag_320\n        /* \"#utility.yul\":3212:3217   */\n      dup2\n        /* \"#utility.yul\":3194:3218   */\n      tag_239\n      jump\t// in\n    tag_320:\n        /* \"#utility.yul\":3187:3192   */\n      dup2\n        /* \"#utility.yul\":3184:3219   */\n      eq\n        /* \"#utility.yul\":3174:3237   */\n      tag_321\n      jumpi\n        /* \"#utility.yul\":3233:3234   */\n      0x00\n        /* \"#utility.yul\":3230:3231   */\n      0x00\n        /* \"#utility.yul\":3223:3235   */\n      revert\n        /* \"#utility.yul\":3174:3237   */\n    tag_321:\n        /* \"#utility.yul\":3121:3243   */\n      pop\n      jump\t// out\n        /* \"#utility.yul\":3249:3388   */\n    tag_249:\n        /* \"#utility.yul\":3295:3300   */\n      0x00\n        /* \"#utility.yul\":3333:3339   */\n      dup2\n        /* \"#utility.yul\":3320:3340   */\n      calldataload\n        /* \"#utility.yul\":3311:3340   */\n      swap1\n      pop\n        /* \"#utility.yul\":3349:3382   */\n      tag_323\n        /* \"#utility.yul\":3376:3381   */\n      dup2\n        /* \"#utility.yul\":3349:3382   */\n      tag_248\n      jump\t// in\n    tag_323:\n        /* \"#utility.yul\":3249:3388   */\n      swap3\n      swap2\n      pop\n      pop\n      jump\t// out\n        /* \"#utility.yul\":3394:3723   */\n    tag_26:\n        /* \"#utility.yul\":3453:3459   */\n      0x00\n        /* \"#utility.yul\":3502:3504   */\n      0x20\n        /* \"#utility.yul\":3490:3499   */\n      dup3\n        /* \"#utility.yul\":3481:3488   */\n      dup5\n        /* \"#utility.yul\":3477:3500   */\n      sub\n        /* \"#utility.yul\":3473:3505   */\n      slt\n        /* \"#utility.yul\":3470:3589   */\n      iszero\n      tag_325\n      jumpi\n        /* \"#utility.yul\":3508:3587   */\n      tag_326\n      tag_246\n      jump\t// in\n    tag_326:\n        /* \"#utility.yul\":3470:3589   */\n    tag_325:\n        /* \"#utility.yul\":3628:3629   */\n      0x00\n        /* \"#utility.yul\":3653:3706   */\n      tag_327\n        /* \"#utility.yul\":3698:3705   */\n      dup5\n        /* \"#utility.yul\":3689:3695   */\n      dup3\n        /* \"#utility.yul\":3678:3687   */\n      dup6\n        /* \"#utility.yul\":3674:3696   */\n      add\n        /* \"#utility.yul\":3653:3706   */\n      tag_249\n      jump\t// in\n    tag_327:\n        /* \"#utility.yul\":3643:3706   */\n      swap2\n      pop\n        /* \"#utility.yul\":3599:3716   */\n      pop\n        /* \"#utility.yul\":3394:3723   */\n      swap3\n      swap2\n      pop\n      pop\n      jump\t// out\n        /* \"#utility.yul\":3729:3843   */\n    tag_250:\n        /* \"#utility.yul\":3796:3802   */\n      0x00\n        /* \"#utility.yul\":3830:3835   */\n      dup2\n        /* \"#utility.yul\":3824:3836   */\n      mload\n        /* \"#utility.yul\":3814:3836   */\n      swap1\n      pop\n        /* \"#utility.yul\":3729:3843   */\n      swap2\n      swap1\n      pop\n      jump\t// out\n        /* \"#utility.yul\":3849:4033   */\n    tag_251:\n        /* \"#utility.yul\":3948:3959   */\n      0x00\n        /* \"#utility.yul\":3982:3988   */\n      dup3\n        /* \"#utility.yul\":3977:3980   */\n      dup3\n        /* \"#utility.yul\":3970:3989   */\n      mstore\n        /* \"#utility.yul\":4022:4026   */\n      0x20\n        /* \"#utility.yul\":4017:4020   */\n      dup3\n        /* \"#utility.yul\":4013:4027   */\n      add\n        /* \"#utility.yul\":3998:4027   */\n      swap1\n      pop\n        /* \"#utility.yul\":3849:4033   */\n      swap3\n      swap2\n      pop\n      pop\n      jump\t// out\n        /* \"#utility.yul\":4039:4171   */\n    tag_252:\n        /* \"#utility.yul\":4106:4110   */\n      0x00\n        /* \"#utility.yul\":4129:4132   */\n      dup2\n        /* \"#utility.yul\":4121:4132   */\n      swap1\n      pop\n        /* \"#utility.yul\":4159:4163   */\n      0x20\n        /* \"#utility.yul\":4154:4157   */\n      dup3\n        /* \"#utility.yul\":4150:4164   */\n      add\n        /* \"#utility.yul\":4142:4164   */\n      swap1\n      pop\n        /* \"#utility.yul\":4039:4171   */\n      swap2\n      swap1\n      pop\n      jump\t// out\n        /* \"#utility.yul\":4177:4285   */\n    tag_253:\n        /* \"#utility.yul\":4254:4278   */\n      tag_332\n        /* \"#utility.yul\":4272:4277   */\n      dup2\n        /* \"#utility.yul\":4254:4278   */\n      tag_241\n      jump\t// in\n    tag_332:\n        /* \"#utility.yul\":4249:4252   */\n      dup3\n        /* \"#utility.yul\":4242:4279   */\n      mstore\n        /* \"#utility.yul\":4177:4285   */\n      pop\n      pop\n      jump\t// out\n        /* \"#utility.yul\":4291:4470   */\n    tag_254:\n        /* \"#utility.yul\":4360:4370   */\n      0x00\n        /* \"#utility.yul\":4381:4427   */\n      tag_334\n        /* \"#utility.yul\":4423:4426   */\n      dup4\n        /* \"#utility.yul\":4415:4421   */\n      dup4\n        /* \"#utility.yul\":4381:4427   */\n      tag_253\n      jump\t// in\n    tag_334:\n        /* \"#utility.yul\":4459:4463   */\n      0x20\n        /* \"#utility.yul\":4454:4457   */\n      dup4\n        /* \"#utility.yul\":4450:4464   */\n      add\n        /* \"#utility.yul\":4436:4464   */\n      swap1\n      pop\n        /* \"#utility.yul\":4291:4470   */\n      swap3\n      swap2\n      pop\n      pop\n      jump\t// out\n        /* \"#utility.yul\":4476:4589   */\n    tag_255:\n        /* \"#utility.yul\":4546:4550   */\n      0x00\n        /* \"#utility.yul\":4578:4582   */\n      0x20\n        /* \"#utility.yul\":4573:4576   */\n      dup3\n        /* \"#utility.yul\":4569:4583   */\n      add\n        /* \"#utility.yul\":4561:4583   */\n      swap1\n      pop\n        /* \"#utility.yul\":4476:4589   */\n      swap2\n      swap1\n      pop\n      jump\t// out\n        /* \"#utility.yul\":4625:5357   */\n    tag_256:\n        /* \"#utility.yul\":4744:4747   */\n      0x00\n        /* \"#utility.yul\":4773:4827   */\n      tag_337\n        /* \"#utility.yul\":4821:4826   */\n      dup3\n        /* \"#utility.yul\":4773:4827   */\n      tag_250\n      jump\t// in\n    tag_337:\n        /* \"#utility.yul\":4843:4929   */\n      tag_338\n        /* \"#utility.yul\":4922:4928   */\n      dup2\n        /* \"#utility.yul\":4917:4920   */\n      dup6\n        /* \"#utility.yul\":4843:4929   */\n      tag_251\n      jump\t// in\n    tag_338:\n        /* \"#utility.yul\":4836:4929   */\n      swap4\n      pop\n        /* \"#utility.yul\":4953:5009   */\n      tag_339\n        /* \"#utility.yul\":5003:5008   */\n      dup4\n        /* \"#utility.yul\":4953:5009   */\n      tag_252\n      jump\t// in\n    tag_339:\n        /* \"#utility.yul\":5032:5039   */\n      dup1\n        /* \"#utility.yul\":5063:5064   */\n      0x00\n        /* \"#utility.yul\":5048:5332   */\n    tag_340:\n        /* \"#utility.yul\":5073:5079   */\n      dup4\n        /* \"#utility.yul\":5070:5071   */\n      dup2\n        /* \"#utility.yul\":5067:5080   */\n      lt\n        /* \"#utility.yul\":5048:5332   */\n      iszero\n      tag_342\n      jumpi\n        /* \"#utility.yul\":5149:5155   */\n      dup2\n        /* \"#utility.yul\":5143:5156   */\n      mload\n        /* \"#utility.yul\":5176:5239   */\n      tag_343\n        /* \"#utility.yul\":5235:5238   */\n      dup9\n        /* \"#utility.yul\":5220:5233   */\n      dup3\n        /* \"#utility.yul\":5176:5239   */\n      tag_254\n      jump\t// in\n    tag_343:\n        /* \"#utility.yul\":5169:5239   */\n      swap8\n      pop\n        /* \"#utility.yul\":5262:5322   */\n      tag_344\n        /* \"#utility.yul\":5315:5321   */\n      dup4\n        /* \"#utility.yul\":5262:5322   */\n      tag_255\n      jump\t// in\n    tag_344:\n        /* \"#utility.yul\":5252:5322   */\n      swap3\n      pop\n        /* \"#utility.yul\":5108:5332   */\n      pop\n        /* \"#utility.yul\":5095:5096   */\n      0x01\n        /* \"#utility.yul\":5092:5093   */\n      dup2\n        /* \"#utility.yul\":5088:5097   */\n      add\n        /* \"#utility.yul\":5083:5097   */\n      swap1\n      pop\n        /* \"#utility.yul\":5048:5332   */\n      jump(tag_340)\n    tag_342:\n        /* \"#utility.yul\":5052:5066   */\n      pop\n        /* \"#utility.yul\":5348:5351   */\n      dup6\n        /* \"#utility.yul\":5341:5351   */\n      swap4\n      pop\n        /* \"#utility.yul\":4749:5357   */\n      pop\n      pop\n      pop\n        /* \"#utility.yul\":4625:5357   */\n      swap3\n      swap2\n      pop\n      pop\n      jump\t// out\n        /* \"#utility.yul\":5363:5736   */\n    tag_31:\n        /* \"#utility.yul\":5506:5510   */\n      0x00\n        /* \"#utility.yul\":5544:5546   */\n      0x20\n        /* \"#utility.yul\":5533:5542   */\n      dup3\n        /* \"#utility.yul\":5529:5547   */\n      add\n        /* \"#utility.yul\":5521:5547   */\n      swap1\n      pop\n        /* \"#utility.yul\":5593:5602   */\n      dup2\n        /* \"#utility.yul\":5587:5591   */\n      dup2\n        /* \"#utility.yul\":5583:5603   */\n      sub\n        /* \"#utility.yul\":5579:5580   */\n      0x00\n        /* \"#utility.yul\":5568:5577   */\n      dup4\n        /* \"#utility.yul\":5564:5581   */\n      add\n        /* \"#utility.yul\":5557:5604   */\n      mstore\n        /* \"#utility.yul\":5621:5729   */\n      tag_346\n        /* \"#utility.yul\":5724:5728   */\n      dup2\n        /* \"#utility.yul\":5715:5721   */\n      dup5\n        /* \"#utility.yul\":5621:5729   */\n      tag_256\n      jump\t// in\n    tag_346:\n        /* \"#utility.yul\":5613:5729   */\n      swap1\n      pop\n        /* \"#utility.yul\":5363:5736   */\n      swap3\n      swap2\n      pop\n      pop\n      jump\t// out\n        /* \"#utility.yul\":5742:5858   */\n    tag_257:\n        /* \"#utility.yul\":5812:5833   */\n      tag_348\n        /* \"#utility.yul\":5827:5832   */\n      dup2\n        /* \"#utility.yul\":5812:5833   */\n      tag_243\n      jump\t// in\n    tag_348:\n        /* \"#utility.yul\":5805:5810   */\n      dup2\n        /* \"#utility.yul\":5802:5834   */\n      eq\n        /* \"#utility.yul\":5792:5852   */\n      tag_349\n      jumpi\n        /* \"#utility.yul\":5848:5849   */\n      0x00\n        /* \"#utility.yul\":5845:5846   */\n      0x00\n        /* \"#utility.yul\":5838:5850   */\n      revert\n        /* \"#utility.yul\":5792:5852   */\n    tag_349:\n        /* \"#utility.yul\":5742:5858   */\n      pop\n      jump\t// out\n        /* \"#utility.yul\":5864:5997   */\n    tag_258:\n        /* \"#utility.yul\":5907:5912   */\n      0x00\n        /* \"#utility.yul\":5945:5951   */\n      dup2\n        /* \"#utility.yul\":5932:5952   */\n      calldataload\n        /* \"#utility.yul\":5923:5952   */\n      swap1\n      pop\n        /* \"#utility.yul\":5961:5991   */\n      tag_351\n        /* \"#utility.yul\":5985:5990   */\n      dup2\n        /* \"#utility.yul\":5961:5991   */\n      tag_257\n      jump\t// in\n    tag_351:\n        /* \"#utility.yul\":5864:5997   */\n      swap3\n      swap2\n      pop\n      pop\n      jump\t// out\n        /* \"#utility.yul\":6003:6616   */\n    tag_34:\n        /* \"#utility.yul\":6077:6083   */\n      0x00\n        /* \"#utility.yul\":6085:6091   */\n      0x00\n        /* \"#utility.yul\":6093:6099   */\n      0x00\n        /* \"#utility.yul\":6142:6144   */\n      0x60\n        /* \"#utility.yul\":6130:6139   */\n      dup5\n        /* \"#utility.yul\":6121:6128   */\n      dup7\n        /* \"#utility.yul\":6117:6140   */\n      sub\n        /* \"#utility.yul\":6113:6145   */\n      slt\n        /* \"#utility.yul\":6110:6229   */\n      iszero\n      tag_353\n      jumpi\n        /* \"#utility.yul\":6148:6227   */\n      tag_354\n      tag_246\n      jump\t// in\n    tag_354:\n        /* \"#utility.yul\":6110:6229   */\n    tag_353:\n        /* \"#utility.yul\":6268:6269   */\n      0x00\n        /* \"#utility.yul\":6293:6346   */\n      tag_355\n        /* \"#utility.yul\":6338:6345   */\n      dup7\n        /* \"#utility.yul\":6329:6335   */\n      dup3\n        /* \"#utility.yul\":6318:6327   */\n      dup8\n        /* \"#utility.yul\":6314:6336   */\n      add\n        /* \"#utility.yul\":6293:6346   */\n      tag_249\n      jump\t// in\n    tag_355:\n        /* \"#utility.yul\":6283:6346   */\n      swap4\n      pop\n        /* \"#utility.yul\":6239:6356   */\n      pop\n        /* \"#utility.yul\":6395:6397   */\n      0x20\n        /* \"#utility.yul\":6421:6471   */\n      tag_356\n        /* \"#utility.yul\":6463:6470   */\n      dup7\n        /* \"#utility.yul\":6454:6460   */\n      dup3\n        /* \"#utility.yul\":6443:6452   */\n      dup8\n        /* \"#utility.yul\":6439:6461   */\n      add\n        /* \"#utility.yul\":6421:6471   */\n      tag_258\n      jump\t// in\n    tag_356:\n        /* \"#utility.yul\":6411:6471   */\n      swap3\n      pop\n        /* \"#utility.yul\":6366:6481   */\n      pop\n        /* \"#utility.yul\":6520:6522   */\n      0x40\n        /* \"#utility.yul\":6546:6599   */\n      tag_357\n        /* \"#utility.yul\":6591:6598   */\n      dup7\n        /* \"#utility.yul\":6582:6588   */\n      dup3\n        /* \"#utility.yul\":6571:6580   */\n      dup8\n        /* \"#utility.yul\":6567:6589   */\n      add\n        /* \"#utility.yul\":6546:6599   */\n      tag_249\n      jump\t// in\n    tag_357:\n        /* \"#utility.yul\":6536:6599   */\n      swap2\n      pop\n        /* \"#utility.yul\":6491:6609   */\n      pop\n        /* \"#utility.yul\":6003:6616   */\n      swap3\n      pop\n      swap3\n      pop\n      swap3\n      jump\t// out\n        /* \"#utility.yul\":6622:6744   */\n    tag_259:\n        /* \"#utility.yul\":6695:6719   */\n      tag_359\n        /* \"#utility.yul\":6713:6718   */\n      dup2\n        /* \"#utility.yul\":6695:6719   */\n      tag_241\n      jump\t// in\n    tag_359:\n        /* \"#utility.yul\":6688:6693   */\n      dup2\n        /* \"#utility.yul\":6685:6720   */\n      eq\n        /* \"#utility.yul\":6675:6738   */\n      tag_360\n      jumpi\n        /* \"#utility.yul\":6734:6735   */\n      0x00\n        /* \"#utility.yul\":6731:6732   */\n      0x00\n        /* \"#utility.yul\":6724:6736   */\n      revert\n        /* \"#utility.yul\":6675:6738   */\n    tag_360:\n        /* \"#utility.yul\":6622:6744   */\n      pop\n      jump\t// out\n        /* \"#utility.yul\":6750:6889   */\n    tag_260:\n        /* \"#utility.yul\":6796:6801   */\n      0x00\n        /* \"#utility.yul\":6834:6840   */\n      dup2\n        /* \"#utility.yul\":6821:6841   */\n      calldataload\n        /* \"#utility.yul\":6812:6841   */\n      swap1\n      pop\n        /* \"#utility.yul\":6850:6883   */\n      tag_362\n        /* \"#utility.yul\":6877:6882   */\n      dup2\n        /* \"#utility.yul\":6850:6883   */\n      tag_259\n      jump\t// in\n    tag_362:\n        /* \"#utility.yul\":6750:6889   */\n      swap3\n      swap2\n      pop\n      pop\n      jump\t// out\n        /* \"#utility.yul\":6895:7224   */\n    tag_38:\n        /* \"#utility.yul\":6954:6960   */\n      0x00\n        /* \"#utility.yul\":7003:7005   */\n      0x20\n        /* \"#utility.yul\":6991:7000   */\n      dup3\n        /* \"#utility.yul\":6982:6989   */\n      dup5\n        /* \"#utility.yul\":6978:7001   */\n      sub\n        /* \"#utility.yul\":6974:7006   */\n      slt\n        /* \"#utility.yul\":6971:7090   */\n      iszero\n      tag_364\n      jumpi\n        /* \"#utility.yul\":7009:7088   */\n      tag_365\n      tag_246\n      jump\t// in\n    tag_365:\n        /* \"#utility.yul\":6971:7090   */\n    tag_364:\n        /* \"#utility.yul\":7129:7130   */\n      0x00\n        /* \"#utility.yul\":7154:7207   */\n      tag_366\n        /* \"#utility.yul\":7199:7206   */\n      dup5\n        /* \"#utility.yul\":7190:7196   */\n      dup3\n        /* \"#utility.yul\":7179:7188   */\n      dup6\n        /* \"#utility.yul\":7175:7197   */\n      add\n        /* \"#utility.yul\":7154:7207   */\n      tag_260\n      jump\t// in\n    tag_366:\n        /* \"#utility.yul\":7144:7207   */\n      swap2\n      pop\n        /* \"#utility.yul\":7100:7217   */\n      pop\n        /* \"#utility.yul\":6895:7224   */\n      swap3\n      swap2\n      pop\n      pop\n      jump\t// out\n        /* \"#utility.yul\":7230:7783   */\n    tag_41:\n        /* \"#utility.yul\":7407:7411   */\n      0x00\n        /* \"#utility.yul\":7445:7448   */\n      0x80\n        /* \"#utility.yul\":7434:7443   */\n      dup3\n        /* \"#utility.yul\":7430:7449   */\n      add\n        /* \"#utility.yul\":7422:7449   */\n      swap1\n      pop\n        /* \"#utility.yul\":7459:7530   */\n      tag_368\n        /* \"#utility.yul\":7527:7528   */\n      0x00\n        /* \"#utility.yul\":7516:7525   */\n      dup4\n        /* \"#utility.yul\":7512:7529   */\n      add\n        /* \"#utility.yul\":7503:7509   */\n      dup8\n        /* \"#utility.yul\":7459:7530   */\n      tag_240\n      jump\t// in\n    tag_368:\n        /* \"#utility.yul\":7540:7612   */\n      tag_369\n        /* \"#utility.yul\":7608:7610   */\n      0x20\n        /* \"#utility.yul\":7597:7606   */\n      dup4\n        /* \"#utility.yul\":7593:7611   */\n      add\n        /* \"#utility.yul\":7584:7590   */\n      dup7\n        /* \"#utility.yul\":7540:7612   */\n      tag_240\n      jump\t// in\n    tag_369:\n        /* \"#utility.yul\":7622:7694   */\n      tag_370\n        /* \"#utility.yul\":7690:7692   */\n      0x40\n        /* \"#utility.yul\":7679:7688   */\n      dup4\n        /* \"#utility.yul\":7675:7693   */\n      add\n        /* \"#utility.yul\":7666:7672   */\n      dup6\n        /* \"#utility.yul\":7622:7694   */\n      tag_240\n      jump\t// in\n    tag_370:\n        /* \"#utility.yul\":7704:7776   */\n      tag_371\n        /* \"#utility.yul\":7772:7774   */\n      0x60\n        /* \"#utility.yul\":7761:7770   */\n      dup4\n        /* \"#utility.yul\":7757:7775   */\n      add\n        /* \"#utility.yul\":7748:7754   */\n      dup5\n        /* \"#utility.yul\":7704:7776   */\n      tag_240\n      jump\t// in\n    tag_371:\n        /* \"#utility.yul\":7230:7783   */\n      swap6\n      swap5\n      pop\n      pop\n      pop\n      pop\n      pop\n      jump\t// out\n        /* \"#utility.yul\":7789:8011   */\n    tag_47:\n        /* \"#utility.yul\":7882:7886   */\n      0x00\n        /* \"#utility.yul\":7920:7922   */\n      0x20\n        /* \"#utility.yul\":7909:7918   */\n      dup3\n        /* \"#utility.yul\":7905:7923   */\n      add\n        /* \"#utility.yul\":7897:7923   */\n      swap1\n      pop\n        /* \"#utility.yul\":7933:8004   */\n      tag_373\n        /* \"#utility.yul\":8001:8002   */\n      0x00\n        /* \"#utility.yul\":7990:7999   */\n      dup4\n        /* \"#utility.yul\":7986:8003   */\n      add\n        /* \"#utility.yul\":7977:7983   */\n      dup5\n        /* \"#utility.yul\":7933:8004   */\n      tag_242\n      jump\t// in\n    tag_373:\n        /* \"#utility.yul\":7789:8011   */\n      swap3\n      swap2\n      pop\n      pop\n      jump\t// out\n        /* \"#utility.yul\":8017:8239   */\n    tag_51:\n        /* \"#utility.yul\":8110:8114   */\n      0x00\n        /* \"#utility.yul\":8148:8150   */\n      0x20\n        /* \"#utility.yul\":8137:8146   */\n      dup3\n        /* \"#utility.yul\":8133:8151   */\n      add\n        /* \"#utility.yul\":8125:8151   */\n      swap1\n      pop\n        /* \"#utility.yul\":8161:8232   */\n      tag_375\n        /* \"#utility.yul\":8229:8230   */\n      0x00\n        /* \"#utility.yul\":8218:8227   */\n      dup4\n        /* \"#utility.yul\":8214:8231   */\n      add\n        /* \"#utility.yul\":8205:8211   */\n      dup5\n        /* \"#utility.yul\":8161:8232   */\n      tag_240\n      jump\t// in\n    tag_375:\n        /* \"#utility.yul\":8017:8239   */\n      swap3\n      swap2\n      pop\n      pop\n      jump\t// out\n        /* \"#utility.yul\":8245:9010   */\n    tag_56:\n        /* \"#utility.yul\":8331:8337   */\n      0x00\n        /* \"#utility.yul\":8339:8345   */\n      0x00\n        /* \"#utility.yul\":8347:8353   */\n      0x00\n        /* \"#utility.yul\":8355:8361   */\n      0x00\n        /* \"#utility.yul\":8404:8407   */\n      0x80\n        /* \"#utility.yul\":8392:8401   */\n      dup6\n        /* \"#utility.yul\":8383:8390   */\n      dup8\n        /* \"#utility.yul\":8379:8402   */\n      sub\n        /* \"#utility.yul\":8375:8408   */\n      slt\n        /* \"#utility.yul\":8372:8492   */\n      iszero\n      tag_377\n      jumpi\n        /* \"#utility.yul\":8411:8490   */\n      tag_378\n      tag_246\n      jump\t// in\n    tag_378:\n        /* \"#utility.yul\":8372:8492   */\n    tag_377:\n        /* \"#utility.yul\":8531:8532   */\n      0x00\n        /* \"#utility.yul\":8556:8609   */\n      tag_379\n        /* \"#utility.yul\":8601:8608   */\n      dup8\n        /* \"#utility.yul\":8592:8598   */\n      dup3\n        /* \"#utility.yul\":8581:8590   */\n      dup9\n        /* \"#utility.yul\":8577:8599   */\n      add\n        /* \"#utility.yul\":8556:8609   */\n      tag_249\n      jump\t// in\n    tag_379:\n        /* \"#utility.yul\":8546:8609   */\n      swap5\n      pop\n        /* \"#utility.yul\":8502:8619   */\n      pop\n        /* \"#utility.yul\":8658:8660   */\n      0x20\n        /* \"#utility.yul\":8684:8737   */\n      tag_380\n        /* \"#utility.yul\":8729:8736   */\n      dup8\n        /* \"#utility.yul\":8720:8726   */\n      dup3\n        /* \"#utility.yul\":8709:8718   */\n      dup9\n        /* \"#utility.yul\":8705:8727   */\n      add\n        /* \"#utility.yul\":8684:8737   */\n      tag_249\n      jump\t// in\n    tag_380:\n        /* \"#utility.yul\":8674:8737   */\n      swap4\n      pop\n        /* \"#utility.yul\":8629:8747   */\n      pop\n        /* \"#utility.yul\":8786:8788   */\n      0x40\n        /* \"#utility.yul\":8812:8865   */\n      tag_381\n        /* \"#utility.yul\":8857:8864   */\n      dup8\n        /* \"#utility.yul\":8848:8854   */\n      dup3\n        /* \"#utility.yul\":8837:8846   */\n      dup9\n        /* \"#utility.yul\":8833:8855   */\n      add\n        /* \"#utility.yul\":8812:8865   */\n      tag_249\n      jump\t// in\n    tag_381:\n        /* \"#utility.yul\":8802:8865   */\n      swap3\n      pop\n        /* \"#utility.yul\":8757:8875   */\n      pop\n        /* \"#utility.yul\":8914:8916   */\n      0x60\n        /* \"#utility.yul\":8940:8993   */\n      tag_382\n        /* \"#utility.yul\":8985:8992   */\n      dup8\n        /* \"#utility.yul\":8976:8982   */\n      dup3\n        /* \"#utility.yul\":8965:8974   */\n      dup9\n        /* \"#utility.yul\":8961:8983   */\n      add\n        /* \"#utility.yul\":8940:8993   */\n      tag_249\n      jump\t// in\n    tag_382:\n        /* \"#utility.yul\":8930:8993   */\n      swap2\n      pop\n        /* \"#utility.yul\":8885:9003   */\n      pop\n        /* \"#utility.yul\":8245:9010   */\n      swap3\n      swap6\n      swap2\n      swap5\n      pop\n      swap3\n      pop\n      jump\t// out\n        /* \"#utility.yul\":9016:9185   */\n    tag_261:\n        /* \"#utility.yul\":9100:9111   */\n      0x00\n        /* \"#utility.yul\":9134:9140   */\n      dup3\n        /* \"#utility.yul\":9129:9132   */\n      dup3\n        /* \"#utility.yul\":9122:9141   */\n      mstore\n        /* \"#utility.yul\":9174:9178   */\n      0x20\n        /* \"#utility.yul\":9169:9172   */\n      dup3\n        /* \"#utility.yul\":9165:9179   */\n      add\n        /* \"#utility.yul\":9150:9179   */\n      swap1\n      pop\n        /* \"#utility.yul\":9016:9185   */\n      swap3\n      swap2\n      pop\n      pop\n      jump\t// out\n        /* \"#utility.yul\":9191:9355   */\n    tag_262:\n        /* \"#utility.yul\":9331:9347   */\n      0x506f6f6c20697320706175736564000000000000000000000000000000000000\n        /* \"#utility.yul\":9327:9328   */\n      0x00\n        /* \"#utility.yul\":9319:9325   */\n      dup3\n        /* \"#utility.yul\":9315:9329   */\n      add\n        /* \"#utility.yul\":9308:9348   */\n      mstore\n        /* \"#utility.yul\":9191:9355   */\n      pop\n      jump\t// out\n        /* \"#utility.yul\":9361:9727   */\n    tag_263:\n        /* \"#utility.yul\":9503:9506   */\n      0x00\n        /* \"#utility.yul\":9524:9591   */\n      tag_386\n        /* \"#utility.yul\":9588:9590   */\n      0x0e\n        /* \"#utility.yul\":9583:9586   */\n      dup4\n        /* \"#utility.yul\":9524:9591   */\n      tag_261\n      jump\t// in\n    tag_386:\n        /* \"#utility.yul\":9517:9591   */\n      swap2\n      pop\n        /* \"#utility.yul\":9600:9693   */\n      tag_387\n        /* \"#utility.yul\":9689:9692   */\n      dup3\n        /* \"#utility.yul\":9600:9693   */\n      tag_262\n      jump\t// in\n    tag_387:\n        /* \"#utility.yul\":9718:9720   */\n      0x20\n        /* \"#utility.yul\":9713:9716   */\n      dup3\n        /* \"#utility.yul\":9709:9721   */\n      add\n        /* \"#utility.yul\":9702:9721   */\n      swap1\n      pop\n        /* \"#utility.yul\":9361:9727   */\n      swap2\n      swap1\n      pop\n      jump\t// out\n        /* \"#utility.yul\":9733:10152   */\n    tag_73:\n        /* \"#utility.yul\":9899:9903   */\n      0x00\n        /* \"#utility.yul\":9937:9939   */\n      0x20\n        /* \"#utility.yul\":9926:9935   */\n      dup3\n        /* \"#utility.yul\":9922:9940   */\n      add\n        /* \"#utility.yul\":9914:9940   */\n      swap1\n      pop\n        /* \"#utility.yul\":9986:9995   */\n      dup2\n        /* \"#utility.yul\":9980:9984   */\n      dup2\n        /* \"#utility.yul\":9976:9996   */\n      sub\n        /* \"#utility.yul\":9972:9973   */\n      0x00\n        /* \"#utility.yul\":9961:9970   */\n      dup4\n        /* \"#utility.yul\":9957:9974   */\n      add\n        /* \"#utility.yul\":9950:9997   */\n      mstore\n        /* \"#utility.yul\":10014:10145   */\n      tag_389\n        /* \"#utility.yul\":10140:10144   */\n      dup2\n        /* \"#utility.yul\":10014:10145   */\n      tag_263\n      jump\t// in\n    tag_389:\n        /* \"#utility.yul\":10006:10145   */\n      swap1\n      pop\n        /* \"#utility.yul\":9733:10152   */\n      swap2\n      swap1\n      pop\n      jump\t// out\n        /* \"#utility.yul\":10158:10340   */\n    tag_264:\n        /* \"#utility.yul\":10298:10332   */\n      0x416d6f756e74206d7573742062652067726561746572207468616e207a65726f\n        /* \"#utility.yul\":10294:10295   */\n      0x00\n        /* \"#utility.yul\":10286:10292   */\n      dup3\n        /* \"#utility.yul\":10282:10296   */\n      add\n        /* \"#utility.yul\":10275:10333   */\n      mstore\n        /* \"#utility.yul\":10158:10340   */\n      pop\n      jump\t// out\n        /* \"#utility.yul\":10346:10712   */\n    tag_265:\n        /* \"#utility.yul\":10488:10491   */\n      0x00\n        /* \"#utility.yul\":10509:10576   */\n      tag_392\n        /* \"#utility.yul\":10573:10575   */\n      0x20\n        /* \"#utility.yul\":10568:10571   */\n      dup4\n        /* \"#utility.yul\":10509:10576   */\n      tag_261\n      jump\t// in\n    tag_392:\n        /* \"#utility.yul\":10502:10576   */\n      swap2\n      pop\n        /* \"#utility.yul\":10585:10678   */\n      tag_393\n        /* \"#utility.yul\":10674:10677   */\n      dup3\n        /* \"#utility.yul\":10585:10678   */\n      tag_264\n      jump\t// in\n    tag_393:\n        /* \"#utility.yul\":10703:10705   */\n      0x20\n        /* \"#utility.yul\":10698:10701   */\n      dup3\n        /* \"#utility.yul\":10694:10706   */\n      add\n        /* \"#utility.yul\":10687:10706   */\n      swap1\n      pop\n        /* \"#utility.yul\":10346:10712   */\n      swap2\n      swap1\n      pop\n      jump\t// out\n        /* \"#utility.yul\":10718:11137   */\n    tag_77:\n        /* \"#utility.yul\":10884:10888   */\n      0x00\n        /* \"#utility.yul\":10922:10924   */\n      0x20\n        /* \"#utility.yul\":10911:10920   */\n      dup3\n        /* \"#utility.yul\":10907:10925   */\n      add\n        /* \"#utility.yul\":10899:10925   */\n      swap1\n      pop\n        /* \"#utility.yul\":10971:10980   */\n      dup2\n        /* \"#utility.yul\":10965:10969   */\n      dup2\n        /* \"#utility.yul\":10961:10981   */\n      sub\n        /* \"#utility.yul\":10957:10958   */\n      0x00\n        /* \"#utility.yul\":10946:10955   */\n      dup4\n        /* \"#utility.yul\":10942:10959   */\n      add\n        /* \"#utility.yul\":10935:10982   */\n      mstore\n        /* \"#utility.yul\":10999:11130   */\n      tag_395\n        /* \"#utility.yul\":11125:11129   */\n      dup2\n        /* \"#utility.yul\":10999:11130   */\n      tag_265\n      jump\t// in\n    tag_395:\n        /* \"#utility.yul\":10991:11130   */\n      swap1\n      pop\n        /* \"#utility.yul\":10718:11137   */\n      swap2\n      swap1\n      pop\n      jump\t// out\n        /* \"#utility.yul\":11143:11313   */\n    tag_266:\n        /* \"#utility.yul\":11283:11305   */\n      0x496e73756666696369656e742062616c616e6365000000000000000000000000\n        /* \"#utility.yul\":11279:11280   */\n      0x00\n        /* \"#utility.yul\":11271:11277   */\n      dup3\n        /* \"#utility.yul\":11267:11281   */\n      add\n        /* \"#utility.yul\":11260:11306   */\n      mstore\n        /* \"#utility.yul\":11143:11313   */\n      pop\n      jump\t// out\n        /* \"#utility.yul\":11319:11685   */\n    tag_267:\n        /* \"#utility.yul\":11461:11464   */\n      0x00\n        /* \"#utility.yul\":11482:11549   */\n      tag_398\n        /* \"#utility.yul\":11546:11548   */\n      0x14\n        /* \"#utility.yul\":11541:11544   */\n      dup4\n        /* \"#utility.yul\":11482:11549   */\n      tag_261\n      jump\t// in\n    tag_398:\n        /* \"#utility.yul\":11475:11549   */\n      swap2\n      pop\n        /* \"#utility.yul\":11558:11651   */\n      tag_399\n        /* \"#utility.yul\":11647:11650   */\n      dup3\n        /* \"#utility.yul\":11558:11651   */\n      tag_266\n      jump\t// in\n    tag_399:\n        /* \"#utility.yul\":11676:11678   */\n      0x20\n        /* \"#utility.yul\":11671:11674   */\n      dup3\n        /* \"#utility.yul\":11667:11679   */\n      add\n        /* \"#utility.yul\":11660:11679   */\n      swap1\n      pop\n        /* \"#utility.yul\":11319:11685   */\n      swap2\n      swap1\n      pop\n      jump\t// out\n        /* \"#utility.yul\":11691:12110   */\n    tag_81:\n        /* \"#utility.yul\":11857:11861   */\n      0x00\n        /* \"#utility.yul\":11895:11897   */\n      0x20\n        /* \"#utility.yul\":11884:11893   */\n      dup3\n        /* \"#utility.yul\":11880:11898   */\n      add\n        /* \"#utility.yul\":11872:11898   */\n      swap1\n      pop\n        /* \"#utility.yul\":11944:11953   */\n      dup2\n        /* \"#utility.yul\":11938:11942   */\n      dup2\n        /* \"#utility.yul\":11934:11954   */\n      sub\n        /* \"#utility.yul\":11930:11931   */\n      0x00\n        /* \"#utility.yul\":11919:11928   */\n      dup4\n        /* \"#utility.yul\":11915:11932   */\n      add\n        /* \"#utility.yul\":11908:11955   */\n      mstore\n        /* \"#utility.yul\":11972:12103   */\n      tag_401\n        /* \"#utility.yul\":12098:12102   */\n      dup2\n        /* \"#utility.yul\":11972:12103   */\n      tag_267\n      jump\t// in\n    tag_401:\n        /* \"#utility.yul\":11964:12103   */\n      swap1\n      pop\n        /* \"#utility.yul\":11691:12110   */\n      swap2\n      swap1\n      pop\n      jump\t// out\n        /* \"#utility.yul\":12116:12287   */\n    tag_268:\n        /* \"#utility.yul\":12256:12279   */\n      0x5374616b65206973207374696c6c206c6f636b65640000000000000000000000\n        /* \"#utility.yul\":12252:12253   */\n      0x00\n        /* \"#utility.yul\":12244:12250   */\n      dup3\n        /* \"#utility.yul\":12240:12254   */\n      add\n        /* \"#utility.yul\":12233:12280   */\n      mstore\n        /* \"#utility.yul\":12116:12287   */\n      pop\n      jump\t// out\n        /* \"#utility.yul\":12293:12659   */\n    tag_269:\n        /* \"#utility.yul\":12435:12438   */\n      0x00\n        /* \"#utility.yul\":12456:12523   */\n      tag_404\n        /* \"#utility.yul\":12520:12522   */\n      0x15\n        /* \"#utility.yul\":12515:12518   */\n      dup4\n        /* \"#utility.yul\":12456:12523   */\n      tag_261\n      jump\t// in\n    tag_404:\n        /* \"#utility.yul\":12449:12523   */\n      swap2\n      pop\n        /* \"#utility.yul\":12532:12625   */\n      tag_405\n        /* \"#utility.yul\":12621:12624   */\n      dup3\n        /* \"#utility.yul\":12532:12625   */\n      tag_268\n      jump\t// in\n    tag_405:\n        /* \"#utility.yul\":12650:12652   */\n      0x20\n        /* \"#utility.yul\":12645:12648   */\n      dup3\n        /* \"#utility.yul\":12641:12653   */\n      add\n        /* \"#utility.yul\":12634:12653   */\n      swap1\n      pop\n        /* \"#utility.yul\":12293:12659   */\n      swap2\n      swap1\n      pop\n      jump\t// out\n        /* \"#utility.yul\":12665:13084   */\n    tag_84:\n        /* \"#utility.yul\":12831:12835   */\n      0x00\n        /* \"#utility.yul\":12869:12871   */\n      0x20\n        /* \"#utility.yul\":12858:12867   */\n      dup3\n        /* \"#utility.yul\":12854:12872   */\n      add\n        /* \"#utility.yul\":12846:12872   */\n      swap1\n      pop\n        /* \"#utility.yul\":12918:12927   */\n      dup2\n        /* \"#utility.yul\":12912:12916   */\n      dup2\n        /* \"#utility.yul\":12908:12928   */\n      sub\n        /* \"#utility.yul\":12904:12905   */\n      0x00\n        /* \"#utility.yul\":12893:12902   */\n      dup4\n        /* \"#utility.yul\":12889:12906   */\n      add\n        /* \"#utility.yul\":12882:12929   */\n      mstore\n        /* \"#utility.yul\":12946:13077   */\n      tag_407\n        /* \"#utility.yul\":13072:13076   */\n      dup2\n        /* \"#utility.yul\":12946:13077   */\n      tag_269\n      jump\t// in\n    tag_407:\n        /* \"#utility.yul\":12938:13077   */\n      swap1\n      pop\n        /* \"#utility.yul\":12665:13084   */\n      swap2\n      swap1\n      pop\n      jump\t// out\n        /* \"#utility.yul\":13090:13270   */\n    tag_270:\n        /* \"#utility.yul\":13138:13215   */\n      0x4e487b7100000000000000000000000000000000000000000000000000000000\n        /* \"#utility.yul\":13135:13136   */\n      0x00\n        /* \"#utility.yul\":13128:13216   */\n      mstore\n        /* \"#utility.yul\":13235:13239   */\n      0x11\n        /* \"#utility.yul\":13232:13233   */\n      0x04\n        /* \"#utility.yul\":13225:13240   */\n      mstore\n        /* \"#utility.yul\":13259:13263   */\n      0x24\n        /* \"#utility.yul\":13256:13257   */\n      0x00\n        /* \"#utility.yul\":13249:13264   */\n      revert\n        /* \"#utility.yul\":13276:13686   */\n    tag_86:\n        /* \"#utility.yul\":13316:13323   */\n      0x00\n        /* \"#utility.yul\":13339:13359   */\n      tag_410\n        /* \"#utility.yul\":13357:13358   */\n      dup3\n        /* \"#utility.yul\":13339:13359   */\n      tag_239\n      jump\t// in\n    tag_410:\n        /* \"#utility.yul\":13334:13359   */\n      swap2\n      pop\n        /* \"#utility.yul\":13373:13393   */\n      tag_411\n        /* \"#utility.yul\":13391:13392   */\n      dup4\n        /* \"#utility.yul\":13373:13393   */\n      tag_239\n      jump\t// in\n    tag_411:\n        /* \"#utility.yul\":13368:13393   */\n      swap3\n      pop\n        /* \"#utility.yul\":13428:13429   */\n      dup3\n        /* \"#utility.yul\":13425:13426   */\n      dup3\n        /* \"#utility.yul\":13421:13430   */\n      mul\n        /* \"#utility.yul\":13450:13480   */\n      tag_412\n        /* \"#utility.yul\":13468:13479   */\n      dup2\n        /* \"#utility.yul\":13450:13480   */\n      tag_239\n      jump\t// in\n    tag_412:\n        /* \"#utility.yul\":13439:13480   */\n      swap2\n      pop\n        /* \"#utility.yul\":13629:13630   */\n      dup3\n        /* \"#utility.yul\":13620:13627   */\n      dup3\n        /* \"#utility.yul\":13616:13631   */\n      div\n        /* \"#utility.yul\":13613:13614   */\n      dup5\n        /* \"#utility.yul\":13610:13632   */\n      eq\n        /* \"#utility.yul\":13590:13591   */\n      dup4\n        /* \"#utility.yul\":13583:13592   */\n      iszero\n        /* \"#utility.yul\":13563:13646   */\n      or\n        /* \"#utility.yul\":13540:13679   */\n      tag_413\n      jumpi\n        /* \"#utility.yul\":13659:13677   */\n      tag_414\n      tag_270\n      jump\t// in\n    tag_414:\n        /* \"#utility.yul\":13540:13679   */\n    tag_413:\n        /* \"#utility.yul\":13324:13686   */\n      pop\n        /* \"#utility.yul\":13276:13686   */\n      swap3\n      swap2\n      pop\n      pop\n      jump\t// out\n        /* \"#utility.yul\":13692:13872   */\n    tag_271:\n        /* \"#utility.yul\":13740:13817   */\n      0x4e487b7100000000000000000000000000000000000000000000000000000000\n        /* \"#utility.yul\":13737:13738   */\n      0x00\n        /* \"#utility.yul\":13730:13818   */\n      mstore\n        /* \"#utility.yul\":13837:13841   */\n      0x12\n        /* \"#utility.yul\":13834:13835   */\n      0x04\n        /* \"#utility.yul\":13827:13842   */\n      mstore\n        /* \"#utility.yul\":13861:13865   */\n      0x24\n        /* \"#utility.yul\":13858:13859   */\n      0x00\n        /* \"#utility.yul\":13851:13866   */\n      revert\n        /* \"#utility.yul\":13878:14063   */\n    tag_88:\n        /* \"#utility.yul\":13918:13919   */\n      0x00\n        /* \"#utility.yul\":13935:13955   */\n      tag_417\n        /* \"#utility.yul\":13953:13954   */\n      dup3\n        /* \"#utility.yul\":13935:13955   */\n      tag_239\n      jump\t// in\n    tag_417:\n        /* \"#utility.yul\":13930:13955   */\n      swap2\n      pop\n        /* \"#utility.yul\":13969:13989   */\n      tag_418\n        /* \"#utility.yul\":13987:13988   */\n      dup4\n        /* \"#utility.yul\":13969:13989   */\n      tag_239\n      jump\t// in\n    tag_418:\n        /* \"#utility.yul\":13964:13989   */\n      swap3\n      pop\n        /* \"#utility.yul\":14008:14009   */\n      dup3\n        /* \"#utility.yul\":13998:14033   */\n      tag_419\n      jumpi\n        /* \"#utility.yul\":14013:14031   */\n      tag_420\n      tag_271\n      jump\t// in\n    tag_420:\n        /* \"#utility.yul\":13998:14033   */\n    tag_419:\n        /* \"#utility.yul\":14055:14056   */\n      dup3\n        /* \"#utility.yul\":14052:14053   */\n      dup3\n        /* \"#utility.yul\":14048:14057   */\n      div\n        /* \"#utility.yul\":14043:14057   */\n      swap1\n      pop\n        /* \"#utility.yul\":13878:14063   */\n      swap3\n      swap2\n      pop\n      pop\n      jump\t// out\n        /* \"#utility.yul\":14069:14263   */\n    tag_90:\n        /* \"#utility.yul\":14109:14113   */\n      0x00\n        /* \"#utility.yul\":14129:14149   */\n      tag_422\n        /* \"#utility.yul\":14147:14148   */\n      dup3\n        /* \"#utility.yul\":14129:14149   */\n      tag_239\n      jump\t// in\n    tag_422:\n        /* \"#utility.yul\":14124:14149   */\n      swap2\n      pop\n        /* \"#utility.yul\":14163:14183   */\n      tag_423\n        /* \"#utility.yul\":14181:14182   */\n      dup4\n        /* \"#utility.yul\":14163:14183   */\n      tag_239\n      jump\t// in\n    tag_423:\n        /* \"#utility.yul\":14158:14183   */\n      swap3\n      pop\n        /* \"#utility.yul\":14207:14208   */\n      dup3\n        /* \"#utility.yul\":14204:14205   */\n      dup3\n        /* \"#utility.yul\":14200:14209   */\n      sub\n        /* \"#utility.yul\":14192:14209   */\n      swap1\n      pop\n        /* \"#utility.yul\":14231:14232   */\n      dup2\n        /* \"#utility.yul\":14225:14229   */\n      dup2\n        /* \"#utility.yul\":14222:14233   */\n      gt\n        /* \"#utility.yul\":14219:14256   */\n      iszero\n      tag_424\n      jumpi\n        /* \"#utility.yul\":14236:14254   */\n      tag_425\n      tag_270\n      jump\t// in\n    tag_425:\n        /* \"#utility.yul\":14219:14256   */\n    tag_424:\n        /* \"#utility.yul\":14069:14263   */\n      swap3\n      swap2\n      pop\n      pop\n      jump\t// out\n        /* \"#utility.yul\":14269:14460   */\n    tag_94:\n        /* \"#utility.yul\":14309:14312   */\n      0x00\n        /* \"#utility.yul\":14328:14348   */\n      tag_427\n        /* \"#utility.yul\":14346:14347   */\n      dup3\n        /* \"#utility.yul\":14328:14348   */\n      tag_239\n      jump\t// in\n    tag_427:\n        /* \"#utility.yul\":14323:14348   */\n      swap2\n      pop\n        /* \"#utility.yul\":14362:14382   */\n      tag_428\n        /* \"#utility.yul\":14380:14381   */\n      dup4\n        /* \"#utility.yul\":14362:14382   */\n      tag_239\n      jump\t// in\n    tag_428:\n        /* \"#utility.yul\":14357:14382   */\n      swap3\n      pop\n        /* \"#utility.yul\":14405:14406   */\n      dup3\n        /* \"#utility.yul\":14402:14403   */\n      dup3\n        /* \"#utility.yul\":14398:14407   */\n      add\n        /* \"#utility.yul\":14391:14407   */\n      swap1\n      pop\n        /* \"#utility.yul\":14426:14429   */\n      dup1\n        /* \"#utility.yul\":14423:14424   */\n      dup3\n        /* \"#utility.yul\":14420:14430   */\n      gt\n        /* \"#utility.yul\":14417:14453   */\n      iszero\n      tag_429\n      jumpi\n        /* \"#utility.yul\":14433:14451   */\n      tag_430\n      tag_270\n      jump\t// in\n    tag_430:\n        /* \"#utility.yul\":14417:14453   */\n    tag_429:\n        /* \"#utility.yul\":14269:14460   */\n      swap3\n      swap2\n      pop\n      pop\n      jump\t// out\n        /* \"#utility.yul\":14466:14798   */\n    tag_99:\n        /* \"#utility.yul\":14587:14591   */\n      0x00\n        /* \"#utility.yul\":14625:14627   */\n      0x40\n        /* \"#utility.yul\":14614:14623   */\n      dup3\n        /* \"#utility.yul\":14610:14628   */\n      add\n        /* \"#utility.yul\":14602:14628   */\n      swap1\n      pop\n        /* \"#utility.yul\":14638:14709   */\n      tag_432\n        /* \"#utility.yul\":14706:14707   */\n      0x00\n        /* \"#utility.yul\":14695:14704   */\n      dup4\n        /* \"#utility.yul\":14691:14708   */\n      add\n        /* \"#utility.yul\":14682:14688   */\n      dup6\n        /* \"#utility.yul\":14638:14709   */\n      tag_242\n      jump\t// in\n    tag_432:\n        /* \"#utility.yul\":14719:14791   */\n      tag_433\n        /* \"#utility.yul\":14787:14789   */\n      0x20\n        /* \"#utility.yul\":14776:14785   */\n      dup4\n        /* \"#utility.yul\":14772:14790   */\n      add\n        /* \"#utility.yul\":14763:14769   */\n      dup5\n        /* \"#utility.yul\":14719:14791   */\n      tag_240\n      jump\t// in\n    tag_433:\n        /* \"#utility.yul\":14466:14798   */\n      swap4\n      swap3\n      pop\n      pop\n      pop\n      jump\t// out\n        /* \"#utility.yul\":14804:14941   */\n    tag_272:\n        /* \"#utility.yul\":14858:14863   */\n      0x00\n        /* \"#utility.yul\":14889:14895   */\n      dup2\n        /* \"#utility.yul\":14883:14896   */\n      mload\n        /* \"#utility.yul\":14874:14896   */\n      swap1\n      pop\n        /* \"#utility.yul\":14905:14935   */\n      tag_435\n        /* \"#utility.yul\":14929:14934   */\n      dup2\n        /* \"#utility.yul\":14905:14935   */\n      tag_257\n      jump\t// in\n    tag_435:\n        /* \"#utility.yul\":14804:14941   */\n      swap3\n      swap2\n      pop\n      pop\n      jump\t// out\n        /* \"#utility.yul\":14947:15292   */\n    tag_103:\n        /* \"#utility.yul\":15014:15020   */\n      0x00\n        /* \"#utility.yul\":15063:15065   */\n      0x20\n        /* \"#utility.yul\":15051:15060   */\n      dup3\n        /* \"#utility.yul\":15042:15049   */\n      dup5\n        /* \"#utility.yul\":15038:15061   */\n      sub\n        /* \"#utility.yul\":15034:15066   */\n      slt\n        /* \"#utility.yul\":15031:15150   */\n      iszero\n      tag_437\n      jumpi\n        /* \"#utility.yul\":15069:15148   */\n      tag_438\n      tag_246\n      jump\t// in\n    tag_438:\n        /* \"#utility.yul\":15031:15150   */\n    tag_437:\n        /* \"#utility.yul\":15189:15190   */\n      0x00\n        /* \"#utility.yul\":15214:15275   */\n      tag_439\n        /* \"#utility.yul\":15267:15274   */\n      dup5\n        /* \"#utility.yul\":15258:15264   */\n      dup3\n        /* \"#utility.yul\":15247:15256   */\n      dup6\n        /* \"#utility.yul\":15243:15265   */\n      add\n        /* \"#utility.yul\":15214:15275   */\n      tag_272\n      jump\t// in\n    tag_439:\n        /* \"#utility.yul\":15204:15275   */\n      swap2\n      pop\n        /* \"#utility.yul\":15160:15285   */\n      pop\n        /* \"#utility.yul\":14947:15292   */\n      swap3\n      swap2\n      pop\n      pop\n      jump\t// out\n        /* \"#utility.yul\":15298:15740   */\n    tag_105:\n        /* \"#utility.yul\":15447:15451   */\n      0x00\n        /* \"#utility.yul\":15485:15487   */\n      0x60\n        /* \"#utility.yul\":15474:15483   */\n      dup3\n        /* \"#utility.yul\":15470:15488   */\n      add\n        /* \"#utility.yul\":15462:15488   */\n      swap1\n      pop\n        /* \"#utility.yul\":15498:15569   */\n      tag_441\n        /* \"#utility.yul\":15566:15567   */\n      0x00\n        /* \"#utility.yul\":15555:15564   */\n      dup4\n        /* \"#utility.yul\":15551:15568   */\n      add\n        /* \"#utility.yul\":15542:15548   */\n      dup7\n        /* \"#utility.yul\":15498:15569   */\n      tag_240\n      jump\t// in\n    tag_441:\n        /* \"#utility.yul\":15579:15651   */\n      tag_442\n        /* \"#utility.yul\":15647:15649   */\n      0x20\n        /* \"#utility.yul\":15636:15645   */\n      dup4\n        /* \"#utility.yul\":15632:15650   */\n      add\n        /* \"#utility.yul\":15623:15629   */\n      dup6\n        /* \"#utility.yul\":15579:15651   */\n      tag_240\n      jump\t// in\n    tag_442:\n        /* \"#utility.yul\":15661:15733   */\n      tag_443\n        /* \"#utility.yul\":15729:15731   */\n      0x40\n        /* \"#utility.yul\":15718:15727   */\n      dup4\n        /* \"#utility.yul\":15714:15732   */\n      add\n        /* \"#utility.yul\":15705:15711   */\n      dup5\n        /* \"#utility.yul\":15661:15733   */\n      tag_240\n      jump\t// in\n    tag_443:\n        /* \"#utility.yul\":15298:15740   */\n      swap5\n      swap4\n      pop\n      pop\n      pop\n      pop\n      jump\t// out\n        /* \"#utility.yul\":15746:15922   */\n    tag_273:\n        /* \"#utility.yul\":15886:15914   */\n      0x4465706f73697420657863656564732075736572206c696d6974000000000000\n        /* \"#utility.yul\":15882:15883   */\n      0x00\n        /* \"#utility.yul\":15874:15880   */\n      dup3\n        /* \"#utility.yul\":15870:15884   */\n      add\n        /* \"#utility.yul\":15863:15915   */\n      mstore\n        /* \"#utility.yul\":15746:15922   */\n      pop\n      jump\t// out\n        /* \"#utility.yul\":15928:16294   */\n    tag_274:\n        /* \"#utility.yul\":16070:16073   */\n      0x00\n        /* \"#utility.yul\":16091:16158   */\n      tag_446\n        /* \"#utility.yul\":16155:16157   */\n      0x1a\n        /* \"#utility.yul\":16150:16153   */\n      dup4\n        /* \"#utility.yul\":16091:16158   */\n      tag_261\n      jump\t// in\n    tag_446:\n        /* \"#utility.yul\":16084:16158   */\n      swap2\n      pop\n        /* \"#utility.yul\":16167:16260   */\n      tag_447\n        /* \"#utility.yul\":16256:16259   */\n      dup3\n        /* \"#utility.yul\":16167:16260   */\n      tag_273\n      jump\t// in\n    tag_447:\n        /* \"#utility.yul\":16285:16287   */\n      0x20\n        /* \"#utility.yul\":16280:16283   */\n      dup3\n        /* \"#utility.yul\":16276:16288   */\n      add\n        /* \"#utility.yul\":16269:16288   */\n      swap1\n      pop\n        /* \"#utility.yul\":15928:16294   */\n      swap2\n      swap1\n      pop\n      jump\t// out\n        /* \"#utility.yul\":16300:16719   */\n    tag_119:\n        /* \"#utility.yul\":16466:16470   */\n      0x00\n        /* \"#utility.yul\":16504:16506   */\n      0x20\n        /* \"#utility.yul\":16493:16502   */\n      dup3\n        /* \"#utility.yul\":16489:16507   */\n      add\n        /* \"#utility.yul\":16481:16507   */\n      swap1\n      pop\n        /* \"#utility.yul\":16553:16562   */\n      dup2\n        /* \"#utility.yul\":16547:16551   */\n      dup2\n        /* \"#utility.yul\":16543:16563   */\n      sub\n        /* \"#utility.yul\":16539:16540   */\n      0x00\n        /* \"#utility.yul\":16528:16537   */\n      dup4\n        /* \"#utility.yul\":16524:16541   */\n      add\n        /* \"#utility.yul\":16517:16564   */\n      mstore\n        /* \"#utility.yul\":16581:16712   */\n      tag_449\n        /* \"#utility.yul\":16707:16711   */\n      dup2\n        /* \"#utility.yul\":16581:16712   */\n      tag_274\n      jump\t// in\n    tag_449:\n        /* \"#utility.yul\":16573:16712   */\n      swap1\n      pop\n        /* \"#utility.yul\":16300:16719   */\n      swap2\n      swap1\n      pop\n      jump\t// out\n        /* \"#utility.yul\":16725:16898   */\n    tag_275:\n        /* \"#utility.yul\":16865:16890   */\n      0x506f6f6c206c6971756964697479206578636565646564000000000000000000\n        /* \"#utility.yul\":16861:16862   */\n      0x00\n        /* \"#utility.yul\":16853:16859   */\n      dup3\n        /* \"#utility.yul\":16849:16863   */\n      add\n        /* \"#utility.yul\":16842:16891   */\n      mstore\n        /* \"#utility.yul\":16725:16898   */\n      pop\n      jump\t// out\n        /* \"#utility.yul\":16904:17270   */\n    tag_276:\n        /* \"#utility.yul\":17046:17049   */\n      0x00\n        /* \"#utility.yul\":17067:17134   */\n      tag_452\n        /* \"#utility.yul\":17131:17133   */\n      0x17\n        /* \"#utility.yul\":17126:17129   */\n      dup4\n        /* \"#utility.yul\":17067:17134   */\n      tag_261\n      jump\t// in\n    tag_452:\n        /* \"#utility.yul\":17060:17134   */\n      swap2\n      pop\n        /* \"#utility.yul\":17143:17236   */\n      tag_453\n        /* \"#utility.yul\":17232:17235   */\n      dup3\n        /* \"#utility.yul\":17143:17236   */\n      tag_275\n      jump\t// in\n    tag_453:\n        /* \"#utility.yul\":17261:17263   */\n      0x20\n        /* \"#utility.yul\":17256:17259   */\n      dup3\n        /* \"#utility.yul\":17252:17264   */\n      add\n        /* \"#utility.yul\":17245:17264   */\n      swap1\n      pop\n        /* \"#utility.yul\":16904:17270   */\n      swap2\n      swap1\n      pop\n      jump\t// out\n        /* \"#utility.yul\":17276:17695   */\n    tag_123:\n        /* \"#utility.yul\":17442:17446   */\n      0x00\n        /* \"#utility.yul\":17480:17482   */\n      0x20\n        /* \"#utility.yul\":17469:17478   */\n      dup3\n        /* \"#utility.yul\":17465:17483   */\n      add\n        /* \"#utility.yul\":17457:17483   */\n      swap1\n      pop\n        /* \"#utility.yul\":17529:17538   */\n      dup2\n        /* \"#utility.yul\":17523:17527   */\n      dup2\n        /* \"#utility.yul\":17519:17539   */\n      sub\n        /* \"#utility.yul\":17515:17516   */\n      0x00\n        /* \"#utility.yul\":17504:17513   */\n      dup4\n        /* \"#utility.yul\":17500:17517   */\n      add\n        /* \"#utility.yul\":17493:17540   */\n      mstore\n        /* \"#utility.yul\":17557:17688   */\n      tag_455\n        /* \"#utility.yul\":17683:17687   */\n      dup2\n        /* \"#utility.yul\":17557:17688   */\n      tag_276\n      jump\t// in\n    tag_455:\n        /* \"#utility.yul\":17549:17688   */\n      swap1\n      pop\n        /* \"#utility.yul\":17276:17695   */\n      swap2\n      swap1\n      pop\n      jump\t// out\n        /* \"#utility.yul\":17701:18143   */\n    tag_141:\n        /* \"#utility.yul\":17850:17854   */\n      0x00\n        /* \"#utility.yul\":17888:17890   */\n      0x60\n        /* \"#utility.yul\":17877:17886   */\n      dup3\n        /* \"#utility.yul\":17873:17891   */\n      add\n        /* \"#utility.yul\":17865:17891   */\n      swap1\n      pop\n        /* \"#utility.yul\":17901:17972   */\n      tag_457\n        /* \"#utility.yul\":17969:17970   */\n      0x00\n        /* \"#utility.yul\":17958:17967   */\n      dup4\n        /* \"#utility.yul\":17954:17971   */\n      add\n        /* \"#utility.yul\":17945:17951   */\n      dup7\n        /* \"#utility.yul\":17901:17972   */\n      tag_242\n      jump\t// in\n    tag_457:\n        /* \"#utility.yul\":17982:18054   */\n      tag_458\n        /* \"#utility.yul\":18050:18052   */\n      0x20\n        /* \"#utility.yul\":18039:18048   */\n      dup4\n        /* \"#utility.yul\":18035:18053   */\n      add\n        /* \"#utility.yul\":18026:18032   */\n      dup6\n        /* \"#utility.yul\":17982:18054   */\n      tag_242\n      jump\t// in\n    tag_458:\n        /* \"#utility.yul\":18064:18136   */\n      tag_459\n        /* \"#utility.yul\":18132:18134   */\n      0x40\n        /* \"#utility.yul\":18121:18130   */\n      dup4\n        /* \"#utility.yul\":18117:18135   */\n      add\n        /* \"#utility.yul\":18108:18114   */\n      dup5\n        /* \"#utility.yul\":18064:18136   */\n      tag_240\n      jump\t// in\n    tag_459:\n        /* \"#utility.yul\":17701:18143   */\n      swap5\n      swap4\n      pop\n      pop\n      pop\n      pop\n      jump\t// out\n        /* \"#utility.yul\":18149:18579   */\n    tag_146:\n        /* \"#utility.yul\":18292:18296   */\n      0x00\n        /* \"#utility.yul\":18330:18332   */\n      0x60\n        /* \"#utility.yul\":18319:18328   */\n      dup3\n        /* \"#utility.yul\":18315:18333   */\n      add\n        /* \"#utility.yul\":18307:18333   */\n      swap1\n      pop\n        /* \"#utility.yul\":18343:18414   */\n      tag_461\n        /* \"#utility.yul\":18411:18412   */\n      0x00\n        /* \"#utility.yul\":18400:18409   */\n      dup4\n        /* \"#utility.yul\":18396:18413   */\n      add\n        /* \"#utility.yul\":18387:18393   */\n      dup7\n        /* \"#utility.yul\":18343:18414   */\n      tag_240\n      jump\t// in\n    tag_461:\n        /* \"#utility.yul\":18424:18496   */\n      tag_462\n        /* \"#utility.yul\":18492:18494   */\n      0x20\n        /* \"#utility.yul\":18481:18490   */\n      dup4\n        /* \"#utility.yul\":18477:18495   */\n      add\n        /* \"#utility.yul\":18468:18474   */\n      dup6\n        /* \"#utility.yul\":18424:18496   */\n      tag_240\n      jump\t// in\n    tag_462:\n        /* \"#utility.yul\":18506:18572   */\n      tag_463\n        /* \"#utility.yul\":18568:18570   */\n      0x40\n        /* \"#utility.yul\":18557:18566   */\n      dup4\n        /* \"#utility.yul\":18553:18571   */\n      add\n        /* \"#utility.yul\":18544:18550   */\n      dup5\n        /* \"#utility.yul\":18506:18572   */\n      tag_244\n      jump\t// in\n    tag_463:\n        /* \"#utility.yul\":18149:18579   */\n      swap5\n      swap4\n      pop\n      pop\n      pop\n      pop\n      jump\t// out\n        /* \"#utility.yul\":18585:18756   */\n    tag_277:\n        /* \"#utility.yul\":18725:18748   */\n      0x4e6f206665657320746f20646973747269627574650000000000000000000000\n        /* \"#utility.yul\":18721:18722   */\n      0x00\n        /* \"#utility.yul\":18713:18719   */\n      dup3\n        /* \"#utility.yul\":18709:18723   */\n      add\n        /* \"#utility.yul\":18702:18749   */\n      mstore\n        /* \"#utility.yul\":18585:18756   */\n      pop\n      jump\t// out\n        /* \"#utility.yul\":18762:19128   */\n    tag_278:\n        /* \"#utility.yul\":18904:18907   */\n      0x00\n        /* \"#utility.yul\":18925:18992   */\n      tag_466\n        /* \"#utility.yul\":18989:18991   */\n      0x15\n        /* \"#utility.yul\":18984:18987   */\n      dup4\n        /* \"#utility.yul\":18925:18992   */\n      tag_261\n      jump\t// in\n    tag_466:\n        /* \"#utility.yul\":18918:18992   */\n      swap2\n      pop\n        /* \"#utility.yul\":19001:19094   */\n      tag_467\n        /* \"#utility.yul\":19090:19093   */\n      dup3\n        /* \"#utility.yul\":19001:19094   */\n      tag_277\n      jump\t// in\n    tag_467:\n        /* \"#utility.yul\":19119:19121   */\n      0x20\n        /* \"#utility.yul\":19114:19117   */\n      dup3\n        /* \"#utility.yul\":19110:19122   */\n      add\n        /* \"#utility.yul\":19103:19122   */\n      swap1\n      pop\n        /* \"#utility.yul\":18762:19128   */\n      swap2\n      swap1\n      pop\n      jump\t// out\n        /* \"#utility.yul\":19134:19553   */\n    tag_159:\n        /* \"#utility.yul\":19300:19304   */\n      0x00\n        /* \"#utility.yul\":19338:19340   */\n      0x20\n        /* \"#utility.yul\":19327:19336   */\n      dup3\n        /* \"#utility.yul\":19323:19341   */\n      add\n        /* \"#utility.yul\":19315:19341   */\n      swap1\n      pop\n        /* \"#utility.yul\":19387:19396   */\n      dup2\n        /* \"#utility.yul\":19381:19385   */\n      dup2\n        /* \"#utility.yul\":19377:19397   */\n      sub\n        /* \"#utility.yul\":19373:19374   */\n      0x00\n        /* \"#utility.yul\":19362:19371   */\n      dup4\n        /* \"#utility.yul\":19358:19375   */\n      add\n        /* \"#utility.yul\":19351:19398   */\n      mstore\n        /* \"#utility.yul\":19415:19546   */\n      tag_469\n        /* \"#utility.yul\":19541:19545   */\n      dup2\n        /* \"#utility.yul\":19415:19546   */\n      tag_278\n      jump\t// in\n    tag_469:\n        /* \"#utility.yul\":19407:19546   */\n      swap1\n      pop\n        /* \"#utility.yul\":19134:19553   */\n      swap2\n      swap1\n      pop\n      jump\t// out\n        /* \"#utility.yul\":19559:19739   */\n    tag_165:\n        /* \"#utility.yul\":19607:19684   */\n      0x4e487b7100000000000000000000000000000000000000000000000000000000\n        /* \"#utility.yul\":19604:19605   */\n      0x00\n        /* \"#utility.yul\":19597:19685   */\n      mstore\n        /* \"#utility.yul\":19704:19708   */\n      0x32\n        /* \"#utility.yul\":19701:19702   */\n      0x04\n        /* \"#utility.yul\":19694:19709   */\n      mstore\n        /* \"#utility.yul\":19728:19732   */\n      0x24\n        /* \"#utility.yul\":19725:19726   */\n      0x00\n        /* \"#utility.yul\":19718:19733   */\n      revert\n        /* \"#utility.yul\":19745:19955   */\n    tag_185:\n        /* \"#utility.yul\":19832:19836   */\n      0x00\n        /* \"#utility.yul\":19870:19872   */\n      0x20\n        /* \"#utility.yul\":19859:19868   */\n      dup3\n        /* \"#utility.yul\":19855:19873   */\n      add\n        /* \"#utility.yul\":19847:19873   */\n      swap1\n      pop\n        /* \"#utility.yul\":19883:19948   */\n      tag_472\n        /* \"#utility.yul\":19945:19946   */\n      0x00\n        /* \"#utility.yul\":19934:19943   */\n      dup4\n        /* \"#utility.yul\":19930:19947   */\n      add\n        /* \"#utility.yul\":19921:19927   */\n      dup5\n        /* \"#utility.yul\":19883:19948   */\n      tag_244\n      jump\t// in\n    tag_472:\n        /* \"#utility.yul\":19745:19955   */\n      swap3\n      swap2\n      pop\n      pop\n      jump\t// out\n        /* \"#utility.yul\":19961:20130   */\n    tag_279:\n        /* \"#utility.yul\":20101:20122   */\n      0x4e6f7468696e6720746f20776974686472617700000000000000000000000000\n        /* \"#utility.yul\":20097:20098   */\n      0x00\n        /* \"#utility.yul\":20089:20095   */\n      dup3\n        /* \"#utility.yul\":20085:20099   */\n      add\n        /* \"#utility.yul\":20078:20123   */\n      mstore\n        /* \"#utility.yul\":19961:20130   */\n      pop\n      jump\t// out\n        /* \"#utility.yul\":20136:20502   */\n    tag_280:\n        /* \"#utility.yul\":20278:20281   */\n      0x00\n        /* \"#utility.yul\":20299:20366   */\n      tag_475\n        /* \"#utility.yul\":20363:20365   */\n      0x13\n        /* \"#utility.yul\":20358:20361   */\n      dup4\n        /* \"#utility.yul\":20299:20366   */\n      tag_261\n      jump\t// in\n    tag_475:\n        /* \"#utility.yul\":20292:20366   */\n      swap2\n      pop\n        /* \"#utility.yul\":20375:20468   */\n      tag_476\n        /* \"#utility.yul\":20464:20467   */\n      dup3\n        /* \"#utility.yul\":20375:20468   */\n      tag_279\n      jump\t// in\n    tag_476:\n        /* \"#utility.yul\":20493:20495   */\n      0x20\n        /* \"#utility.yul\":20488:20491   */\n      dup3\n        /* \"#utility.yul\":20484:20496   */\n      add\n        /* \"#utility.yul\":20477:20496   */\n      swap1\n      pop\n        /* \"#utility.yul\":20136:20502   */\n      swap2\n      swap1\n      pop\n      jump\t// out\n        /* \"#utility.yul\":20508:20927   */\n    tag_189:\n        /* \"#utility.yul\":20674:20678   */\n      0x00\n        /* \"#utility.yul\":20712:20714   */\n      0x20\n        /* \"#utility.yul\":20701:20710   */\n      dup3\n        /* \"#utility.yul\":20697:20715   */\n      add\n        /* \"#utility.yul\":20689:20715   */\n      swap1\n      pop\n        /* \"#utility.yul\":20761:20770   */\n      dup2\n        /* \"#utility.yul\":20755:20759   */\n      dup2\n        /* \"#utility.yul\":20751:20771   */\n      sub\n        /* \"#utility.yul\":20747:20748   */\n      0x00\n        /* \"#utility.yul\":20736:20745   */\n      dup4\n        /* \"#utility.yul\":20732:20749   */\n      add\n        /* \"#utility.yul\":20725:20772   */\n      mstore\n        /* \"#utility.yul\":20789:20920   */\n      tag_478\n        /* \"#utility.yul\":20915:20919   */\n      dup2\n        /* \"#utility.yul\":20789:20920   */\n      tag_280\n      jump\t// in\n    tag_478:\n        /* \"#utility.yul\":20781:20920   */\n      swap1\n      pop\n        /* \"#utility.yul\":20508:20927   */\n      swap2\n      swap1\n      pop\n      jump\t// out\n        /* \"#utility.yul\":20933:21113   */\n    tag_222:\n        /* \"#utility.yul\":20981:21058   */\n      0x4e487b7100000000000000000000000000000000000000000000000000000000\n        /* \"#utility.yul\":20978:20979   */\n      0x00\n        /* \"#utility.yul\":20971:21059   */\n      mstore\n        /* \"#utility.yul\":21078:21082   */\n      0x31\n        /* \"#utility.yul\":21075:21076   */\n      0x04\n        /* \"#utility.yul\":21068:21083   */\n      mstore\n        /* \"#utility.yul\":21102:21106   */\n      0x24\n        /* \"#utility.yul\":21099:21100   */\n      0x00\n        /* \"#utility.yul\":21092:21107   */\n      revert\n\n    auxdata: 0xa26469706673582212204c04c040478d62134fbb34bb5273c481fbfe2b010b99bac8363e692c8d94d9dd64736f6c634300081c0033\n}\n",
				"bytecode": {
					"linkReferences": {},
					"object": "608060405234801561000f575f5ffd5b50604051612182380380612182833981810160405281019061003191906102f0565b335f73ffffffffffffffffffffffffffffffffffffffff168173ffffffffffffffffffffffffffffffffffffffff16036100a2575f6040517f1e4fbdf70000000000000000000000000000000000000000000000000000000081526004016100999190610363565b60405180910390fd5b6100b18161019e60201b60201c565b508360015f015f6101000a81548173ffffffffffffffffffffffffffffffffffffffff021916908373ffffffffffffffffffffffffffffffffffffffff1602179055508260016002018190555081600160080181905550806001600901819055506002600160030181905550426001600401819055505f6001600a015f6101000a81548160ff0219169083151502179055508373ffffffffffffffffffffffffffffffffffffffff167fa01a0f6e4e9c79d39a9015dae1a9d6b2fc1ea5f20bc39c9f8c2e42e680ab26e284848460405161018d9392919061038b565b60405180910390a2505050506103c0565b5f5f5f9054906101000a900473ffffffffffffffffffffffffffffffffffffffff169050815f5f6101000a81548173ffffffffffffffffffffffffffffffffffffffff021916908373ffffffffffffffffffffffffffffffffffffffff1602179055508173ffffffffffffffffffffffffffffffffffffffff168173ffffffffffffffffffffffffffffffffffffffff167f8be0079c531659141344cd1fd0a4f28419497f9722a3daafe3b4186f6b6457e060405160405180910390a35050565b5f5ffd5b5f73ffffffffffffffffffffffffffffffffffffffff82169050919050565b5f61028c82610263565b9050919050565b61029c81610282565b81146102a6575f5ffd5b50565b5f815190506102b781610293565b92915050565b5f819050919050565b6102cf816102bd565b81146102d9575f5ffd5b50565b5f815190506102ea816102c6565b92915050565b5f5f5f5f608085870312156103085761030761025f565b5b5f610315878288016102a9565b9450506020610326878288016102dc565b9350506040610337878288016102dc565b9250506060610348878288016102dc565b91505092959194509250565b61035d81610282565b82525050565b5f6020820190506103765f830184610354565b92915050565b610385816102bd565b82525050565b5f60608201905061039e5f83018661037c565b6103ab602083018561037c565b6103b8604083018461037c565b949350505050565b611db5806103cd5f395ff3fe608060405234801561000f575f5ffd5b50600436106100e8575f3560e01c8063ae2e933b1161008a578063c4ae316811610064578063c4ae31681461021d578063db2e21bc14610227578063f2fde38b14610231578063fd5e6dd11461024d576100e8565b8063ae2e933b146101c5578063bb57ad20146101e3578063bf5cf656146101ed576100e8565b8063447da8a6116100c6578063447da8a61461014e578063613cf4201461016a578063715018a61461019d5780638da5cb5b146101a7576100e8565b806316f0115b146100ec5780632e1a7d4d1461011457806343352d6114610130575b5f5ffd5b6100f461027d565b60405161010b9b9a99989796959493929190611405565b60405180910390f35b61012e600480360381019061012991906114dc565b61030e565b005b6101386105f6565b60405161014591906115be565b60405180910390f35b61016860048036038101906101639190611608565b610681565b005b610184600480360381019061017f9190611682565b610b22565b60405161019494939291906116ad565b60405180910390f35b6101a5610b4e565b005b6101af610b61565b6040516101bc91906116f0565b60405180910390f35b6101cd610b88565b6040516101da9190611709565b60405180910390f35b6101eb610b8e565b005b61020760048036038101906102029190611722565b610cfc565b6040516102149190611709565b60405180910390f35b610225610d83565b005b61022f610e03565b005b61024b60048036038101906102469190611682565b610fab565b005b610267600480360381019061026291906114dc565b61102f565b60405161027491906116f0565b60405180910390f35b6001805f015f9054906101000a900473ffffffffffffffffffffffffffffffffffffffff1690806001015490806002015490806003015490806004015490806005015f9054906101000a900473ffffffffffffffffffffffffffffffffffffffff169080600601549080600701549080600801549080600901549080600a015f9054906101000a900460ff1690508b565b6001600a015f9054906101000a900460ff1615610360576040517f08c379a0000000000000000000000000000000000000000000000000000000008152600401610357906117e0565b60405180910390fd5b805f81116103a3576040517f08c379a000000000000000000000000000000000000000000000000000000000815260040161039a90611848565b60405180910390fd5b5f600c5f3373ffffffffffffffffffffffffffffffffffffffff1673ffffffffffffffffffffffffffffffffffffffff1681526020019081526020015f20905082815f01541015610429576040517f08c379a0000000000000000000000000000000000000000000000000000000008152600401610420906118b0565b60405180910390fd5b8060020154421015610470576040517f08c379a000000000000000000000000000000000000000000000000000000000815260040161046790611918565b60405180910390fd5b5f6064600160030154856104849190611963565b61048e91906119d1565b90505f818561049d9190611a01565b905084835f015f8282546104b19190611a01565b9250508190555084600180015f8282546104cb9190611a01565b9250508190555081600e5f8282546104e39190611a34565b925050819055505f835f0154036104fe576104fd3361106a565b5b60015f015f9054906101000a900473ffffffffffffffffffffffffffffffffffffffff1673ffffffffffffffffffffffffffffffffffffffff1663a9059cbb33836040518363ffffffff1660e01b815260040161055c929190611a67565b6020604051808303815f875af1158015610578573d5f5f3e3d5ffd5b505050506040513d601f19601f8201168201806040525081019061059c9190611aa2565b503373ffffffffffffffffffffffffffffffffffffffff167f75e161b3e824b114fc1a33274bd7091918dd4e639cede50b78b15a4eea956a218284426040516105e793929190611acd565b60405180910390a25050505050565b6060600d80548060200260200160405190810160405280929190818152602001828054801561067757602002820191905f5260205f20905b815f9054906101000a900473ffffffffffffffffffffffffffffffffffffffff1673ffffffffffffffffffffffffffffffffffffffff168152602001906001019080831161062e575b5050505050905090565b6001600a015f9054906101000a900460ff16156106d3576040517f08c379a00000000000000000000000000000000000000000000000000000000081526004016106ca906117e0565b60405180910390fd5b825f8111610716576040517f08c379a000000000000000000000000000000000000000000000000000000000815260040161070d90611848565b60405180910390fd5b5f600c5f3373ffffffffffffffffffffffffffffffffffffffff1673ffffffffffffffffffffffffffffffffffffffff1681526020019081526020015f20905060016008015485825f015461076b9190611a34565b11156107ac576040517f08c379a00000000000000000000000000000000000000000000000000000000081526004016107a390611b4c565b60405180910390fd5b6001600901548560018001546107c29190611a34565b1115610803576040517f08c379a00000000000000000000000000000000000000000000000000000000081526004016107fa90611bb4565b60405180910390fd5b5f815f01540361086e57600d33908060018154018082558091505060019003905f5260205f20015f9091909190916101000a81548173ffffffffffffffffffffffffffffffffffffffff021916908373ffffffffffffffffffffffffffffffffffffffff1602179055505b84815f015f8282546108809190611a34565b925050819055504281600101819055505f8311156108ad5782426108a49190611a34565b81600201819055505b84600180015f8282546108c09190611a34565b925050819055505f6108e5825f01548360010154600160040154600160020154610cfc565b9050841561090b5780825f015f8282546108ff9190611a34565b925050819055506109ab565b60015f015f9054906101000a900473ffffffffffffffffffffffffffffffffffffffff1673ffffffffffffffffffffffffffffffffffffffff1663a9059cbb33836040518363ffffffff1660e01b8152600401610969929190611a67565b6020604051808303815f875af1158015610985573d5f5f3e3d5ffd5b505050506040513d601f19601f820116820180604052508101906109a99190611aa2565b505b8060016007015f8282546109bf9190611a34565b92505081905550600160060154825f01541115610a27573360016005015f6101000a81548173ffffffffffffffffffffffffffffffffffffffff021916908373ffffffffffffffffffffffffffffffffffffffff160217905550815f01546001600601819055505b60015f015f9054906101000a900473ffffffffffffffffffffffffffffffffffffffff1673ffffffffffffffffffffffffffffffffffffffff166323b872dd3330896040518463ffffffff1660e01b8152600401610a8793929190611bd2565b6020604051808303815f875af1158015610aa3573d5f5f3e3d5ffd5b505050506040513d601f19601f82011682018060405250810190610ac79190611aa2565b503373ffffffffffffffffffffffffffffffffffffffff167f3df45cb339f96ae4bdb793efcb6e22100dd0dc4fd739a4ee2033fe67ea35af96878388604051610b1293929190611c07565b60405180910390a2505050505050565b600c602052805f5260405f205f91509050805f0154908060010154908060020154908060030154905084565b610b566111ea565b610b5f5f611271565b565b5f5f5f9054906101000a900473ffffffffffffffffffffffffffffffffffffffff16905090565b600e5481565b610b966111ea565b5f600e5490505f8111610bde576040517f08c379a0000000000000000000000000000000000000000000000000000000008152600401610bd590611c86565b60405180910390fd5b5f5f90505b600d80549050811015610cba575f600d8281548110610c0557610c04611ca4565b5b905f5260205f20015f9054906101000a900473ffffffffffffffffffffffffffffffffffffffff1690505f600c5f8373ffffffffffffffffffffffffffffffffffffffff1673ffffffffffffffffffffffffffffffffffffffff1681526020019081526020015f2090505f600180015485835f0154610c849190611963565b610c8e91906119d1565b905080826003015f828254610ca39190611a34565b925050819055505050508080600101915050610be3565b505f600e819055507f8959421a1320789a49eeec01a4750caf8a30733c3db14f000d84484df89300f981604051610cf19190611709565b60405180910390a150565b5f5f8342610d0a9190611a01565b90505f6201518082610d1c91906119d1565b6064610d289190611a34565b90505f6103e888610d3991906119d1565b6064610d459190611a34565b90506127108582848b610d589190611963565b610d629190611963565b610d6c9190611963565b610d7691906119d1565b9350505050949350505050565b610d8b6111ea565b6001600a015f9054906101000a900460ff16156001600a015f6101000a81548160ff0219169083151502179055507fbd466af87c4fabd1fa3d061817020a39c29d7986649f582f9f405c8eb8aa7c0b6001600a015f9054906101000a900460ff16604051610df99190611cd1565b60405180910390a1565b5f600c5f3373ffffffffffffffffffffffffffffffffffffffff1673ffffffffffffffffffffffffffffffffffffffff1681526020019081526020015f2090505f815f015411610e88576040517f08c379a0000000000000000000000000000000000000000000000000000000008152600401610e7f90611d34565b60405180910390fd5b5f815f015490505f825f018190555080600180015f828254610eaa9190611a01565b92505081905550610eba3361106a565b60015f015f9054906101000a900473ffffffffffffffffffffffffffffffffffffffff1673ffffffffffffffffffffffffffffffffffffffff1663a9059cbb33836040518363ffffffff1660e01b8152600401610f18929190611a67565b6020604051808303815f875af1158015610f34573d5f5f3e3d5ffd5b505050506040513d601f19601f82011682018060405250810190610f589190611aa2565b503373ffffffffffffffffffffffffffffffffffffffff167f23d6711a1d031134a36921253c75aa59e967d38e369ac625992824315e204f2082604051610f9f9190611709565b60405180910390a25050565b610fb36111ea565b5f73ffffffffffffffffffffffffffffffffffffffff168173ffffffffffffffffffffffffffffffffffffffff1603611023575f6040517f1e4fbdf700000000000000000000000000000000000000000000000000000000815260040161101a91906116f0565b60405180910390fd5b61102c81611271565b50565b600d818154811061103e575f80fd5b905f5260205f20015f915054906101000a900473ffffffffffffffffffffffffffffffffffffffff1681565b5f5f90505b600d805490508110156111e6578173ffffffffffffffffffffffffffffffffffffffff16600d82815481106110a7576110a6611ca4565b5b905f5260205f20015f9054906101000a900473ffffffffffffffffffffffffffffffffffffffff1673ffffffffffffffffffffffffffffffffffffffff16036111d957600d6001600d805490506110fe9190611a01565b8154811061110f5761110e611ca4565b5b905f5260205f20015f9054906101000a900473ffffffffffffffffffffffffffffffffffffffff16600d828154811061114b5761114a611ca4565b5b905f5260205f20015f6101000a81548173ffffffffffffffffffffffffffffffffffffffff021916908373ffffffffffffffffffffffffffffffffffffffff160217905550600d8054806111a2576111a1611d52565b5b600190038181905f5260205f20015f6101000a81549073ffffffffffffffffffffffffffffffffffffffff021916905590556111e6565b808060010191505061106f565b5050565b6111f2611332565b73ffffffffffffffffffffffffffffffffffffffff16611210610b61565b73ffffffffffffffffffffffffffffffffffffffff161461126f57611233611332565b6040517f118cdaa700000000000000000000000000000000000000000000000000000000815260040161126691906116f0565b60405180910390fd5b565b5f5f5f9054906101000a900473ffffffffffffffffffffffffffffffffffffffff169050815f5f6101000a81548173ffffffffffffffffffffffffffffffffffffffff021916908373ffffffffffffffffffffffffffffffffffffffff1602179055508173ffffffffffffffffffffffffffffffffffffffff168173ffffffffffffffffffffffffffffffffffffffff167f8be0079c531659141344cd1fd0a4f28419497f9722a3daafe3b4186f6b6457e060405160405180910390a35050565b5f33905090565b5f73ffffffffffffffffffffffffffffffffffffffff82169050919050565b5f819050919050565b5f61137b61137661137184611339565b611358565b611339565b9050919050565b5f61138c82611361565b9050919050565b5f61139d82611382565b9050919050565b6113ad81611393565b82525050565b5f819050919050565b6113c5816113b3565b82525050565b5f6113d582611339565b9050919050565b6113e5816113cb565b82525050565b5f8115159050919050565b6113ff816113eb565b82525050565b5f610160820190506114195f83018e6113a4565b611426602083018d6113bc565b611433604083018c6113bc565b611440606083018b6113bc565b61144d608083018a6113bc565b61145a60a08301896113dc565b61146760c08301886113bc565b61147460e08301876113bc565b6114826101008301866113bc565b6114906101208301856113bc565b61149e6101408301846113f6565b9c9b505050505050505050505050565b5f5ffd5b6114bb816113b3565b81146114c5575f5ffd5b50565b5f813590506114d6816114b2565b92915050565b5f602082840312156114f1576114f06114ae565b5b5f6114fe848285016114c8565b91505092915050565b5f81519050919050565b5f82825260208201905092915050565b5f819050602082019050919050565b611539816113cb565b82525050565b5f61154a8383611530565b60208301905092915050565b5f602082019050919050565b5f61156c82611507565b6115768185611511565b935061158183611521565b805f5b838110156115b1578151611598888261153f565b97506115a383611556565b925050600181019050611584565b5085935050505092915050565b5f6020820190508181035f8301526115d68184611562565b905092915050565b6115e7816113eb565b81146115f1575f5ffd5b50565b5f81359050611602816115de565b92915050565b5f5f5f6060848603121561161f5761161e6114ae565b5b5f61162c868287016114c8565b935050602061163d868287016115f4565b925050604061164e868287016114c8565b9150509250925092565b611661816113cb565b811461166b575f5ffd5b50565b5f8135905061167c81611658565b92915050565b5f60208284031215611697576116966114ae565b5b5f6116a48482850161166e565b91505092915050565b5f6080820190506116c05f8301876113bc565b6116cd60208301866113bc565b6116da60408301856113bc565b6116e760608301846113bc565b95945050505050565b5f6020820190506117035f8301846113dc565b92915050565b5f60208201905061171c5f8301846113bc565b92915050565b5f5f5f5f6080858703121561173a576117396114ae565b5b5f611747878288016114c8565b9450506020611758878288016114c8565b9350506040611769878288016114c8565b925050606061177a878288016114c8565b91505092959194509250565b5f82825260208201905092915050565b7f506f6f6c206973207061757365640000000000000000000000000000000000005f82015250565b5f6117ca600e83611786565b91506117d582611796565b602082019050919050565b5f6020820190508181035f8301526117f7816117be565b9050919050565b7f416d6f756e74206d7573742062652067726561746572207468616e207a65726f5f82015250565b5f611832602083611786565b915061183d826117fe565b602082019050919050565b5f6020820190508181035f83015261185f81611826565b9050919050565b7f496e73756666696369656e742062616c616e63650000000000000000000000005f82015250565b5f61189a601483611786565b91506118a582611866565b602082019050919050565b5f6020820190508181035f8301526118c78161188e565b9050919050565b7f5374616b65206973207374696c6c206c6f636b656400000000000000000000005f82015250565b5f611902601583611786565b915061190d826118ce565b602082019050919050565b5f6020820190508181035f83015261192f816118f6565b9050919050565b7f4e487b71000000000000000000000000000000000000000000000000000000005f52601160045260245ffd5b5f61196d826113b3565b9150611978836113b3565b9250828202611986816113b3565b9150828204841483151761199d5761199c611936565b5b5092915050565b7f4e487b71000000000000000000000000000000000000000000000000000000005f52601260045260245ffd5b5f6119db826113b3565b91506119e6836113b3565b9250826119f6576119f56119a4565b5b828204905092915050565b5f611a0b826113b3565b9150611a16836113b3565b9250828203905081811115611a2e57611a2d611936565b5b92915050565b5f611a3e826113b3565b9150611a49836113b3565b9250828201905080821115611a6157611a60611936565b5b92915050565b5f604082019050611a7a5f8301856113dc565b611a8760208301846113bc565b9392505050565b5f81519050611a9c816115de565b92915050565b5f60208284031215611ab757611ab66114ae565b5b5f611ac484828501611a8e565b91505092915050565b5f606082019050611ae05f8301866113bc565b611aed60208301856113bc565b611afa60408301846113bc565b949350505050565b7f4465706f73697420657863656564732075736572206c696d69740000000000005f82015250565b5f611b36601a83611786565b9150611b4182611b02565b602082019050919050565b5f6020820190508181035f830152611b6381611b2a565b9050919050565b7f506f6f6c206c69717569646974792065786365656465640000000000000000005f82015250565b5f611b9e601783611786565b9150611ba982611b6a565b602082019050919050565b5f6020820190508181035f830152611bcb81611b92565b9050919050565b5f606082019050611be55f8301866113dc565b611bf260208301856113dc565b611bff60408301846113bc565b949350505050565b5f606082019050611c1a5f8301866113bc565b611c2760208301856113bc565b611c3460408301846113f6565b949350505050565b7f4e6f206665657320746f206469737472696275746500000000000000000000005f82015250565b5f611c70601583611786565b9150611c7b82611c3c565b602082019050919050565b5f6020820190508181035f830152611c9d81611c64565b9050919050565b7f4e487b71000000000000000000000000000000000000000000000000000000005f52603260045260245ffd5b5f602082019050611ce45f8301846113f6565b92915050565b7f4e6f7468696e6720746f207769746864726177000000000000000000000000005f82015250565b5f611d1e601383611786565b9150611d2982611cea565b602082019050919050565b5f6020820190508181035f830152611d4b81611d12565b9050919050565b7f4e487b71000000000000000000000000000000000000000000000000000000005f52603160045260245ffdfea26469706673582212204c04c040478d62134fbb34bb5273c481fbfe2b010b99bac8363e692c8d94d9dd64736f6c634300081c0033",
					"opcodes": "PUSH1 0x80 PUSH1 0x40 MSTORE CALLVALUE DUP1 ISZERO PUSH2 0xF JUMPI PUSH0 PUSH0 REVERT JUMPDEST POP PUSH1 0x40 MLOAD PUSH2 0x2182 CODESIZE SUB DUP1 PUSH2 0x2182 DUP4 CODECOPY DUP2 DUP2 ADD PUSH1 0x40 MSTORE DUP2 ADD SWAP1 PUSH2 0x31 SWAP2 SWAP1 PUSH2 0x2F0 JUMP JUMPDEST CALLER PUSH0 PUSH20 0xFFFFFFFFFFFFFFFFFFFFFFFFFFFFFFFFFFFFFFFF AND DUP2 PUSH20 0xFFFFFFFFFFFFFFFFFFFFFFFFFFFFFFFFFFFFFFFF AND SUB PUSH2 0xA2 JUMPI PUSH0 PUSH1 0x40 MLOAD PUSH32 0x1E4FBDF700000000000000000000000000000000000000000000000000000000 DUP2 MSTORE PUSH1 0x4 ADD PUSH2 0x99 SWAP2 SWAP1 PUSH2 0x363 JUMP JUMPDEST PUSH1 0x40 MLOAD DUP1 SWAP2 SUB SWAP1 REVERT JUMPDEST PUSH2 0xB1 DUP2 PUSH2 0x19E PUSH1 0x20 SHL PUSH1 0x20 SHR JUMP JUMPDEST POP DUP4 PUSH1 0x1 PUSH0 ADD PUSH0 PUSH2 0x100 EXP DUP2 SLOAD DUP2 PUSH20 0xFFFFFFFFFFFFFFFFFFFFFFFFFFFFFFFFFFFFFFFF MUL NOT AND SWAP1 DUP4 PUSH20 0xFFFFFFFFFFFFFFFFFFFFFFFFFFFFFFFFFFFFFFFF AND MUL OR SWAP1 SSTORE POP DUP3 PUSH1 0x1 PUSH1 0x2 ADD DUP2 SWAP1 SSTORE POP DUP2 PUSH1 0x1 PUSH1 0x8 ADD DUP2 SWAP1 SSTORE POP DUP1 PUSH1 0x1 PUSH1 0x9 ADD DUP2 SWAP1 SSTORE POP PUSH1 0x2 PUSH1 0x1 PUSH1 0x3 ADD DUP2 SWAP1 SSTORE POP TIMESTAMP PUSH1 0x1 PUSH1 0x4 ADD DUP2 SWAP1 SSTORE POP PUSH0 PUSH1 0x1 PUSH1 0xA ADD PUSH0 PUSH2 0x100 EXP DUP2 SLOAD DUP2 PUSH1 0xFF MUL NOT AND SWAP1 DUP4 ISZERO ISZERO MUL OR SWAP1 SSTORE POP DUP4 PUSH20 0xFFFFFFFFFFFFFFFFFFFFFFFFFFFFFFFFFFFFFFFF AND PUSH32 0xA01A0F6E4E9C79D39A9015DAE1A9D6B2FC1EA5F20BC39C9F8C2E42E680AB26E2 DUP5 DUP5 DUP5 PUSH1 0x40 MLOAD PUSH2 0x18D SWAP4 SWAP3 SWAP2 SWAP1 PUSH2 0x38B JUMP JUMPDEST PUSH1 0x40 MLOAD DUP1 SWAP2 SUB SWAP1 LOG2 POP POP POP POP PUSH2 0x3C0 JUMP JUMPDEST PUSH0 PUSH0 PUSH0 SWAP1 SLOAD SWAP1 PUSH2 0x100 EXP SWAP1 DIV PUSH20 0xFFFFFFFFFFFFFFFFFFFFFFFFFFFFFFFFFFFFFFFF AND SWAP1 POP DUP2 PUSH0 PUSH0 PUSH2 0x100 EXP DUP2 SLOAD DUP2 PUSH20 0xFFFFFFFFFFFFFFFFFFFFFFFFFFFFFFFFFFFFFFFF MUL NOT AND SWAP1 DUP4 PUSH20 0xFFFFFFFFFFFFFFFFFFFFFFFFFFFFFFFFFFFFFFFF AND MUL OR SWAP1 SSTORE POP DUP2 PUSH20 0xFFFFFFFFFFFFFFFFFFFFFFFFFFFFFFFFFFFFFFFF AND DUP2 PUSH20 0xFFFFFFFFFFFFFFFFFFFFFFFFFFFFFFFFFFFFFFFF AND PUSH32 0x8BE0079C531659141344CD1FD0A4F28419497F9722A3DAAFE3B4186F6B6457E0 PUSH1 0x40 MLOAD PUSH1 0x40 MLOAD DUP1 SWAP2 SUB SWAP1 LOG3 POP POP JUMP JUMPDEST PUSH0 PUSH0 REVERT JUMPDEST PUSH0 PUSH20 0xFFFFFFFFFFFFFFFFFFFFFFFFFFFFFFFFFFFFFFFF DUP3 AND SWAP1 POP SWAP2 SWAP1 POP JUMP JUMPDEST PUSH0 PUSH2 0x28C DUP3 PUSH2 0x263 JUMP JUMPDEST SWAP1 POP SWAP2 SWAP1 POP JUMP JUMPDEST PUSH2 0x29C DUP2 PUSH2 0x282 JUMP JUMPDEST DUP2 EQ PUSH2 0x2A6 JUMPI PUSH0 PUSH0 REVERT JUMPDEST POP JUMP JUMPDEST PUSH0 DUP2 MLOAD SWAP1 POP PUSH2 0x2B7 DUP2 PUSH2 0x293 JUMP JUMPDEST SWAP3 SWAP2 POP POP JUMP JUMPDEST PUSH0 DUP2 SWAP1 POP SWAP2 SWAP1 POP JUMP JUMPDEST PUSH2 0x2CF DUP2 PUSH2 0x2BD JUMP JUMPDEST DUP2 EQ PUSH2 0x2D9 JUMPI PUSH0 PUSH0 REVERT JUMPDEST POP JUMP JUMPDEST PUSH0 DUP2 MLOAD SWAP1 POP PUSH2 0x2EA DUP2 PUSH2 0x2C6 JUMP JUMPDEST SWAP3 SWAP2 POP POP JUMP JUMPDEST PUSH0 PUSH0 PUSH0 PUSH0 PUSH1 0x80 DUP6 DUP8 SUB SLT ISZERO PUSH2 0x308 JUMPI PUSH2 0x307 PUSH2 0x25F JUMP JUMPDEST JUMPDEST PUSH0 PUSH2 0x315 DUP8 DUP3 DUP9 ADD PUSH2 0x2A9 JUMP JUMPDEST SWAP5 POP POP PUSH1 0x20 PUSH2 0x326 DUP8 DUP3 DUP9 ADD PUSH2 0x2DC JUMP JUMPDEST SWAP4 POP POP PUSH1 0x40 PUSH2 0x337 DUP8 DUP3 DUP9 ADD PUSH2 0x2DC JUMP JUMPDEST SWAP3 POP POP PUSH1 0x60 PUSH2 0x348 DUP8 DUP3 DUP9 ADD PUSH2 0x2DC JUMP JUMPDEST SWAP2 POP POP SWAP3 SWAP6 SWAP2 SWAP5 POP SWAP3 POP JUMP JUMPDEST PUSH2 0x35D DUP2 PUSH2 0x282 JUMP JUMPDEST DUP3 MSTORE POP POP JUMP JUMPDEST PUSH0 PUSH1 0x20 DUP3 ADD SWAP1 POP PUSH2 0x376 PUSH0 DUP4 ADD DUP5 PUSH2 0x354 JUMP JUMPDEST SWAP3 SWAP2 POP POP JUMP JUMPDEST PUSH2 0x385 DUP2 PUSH2 0x2BD JUMP JUMPDEST DUP3 MSTORE POP POP JUMP JUMPDEST PUSH0 PUSH1 0x60 DUP3 ADD SWAP1 POP PUSH2 0x39E PUSH0 DUP4 ADD DUP7 PUSH2 0x37C JUMP JUMPDEST PUSH2 0x3AB PUSH1 0x20 DUP4 ADD DUP6 PUSH2 0x37C JUMP JUMPDEST PUSH2 0x3B8 PUSH1 0x40 DUP4 ADD DUP5 PUSH2 0x37C JUMP JUMPDEST SWAP5 SWAP4 POP POP POP POP JUMP JUMPDEST PUSH2 0x1DB5 DUP1 PUSH2 0x3CD PUSH0 CODECOPY PUSH0 RETURN INVALID PUSH1 0x80 PUSH1 0x40 MSTORE CALLVALUE DUP1 ISZERO PUSH2 0xF JUMPI PUSH0 PUSH0 REVERT JUMPDEST POP PUSH1 0x4 CALLDATASIZE LT PUSH2 0xE8 JUMPI PUSH0 CALLDATALOAD PUSH1 0xE0 SHR DUP1 PUSH4 0xAE2E933B GT PUSH2 0x8A JUMPI DUP1 PUSH4 0xC4AE3168 GT PUSH2 0x64 JUMPI DUP1 PUSH4 0xC4AE3168 EQ PUSH2 0x21D JUMPI DUP1 PUSH4 0xDB2E21BC EQ PUSH2 0x227 JUMPI DUP1 PUSH4 0xF2FDE38B EQ PUSH2 0x231 JUMPI DUP1 PUSH4 0xFD5E6DD1 EQ PUSH2 0x24D JUMPI PUSH2 0xE8 JUMP JUMPDEST DUP1 PUSH4 0xAE2E933B EQ PUSH2 0x1C5 JUMPI DUP1 PUSH4 0xBB57AD20 EQ PUSH2 0x1E3 JUMPI DUP1 PUSH4 0xBF5CF656 EQ PUSH2 0x1ED JUMPI PUSH2 0xE8 JUMP JUMPDEST DUP1 PUSH4 0x447DA8A6 GT PUSH2 0xC6 JUMPI DUP1 PUSH4 0x447DA8A6 EQ PUSH2 0x14E JUMPI DUP1 PUSH4 0x613CF420 EQ PUSH2 0x16A JUMPI DUP1 PUSH4 0x715018A6 EQ PUSH2 0x19D JUMPI DUP1 PUSH4 0x8DA5CB5B EQ PUSH2 0x1A7 JUMPI PUSH2 0xE8 JUMP JUMPDEST DUP1 PUSH4 0x16F0115B EQ PUSH2 0xEC JUMPI DUP1 PUSH4 0x2E1A7D4D EQ PUSH2 0x114 JUMPI DUP1 PUSH4 0x43352D61 EQ PUSH2 0x130 JUMPI JUMPDEST PUSH0 PUSH0 REVERT JUMPDEST PUSH2 0xF4 PUSH2 0x27D JUMP JUMPDEST PUSH1 0x40 MLOAD PUSH2 0x10B SWAP12 SWAP11 SWAP10 SWAP9 SWAP8 SWAP7 SWAP6 SWAP5 SWAP4 SWAP3 SWAP2 SWAP1 PUSH2 0x1405 JUMP JUMPDEST PUSH1 0x40 MLOAD DUP1 SWAP2 SUB SWAP1 RETURN JUMPDEST PUSH2 0x12E PUSH1 0x4 DUP1 CALLDATASIZE SUB DUP2 ADD SWAP1 PUSH2 0x129 SWAP2 SWAP1 PUSH2 0x14DC JUMP JUMPDEST PUSH2 0x30E JUMP JUMPDEST STOP JUMPDEST PUSH2 0x138 PUSH2 0x5F6 JUMP JUMPDEST PUSH1 0x40 MLOAD PUSH2 0x145 SWAP2 SWAP1 PUSH2 0x15BE JUMP JUMPDEST PUSH1 0x40 MLOAD DUP1 SWAP2 SUB SWAP1 RETURN JUMPDEST PUSH2 0x168 PUSH1 0x4 DUP1 CALLDATASIZE SUB DUP2 ADD SWAP1 PUSH2 0x163 SWAP2 SWAP1 PUSH2 0x1608 JUMP JUMPDEST PUSH2 0x681 JUMP JUMPDEST STOP JUMPDEST PUSH2 0x184 PUSH1 0x4 DUP1 CALLDATASIZE SUB DUP2 ADD SWAP1 PUSH2 0x17F SWAP2 SWAP1 PUSH2 0x1682 JUMP JUMPDEST PUSH2 0xB22 JUMP JUMPDEST PUSH1 0x40 MLOAD PUSH2 0x194 SWAP5 SWAP4 SWAP3 SWAP2 SWAP1 PUSH2 0x16AD JUMP JUMPDEST PUSH1 0x40 MLOAD DUP1 SWAP2 SUB SWAP1 RETURN JUMPDEST PUSH2 0x1A5 PUSH2 0xB4E JUMP JUMPDEST STOP JUMPDEST PUSH2 0x1AF PUSH2 0xB61 JUMP JUMPDEST PUSH1 0x40 MLOAD PUSH2 0x1BC SWAP2 SWAP1 PUSH2 0x16F0 JUMP JUMPDEST PUSH1 0x40 MLOAD DUP1 SWAP2 SUB SWAP1 RETURN JUMPDEST PUSH2 0x1CD PUSH2 0xB88 JUMP JUMPDEST PUSH1 0x40 MLOAD PUSH2 0x1DA SWAP2 SWAP1 PUSH2 0x1709 JUMP JUMPDEST PUSH1 0x40 MLOAD DUP1 SWAP2 SUB SWAP1 RETURN JUMPDEST PUSH2 0x1EB PUSH2 0xB8E JUMP JUMPDEST STOP JUMPDEST PUSH2 0x207 PUSH1 0x4 DUP1 CALLDATASIZE SUB DUP2 ADD SWAP1 PUSH2 0x202 SWAP2 SWAP1 PUSH2 0x1722 JUMP JUMPDEST PUSH2 0xCFC JUMP JUMPDEST PUSH1 0x40 MLOAD PUSH2 0x214 SWAP2 SWAP1 PUSH2 0x1709 JUMP JUMPDEST PUSH1 0x40 MLOAD DUP1 SWAP2 SUB SWAP1 RETURN JUMPDEST PUSH2 0x225 PUSH2 0xD83 JUMP JUMPDEST STOP JUMPDEST PUSH2 0x22F PUSH2 0xE03 JUMP JUMPDEST STOP JUMPDEST PUSH2 0x24B PUSH1 0x4 DUP1 CALLDATASIZE SUB DUP2 ADD SWAP1 PUSH2 0x246 SWAP2 SWAP1 PUSH2 0x1682 JUMP JUMPDEST PUSH2 0xFAB JUMP JUMPDEST STOP JUMPDEST PUSH2 0x267 PUSH1 0x4 DUP1 CALLDATASIZE SUB DUP2 ADD SWAP1 PUSH2 0x262 SWAP2 SWAP1 PUSH2 0x14DC JUMP JUMPDEST PUSH2 0x102F JUMP JUMPDEST PUSH1 0x40 MLOAD PUSH2 0x274 SWAP2 SWAP1 PUSH2 0x16F0 JUMP JUMPDEST PUSH1 0x40 MLOAD DUP1 SWAP2 SUB SWAP1 RETURN JUMPDEST PUSH1 0x1 DUP1 PUSH0 ADD PUSH0 SWAP1 SLOAD SWAP1 PUSH2 0x100 EXP SWAP1 DIV PUSH20 0xFFFFFFFFFFFFFFFFFFFFFFFFFFFFFFFFFFFFFFFF AND SWAP1 DUP1 PUSH1 0x1 ADD SLOAD SWAP1 DUP1 PUSH1 0x2 ADD SLOAD SWAP1 DUP1 PUSH1 0x3 ADD SLOAD SWAP1 DUP1 PUSH1 0x4 ADD SLOAD SWAP1 DUP1 PUSH1 0x5 ADD PUSH0 SWAP1 SLOAD SWAP1 PUSH2 0x100 EXP SWAP1 DIV PUSH20 0xFFFFFFFFFFFFFFFFFFFFFFFFFFFFFFFFFFFFFFFF AND SWAP1 DUP1 PUSH1 0x6 ADD SLOAD SWAP1 DUP1 PUSH1 0x7 ADD SLOAD SWAP1 DUP1 PUSH1 0x8 ADD SLOAD SWAP1 DUP1 PUSH1 0x9 ADD SLOAD SWAP1 DUP1 PUSH1 0xA ADD PUSH0 SWAP1 SLOAD SWAP1 PUSH2 0x100 EXP SWAP1 DIV PUSH1 0xFF AND SWAP1 POP DUP12 JUMP JUMPDEST PUSH1 0x1 PUSH1 0xA ADD PUSH0 SWAP1 SLOAD SWAP1 PUSH2 0x100 EXP SWAP1 DIV PUSH1 0xFF AND ISZERO PUSH2 0x360 JUMPI PUSH1 0x40 MLOAD PUSH32 0x8C379A000000000000000000000000000000000000000000000000000000000 DUP2 MSTORE PUSH1 0x4 ADD PUSH2 0x357 SWAP1 PUSH2 0x17E0 JUMP JUMPDEST PUSH1 0x40 MLOAD DUP1 SWAP2 SUB SWAP1 REVERT JUMPDEST DUP1 PUSH0 DUP2 GT PUSH2 0x3A3 JUMPI PUSH1 0x40 MLOAD PUSH32 0x8C379A000000000000000000000000000000000000000000000000000000000 DUP2 MSTORE PUSH1 0x4 ADD PUSH2 0x39A SWAP1 PUSH2 0x1848 JUMP JUMPDEST PUSH1 0x40 MLOAD DUP1 SWAP2 SUB SWAP1 REVERT JUMPDEST PUSH0 PUSH1 0xC PUSH0 CALLER PUSH20 0xFFFFFFFFFFFFFFFFFFFFFFFFFFFFFFFFFFFFFFFF AND PUSH20 0xFFFFFFFFFFFFFFFFFFFFFFFFFFFFFFFFFFFFFFFF AND DUP2 MSTORE PUSH1 0x20 ADD SWAP1 DUP2 MSTORE PUSH1 0x20 ADD PUSH0 KECCAK256 SWAP1 POP DUP3 DUP2 PUSH0 ADD SLOAD LT ISZERO PUSH2 0x429 JUMPI PUSH1 0x40 MLOAD PUSH32 0x8C379A000000000000000000000000000000000000000000000000000000000 DUP2 MSTORE PUSH1 0x4 ADD PUSH2 0x420 SWAP1 PUSH2 0x18B0 JUMP JUMPDEST PUSH1 0x40 MLOAD DUP1 SWAP2 SUB SWAP1 REVERT JUMPDEST DUP1 PUSH1 0x2 ADD SLOAD TIMESTAMP LT ISZERO PUSH2 0x470 JUMPI PUSH1 0x40 MLOAD PUSH32 0x8C379A000000000000000000000000000000000000000000000000000000000 DUP2 MSTORE PUSH1 0x4 ADD PUSH2 0x467 SWAP1 PUSH2 0x1918 JUMP JUMPDEST PUSH1 0x40 MLOAD DUP1 SWAP2 SUB SWAP1 REVERT JUMPDEST PUSH0 PUSH1 0x64 PUSH1 0x1 PUSH1 0x3 ADD SLOAD DUP6 PUSH2 0x484 SWAP2 SWAP1 PUSH2 0x1963 JUMP JUMPDEST PUSH2 0x48E SWAP2 SWAP1 PUSH2 0x19D1 JUMP JUMPDEST SWAP1 POP PUSH0 DUP2 DUP6 PUSH2 0x49D SWAP2 SWAP1 PUSH2 0x1A01 JUMP JUMPDEST SWAP1 POP DUP5 DUP4 PUSH0 ADD PUSH0 DUP3 DUP3 SLOAD PUSH2 0x4B1 SWAP2 SWAP1 PUSH2 0x1A01 JUMP JUMPDEST SWAP3 POP POP DUP2 SWAP1 SSTORE POP DUP5 PUSH1 0x1 DUP1 ADD PUSH0 DUP3 DUP3 SLOAD PUSH2 0x4CB SWAP2 SWAP1 PUSH2 0x1A01 JUMP JUMPDEST SWAP3 POP POP DUP2 SWAP1 SSTORE POP DUP2 PUSH1 0xE PUSH0 DUP3 DUP3 SLOAD PUSH2 0x4E3 SWAP2 SWAP1 PUSH2 0x1A34 JUMP JUMPDEST SWAP3 POP POP DUP2 SWAP1 SSTORE POP PUSH0 DUP4 PUSH0 ADD SLOAD SUB PUSH2 0x4FE JUMPI PUSH2 0x4FD CALLER PUSH2 0x106A JUMP JUMPDEST JUMPDEST PUSH1 0x1 PUSH0 ADD PUSH0 SWAP1 SLOAD SWAP1 PUSH2 0x100 EXP SWAP1 DIV PUSH20 0xFFFFFFFFFFFFFFFFFFFFFFFFFFFFFFFFFFFFFFFF AND PUSH20 0xFFFFFFFFFFFFFFFFFFFFFFFFFFFFFFFFFFFFFFFF AND PUSH4 0xA9059CBB CALLER DUP4 PUSH1 0x40 MLOAD DUP4 PUSH4 0xFFFFFFFF AND PUSH1 0xE0 SHL DUP2 MSTORE PUSH1 0x4 ADD PUSH2 0x55C SWAP3 SWAP2 SWAP1 PUSH2 0x1A67 JUMP JUMPDEST PUSH1 0x20 PUSH1 0x40 MLOAD DUP1 DUP4 SUB DUP2 PUSH0 DUP8 GAS CALL ISZERO DUP1 ISZERO PUSH2 0x578 JUMPI RETURNDATASIZE PUSH0 PUSH0 RETURNDATACOPY RETURNDATASIZE PUSH0 REVERT JUMPDEST POP POP POP POP PUSH1 0x40 MLOAD RETURNDATASIZE PUSH1 0x1F NOT PUSH1 0x1F DUP3 ADD AND DUP3 ADD DUP1 PUSH1 0x40 MSTORE POP DUP2 ADD SWAP1 PUSH2 0x59C SWAP2 SWAP1 PUSH2 0x1AA2 JUMP JUMPDEST POP CALLER PUSH20 0xFFFFFFFFFFFFFFFFFFFFFFFFFFFFFFFFFFFFFFFF AND PUSH32 0x75E161B3E824B114FC1A33274BD7091918DD4E639CEDE50B78B15A4EEA956A21 DUP3 DUP5 TIMESTAMP PUSH1 0x40 MLOAD PUSH2 0x5E7 SWAP4 SWAP3 SWAP2 SWAP1 PUSH2 0x1ACD JUMP JUMPDEST PUSH1 0x40 MLOAD DUP1 SWAP2 SUB SWAP1 LOG2 POP POP POP POP POP JUMP JUMPDEST PUSH1 0x60 PUSH1 0xD DUP1 SLOAD DUP1 PUSH1 0x20 MUL PUSH1 0x20 ADD PUSH1 0x40 MLOAD SWAP1 DUP2 ADD PUSH1 0x40 MSTORE DUP1 SWAP3 SWAP2 SWAP1 DUP2 DUP2 MSTORE PUSH1 0x20 ADD DUP3 DUP1 SLOAD DUP1 ISZERO PUSH2 0x677 JUMPI PUSH1 0x20 MUL DUP3 ADD SWAP2 SWAP1 PUSH0 MSTORE PUSH1 0x20 PUSH0 KECCAK256 SWAP1 JUMPDEST DUP2 PUSH0 SWAP1 SLOAD SWAP1 PUSH2 0x100 EXP SWAP1 DIV PUSH20 0xFFFFFFFFFFFFFFFFFFFFFFFFFFFFFFFFFFFFFFFF AND PUSH20 0xFFFFFFFFFFFFFFFFFFFFFFFFFFFFFFFFFFFFFFFF AND DUP2 MSTORE PUSH1 0x20 ADD SWAP1 PUSH1 0x1 ADD SWAP1 DUP1 DUP4 GT PUSH2 0x62E JUMPI JUMPDEST POP POP POP POP POP SWAP1 POP SWAP1 JUMP JUMPDEST PUSH1 0x1 PUSH1 0xA ADD PUSH0 SWAP1 SLOAD SWAP1 PUSH2 0x100 EXP SWAP1 DIV PUSH1 0xFF AND ISZERO PUSH2 0x6D3 JUMPI PUSH1 0x40 MLOAD PUSH32 0x8C379A000000000000000000000000000000000000000000000000000000000 DUP2 MSTORE PUSH1 0x4 ADD PUSH2 0x6CA SWAP1 PUSH2 0x17E0 JUMP JUMPDEST PUSH1 0x40 MLOAD DUP1 SWAP2 SUB SWAP1 REVERT JUMPDEST DUP3 PUSH0 DUP2 GT PUSH2 0x716 JUMPI PUSH1 0x40 MLOAD PUSH32 0x8C379A000000000000000000000000000000000000000000000000000000000 DUP2 MSTORE PUSH1 0x4 ADD PUSH2 0x70D SWAP1 PUSH2 0x1848 JUMP JUMPDEST PUSH1 0x40 MLOAD DUP1 SWAP2 SUB SWAP1 REVERT JUMPDEST PUSH0 PUSH1 0xC PUSH0 CALLER PUSH20 0xFFFFFFFFFFFFFFFFFFFFFFFFFFFFFFFFFFFFFFFF AND PUSH20 0xFFFFFFFFFFFFFFFFFFFFFFFFFFFFFFFFFFFFFFFF AND DUP2 MSTORE PUSH1 0x20 ADD SWAP1 DUP2 MSTORE PUSH1 0x20 ADD PUSH0 KECCAK256 SWAP1 POP PUSH1 0x1 PUSH1 0x8 ADD SLOAD DUP6 DUP3 PUSH0 ADD SLOAD PUSH2 0x76B SWAP2 SWAP1 PUSH2 0x1A34 JUMP JUMPDEST GT ISZERO PUSH2 0x7AC JUMPI PUSH1 0x40 MLOAD PUSH32 0x8C379A000000000000000000000000000000000000000000000000000000000 DUP2 MSTORE PUSH1 0x4 ADD PUSH2 0x7A3 SWAP1 PUSH2 0x1B4C JUMP JUMPDEST PUSH1 0x40 MLOAD DUP1 SWAP2 SUB SWAP1 REVERT JUMPDEST PUSH1 0x1 PUSH1 0x9 ADD SLOAD DUP6 PUSH1 0x1 DUP1 ADD SLOAD PUSH2 0x7C2 SWAP2 SWAP1 PUSH2 0x1A34 JUMP JUMPDEST GT ISZERO PUSH2 0x803 JUMPI PUSH1 0x40 MLOAD PUSH32 0x8C379A000000000000000000000000000000000000000000000000000000000 DUP2 MSTORE PUSH1 0x4 ADD PUSH2 0x7FA SWAP1 PUSH2 0x1BB4 JUMP JUMPDEST PUSH1 0x40 MLOAD DUP1 SWAP2 SUB SWAP1 REVERT JUMPDEST PUSH0 DUP2 PUSH0 ADD SLOAD SUB PUSH2 0x86E JUMPI PUSH1 0xD CALLER SWAP1 DUP1 PUSH1 0x1 DUP2 SLOAD ADD DUP1 DUP3 SSTORE DUP1 SWAP2 POP POP PUSH1 0x1 SWAP1 SUB SWAP1 PUSH0 MSTORE PUSH1 0x20 PUSH0 KECCAK256 ADD PUSH0 SWAP1 SWAP2 SWAP1 SWAP2 SWAP1 SWAP2 PUSH2 0x100 EXP DUP2 SLOAD DUP2 PUSH20 0xFFFFFFFFFFFFFFFFFFFFFFFFFFFFFFFFFFFFFFFF MUL NOT AND SWAP1 DUP4 PUSH20 0xFFFFFFFFFFFFFFFFFFFFFFFFFFFFFFFFFFFFFFFF AND MUL OR SWAP1 SSTORE POP JUMPDEST DUP5 DUP2 PUSH0 ADD PUSH0 DUP3 DUP3 SLOAD PUSH2 0x880 SWAP2 SWAP1 PUSH2 0x1A34 JUMP JUMPDEST SWAP3 POP POP DUP2 SWAP1 SSTORE POP TIMESTAMP DUP2 PUSH1 0x1 ADD DUP2 SWAP1 SSTORE POP PUSH0 DUP4 GT ISZERO PUSH2 0x8AD JUMPI DUP3 TIMESTAMP PUSH2 0x8A4 SWAP2 SWAP1 PUSH2 0x1A34 JUMP JUMPDEST DUP2 PUSH1 0x2 ADD DUP2 SWAP1 SSTORE POP JUMPDEST DUP5 PUSH1 0x1 DUP1 ADD PUSH0 DUP3 DUP3 SLOAD PUSH2 0x8C0 SWAP2 SWAP1 PUSH2 0x1A34 JUMP JUMPDEST SWAP3 POP POP DUP2 SWAP1 SSTORE POP PUSH0 PUSH2 0x8E5 DUP3 PUSH0 ADD SLOAD DUP4 PUSH1 0x1 ADD SLOAD PUSH1 0x1 PUSH1 0x4 ADD SLOAD PUSH1 0x1 PUSH1 0x2 ADD SLOAD PUSH2 0xCFC JUMP JUMPDEST SWAP1 POP DUP5 ISZERO PUSH2 0x90B JUMPI DUP1 DUP3 PUSH0 ADD PUSH0 DUP3 DUP3 SLOAD PUSH2 0x8FF SWAP2 SWAP1 PUSH2 0x1A34 JUMP JUMPDEST SWAP3 POP POP DUP2 SWAP1 SSTORE POP PUSH2 0x9AB JUMP JUMPDEST PUSH1 0x1 PUSH0 ADD PUSH0 SWAP1 SLOAD SWAP1 PUSH2 0x100 EXP SWAP1 DIV PUSH20 0xFFFFFFFFFFFFFFFFFFFFFFFFFFFFFFFFFFFFFFFF AND PUSH20 0xFFFFFFFFFFFFFFFFFFFFFFFFFFFFFFFFFFFFFFFF AND PUSH4 0xA9059CBB CALLER DUP4 PUSH1 0x40 MLOAD DUP4 PUSH4 0xFFFFFFFF AND PUSH1 0xE0 SHL DUP2 MSTORE PUSH1 0x4 ADD PUSH2 0x969 SWAP3 SWAP2 SWAP1 PUSH2 0x1A67 JUMP JUMPDEST PUSH1 0x20 PUSH1 0x40 MLOAD DUP1 DUP4 SUB DUP2 PUSH0 DUP8 GAS CALL ISZERO DUP1 ISZERO PUSH2 0x985 JUMPI RETURNDATASIZE PUSH0 PUSH0 RETURNDATACOPY RETURNDATASIZE PUSH0 REVERT JUMPDEST POP POP POP POP PUSH1 0x40 MLOAD RETURNDATASIZE PUSH1 0x1F NOT PUSH1 0x1F DUP3 ADD AND DUP3 ADD DUP1 PUSH1 0x40 MSTORE POP DUP2 ADD SWAP1 PUSH2 0x9A9 SWAP2 SWAP1 PUSH2 0x1AA2 JUMP JUMPDEST POP JUMPDEST DUP1 PUSH1 0x1 PUSH1 0x7 ADD PUSH0 DUP3 DUP3 SLOAD PUSH2 0x9BF SWAP2 SWAP1 PUSH2 0x1A34 JUMP JUMPDEST SWAP3 POP POP DUP2 SWAP1 SSTORE POP PUSH1 0x1 PUSH1 0x6 ADD SLOAD DUP3 PUSH0 ADD SLOAD GT ISZERO PUSH2 0xA27 JUMPI CALLER PUSH1 0x1 PUSH1 0x5 ADD PUSH0 PUSH2 0x100 EXP DUP2 SLOAD DUP2 PUSH20 0xFFFFFFFFFFFFFFFFFFFFFFFFFFFFFFFFFFFFFFFF MUL NOT AND SWAP1 DUP4 PUSH20 0xFFFFFFFFFFFFFFFFFFFFFFFFFFFFFFFFFFFFFFFF AND MUL OR SWAP1 SSTORE POP DUP2 PUSH0 ADD SLOAD PUSH1 0x1 PUSH1 0x6 ADD DUP2 SWAP1 SSTORE POP JUMPDEST PUSH1 0x1 PUSH0 ADD PUSH0 SWAP1 SLOAD SWAP1 PUSH2 0x100 EXP SWAP1 DIV PUSH20 0xFFFFFFFFFFFFFFFFFFFFFFFFFFFFFFFFFFFFFFFF AND PUSH20 0xFFFFFFFFFFFFFFFFFFFFFFFFFFFFFFFFFFFFFFFF AND PUSH4 0x23B872DD CALLER ADDRESS DUP10 PUSH1 0x40 MLOAD DUP5 PUSH4 0xFFFFFFFF AND PUSH1 0xE0 SHL DUP2 MSTORE PUSH1 0x4 ADD PUSH2 0xA87 SWAP4 SWAP3 SWAP2 SWAP1 PUSH2 0x1BD2 JUMP JUMPDEST PUSH1 0x20 PUSH1 0x40 MLOAD DUP1 DUP4 SUB DUP2 PUSH0 DUP8 GAS CALL ISZERO DUP1 ISZERO PUSH2 0xAA3 JUMPI RETURNDATASIZE PUSH0 PUSH0 RETURNDATACOPY RETURNDATASIZE PUSH0 REVERT JUMPDEST POP POP POP POP PUSH1 0x40 MLOAD RETURNDATASIZE PUSH1 0x1F NOT PUSH1 0x1F DUP3 ADD AND DUP3 ADD DUP1 PUSH1 0x40 MSTORE POP DUP2 ADD SWAP1 PUSH2 0xAC7 SWAP2 SWAP1 PUSH2 0x1AA2 JUMP JUMPDEST POP CALLER PUSH20 0xFFFFFFFFFFFFFFFFFFFFFFFFFFFFFFFFFFFFFFFF AND PUSH32 0x3DF45CB339F96AE4BDB793EFCB6E22100DD0DC4FD739A4EE2033FE67EA35AF96 DUP8 DUP4 DUP9 PUSH1 0x40 MLOAD PUSH2 0xB12 SWAP4 SWAP3 SWAP2 SWAP1 PUSH2 0x1C07 JUMP JUMPDEST PUSH1 0x40 MLOAD DUP1 SWAP2 SUB SWAP1 LOG2 POP POP POP POP POP POP JUMP JUMPDEST PUSH1 0xC PUSH1 0x20 MSTORE DUP1 PUSH0 MSTORE PUSH1 0x40 PUSH0 KECCAK256 PUSH0 SWAP2 POP SWAP1 POP DUP1 PUSH0 ADD SLOAD SWAP1 DUP1 PUSH1 0x1 ADD SLOAD SWAP1 DUP1 PUSH1 0x2 ADD SLOAD SWAP1 DUP1 PUSH1 0x3 ADD SLOAD SWAP1 POP DUP5 JUMP JUMPDEST PUSH2 0xB56 PUSH2 0x11EA JUMP JUMPDEST PUSH2 0xB5F PUSH0 PUSH2 0x1271 JUMP JUMPDEST JUMP JUMPDEST PUSH0 PUSH0 PUSH0 SWAP1 SLOAD SWAP1 PUSH2 0x100 EXP SWAP1 DIV PUSH20 0xFFFFFFFFFFFFFFFFFFFFFFFFFFFFFFFFFFFFFFFF AND SWAP1 POP SWAP1 JUMP JUMPDEST PUSH1 0xE SLOAD DUP2 JUMP JUMPDEST PUSH2 0xB96 PUSH2 0x11EA JUMP JUMPDEST PUSH0 PUSH1 0xE SLOAD SWAP1 POP PUSH0 DUP2 GT PUSH2 0xBDE JUMPI PUSH1 0x40 MLOAD PUSH32 0x8C379A000000000000000000000000000000000000000000000000000000000 DUP2 MSTORE PUSH1 0x4 ADD PUSH2 0xBD5 SWAP1 PUSH2 0x1C86 JUMP JUMPDEST PUSH1 0x40 MLOAD DUP1 SWAP2 SUB SWAP1 REVERT JUMPDEST PUSH0 PUSH0 SWAP1 POP JUMPDEST PUSH1 0xD DUP1 SLOAD SWAP1 POP DUP2 LT ISZERO PUSH2 0xCBA JUMPI PUSH0 PUSH1 0xD DUP3 DUP2 SLOAD DUP2 LT PUSH2 0xC05 JUMPI PUSH2 0xC04 PUSH2 0x1CA4 JUMP JUMPDEST JUMPDEST SWAP1 PUSH0 MSTORE PUSH1 0x20 PUSH0 KECCAK256 ADD PUSH0 SWAP1 SLOAD SWAP1 PUSH2 0x100 EXP SWAP1 DIV PUSH20 0xFFFFFFFFFFFFFFFFFFFFFFFFFFFFFFFFFFFFFFFF AND SWAP1 POP PUSH0 PUSH1 0xC PUSH0 DUP4 PUSH20 0xFFFFFFFFFFFFFFFFFFFFFFFFFFFFFFFFFFFFFFFF AND PUSH20 0xFFFFFFFFFFFFFFFFFFFFFFFFFFFFFFFFFFFFFFFF AND DUP2 MSTORE PUSH1 0x20 ADD SWAP1 DUP2 MSTORE PUSH1 0x20 ADD PUSH0 KECCAK256 SWAP1 POP PUSH0 PUSH1 0x1 DUP1 ADD SLOAD DUP6 DUP4 PUSH0 ADD SLOAD PUSH2 0xC84 SWAP2 SWAP1 PUSH2 0x1963 JUMP JUMPDEST PUSH2 0xC8E SWAP2 SWAP1 PUSH2 0x19D1 JUMP JUMPDEST SWAP1 POP DUP1 DUP3 PUSH1 0x3 ADD PUSH0 DUP3 DUP3 SLOAD PUSH2 0xCA3 SWAP2 SWAP1 PUSH2 0x1A34 JUMP JUMPDEST SWAP3 POP POP DUP2 SWAP1 SSTORE POP POP POP POP DUP1 DUP1 PUSH1 0x1 ADD SWAP2 POP POP PUSH2 0xBE3 JUMP JUMPDEST POP PUSH0 PUSH1 0xE DUP2 SWAP1 SSTORE POP PUSH32 0x8959421A1320789A49EEEC01A4750CAF8A30733C3DB14F000D84484DF89300F9 DUP2 PUSH1 0x40 MLOAD PUSH2 0xCF1 SWAP2 SWAP1 PUSH2 0x1709 JUMP JUMPDEST PUSH1 0x40 MLOAD DUP1 SWAP2 SUB SWAP1 LOG1 POP JUMP JUMPDEST PUSH0 PUSH0 DUP4 TIMESTAMP PUSH2 0xD0A SWAP2 SWAP1 PUSH2 0x1A01 JUMP JUMPDEST SWAP1 POP PUSH0 PUSH3 0x15180 DUP3 PUSH2 0xD1C SWAP2 SWAP1 PUSH2 0x19D1 JUMP JUMPDEST PUSH1 0x64 PUSH2 0xD28 SWAP2 SWAP1 PUSH2 0x1A34 JUMP JUMPDEST SWAP1 POP PUSH0 PUSH2 0x3E8 DUP9 PUSH2 0xD39 SWAP2 SWAP1 PUSH2 0x19D1 JUMP JUMPDEST PUSH1 0x64 PUSH2 0xD45 SWAP2 SWAP1 PUSH2 0x1A34 JUMP JUMPDEST SWAP1 POP PUSH2 0x2710 DUP6 DUP3 DUP5 DUP12 PUSH2 0xD58 SWAP2 SWAP1 PUSH2 0x1963 JUMP JUMPDEST PUSH2 0xD62 SWAP2 SWAP1 PUSH2 0x1963 JUMP JUMPDEST PUSH2 0xD6C SWAP2 SWAP1 PUSH2 0x1963 JUMP JUMPDEST PUSH2 0xD76 SWAP2 SWAP1 PUSH2 0x19D1 JUMP JUMPDEST SWAP4 POP POP POP POP SWAP5 SWAP4 POP POP POP POP JUMP JUMPDEST PUSH2 0xD8B PUSH2 0x11EA JUMP JUMPDEST PUSH1 0x1 PUSH1 0xA ADD PUSH0 SWAP1 SLOAD SWAP1 PUSH2 0x100 EXP SWAP1 DIV PUSH1 0xFF AND ISZERO PUSH1 0x1 PUSH1 0xA ADD PUSH0 PUSH2 0x100 EXP DUP2 SLOAD DUP2 PUSH1 0xFF MUL NOT AND SWAP1 DUP4 ISZERO ISZERO MUL OR SWAP1 SSTORE POP PUSH32 0xBD466AF87C4FABD1FA3D061817020A39C29D7986649F582F9F405C8EB8AA7C0B PUSH1 0x1 PUSH1 0xA ADD PUSH0 SWAP1 SLOAD SWAP1 PUSH2 0x100 EXP SWAP1 DIV PUSH1 0xFF AND PUSH1 0x40 MLOAD PUSH2 0xDF9 SWAP2 SWAP1 PUSH2 0x1CD1 JUMP JUMPDEST PUSH1 0x40 MLOAD DUP1 SWAP2 SUB SWAP1 LOG1 JUMP JUMPDEST PUSH0 PUSH1 0xC PUSH0 CALLER PUSH20 0xFFFFFFFFFFFFFFFFFFFFFFFFFFFFFFFFFFFFFFFF AND PUSH20 0xFFFFFFFFFFFFFFFFFFFFFFFFFFFFFFFFFFFFFFFF AND DUP2 MSTORE PUSH1 0x20 ADD SWAP1 DUP2 MSTORE PUSH1 0x20 ADD PUSH0 KECCAK256 SWAP1 POP PUSH0 DUP2 PUSH0 ADD SLOAD GT PUSH2 0xE88 JUMPI PUSH1 0x40 MLOAD PUSH32 0x8C379A000000000000000000000000000000000000000000000000000000000 DUP2 MSTORE PUSH1 0x4 ADD PUSH2 0xE7F SWAP1 PUSH2 0x1D34 JUMP JUMPDEST PUSH1 0x40 MLOAD DUP1 SWAP2 SUB SWAP1 REVERT JUMPDEST PUSH0 DUP2 PUSH0 ADD SLOAD SWAP1 POP PUSH0 DUP3 PUSH0 ADD DUP2 SWAP1 SSTORE POP DUP1 PUSH1 0x1 DUP1 ADD PUSH0 DUP3 DUP3 SLOAD PUSH2 0xEAA SWAP2 SWAP1 PUSH2 0x1A01 JUMP JUMPDEST SWAP3 POP POP DUP2 SWAP1 SSTORE POP PUSH2 0xEBA CALLER PUSH2 0x106A JUMP JUMPDEST PUSH1 0x1 PUSH0 ADD PUSH0 SWAP1 SLOAD SWAP1 PUSH2 0x100 EXP SWAP1 DIV PUSH20 0xFFFFFFFFFFFFFFFFFFFFFFFFFFFFFFFFFFFFFFFF AND PUSH20 0xFFFFFFFFFFFFFFFFFFFFFFFFFFFFFFFFFFFFFFFF AND PUSH4 0xA9059CBB CALLER DUP4 PUSH1 0x40 MLOAD DUP4 PUSH4 0xFFFFFFFF AND PUSH1 0xE0 SHL DUP2 MSTORE PUSH1 0x4 ADD PUSH2 0xF18 SWAP3 SWAP2 SWAP1 PUSH2 0x1A67 JUMP JUMPDEST PUSH1 0x20 PUSH1 0x40 MLOAD DUP1 DUP4 SUB DUP2 PUSH0 DUP8 GAS CALL ISZERO DUP1 ISZERO PUSH2 0xF34 JUMPI RETURNDATASIZE PUSH0 PUSH0 RETURNDATACOPY RETURNDATASIZE PUSH0 REVERT JUMPDEST POP POP POP POP PUSH1 0x40 MLOAD RETURNDATASIZE PUSH1 0x1F NOT PUSH1 0x1F DUP3 ADD AND DUP3 ADD DUP1 PUSH1 0x40 MSTORE POP DUP2 ADD SWAP1 PUSH2 0xF58 SWAP2 SWAP1 PUSH2 0x1AA2 JUMP JUMPDEST POP CALLER PUSH20 0xFFFFFFFFFFFFFFFFFFFFFFFFFFFFFFFFFFFFFFFF AND PUSH32 0x23D6711A1D031134A36921253C75AA59E967D38E369AC625992824315E204F20 DUP3 PUSH1 0x40 MLOAD PUSH2 0xF9F SWAP2 SWAP1 PUSH2 0x1709 JUMP JUMPDEST PUSH1 0x40 MLOAD DUP1 SWAP2 SUB SWAP1 LOG2 POP POP JUMP JUMPDEST PUSH2 0xFB3 PUSH2 0x11EA JUMP JUMPDEST PUSH0 PUSH20 0xFFFFFFFFFFFFFFFFFFFFFFFFFFFFFFFFFFFFFFFF AND DUP2 PUSH20 0xFFFFFFFFFFFFFFFFFFFFFFFFFFFFFFFFFFFFFFFF AND SUB PUSH2 0x1023 JUMPI PUSH0 PUSH1 0x40 MLOAD PUSH32 0x1E4FBDF700000000000000000000000000000000000000000000000000000000 DUP2 MSTORE PUSH1 0x4 ADD PUSH2 0x101A SWAP2 SWAP1 PUSH2 0x16F0 JUMP JUMPDEST PUSH1 0x40 MLOAD DUP1 SWAP2 SUB SWAP1 REVERT JUMPDEST PUSH2 0x102C DUP2 PUSH2 0x1271 JUMP JUMPDEST POP JUMP JUMPDEST PUSH1 0xD DUP2 DUP2 SLOAD DUP2 LT PUSH2 0x103E JUMPI PUSH0 DUP1 REVERT JUMPDEST SWAP1 PUSH0 MSTORE PUSH1 0x20 PUSH0 KECCAK256 ADD PUSH0 SWAP2 POP SLOAD SWAP1 PUSH2 0x100 EXP SWAP1 DIV PUSH20 0xFFFFFFFFFFFFFFFFFFFFFFFFFFFFFFFFFFFFFFFF AND DUP2 JUMP JUMPDEST PUSH0 PUSH0 SWAP1 POP JUMPDEST PUSH1 0xD DUP1 SLOAD SWAP1 POP DUP2 LT ISZERO PUSH2 0x11E6 JUMPI DUP2 PUSH20 0xFFFFFFFFFFFFFFFFFFFFFFFFFFFFFFFFFFFFFFFF AND PUSH1 0xD DUP3 DUP2 SLOAD DUP2 LT PUSH2 0x10A7 JUMPI PUSH2 0x10A6 PUSH2 0x1CA4 JUMP JUMPDEST JUMPDEST SWAP1 PUSH0 MSTORE PUSH1 0x20 PUSH0 KECCAK256 ADD PUSH0 SWAP1 SLOAD SWAP1 PUSH2 0x100 EXP SWAP1 DIV PUSH20 0xFFFFFFFFFFFFFFFFFFFFFFFFFFFFFFFFFFFFFFFF AND PUSH20 0xFFFFFFFFFFFFFFFFFFFFFFFFFFFFFFFFFFFFFFFF AND SUB PUSH2 0x11D9 JUMPI PUSH1 0xD PUSH1 0x1 PUSH1 0xD DUP1 SLOAD SWAP1 POP PUSH2 0x10FE SWAP2 SWAP1 PUSH2 0x1A01 JUMP JUMPDEST DUP2 SLOAD DUP2 LT PUSH2 0x110F JUMPI PUSH2 0x110E PUSH2 0x1CA4 JUMP JUMPDEST JUMPDEST SWAP1 PUSH0 MSTORE PUSH1 0x20 PUSH0 KECCAK256 ADD PUSH0 SWAP1 SLOAD SWAP1 PUSH2 0x100 EXP SWAP1 DIV PUSH20 0xFFFFFFFFFFFFFFFFFFFFFFFFFFFFFFFFFFFFFFFF AND PUSH1 0xD DUP3 DUP2 SLOAD DUP2 LT PUSH2 0x114B JUMPI PUSH2 0x114A PUSH2 0x1CA4 JUMP JUMPDEST JUMPDEST SWAP1 PUSH0 MSTORE PUSH1 0x20 PUSH0 KECCAK256 ADD PUSH0 PUSH2 0x100 EXP DUP2 SLOAD DUP2 PUSH20 0xFFFFFFFFFFFFFFFFFFFFFFFFFFFFFFFFFFFFFFFF MUL NOT AND SWAP1 DUP4 PUSH20 0xFFFFFFFFFFFFFFFFFFFFFFFFFFFFFFFFFFFFFFFF AND MUL OR SWAP1 SSTORE POP PUSH1 0xD DUP1 SLOAD DUP1 PUSH2 0x11A2 JUMPI PUSH2 0x11A1 PUSH2 0x1D52 JUMP JUMPDEST JUMPDEST PUSH1 0x1 SWAP1 SUB DUP2 DUP2 SWAP1 PUSH0 MSTORE PUSH1 0x20 PUSH0 KECCAK256 ADD PUSH0 PUSH2 0x100 EXP DUP2 SLOAD SWAP1 PUSH20 0xFFFFFFFFFFFFFFFFFFFFFFFFFFFFFFFFFFFFFFFF MUL NOT AND SWAP1 SSTORE SWAP1 SSTORE PUSH2 0x11E6 JUMP JUMPDEST DUP1 DUP1 PUSH1 0x1 ADD SWAP2 POP POP PUSH2 0x106F JUMP JUMPDEST POP POP JUMP JUMPDEST PUSH2 0x11F2 PUSH2 0x1332 JUMP JUMPDEST PUSH20 0xFFFFFFFFFFFFFFFFFFFFFFFFFFFFFFFFFFFFFFFF AND PUSH2 0x1210 PUSH2 0xB61 JUMP JUMPDEST PUSH20 0xFFFFFFFFFFFFFFFFFFFFFFFFFFFFFFFFFFFFFFFF AND EQ PUSH2 0x126F JUMPI PUSH2 0x1233 PUSH2 0x1332 JUMP JUMPDEST PUSH1 0x40 MLOAD PUSH32 0x118CDAA700000000000000000000000000000000000000000000000000000000 DUP2 MSTORE PUSH1 0x4 ADD PUSH2 0x1266 SWAP2 SWAP1 PUSH2 0x16F0 JUMP JUMPDEST PUSH1 0x40 MLOAD DUP1 SWAP2 SUB SWAP1 REVERT JUMPDEST JUMP JUMPDEST PUSH0 PUSH0 PUSH0 SWAP1 SLOAD SWAP1 PUSH2 0x100 EXP SWAP1 DIV PUSH20 0xFFFFFFFFFFFFFFFFFFFFFFFFFFFFFFFFFFFFFFFF AND SWAP1 POP DUP2 PUSH0 PUSH0 PUSH2 0x100 EXP DUP2 SLOAD DUP2 PUSH20 0xFFFFFFFFFFFFFFFFFFFFFFFFFFFFFFFFFFFFFFFF MUL NOT AND SWAP1 DUP4 PUSH20 0xFFFFFFFFFFFFFFFFFFFFFFFFFFFFFFFFFFFFFFFF AND MUL OR SWAP1 SSTORE POP DUP2 PUSH20 0xFFFFFFFFFFFFFFFFFFFFFFFFFFFFFFFFFFFFFFFF AND DUP2 PUSH20 0xFFFFFFFFFFFFFFFFFFFFFFFFFFFFFFFFFFFFFFFF AND PUSH32 0x8BE0079C531659141344CD1FD0A4F28419497F9722A3DAAFE3B4186F6B6457E0 PUSH1 0x40 MLOAD PUSH1 0x40 MLOAD DUP1 SWAP2 SUB SWAP1 LOG3 POP POP JUMP JUMPDEST PUSH0 CALLER SWAP1 POP SWAP1 JUMP JUMPDEST PUSH0 PUSH20 0xFFFFFFFFFFFFFFFFFFFFFFFFFFFFFFFFFFFFFFFF DUP3 AND SWAP1 POP SWAP2 SWAP1 POP JUMP JUMPDEST PUSH0 DUP2 SWAP1 POP SWAP2 SWAP1 POP JUMP JUMPDEST PUSH0 PUSH2 0x137B PUSH2 0x1376 PUSH2 0x1371 DUP5 PUSH2 0x1339 JUMP JUMPDEST PUSH2 0x1358 JUMP JUMPDEST PUSH2 0x1339 JUMP JUMPDEST SWAP1 POP SWAP2 SWAP1 POP JUMP JUMPDEST PUSH0 PUSH2 0x138C DUP3 PUSH2 0x1361 JUMP JUMPDEST SWAP1 POP SWAP2 SWAP1 POP JUMP JUMPDEST PUSH0 PUSH2 0x139D DUP3 PUSH2 0x1382 JUMP JUMPDEST SWAP1 POP SWAP2 SWAP1 POP JUMP JUMPDEST PUSH2 0x13AD DUP2 PUSH2 0x1393 JUMP JUMPDEST DUP3 MSTORE POP POP JUMP JUMPDEST PUSH0 DUP2 SWAP1 POP SWAP2 SWAP1 POP JUMP JUMPDEST PUSH2 0x13C5 DUP2 PUSH2 0x13B3 JUMP JUMPDEST DUP3 MSTORE POP POP JUMP JUMPDEST PUSH0 PUSH2 0x13D5 DUP3 PUSH2 0x1339 JUMP JUMPDEST SWAP1 POP SWAP2 SWAP1 POP JUMP JUMPDEST PUSH2 0x13E5 DUP2 PUSH2 0x13CB JUMP JUMPDEST DUP3 MSTORE POP POP JUMP JUMPDEST PUSH0 DUP2 ISZERO ISZERO SWAP1 POP SWAP2 SWAP1 POP JUMP JUMPDEST PUSH2 0x13FF DUP2 PUSH2 0x13EB JUMP JUMPDEST DUP3 MSTORE POP POP JUMP JUMPDEST PUSH0 PUSH2 0x160 DUP3 ADD SWAP1 POP PUSH2 0x1419 PUSH0 DUP4 ADD DUP15 PUSH2 0x13A4 JUMP JUMPDEST PUSH2 0x1426 PUSH1 0x20 DUP4 ADD DUP14 PUSH2 0x13BC JUMP JUMPDEST PUSH2 0x1433 PUSH1 0x40 DUP4 ADD DUP13 PUSH2 0x13BC JUMP JUMPDEST PUSH2 0x1440 PUSH1 0x60 DUP4 ADD DUP12 PUSH2 0x13BC JUMP JUMPDEST PUSH2 0x144D PUSH1 0x80 DUP4 ADD DUP11 PUSH2 0x13BC JUMP JUMPDEST PUSH2 0x145A PUSH1 0xA0 DUP4 ADD DUP10 PUSH2 0x13DC JUMP JUMPDEST PUSH2 0x1467 PUSH1 0xC0 DUP4 ADD DUP9 PUSH2 0x13BC JUMP JUMPDEST PUSH2 0x1474 PUSH1 0xE0 DUP4 ADD DUP8 PUSH2 0x13BC JUMP JUMPDEST PUSH2 0x1482 PUSH2 0x100 DUP4 ADD DUP7 PUSH2 0x13BC JUMP JUMPDEST PUSH2 0x1490 PUSH2 0x120 DUP4 ADD DUP6 PUSH2 0x13BC JUMP JUMPDEST PUSH2 0x149E PUSH2 0x140 DUP4 ADD DUP5 PUSH2 0x13F6 JUMP JUMPDEST SWAP13 SWAP12 POP POP POP POP POP POP POP POP POP POP POP POP JUMP JUMPDEST PUSH0 PUSH0 REVERT JUMPDEST PUSH2 0x14BB DUP2 PUSH2 0x13B3 JUMP JUMPDEST DUP2 EQ PUSH2 0x14C5 JUMPI PUSH0 PUSH0 REVERT JUMPDEST POP JUMP JUMPDEST PUSH0 DUP2 CALLDATALOAD SWAP1 POP PUSH2 0x14D6 DUP2 PUSH2 0x14B2 JUMP JUMPDEST SWAP3 SWAP2 POP POP JUMP JUMPDEST PUSH0 PUSH1 0x20 DUP3 DUP5 SUB SLT ISZERO PUSH2 0x14F1 JUMPI PUSH2 0x14F0 PUSH2 0x14AE JUMP JUMPDEST JUMPDEST PUSH0 PUSH2 0x14FE DUP5 DUP3 DUP6 ADD PUSH2 0x14C8 JUMP JUMPDEST SWAP2 POP POP SWAP3 SWAP2 POP POP JUMP JUMPDEST PUSH0 DUP2 MLOAD SWAP1 POP SWAP2 SWAP1 POP JUMP JUMPDEST PUSH0 DUP3 DUP3 MSTORE PUSH1 0x20 DUP3 ADD SWAP1 POP SWAP3 SWAP2 POP POP JUMP JUMPDEST PUSH0 DUP2 SWAP1 POP PUSH1 0x20 DUP3 ADD SWAP1 POP SWAP2 SWAP1 POP JUMP JUMPDEST PUSH2 0x1539 DUP2 PUSH2 0x13CB JUMP JUMPDEST DUP3 MSTORE POP POP JUMP JUMPDEST PUSH0 PUSH2 0x154A DUP4 DUP4 PUSH2 0x1530 JUMP JUMPDEST PUSH1 0x20 DUP4 ADD SWAP1 POP SWAP3 SWAP2 POP POP JUMP JUMPDEST PUSH0 PUSH1 0x20 DUP3 ADD SWAP1 POP SWAP2 SWAP1 POP JUMP JUMPDEST PUSH0 PUSH2 0x156C DUP3 PUSH2 0x1507 JUMP JUMPDEST PUSH2 0x1576 DUP2 DUP6 PUSH2 0x1511 JUMP JUMPDEST SWAP4 POP PUSH2 0x1581 DUP4 PUSH2 0x1521 JUMP JUMPDEST DUP1 PUSH0 JUMPDEST DUP4 DUP2 LT ISZERO PUSH2 0x15B1 JUMPI DUP2 MLOAD PUSH2 0x1598 DUP9 DUP3 PUSH2 0x153F JUMP JUMPDEST SWAP8 POP PUSH2 0x15A3 DUP4 PUSH2 0x1556 JUMP JUMPDEST SWAP3 POP POP PUSH1 0x1 DUP2 ADD SWAP1 POP PUSH2 0x1584 JUMP JUMPDEST POP DUP6 SWAP4 POP POP POP POP SWAP3 SWAP2 POP POP JUMP JUMPDEST PUSH0 PUSH1 0x20 DUP3 ADD SWAP1 POP DUP2 DUP2 SUB PUSH0 DUP4 ADD MSTORE PUSH2 0x15D6 DUP2 DUP5 PUSH2 0x1562 JUMP JUMPDEST SWAP1 POP SWAP3 SWAP2 POP POP JUMP JUMPDEST PUSH2 0x15E7 DUP2 PUSH2 0x13EB JUMP JUMPDEST DUP2 EQ PUSH2 0x15F1 JUMPI PUSH0 PUSH0 REVERT JUMPDEST POP JUMP JUMPDEST PUSH0 DUP2 CALLDATALOAD SWAP1 POP PUSH2 0x1602 DUP2 PUSH2 0x15DE JUMP JUMPDEST SWAP3 SWAP2 POP POP JUMP JUMPDEST PUSH0 PUSH0 PUSH0 PUSH1 0x60 DUP5 DUP7 SUB SLT ISZERO PUSH2 0x161F JUMPI PUSH2 0x161E PUSH2 0x14AE JUMP JUMPDEST JUMPDEST PUSH0 PUSH2 0x162C DUP7 DUP3 DUP8 ADD PUSH2 0x14C8 JUMP JUMPDEST SWAP4 POP POP PUSH1 0x20 PUSH2 0x163D DUP7 DUP3 DUP8 ADD PUSH2 0x15F4 JUMP JUMPDEST SWAP3 POP POP PUSH1 0x40 PUSH2 0x164E DUP7 DUP3 DUP8 ADD PUSH2 0x14C8 JUMP JUMPDEST SWAP2 POP POP SWAP3 POP SWAP3 POP SWAP3 JUMP JUMPDEST PUSH2 0x1661 DUP2 PUSH2 0x13CB JUMP JUMPDEST DUP2 EQ PUSH2 0x166B JUMPI PUSH0 PUSH0 REVERT JUMPDEST POP JUMP JUMPDEST PUSH0 DUP2 CALLDATALOAD SWAP1 POP PUSH2 0x167C DUP2 PUSH2 0x1658 JUMP JUMPDEST SWAP3 SWAP2 POP POP JUMP JUMPDEST PUSH0 PUSH1 0x20 DUP3 DUP5 SUB SLT ISZERO PUSH2 0x1697 JUMPI PUSH2 0x1696 PUSH2 0x14AE JUMP JUMPDEST JUMPDEST PUSH0 PUSH2 0x16A4 DUP5 DUP3 DUP6 ADD PUSH2 0x166E JUMP JUMPDEST SWAP2 POP POP SWAP3 SWAP2 POP POP JUMP JUMPDEST PUSH0 PUSH1 0x80 DUP3 ADD SWAP1 POP PUSH2 0x16C0 PUSH0 DUP4 ADD DUP8 PUSH2 0x13BC JUMP JUMPDEST PUSH2 0x16CD PUSH1 0x20 DUP4 ADD DUP7 PUSH2 0x13BC JUMP JUMPDEST PUSH2 0x16DA PUSH1 0x40 DUP4 ADD DUP6 PUSH2 0x13BC JUMP JUMPDEST PUSH2 0x16E7 PUSH1 0x60 DUP4 ADD DUP5 PUSH2 0x13BC JUMP JUMPDEST SWAP6 SWAP5 POP POP POP POP POP JUMP JUMPDEST PUSH0 PUSH1 0x20 DUP3 ADD SWAP1 POP PUSH2 0x1703 PUSH0 DUP4 ADD DUP5 PUSH2 0x13DC JUMP JUMPDEST SWAP3 SWAP2 POP POP JUMP JUMPDEST PUSH0 PUSH1 0x20 DUP3 ADD SWAP1 POP PUSH2 0x171C PUSH0 DUP4 ADD DUP5 PUSH2 0x13BC JUMP JUMPDEST SWAP3 SWAP2 POP POP JUMP JUMPDEST PUSH0 PUSH0 PUSH0 PUSH0 PUSH1 0x80 DUP6 DUP8 SUB SLT ISZERO PUSH2 0x173A JUMPI PUSH2 0x1739 PUSH2 0x14AE JUMP JUMPDEST JUMPDEST PUSH0 PUSH2 0x1747 DUP8 DUP3 DUP9 ADD PUSH2 0x14C8 JUMP JUMPDEST SWAP5 POP POP PUSH1 0x20 PUSH2 0x1758 DUP8 DUP3 DUP9 ADD PUSH2 0x14C8 JUMP JUMPDEST SWAP4 POP POP PUSH1 0x40 PUSH2 0x1769 DUP8 DUP3 DUP9 ADD PUSH2 0x14C8 JUMP JUMPDEST SWAP3 POP POP PUSH1 0x60 PUSH2 0x177A DUP8 DUP3 DUP9 ADD PUSH2 0x14C8 JUMP JUMPDEST SWAP2 POP POP SWAP3 SWAP6 SWAP2 SWAP5 POP SWAP3 POP JUMP JUMPDEST PUSH0 DUP3 DUP3 MSTORE PUSH1 0x20 DUP3 ADD SWAP1 POP SWAP3 SWAP2 POP POP JUMP JUMPDEST PUSH32 0x506F6F6C20697320706175736564000000000000000000000000000000000000 PUSH0 DUP3 ADD MSTORE POP JUMP JUMPDEST PUSH0 PUSH2 0x17CA PUSH1 0xE DUP4 PUSH2 0x1786 JUMP JUMPDEST SWAP2 POP PUSH2 0x17D5 DUP3 PUSH2 0x1796 JUMP JUMPDEST PUSH1 0x20 DUP3 ADD SWAP1 POP SWAP2 SWAP1 POP JUMP JUMPDEST PUSH0 PUSH1 0x20 DUP3 ADD SWAP1 POP DUP2 DUP2 SUB PUSH0 DUP4 ADD MSTORE PUSH2 0x17F7 DUP2 PUSH2 0x17BE JUMP JUMPDEST SWAP1 POP SWAP2 SWAP1 POP JUMP JUMPDEST PUSH32 0x416D6F756E74206D7573742062652067726561746572207468616E207A65726F PUSH0 DUP3 ADD MSTORE POP JUMP JUMPDEST PUSH0 PUSH2 0x1832 PUSH1 0x20 DUP4 PUSH2 0x1786 JUMP JUMPDEST SWAP2 POP PUSH2 0x183D DUP3 PUSH2 0x17FE JUMP JUMPDEST PUSH1 0x20 DUP3 ADD SWAP1 POP SWAP2 SWAP1 POP JUMP JUMPDEST PUSH0 PUSH1 0x20 DUP3 ADD SWAP1 POP DUP2 DUP2 SUB PUSH0 DUP4 ADD MSTORE PUSH2 0x185F DUP2 PUSH2 0x1826 JUMP JUMPDEST SWAP1 POP SWAP2 SWAP1 POP JUMP JUMPDEST PUSH32 0x496E73756666696369656E742062616C616E6365000000000000000000000000 PUSH0 DUP3 ADD MSTORE POP JUMP JUMPDEST PUSH0 PUSH2 0x189A PUSH1 0x14 DUP4 PUSH2 0x1786 JUMP JUMPDEST SWAP2 POP PUSH2 0x18A5 DUP3 PUSH2 0x1866 JUMP JUMPDEST PUSH1 0x20 DUP3 ADD SWAP1 POP SWAP2 SWAP1 POP JUMP JUMPDEST PUSH0 PUSH1 0x20 DUP3 ADD SWAP1 POP DUP2 DUP2 SUB PUSH0 DUP4 ADD MSTORE PUSH2 0x18C7 DUP2 PUSH2 0x188E JUMP JUMPDEST SWAP1 POP SWAP2 SWAP1 POP JUMP JUMPDEST PUSH32 0x5374616B65206973207374696C6C206C6F636B65640000000000000000000000 PUSH0 DUP3 ADD MSTORE POP JUMP JUMPDEST PUSH0 PUSH2 0x1902 PUSH1 0x15 DUP4 PUSH2 0x1786 JUMP JUMPDEST SWAP2 POP PUSH2 0x190D DUP3 PUSH2 0x18CE JUMP JUMPDEST PUSH1 0x20 DUP3 ADD SWAP1 POP SWAP2 SWAP1 POP JUMP JUMPDEST PUSH0 PUSH1 0x20 DUP3 ADD SWAP1 POP DUP2 DUP2 SUB PUSH0 DUP4 ADD MSTORE PUSH2 0x192F DUP2 PUSH2 0x18F6 JUMP JUMPDEST SWAP1 POP SWAP2 SWAP1 POP JUMP JUMPDEST PUSH32 0x4E487B7100000000000000000000000000000000000000000000000000000000 PUSH0 MSTORE PUSH1 0x11 PUSH1 0x4 MSTORE PUSH1 0x24 PUSH0 REVERT JUMPDEST PUSH0 PUSH2 0x196D DUP3 PUSH2 0x13B3 JUMP JUMPDEST SWAP2 POP PUSH2 0x1978 DUP4 PUSH2 0x13B3 JUMP JUMPDEST SWAP3 POP DUP3 DUP3 MUL PUSH2 0x1986 DUP2 PUSH2 0x13B3 JUMP JUMPDEST SWAP2 POP DUP3 DUP3 DIV DUP5 EQ DUP4 ISZERO OR PUSH2 0x199D JUMPI PUSH2 0x199C PUSH2 0x1936 JUMP JUMPDEST JUMPDEST POP SWAP3 SWAP2 POP POP JUMP JUMPDEST PUSH32 0x4E487B7100000000000000000000000000000000000000000000000000000000 PUSH0 MSTORE PUSH1 0x12 PUSH1 0x4 MSTORE PUSH1 0x24 PUSH0 REVERT JUMPDEST PUSH0 PUSH2 0x19DB DUP3 PUSH2 0x13B3 JUMP JUMPDEST SWAP2 POP PUSH2 0x19E6 DUP4 PUSH2 0x13B3 JUMP JUMPDEST SWAP3 POP DUP3 PUSH2 0x19F6 JUMPI PUSH2 0x19F5 PUSH2 0x19A4 JUMP JUMPDEST JUMPDEST DUP3 DUP3 DIV SWAP1 POP SWAP3 SWAP2 POP POP JUMP JUMPDEST PUSH0 PUSH2 0x1A0B DUP3 PUSH2 0x13B3 JUMP JUMPDEST SWAP2 POP PUSH2 0x1A16 DUP4 PUSH2 0x13B3 JUMP JUMPDEST SWAP3 POP DUP3 DUP3 SUB SWAP1 POP DUP2 DUP2 GT ISZERO PUSH2 0x1A2E JUMPI PUSH2 0x1A2D PUSH2 0x1936 JUMP JUMPDEST JUMPDEST SWAP3 SWAP2 POP POP JUMP JUMPDEST PUSH0 PUSH2 0x1A3E DUP3 PUSH2 0x13B3 JUMP JUMPDEST SWAP2 POP PUSH2 0x1A49 DUP4 PUSH2 0x13B3 JUMP JUMPDEST SWAP3 POP DUP3 DUP3 ADD SWAP1 POP DUP1 DUP3 GT ISZERO PUSH2 0x1A61 JUMPI PUSH2 0x1A60 PUSH2 0x1936 JUMP JUMPDEST JUMPDEST SWAP3 SWAP2 POP POP JUMP JUMPDEST PUSH0 PUSH1 0x40 DUP3 ADD SWAP1 POP PUSH2 0x1A7A PUSH0 DUP4 ADD DUP6 PUSH2 0x13DC JUMP JUMPDEST PUSH2 0x1A87 PUSH1 0x20 DUP4 ADD DUP5 PUSH2 0x13BC JUMP JUMPDEST SWAP4 SWAP3 POP POP POP JUMP JUMPDEST PUSH0 DUP2 MLOAD SWAP1 POP PUSH2 0x1A9C DUP2 PUSH2 0x15DE JUMP JUMPDEST SWAP3 SWAP2 POP POP JUMP JUMPDEST PUSH0 PUSH1 0x20 DUP3 DUP5 SUB SLT ISZERO PUSH2 0x1AB7 JUMPI PUSH2 0x1AB6 PUSH2 0x14AE JUMP JUMPDEST JUMPDEST PUSH0 PUSH2 0x1AC4 DUP5 DUP3 DUP6 ADD PUSH2 0x1A8E JUMP JUMPDEST SWAP2 POP POP SWAP3 SWAP2 POP POP JUMP JUMPDEST PUSH0 PUSH1 0x60 DUP3 ADD SWAP1 POP PUSH2 0x1AE0 PUSH0 DUP4 ADD DUP7 PUSH2 0x13BC JUMP JUMPDEST PUSH2 0x1AED PUSH1 0x20 DUP4 ADD DUP6 PUSH2 0x13BC JUMP JUMPDEST PUSH2 0x1AFA PUSH1 0x40 DUP4 ADD DUP5 PUSH2 0x13BC JUMP JUMPDEST SWAP5 SWAP4 POP POP POP POP JUMP JUMPDEST PUSH32 0x4465706F73697420657863656564732075736572206C696D6974000000000000 PUSH0 DUP3 ADD MSTORE POP JUMP JUMPDEST PUSH0 PUSH2 0x1B36 PUSH1 0x1A DUP4 PUSH2 0x1786 JUMP JUMPDEST SWAP2 POP PUSH2 0x1B41 DUP3 PUSH2 0x1B02 JUMP JUMPDEST PUSH1 0x20 DUP3 ADD SWAP1 POP SWAP2 SWAP1 POP JUMP JUMPDEST PUSH0 PUSH1 0x20 DUP3 ADD SWAP1 POP DUP2 DUP2 SUB PUSH0 DUP4 ADD MSTORE PUSH2 0x1B63 DUP2 PUSH2 0x1B2A JUMP JUMPDEST SWAP1 POP SWAP2 SWAP1 POP JUMP JUMPDEST PUSH32 0x506F6F6C206C6971756964697479206578636565646564000000000000000000 PUSH0 DUP3 ADD MSTORE POP JUMP JUMPDEST PUSH0 PUSH2 0x1B9E PUSH1 0x17 DUP4 PUSH2 0x1786 JUMP JUMPDEST SWAP2 POP PUSH2 0x1BA9 DUP3 PUSH2 0x1B6A JUMP JUMPDEST PUSH1 0x20 DUP3 ADD SWAP1 POP SWAP2 SWAP1 POP JUMP JUMPDEST PUSH0 PUSH1 0x20 DUP3 ADD SWAP1 POP DUP2 DUP2 SUB PUSH0 DUP4 ADD MSTORE PUSH2 0x1BCB DUP2 PUSH2 0x1B92 JUMP JUMPDEST SWAP1 POP SWAP2 SWAP1 POP JUMP JUMPDEST PUSH0 PUSH1 0x60 DUP3 ADD SWAP1 POP PUSH2 0x1BE5 PUSH0 DUP4 ADD DUP7 PUSH2 0x13DC JUMP JUMPDEST PUSH2 0x1BF2 PUSH1 0x20 DUP4 ADD DUP6 PUSH2 0x13DC JUMP JUMPDEST PUSH2 0x1BFF PUSH1 0x40 DUP4 ADD DUP5 PUSH2 0x13BC JUMP JUMPDEST SWAP5 SWAP4 POP POP POP POP JUMP JUMPDEST PUSH0 PUSH1 0x60 DUP3 ADD SWAP1 POP PUSH2 0x1C1A PUSH0 DUP4 ADD DUP7 PUSH2 0x13BC JUMP JUMPDEST PUSH2 0x1C27 PUSH1 0x20 DUP4 ADD DUP6 PUSH2 0x13BC JUMP JUMPDEST PUSH2 0x1C34 PUSH1 0x40 DUP4 ADD DUP5 PUSH2 0x13F6 JUMP JUMPDEST SWAP5 SWAP4 POP POP POP POP JUMP JUMPDEST PUSH32 0x4E6F206665657320746F20646973747269627574650000000000000000000000 PUSH0 DUP3 ADD MSTORE POP JUMP JUMPDEST PUSH0 PUSH2 0x1C70 PUSH1 0x15 DUP4 PUSH2 0x1786 JUMP JUMPDEST SWAP2 POP PUSH2 0x1C7B DUP3 PUSH2 0x1C3C JUMP JUMPDEST PUSH1 0x20 DUP3 ADD SWAP1 POP SWAP2 SWAP1 POP JUMP JUMPDEST PUSH0 PUSH1 0x20 DUP3 ADD SWAP1 POP DUP2 DUP2 SUB PUSH0 DUP4 ADD MSTORE PUSH2 0x1C9D DUP2 PUSH2 0x1C64 JUMP JUMPDEST SWAP1 POP SWAP2 SWAP1 POP JUMP JUMPDEST PUSH32 0x4E487B7100000000000000000000000000000000000000000000000000000000 PUSH0 MSTORE PUSH1 0x32 PUSH1 0x4 MSTORE PUSH1 0x24 PUSH0 REVERT JUMPDEST PUSH0 PUSH1 0x20 DUP3 ADD SWAP1 POP PUSH2 0x1CE4 PUSH0 DUP4 ADD DUP5 PUSH2 0x13F6 JUMP JUMPDEST SWAP3 SWAP2 POP POP JUMP JUMPDEST PUSH32 0x4E6F7468696E6720746F20776974686472617700000000000000000000000000 PUSH0 DUP3 ADD MSTORE POP JUMP JUMPDEST PUSH0 PUSH2 0x1D1E PUSH1 0x13 DUP4 PUSH2 0x1786 JUMP JUMPDEST SWAP2 POP PUSH2 0x1D29 DUP3 PUSH2 0x1CEA JUMP JUMPDEST PUSH1 0x20 DUP3 ADD SWAP1 POP SWAP2 SWAP1 POP JUMP JUMPDEST PUSH0 PUSH1 0x20 DUP3 ADD SWAP1 POP DUP2 DUP2 SUB PUSH0 DUP4 ADD MSTORE PUSH2 0x1D4B DUP2 PUSH2 0x1D12 JUMP JUMPDEST SWAP1 POP SWAP2 SWAP1 POP JUMP JUMPDEST PUSH32 0x4E487B7100000000000000000000000000000000000000000000000000000000 PUSH0 MSTORE PUSH1 0x31 PUSH1 0x4 MSTORE PUSH1 0x24 PUSH0 REVERT INVALID LOG2 PUSH5 0x6970667358 0x22 SLT KECCAK256 0x4C DIV 0xC0 BLOCKHASH SELFBALANCE DUP14 PUSH3 0x134FBB CALLVALUE 0xBB MSTORE PUSH20 0xC481FBFE2B010B99BAC8363E692C8D94D9DD6473 PUSH16 0x6C634300081C00330000000000000000 "
				},
				"gasEstimates": {
					"creation": {
						"codeDepositCost": "1521000",
						"executionCost": "infinite",
						"totalCost": "infinite"
					},
					"external": {
						"calculateBoostedReward(uint256,uint256,uint256,uint256)": "infinite",
						"distributeFees()": "infinite",
						"emergencyWithdraw()": "infinite",
						"feePool()": "2448",
						"getStakers()": "infinite",
						"owner()": "2603",
						"pool()": "infinite",
						"renounceOwnership()": "infinite",
						"stake(uint256,bool,uint256)": "infinite",
						"stakers(uint256)": "5032",
						"togglePause()": "infinite",
						"transferOwnership(address)": "infinite",
						"userPositions(address)": "infinite",
						"withdraw(uint256)": "infinite"
					},
					"internal": {
						"removeStaker(address)": "infinite"
					}
				},
				"methodIdentifiers": {
					"calculateBoostedReward(uint256,uint256,uint256,uint256)": "bf5cf656",
					"distributeFees()": "bb57ad20",
					"emergencyWithdraw()": "db2e21bc",
					"feePool()": "ae2e933b",
					"getStakers()": "43352d61",
					"owner()": "8da5cb5b",
					"pool()": "16f0115b",
					"renounceOwnership()": "715018a6",
					"stake(uint256,bool,uint256)": "447da8a6",
					"stakers(uint256)": "fd5e6dd1",
					"togglePause()": "c4ae3168",
					"transferOwnership(address)": "f2fde38b",
					"userPositions(address)": "613cf420",
					"withdraw(uint256)": "2e1a7d4d"
				}
			},
			"storageLayout": {
				"storage": [
					{
						"astId": 8,
						"contract": "contracts/BondingYieldFarm.sol:BondingYieldFarm",
						"label": "_owner",
						"offset": 0,
						"slot": "0",
						"type": "t_address"
					},
					{
						"astId": 300,
						"contract": "contracts/BondingYieldFarm.sol:BondingYieldFarm",
						"label": "pool",
						"offset": 0,
						"slot": "1",
						"type": "t_struct(Pool)287_storage"
					},
					{
						"astId": 305,
						"contract": "contracts/BondingYieldFarm.sol:BondingYieldFarm",
						"label": "userPositions",
						"offset": 0,
						"slot": "12",
						"type": "t_mapping(t_address,t_struct(UserPosition)297_storage)"
					},
					{
						"astId": 308,
						"contract": "contracts/BondingYieldFarm.sol:BondingYieldFarm",
						"label": "stakers",
						"offset": 0,
						"slot": "13",
						"type": "t_array(t_address)dyn_storage"
					},
					{
						"astId": 310,
						"contract": "contracts/BondingYieldFarm.sol:BondingYieldFarm",
						"label": "feePool",
						"offset": 0,
						"slot": "14",
						"type": "t_uint256"
					}
				],
				"types": {
					"t_address": {
						"encoding": "inplace",
						"label": "address",
						"numberOfBytes": "20"
					},
					"t_array(t_address)dyn_storage": {
						"base": "t_address",
						"encoding": "dynamic_array",
						"label": "address[]",
						"numberOfBytes": "32"
					},
					"t_bool": {
						"encoding": "inplace",
						"label": "bool",
						"numberOfBytes": "1"
					},
					"t_contract(IERC20)225": {
						"encoding": "inplace",
						"label": "contract IERC20",
						"numberOfBytes": "20"
					},
					"t_mapping(t_address,t_struct(UserPosition)297_storage)": {
						"encoding": "mapping",
						"key": "t_address",
						"label": "mapping(address => struct BondingYieldFarm.UserPosition)",
						"numberOfBytes": "32",
						"value": "t_struct(UserPosition)297_storage"
					},
					"t_struct(Pool)287_storage": {
						"encoding": "inplace",
						"label": "struct BondingYieldFarm.Pool",
						"members": [
							{
								"astId": 266,
								"contract": "contracts/BondingYieldFarm.sol:BondingYieldFarm",
								"label": "token",
								"offset": 0,
								"slot": "0",
								"type": "t_contract(IERC20)225"
							},
							{
								"astId": 268,
								"contract": "contracts/BondingYieldFarm.sol:BondingYieldFarm",
								"label": "totalLiquidity",
								"offset": 0,
								"slot": "1",
								"type": "t_uint256"
							},
							{
								"astId": 270,
								"contract": "contracts/BondingYieldFarm.sol:BondingYieldFarm",
								"label": "rewardCoefficient",
								"offset": 0,
								"slot": "2",
								"type": "t_uint256"
							},
							{
								"astId": 272,
								"contract": "contracts/BondingYieldFarm.sol:BondingYieldFarm",
								"label": "feeRate",
								"offset": 0,
								"slot": "3",
								"type": "t_uint256"
							},
							{
								"astId": 274,
								"contract": "contracts/BondingYieldFarm.sol:BondingYieldFarm",
								"label": "lastUpdate",
								"offset": 0,
								"slot": "4",
								"type": "t_uint256"
							},
							{
								"astId": 276,
								"contract": "contracts/BondingYieldFarm.sol:BondingYieldFarm",
								"label": "topStaker",
								"offset": 0,
								"slot": "5",
								"type": "t_address"
							},
							{
								"astId": 278,
								"contract": "contracts/BondingYieldFarm.sol:BondingYieldFarm",
								"label": "topStakerAmount",
								"offset": 0,
								"slot": "6",
								"type": "t_uint256"
							},
							{
								"astId": 280,
								"contract": "contracts/BondingYieldFarm.sol:BondingYieldFarm",
								"label": "totalRewardsDistributed",
								"offset": 0,
								"slot": "7",
								"type": "t_uint256"
							},
							{
								"astId": 282,
								"contract": "contracts/BondingYieldFarm.sol:BondingYieldFarm",
								"label": "maxDepositPerUser",
								"offset": 0,
								"slot": "8",
								"type": "t_uint256"
							},
							{
								"astId": 284,
								"contract": "contracts/BondingYieldFarm.sol:BondingYieldFarm",
								"label": "totalMaxLiquidity",
								"offset": 0,
								"slot": "9",
								"type": "t_uint256"
							},
							{
								"astId": 286,
								"contract": "contracts/BondingYieldFarm.sol:BondingYieldFarm",
								"label": "isPaused",
								"offset": 0,
								"slot": "10",
								"type": "t_bool"
							}
						],
						"numberOfBytes": "352"
					},
					"t_struct(UserPosition)297_storage": {
						"encoding": "inplace",
						"label": "struct BondingYieldFarm.UserPosition",
						"members": [
							{
								"astId": 290,
								"contract": "contracts/BondingYieldFarm.sol:BondingYieldFarm",
								"label": "amount",
								"offset": 0,
								"slot": "0",
								"type": "t_uint256"
							},
							{
								"astId": 292,
								"contract": "contracts/BondingYieldFarm.sol:BondingYieldFarm",
								"label": "stakeTime",
								"offset": 0,
								"slot": "1",
								"type": "t_uint256"
							},
							{
								"astId": 294,
								"contract": "contracts/BondingYieldFarm.sol:BondingYieldFarm",
								"label": "unlockTime",
								"offset": 0,
								"slot": "2",
								"type": "t_uint256"
							},
							{
								"astId": 296,
								"contract": "contracts/BondingYieldFarm.sol:BondingYieldFarm",
								"label": "feeShare",
								"offset": 0,
								"slot": "3",
								"type": "t_uint256"
							}
						],
						"numberOfBytes": "128"
					},
					"t_uint256": {
						"encoding": "inplace",
						"label": "uint256",
						"numberOfBytes": "32"
					}
				}
			},
			"userdoc": {
				"kind": "user",
				"methods": {
					"calculateBoostedReward(uint256,uint256,uint256,uint256)": {
						"notice": "Calculate the boosted rewards based on the staked amount, stake time, last update time, and the pool's reward coefficient."
					},
					"constructor": {
						"notice": "Constructor to initialize the contract with initial parameters"
					},
					"distributeFees()": {
						"notice": "Distribute accumulated fees to all stakers proportionally to their stake amounts."
					},
					"emergencyWithdraw()": {
						"notice": "Allow a user to withdraw their entire stake immediately in an emergency (bypassing lockups and fees)."
					},
					"getStakers()": {
						"notice": "Get the list of all stakers in the pool."
					},
					"stake(uint256,bool,uint256)": {
						"notice": "Stake a certain amount of tokens into the pool and optionally auto-compound rewards."
					},
					"togglePause()": {
						"notice": "Toggle the paused state of the pool (only callable by the owner)."
					},
					"withdraw(uint256)": {
						"notice": "Withdraw a specified amount of tokens from the pool, subject to withdrawal fees and lockup periods."
					}
				},
				"version": 1
			}
		}
	}
}